{
	"Contracts/StoreMap.sol": {
		"StoreMap": {
			"abi": [
				{
					"constant": false,
					"inputs": [
						{
							"internalType": "bytes32",
							"name": "hash",
							"type": "bytes32"
						},
						{
							"internalType": "uint256",
							"name": "gid",
							"type": "uint256"
						}
					],
					"name": "add_area_line",
					"outputs": [],
					"payable": false,
					"stateMutability": "nonpayable",
					"type": "function"
				},
				{
					"constant": false,
					"inputs": [
						{
							"internalType": "uint256",
							"name": "gid",
							"type": "uint256"
						},
						{
							"internalType": "int32",
							"name": "minzoom",
							"type": "int32"
						},
						{
							"internalType": "int32",
							"name": "cost",
							"type": "int32"
						},
						{
							"internalType": "int32",
							"name": "source",
							"type": "int32"
						},
						{
							"internalType": "int32",
							"name": "target",
							"type": "int32"
						},
						{
							"internalType": "bool",
							"name": "oneway",
							"type": "bool"
						},
						{
							"internalType": "bool",
							"name": "building",
							"type": "bool"
						},
						{
							"internalType": "bytes32",
							"name": "highway",
							"type": "bytes32"
						},
						{
							"internalType": "bytes32",
							"name": "name",
							"type": "bytes32"
						},
						{
							"internalType": "bytes32",
							"name": "gtype",
							"type": "bytes32"
						},
						{
							"internalType": "bytes32[]",
							"name": "path",
							"type": "bytes32[]"
						}
					],
					"name": "add_onetype",
					"outputs": [],
					"payable": false,
					"stateMutability": "nonpayable",
					"type": "function"
				},
				{
					"constant": true,
					"inputs": [
						{
							"internalType": "bytes32",
							"name": "",
							"type": "bytes32"
						}
					],
					"name": "adjacencyList",
					"outputs": [
						{
							"internalType": "uint256",
							"name": "adjnum",
							"type": "uint256"
						}
					],
					"payable": false,
					"stateMutability": "view",
					"type": "function"
				},
				{
					"constant": false,
					"inputs": [
						{
							"internalType": "bytes32",
							"name": "startGeohash",
							"type": "bytes32"
						},
						{
							"internalType": "bytes32",
							"name": "endGeohash",
							"type": "bytes32"
						}
					],
					"name": "astar",
					"outputs": [
						{
							"internalType": "bytes32[]",
							"name": "backwards",
							"type": "bytes32[]"
						},
						{
							"internalType": "uint256",
							"name": "costAll",
							"type": "uint256"
						}
					],
					"payable": false,
					"stateMutability": "nonpayable",
					"type": "function"
				},
				{
					"constant": false,
					"inputs": [
						{
							"internalType": "uint256",
							"name": "newP",
							"type": "uint256"
						}
					],
					"name": "changeP",
					"outputs": [
						{
							"internalType": "uint256",
							"name": "",
							"type": "uint256"
						}
					],
					"payable": false,
					"stateMutability": "nonpayable",
					"type": "function"
				},
				{
					"constant": false,
					"inputs": [
						{
							"internalType": "uint256",
							"name": "newPrecision",
							"type": "uint256"
						}
					],
					"name": "changePrecision",
					"outputs": [
						{
							"internalType": "uint256",
							"name": "",
							"type": "uint256"
						}
					],
					"payable": false,
					"stateMutability": "nonpayable",
					"type": "function"
				},
				{
					"constant": false,
					"inputs": [],
					"name": "dequeue",
					"outputs": [],
					"payable": false,
					"stateMutability": "nonpayable",
					"type": "function"
				},
				{
					"constant": false,
					"inputs": [
						{
							"internalType": "bytes32",
							"name": "geohash",
							"type": "bytes32"
						},
						{
							"internalType": "uint256",
							"name": "cost",
							"type": "uint256"
						}
					],
					"name": "enqueue",
					"outputs": [],
					"payable": false,
					"stateMutability": "nonpayable",
					"type": "function"
				},
				{
					"constant": true,
					"inputs": [
						{
							"internalType": "bytes32",
							"name": "",
							"type": "bytes32"
						}
					],
					"name": "geo_maps",
					"outputs": [
						{
							"internalType": "uint256",
							"name": "num",
							"type": "uint256"
						}
					],
					"payable": false,
					"stateMutability": "view",
					"type": "function"
				},
				{
					"constant": true,
					"inputs": [
						{
							"internalType": "string",
							"name": "geohash",
							"type": "string"
						}
					],
					"name": "getLatBlock",
					"outputs": [
						{
							"internalType": "uint256",
							"name": "",
							"type": "uint256"
						}
					],
					"payable": false,
					"stateMutability": "view",
					"type": "function"
				},
				{
					"constant": true,
					"inputs": [
						{
							"internalType": "string",
							"name": "geohash",
							"type": "string"
						}
					],
					"name": "getLonBlock",
					"outputs": [
						{
							"internalType": "uint256",
							"name": "",
							"type": "uint256"
						}
					],
					"payable": false,
					"stateMutability": "view",
					"type": "function"
				},
				{
					"constant": true,
					"inputs": [
						{
							"internalType": "bytes32",
							"name": "hash",
							"type": "bytes32"
						}
					],
					"name": "get_types",
					"outputs": [
						{
							"internalType": "int32[]",
							"name": "feature",
							"type": "int32[]"
						},
						{
							"internalType": "bytes32[]",
							"name": "names",
							"type": "bytes32[]"
						},
						{
							"internalType": "bytes32[]",
							"name": "highways",
							"type": "bytes32[]"
						},
						{
							"internalType": "bytes32[]",
							"name": "gtypes",
							"type": "bytes32[]"
						},
						{
							"internalType": "bytes32[]",
							"name": "path",
							"type": "bytes32[]"
						}
					],
					"payable": false,
					"stateMutability": "view",
					"type": "function"
				},
				{
					"constant": true,
					"inputs": [
						{
							"internalType": "bytes32",
							"name": "nextGeohash",
							"type": "bytes32"
						},
						{
							"internalType": "bytes32",
							"name": "endGeohash",
							"type": "bytes32"
						}
					],
					"name": "manhattan",
					"outputs": [
						{
							"internalType": "uint256",
							"name": "",
							"type": "uint256"
						}
					],
					"payable": false,
					"stateMutability": "view",
					"type": "function"
				},
				{
					"constant": true,
					"inputs": [
						{
							"internalType": "bytes32",
							"name": "geohash1",
							"type": "bytes32"
						},
						{
							"internalType": "bytes32",
							"name": "geohash2",
							"type": "bytes32"
						}
					],
					"name": "sliceGeoHash",
					"outputs": [
						{
							"internalType": "string",
							"name": "",
							"type": "string"
						},
						{
							"internalType": "string",
							"name": "",
							"type": "string"
						}
					],
					"payable": false,
					"stateMutability": "view",
					"type": "function"
				},
				{
					"constant": true,
					"inputs": [],
					"name": "top",
					"outputs": [
						{
							"internalType": "bytes32",
							"name": "",
							"type": "bytes32"
						}
					],
					"payable": false,
					"stateMutability": "view",
					"type": "function"
				}
			],
			"devdoc": {
				"methods": {}
			},
			"evm": {
				"assembly": "    /* \"Contracts/StoreMap.sol\":53:11312  contract StoreMap{... */\n  mstore(0x40, 0x80)\n    /* \"Contracts/StoreMap.sol\":1116:1117  1 */\n  0x01\n    /* \"Contracts/StoreMap.sol\":1104:1117  uint256 P = 1 */\n  0x03\n  sstore\n    /* \"Contracts/StoreMap.sol\":7500:7501  8 */\n  0x08\n    /* \"Contracts/StoreMap.sol\":7480:7501  uint256 PRECISION = 8 */\n  0x0a\n  sstore\n    /* \"Contracts/StoreMap.sol\":8424:8457  uint256[] Bits = [16, 8, 4, 2, 1] */\n  mload(0x40)\n  dup1\n  0xa0\n  add\n  0x40\n  mstore\n  dup1\n    /* \"Contracts/StoreMap.sol\":8442:8444  16 */\n  0x10\n    /* \"Contracts/StoreMap.sol\":8424:8457  uint256[] Bits = [16, 8, 4, 2, 1] */\n  0xff\n  and\n  dup2\n  mstore\n  0x20\n  add\n    /* \"Contracts/StoreMap.sol\":8446:8447  8 */\n  0x08\n    /* \"Contracts/StoreMap.sol\":8424:8457  uint256[] Bits = [16, 8, 4, 2, 1] */\n  0xff\n  and\n  dup2\n  mstore\n  0x20\n  add\n    /* \"Contracts/StoreMap.sol\":8449:8450  4 */\n  0x04\n    /* \"Contracts/StoreMap.sol\":8424:8457  uint256[] Bits = [16, 8, 4, 2, 1] */\n  0xff\n  and\n  dup2\n  mstore\n  0x20\n  add\n    /* \"Contracts/StoreMap.sol\":8452:8453  2 */\n  0x02\n    /* \"Contracts/StoreMap.sol\":8424:8457  uint256[] Bits = [16, 8, 4, 2, 1] */\n  0xff\n  and\n  dup2\n  mstore\n  0x20\n  add\n    /* \"Contracts/StoreMap.sol\":8455:8456  1 */\n  0x01\n    /* \"Contracts/StoreMap.sol\":8424:8457  uint256[] Bits = [16, 8, 4, 2, 1] */\n  0xff\n  and\n  dup2\n  mstore\n  pop\n  0x0b\n  swap1\n  0x05\n  tag_1\n  swap3\n  swap2\n  swap1\n  tag_2\n  jump\t// in\ntag_1:\n  pop\n    /* \"Contracts/StoreMap.sol\":8460:8510  string Base32 = \"0123456789bcdefghjkmnpqrstuvwxyz\" */\n  mload(0x40)\n  dup1\n  0x40\n  add\n  0x40\n  mstore\n  dup1\n  0x20\n  dup2\n  mstore\n  0x20\n  add\n  0x30313233343536373839626364656667686a6b6d6e707172737475767778797a\n  dup2\n  mstore\n  pop\n  0x0c\n  swap1\n  dup1\n  mload\n  swap1\n  0x20\n  add\n  swap1\n  tag_3\n  swap3\n  swap2\n  swap1\n  tag_4\n  jump\t// in\ntag_3:\n  pop\n    /* \"Contracts/StoreMap.sol\":53:11312  contract StoreMap{... */\n  callvalue\n    /* \"--CODEGEN--\":8:17   */\n  dup1\n    /* \"--CODEGEN--\":5:7   */\n  iszero\n  tag_5\n  jumpi\n    /* \"--CODEGEN--\":30:31   */\n  0x00\n    /* \"--CODEGEN--\":27:28   */\n  dup1\n    /* \"--CODEGEN--\":20:32   */\n  revert\n    /* \"--CODEGEN--\":5:7   */\ntag_5:\n    /* \"Contracts/StoreMap.sol\":53:11312  contract StoreMap{... */\n  pop\n  jump(tag_6)\ntag_2:\n  dup3\n  dup1\n  sload\n  dup3\n  dup3\n  sstore\n  swap1\n  0x00\n  mstore\n  keccak256(0x00, 0x20)\n  swap1\n  dup2\n  add\n  swap3\n  dup3\n  iszero\n  tag_7\n  jumpi\n  swap2\n  0x20\n  mul\n  dup3\n  add\ntag_8:\n  dup3\n  dup2\n  gt\n  iszero\n  tag_9\n  jumpi\n  dup3\n  mload\n  dup3\n  swap1\n  0xff\n  and\n  swap1\n  sstore\n  swap2\n  0x20\n  add\n  swap2\n  swap1\n  0x01\n  add\n  swap1\n  jump(tag_8)\ntag_9:\ntag_7:\n  pop\n  swap1\n  pop\n  tag_10\n  swap2\n  swap1\n  tag_11\n  jump\t// in\ntag_10:\n  pop\n  swap1\n  jump\t// out\ntag_4:\n  dup3\n  dup1\n  sload\n  0x01\n  dup2\n  0x01\n  and\n  iszero\n  0x0100\n  mul\n  sub\n  and\n  0x02\n  swap1\n  div\n  swap1\n  0x00\n  mstore\n  keccak256(0x00, 0x20)\n  swap1\n  0x1f\n  add\n  0x20\n  swap1\n  div\n  dup2\n  add\n  swap3\n  dup3\n  0x1f\n  lt\n  tag_13\n  jumpi\n  dup1\n  mload\n  not(0xff)\n  and\n  dup4\n  dup1\n  add\n  or\n  dup6\n  sstore\n  jump(tag_12)\ntag_13:\n  dup3\n  dup1\n  add\n  0x01\n  add\n  dup6\n  sstore\n  dup3\n  iszero\n  tag_12\n  jumpi\n  swap2\n  dup3\n  add\ntag_14:\n  dup3\n  dup2\n  gt\n  iszero\n  tag_15\n  jumpi\n  dup3\n  mload\n  dup3\n  sstore\n  swap2\n  0x20\n  add\n  swap2\n  swap1\n  0x01\n  add\n  swap1\n  jump(tag_14)\ntag_15:\ntag_12:\n  pop\n  swap1\n  pop\n  tag_16\n  swap2\n  swap1\n  tag_11\n  jump\t// in\ntag_16:\n  pop\n  swap1\n  jump\t// out\ntag_11:\n  tag_17\n  swap2\n  swap1\ntag_18:\n  dup1\n  dup3\n  gt\n  iszero\n  tag_19\n  jumpi\n  0x00\n  dup2\n  0x00\n  swap1\n  sstore\n  pop\n  0x01\n  add\n  jump(tag_18)\ntag_19:\n  pop\n  swap1\n  jump\ntag_17:\n  swap1\n  jump\t// out\ntag_6:\n  dataSize(sub_0)\n  dup1\n  dataOffset(sub_0)\n  0x00\n  codecopy\n  0x00\n  return\nstop\n\nsub_0: assembly {\n        /* \"Contracts/StoreMap.sol\":53:11312  contract StoreMap{... */\n      mstore(0x40, 0x80)\n      callvalue\n        /* \"--CODEGEN--\":8:17   */\n      dup1\n        /* \"--CODEGEN--\":5:7   */\n      iszero\n      tag_1\n      jumpi\n        /* \"--CODEGEN--\":30:31   */\n      0x00\n        /* \"--CODEGEN--\":27:28   */\n      dup1\n        /* \"--CODEGEN--\":20:32   */\n      revert\n        /* \"--CODEGEN--\":5:7   */\n    tag_1:\n        /* \"Contracts/StoreMap.sol\":53:11312  contract StoreMap{... */\n      pop\n      jumpi(tag_2, lt(calldatasize, 0x04))\n      shr(0xe0, calldataload(0x00))\n      dup1\n      0xbc6331da\n      gt\n      tag_18\n      jumpi\n      dup1\n      0xd35a1d0d\n      gt\n      tag_19\n      jumpi\n      dup1\n      0xd35a1d0d\n      eq\n      tag_14\n      jumpi\n      dup1\n      0xf90e5ca9\n      eq\n      tag_15\n      jumpi\n      dup1\n      0xfdcd80aa\n      eq\n      tag_16\n      jumpi\n      dup1\n      0xfe6dcdba\n      eq\n      tag_17\n      jumpi\n      jump(tag_2)\n    tag_19:\n      dup1\n      0xbc6331da\n      eq\n      tag_10\n      jumpi\n      dup1\n      0xcbf3b01e\n      eq\n      tag_11\n      jumpi\n      dup1\n      0xcd3d7196\n      eq\n      tag_12\n      jumpi\n      dup1\n      0xd1cf2408\n      eq\n      tag_13\n      jumpi\n      jump(tag_2)\n    tag_18:\n      dup1\n      0x53f065fd\n      gt\n      tag_20\n      jumpi\n      dup1\n      0x53f065fd\n      eq\n      tag_6\n      jumpi\n      dup1\n      0x68ba6df9\n      eq\n      tag_7\n      jumpi\n      dup1\n      0x7f6d50c9\n      eq\n      tag_8\n      jumpi\n      dup1\n      0x957908d1\n      eq\n      tag_9\n      jumpi\n      jump(tag_2)\n    tag_20:\n      dup1\n      0x13372041\n      eq\n      tag_3\n      jumpi\n      dup1\n      0x3fb80582\n      eq\n      tag_4\n      jumpi\n      dup1\n      0x44cf2cd7\n      eq\n      tag_5\n      jumpi\n    tag_2:\n      0x00\n      dup1\n      revert\n        /* \"Contracts/StoreMap.sol\":10783:11310  function enqueue(bytes32 geohash, uint256 cost) public {... */\n    tag_3:\n      tag_21\n      0x04\n      dup1\n      calldatasize\n      sub\n        /* \"--CODEGEN--\":13:15   */\n      0x40\n        /* \"--CODEGEN--\":8:11   */\n      dup2\n        /* \"--CODEGEN--\":5:16   */\n      lt\n        /* \"--CODEGEN--\":2:4   */\n      iszero\n      tag_22\n      jumpi\n        /* \"--CODEGEN--\":29:30   */\n      0x00\n        /* \"--CODEGEN--\":26:27   */\n      dup1\n        /* \"--CODEGEN--\":19:31   */\n      revert\n        /* \"--CODEGEN--\":2:4   */\n    tag_22:\n        /* \"Contracts/StoreMap.sol\":10783:11310  function enqueue(bytes32 geohash, uint256 cost) public {... */\n      dup2\n      add\n      swap1\n      dup1\n      dup1\n      calldataload\n      swap1\n      0x20\n      add\n      swap1\n      swap3\n      swap2\n      swap1\n      dup1\n      calldataload\n      swap1\n      0x20\n      add\n      swap1\n      swap3\n      swap2\n      swap1\n      pop\n      pop\n      pop\n      tag_23\n      jump\t// in\n    tag_21:\n      stop\n        /* \"Contracts/StoreMap.sol\":1594:3221  function get_types(bytes32 hash) view public returns (int32[] memory feature, bytes32[] memory names, bytes32[] memory highways, bytes32[] memory gtypes, bytes32[] memory path) {... */\n    tag_4:\n      tag_24\n      0x04\n      dup1\n      calldatasize\n      sub\n        /* \"--CODEGEN--\":13:15   */\n      0x20\n        /* \"--CODEGEN--\":8:11   */\n      dup2\n        /* \"--CODEGEN--\":5:16   */\n      lt\n        /* \"--CODEGEN--\":2:4   */\n      iszero\n      tag_25\n      jumpi\n        /* \"--CODEGEN--\":29:30   */\n      0x00\n        /* \"--CODEGEN--\":26:27   */\n      dup1\n        /* \"--CODEGEN--\":19:31   */\n      revert\n        /* \"--CODEGEN--\":2:4   */\n    tag_25:\n        /* \"Contracts/StoreMap.sol\":1594:3221  function get_types(bytes32 hash) view public returns (int32[] memory feature, bytes32[] memory names, bytes32[] memory highways, bytes32[] memory gtypes, bytes32[] memory path) {... */\n      dup2\n      add\n      swap1\n      dup1\n      dup1\n      calldataload\n      swap1\n      0x20\n      add\n      swap1\n      swap3\n      swap2\n      swap1\n      pop\n      pop\n      pop\n      tag_26\n      jump\t// in\n    tag_24:\n      mload(0x40)\n      dup1\n      dup1\n      0x20\n      add\n      dup1\n      0x20\n      add\n      dup1\n      0x20\n      add\n      dup1\n      0x20\n      add\n      dup1\n      0x20\n      add\n      dup7\n      dup2\n      sub\n      dup7\n      mstore\n      dup12\n      dup2\n      dup2\n      mload\n      dup2\n      mstore\n      0x20\n      add\n      swap2\n      pop\n      dup1\n      mload\n      swap1\n      0x20\n      add\n      swap1\n      0x20\n      mul\n      dup1\n      dup4\n      dup4\n        /* \"--CODEGEN--\":23:24   */\n      0x00\n        /* \"--CODEGEN--\":8:108   */\n    tag_27:\n        /* \"--CODEGEN--\":33:36   */\n      dup4\n        /* \"--CODEGEN--\":30:31   */\n      dup2\n        /* \"--CODEGEN--\":27:37   */\n      lt\n        /* \"--CODEGEN--\":8:108   */\n      iszero\n      tag_29\n      jumpi\n        /* \"--CODEGEN--\":99:100   */\n      dup1\n        /* \"--CODEGEN--\":94:97   */\n      dup3\n        /* \"--CODEGEN--\":90:101   */\n      add\n        /* \"--CODEGEN--\":84:102   */\n      mload\n        /* \"--CODEGEN--\":80:81   */\n      dup2\n        /* \"--CODEGEN--\":75:78   */\n      dup5\n        /* \"--CODEGEN--\":71:82   */\n      add\n        /* \"--CODEGEN--\":64:103   */\n      mstore\n        /* \"--CODEGEN--\":52:54   */\n      0x20\n        /* \"--CODEGEN--\":49:50   */\n      dup2\n        /* \"--CODEGEN--\":45:55   */\n      add\n        /* \"--CODEGEN--\":40:55   */\n      swap1\n      pop\n        /* \"--CODEGEN--\":8:108   */\n      jump(tag_27)\n    tag_29:\n        /* \"--CODEGEN--\":12:26   */\n      pop\n        /* \"Contracts/StoreMap.sol\":1594:3221  function get_types(bytes32 hash) view public returns (int32[] memory feature, bytes32[] memory names, bytes32[] memory highways, bytes32[] memory gtypes, bytes32[] memory path) {... */\n      pop\n      pop\n      pop\n      swap1\n      pop\n      add\n      dup7\n      dup2\n      sub\n      dup6\n      mstore\n      dup11\n      dup2\n      dup2\n      mload\n      dup2\n      mstore\n      0x20\n      add\n      swap2\n      pop\n      dup1\n      mload\n      swap1\n      0x20\n      add\n      swap1\n      0x20\n      mul\n      dup1\n      dup4\n      dup4\n        /* \"--CODEGEN--\":23:24   */\n      0x00\n        /* \"--CODEGEN--\":8:108   */\n    tag_30:\n        /* \"--CODEGEN--\":33:36   */\n      dup4\n        /* \"--CODEGEN--\":30:31   */\n      dup2\n        /* \"--CODEGEN--\":27:37   */\n      lt\n        /* \"--CODEGEN--\":8:108   */\n      iszero\n      tag_32\n      jumpi\n        /* \"--CODEGEN--\":99:100   */\n      dup1\n        /* \"--CODEGEN--\":94:97   */\n      dup3\n        /* \"--CODEGEN--\":90:101   */\n      add\n        /* \"--CODEGEN--\":84:102   */\n      mload\n        /* \"--CODEGEN--\":80:81   */\n      dup2\n        /* \"--CODEGEN--\":75:78   */\n      dup5\n        /* \"--CODEGEN--\":71:82   */\n      add\n        /* \"--CODEGEN--\":64:103   */\n      mstore\n        /* \"--CODEGEN--\":52:54   */\n      0x20\n        /* \"--CODEGEN--\":49:50   */\n      dup2\n        /* \"--CODEGEN--\":45:55   */\n      add\n        /* \"--CODEGEN--\":40:55   */\n      swap1\n      pop\n        /* \"--CODEGEN--\":8:108   */\n      jump(tag_30)\n    tag_32:\n        /* \"--CODEGEN--\":12:26   */\n      pop\n        /* \"Contracts/StoreMap.sol\":1594:3221  function get_types(bytes32 hash) view public returns (int32[] memory feature, bytes32[] memory names, bytes32[] memory highways, bytes32[] memory gtypes, bytes32[] memory path) {... */\n      pop\n      pop\n      pop\n      swap1\n      pop\n      add\n      dup7\n      dup2\n      sub\n      dup5\n      mstore\n      dup10\n      dup2\n      dup2\n      mload\n      dup2\n      mstore\n      0x20\n      add\n      swap2\n      pop\n      dup1\n      mload\n      swap1\n      0x20\n      add\n      swap1\n      0x20\n      mul\n      dup1\n      dup4\n      dup4\n        /* \"--CODEGEN--\":23:24   */\n      0x00\n        /* \"--CODEGEN--\":8:108   */\n    tag_33:\n        /* \"--CODEGEN--\":33:36   */\n      dup4\n        /* \"--CODEGEN--\":30:31   */\n      dup2\n        /* \"--CODEGEN--\":27:37   */\n      lt\n        /* \"--CODEGEN--\":8:108   */\n      iszero\n      tag_35\n      jumpi\n        /* \"--CODEGEN--\":99:100   */\n      dup1\n        /* \"--CODEGEN--\":94:97   */\n      dup3\n        /* \"--CODEGEN--\":90:101   */\n      add\n        /* \"--CODEGEN--\":84:102   */\n      mload\n        /* \"--CODEGEN--\":80:81   */\n      dup2\n        /* \"--CODEGEN--\":75:78   */\n      dup5\n        /* \"--CODEGEN--\":71:82   */\n      add\n        /* \"--CODEGEN--\":64:103   */\n      mstore\n        /* \"--CODEGEN--\":52:54   */\n      0x20\n        /* \"--CODEGEN--\":49:50   */\n      dup2\n        /* \"--CODEGEN--\":45:55   */\n      add\n        /* \"--CODEGEN--\":40:55   */\n      swap1\n      pop\n        /* \"--CODEGEN--\":8:108   */\n      jump(tag_33)\n    tag_35:\n        /* \"--CODEGEN--\":12:26   */\n      pop\n        /* \"Contracts/StoreMap.sol\":1594:3221  function get_types(bytes32 hash) view public returns (int32[] memory feature, bytes32[] memory names, bytes32[] memory highways, bytes32[] memory gtypes, bytes32[] memory path) {... */\n      pop\n      pop\n      pop\n      swap1\n      pop\n      add\n      dup7\n      dup2\n      sub\n      dup4\n      mstore\n      dup9\n      dup2\n      dup2\n      mload\n      dup2\n      mstore\n      0x20\n      add\n      swap2\n      pop\n      dup1\n      mload\n      swap1\n      0x20\n      add\n      swap1\n      0x20\n      mul\n      dup1\n      dup4\n      dup4\n        /* \"--CODEGEN--\":23:24   */\n      0x00\n        /* \"--CODEGEN--\":8:108   */\n    tag_36:\n        /* \"--CODEGEN--\":33:36   */\n      dup4\n        /* \"--CODEGEN--\":30:31   */\n      dup2\n        /* \"--CODEGEN--\":27:37   */\n      lt\n        /* \"--CODEGEN--\":8:108   */\n      iszero\n      tag_38\n      jumpi\n        /* \"--CODEGEN--\":99:100   */\n      dup1\n        /* \"--CODEGEN--\":94:97   */\n      dup3\n        /* \"--CODEGEN--\":90:101   */\n      add\n        /* \"--CODEGEN--\":84:102   */\n      mload\n        /* \"--CODEGEN--\":80:81   */\n      dup2\n        /* \"--CODEGEN--\":75:78   */\n      dup5\n        /* \"--CODEGEN--\":71:82   */\n      add\n        /* \"--CODEGEN--\":64:103   */\n      mstore\n        /* \"--CODEGEN--\":52:54   */\n      0x20\n        /* \"--CODEGEN--\":49:50   */\n      dup2\n        /* \"--CODEGEN--\":45:55   */\n      add\n        /* \"--CODEGEN--\":40:55   */\n      swap1\n      pop\n        /* \"--CODEGEN--\":8:108   */\n      jump(tag_36)\n    tag_38:\n        /* \"--CODEGEN--\":12:26   */\n      pop\n        /* \"Contracts/StoreMap.sol\":1594:3221  function get_types(bytes32 hash) view public returns (int32[] memory feature, bytes32[] memory names, bytes32[] memory highways, bytes32[] memory gtypes, bytes32[] memory path) {... */\n      pop\n      pop\n      pop\n      swap1\n      pop\n      add\n      dup7\n      dup2\n      sub\n      dup3\n      mstore\n      dup8\n      dup2\n      dup2\n      mload\n      dup2\n      mstore\n      0x20\n      add\n      swap2\n      pop\n      dup1\n      mload\n      swap1\n      0x20\n      add\n      swap1\n      0x20\n      mul\n      dup1\n      dup4\n      dup4\n        /* \"--CODEGEN--\":23:24   */\n      0x00\n        /* \"--CODEGEN--\":8:108   */\n    tag_39:\n        /* \"--CODEGEN--\":33:36   */\n      dup4\n        /* \"--CODEGEN--\":30:31   */\n      dup2\n        /* \"--CODEGEN--\":27:37   */\n      lt\n        /* \"--CODEGEN--\":8:108   */\n      iszero\n      tag_41\n      jumpi\n        /* \"--CODEGEN--\":99:100   */\n      dup1\n        /* \"--CODEGEN--\":94:97   */\n      dup3\n        /* \"--CODEGEN--\":90:101   */\n      add\n        /* \"--CODEGEN--\":84:102   */\n      mload\n        /* \"--CODEGEN--\":80:81   */\n      dup2\n        /* \"--CODEGEN--\":75:78   */\n      dup5\n        /* \"--CODEGEN--\":71:82   */\n      add\n        /* \"--CODEGEN--\":64:103   */\n      mstore\n        /* \"--CODEGEN--\":52:54   */\n      0x20\n        /* \"--CODEGEN--\":49:50   */\n      dup2\n        /* \"--CODEGEN--\":45:55   */\n      add\n        /* \"--CODEGEN--\":40:55   */\n      swap1\n      pop\n        /* \"--CODEGEN--\":8:108   */\n      jump(tag_39)\n    tag_41:\n        /* \"--CODEGEN--\":12:26   */\n      pop\n        /* \"Contracts/StoreMap.sol\":1594:3221  function get_types(bytes32 hash) view public returns (int32[] memory feature, bytes32[] memory names, bytes32[] memory highways, bytes32[] memory gtypes, bytes32[] memory path) {... */\n      pop\n      pop\n      pop\n      swap1\n      pop\n      add\n      swap11\n      pop\n      pop\n      pop\n      pop\n      pop\n      pop\n      pop\n      pop\n      pop\n      pop\n      pop\n      mload(0x40)\n      dup1\n      swap2\n      sub\n      swap1\n      return\n        /* \"Contracts/StoreMap.sol\":9146:9714  function getLonBlock(string memory geohash) public view returns (uint256) {... */\n    tag_5:\n      tag_42\n      0x04\n      dup1\n      calldatasize\n      sub\n        /* \"--CODEGEN--\":13:15   */\n      0x20\n        /* \"--CODEGEN--\":8:11   */\n      dup2\n        /* \"--CODEGEN--\":5:16   */\n      lt\n        /* \"--CODEGEN--\":2:4   */\n      iszero\n      tag_43\n      jumpi\n        /* \"--CODEGEN--\":29:30   */\n      0x00\n        /* \"--CODEGEN--\":26:27   */\n      dup1\n        /* \"--CODEGEN--\":19:31   */\n      revert\n        /* \"--CODEGEN--\":2:4   */\n    tag_43:\n        /* \"Contracts/StoreMap.sol\":9146:9714  function getLonBlock(string memory geohash) public view returns (uint256) {... */\n      dup2\n      add\n      swap1\n      dup1\n      dup1\n      calldataload\n      swap1\n      0x20\n      add\n      swap1\n        /* \"--CODEGEN--\":21:32   */\n      0x0100000000\n        /* \"--CODEGEN--\":8:19   */\n      dup2\n        /* \"--CODEGEN--\":5:33   */\n      gt\n        /* \"--CODEGEN--\":2:4   */\n      iszero\n      tag_44\n      jumpi\n        /* \"--CODEGEN--\":46:47   */\n      0x00\n        /* \"--CODEGEN--\":43:44   */\n      dup1\n        /* \"--CODEGEN--\":36:48   */\n      revert\n        /* \"--CODEGEN--\":2:4   */\n    tag_44:\n        /* \"Contracts/StoreMap.sol\":9146:9714  function getLonBlock(string memory geohash) public view returns (uint256) {... */\n      dup3\n      add\n        /* \"--CODEGEN--\":35:44   */\n      dup4\n        /* \"--CODEGEN--\":28:32   */\n      0x20\n        /* \"--CODEGEN--\":12:26   */\n      dup3\n        /* \"--CODEGEN--\":8:33   */\n      add\n        /* \"--CODEGEN--\":5:45   */\n      gt\n        /* \"--CODEGEN--\":2:4   */\n      iszero\n      tag_45\n      jumpi\n        /* \"--CODEGEN--\":58:59   */\n      0x00\n        /* \"--CODEGEN--\":55:56   */\n      dup1\n        /* \"--CODEGEN--\":48:60   */\n      revert\n        /* \"--CODEGEN--\":2:4   */\n    tag_45:\n        /* \"Contracts/StoreMap.sol\":9146:9714  function getLonBlock(string memory geohash) public view returns (uint256) {... */\n      dup1\n      calldataload\n      swap1\n      0x20\n      add\n      swap2\n        /* \"--CODEGEN--\":100:109   */\n      dup5\n        /* \"--CODEGEN--\":95:96   */\n      0x01\n        /* \"--CODEGEN--\":81:93   */\n      dup4\n        /* \"--CODEGEN--\":77:97   */\n      mul\n        /* \"--CODEGEN--\":67:75   */\n      dup5\n        /* \"--CODEGEN--\":63:98   */\n      add\n        /* \"--CODEGEN--\":60:110   */\n      gt\n        /* \"--CODEGEN--\":39:50   */\n      0x0100000000\n        /* \"--CODEGEN--\":25:37   */\n      dup4\n        /* \"--CODEGEN--\":22:51   */\n      gt\n        /* \"--CODEGEN--\":11:118   */\n      or\n        /* \"--CODEGEN--\":8:10   */\n      iszero\n      tag_46\n      jumpi\n        /* \"--CODEGEN--\":131:132   */\n      0x00\n        /* \"--CODEGEN--\":128:129   */\n      dup1\n        /* \"--CODEGEN--\":121:133   */\n      revert\n        /* \"--CODEGEN--\":8:10   */\n    tag_46:\n        /* \"Contracts/StoreMap.sol\":9146:9714  function getLonBlock(string memory geohash) public view returns (uint256) {... */\n      swap2\n      swap1\n      dup1\n      dup1\n      0x1f\n      add\n      0x20\n      dup1\n      swap2\n      div\n      mul\n      0x20\n      add\n      mload(0x40)\n      swap1\n      dup2\n      add\n      0x40\n      mstore\n      dup1\n      swap4\n      swap3\n      swap2\n      swap1\n      dup2\n      dup2\n      mstore\n      0x20\n      add\n      dup4\n      dup4\n        /* \"--CODEGEN--\":30:33   */\n      dup1\n        /* \"--CODEGEN--\":22:28   */\n      dup3\n        /* \"--CODEGEN--\":14:20   */\n      dup5\n        /* \"--CODEGEN--\":1:34   */\n      calldatacopy\n        /* \"--CODEGEN--\":99:100   */\n      0x00\n        /* \"--CODEGEN--\":93:96   */\n      dup2\n        /* \"--CODEGEN--\":85:91   */\n      dup5\n        /* \"--CODEGEN--\":81:97   */\n      add\n        /* \"--CODEGEN--\":74:101   */\n      mstore\n        /* \"--CODEGEN--\":137:141   */\n      0x1f\n        /* \"--CODEGEN--\":133:142   */\n      not\n        /* \"--CODEGEN--\":126:130   */\n      0x1f\n        /* \"--CODEGEN--\":121:124   */\n      dup3\n        /* \"--CODEGEN--\":117:131   */\n      add\n        /* \"--CODEGEN--\":113:143   */\n      and\n        /* \"--CODEGEN--\":106:143   */\n      swap1\n      pop\n        /* \"--CODEGEN--\":169:172   */\n      dup1\n        /* \"--CODEGEN--\":161:167   */\n      dup4\n        /* \"--CODEGEN--\":157:173   */\n      add\n        /* \"--CODEGEN--\":147:173   */\n      swap3\n      pop\n        /* \"Contracts/StoreMap.sol\":9146:9714  function getLonBlock(string memory geohash) public view returns (uint256) {... */\n      pop\n      pop\n      pop\n      pop\n      pop\n      pop\n      swap2\n      swap3\n      swap2\n      swap3\n      swap1\n      pop\n      pop\n      pop\n      tag_47\n      jump\t// in\n    tag_42:\n      mload(0x40)\n      dup1\n      dup3\n      dup2\n      mstore\n      0x20\n      add\n      swap2\n      pop\n      pop\n      mload(0x40)\n      dup1\n      swap2\n      sub\n      swap1\n      return\n        /* \"Contracts/StoreMap.sol\":6648:7434  function manhattan(bytes32 nextGeohash, bytes32 endGeohash) public view returns (uint256){... */\n    tag_6:\n      tag_48\n      0x04\n      dup1\n      calldatasize\n      sub\n        /* \"--CODEGEN--\":13:15   */\n      0x40\n        /* \"--CODEGEN--\":8:11   */\n      dup2\n        /* \"--CODEGEN--\":5:16   */\n      lt\n        /* \"--CODEGEN--\":2:4   */\n      iszero\n      tag_49\n      jumpi\n        /* \"--CODEGEN--\":29:30   */\n      0x00\n        /* \"--CODEGEN--\":26:27   */\n      dup1\n        /* \"--CODEGEN--\":19:31   */\n      revert\n        /* \"--CODEGEN--\":2:4   */\n    tag_49:\n        /* \"Contracts/StoreMap.sol\":6648:7434  function manhattan(bytes32 nextGeohash, bytes32 endGeohash) public view returns (uint256){... */\n      dup2\n      add\n      swap1\n      dup1\n      dup1\n      calldataload\n      swap1\n      0x20\n      add\n      swap1\n      swap3\n      swap2\n      swap1\n      dup1\n      calldataload\n      swap1\n      0x20\n      add\n      swap1\n      swap3\n      swap2\n      swap1\n      pop\n      pop\n      pop\n      tag_50\n      jump\t// in\n    tag_48:\n      mload(0x40)\n      dup1\n      dup3\n      dup2\n      mstore\n      0x20\n      add\n      swap2\n      pop\n      pop\n      mload(0x40)\n      dup1\n      swap2\n      sub\n      swap1\n      return\n        /* \"Contracts/StoreMap.sol\":8545:9112  function getLatBlock(string memory geohash) public view returns (uint256) {... */\n    tag_7:\n      tag_51\n      0x04\n      dup1\n      calldatasize\n      sub\n        /* \"--CODEGEN--\":13:15   */\n      0x20\n        /* \"--CODEGEN--\":8:11   */\n      dup2\n        /* \"--CODEGEN--\":5:16   */\n      lt\n        /* \"--CODEGEN--\":2:4   */\n      iszero\n      tag_52\n      jumpi\n        /* \"--CODEGEN--\":29:30   */\n      0x00\n        /* \"--CODEGEN--\":26:27   */\n      dup1\n        /* \"--CODEGEN--\":19:31   */\n      revert\n        /* \"--CODEGEN--\":2:4   */\n    tag_52:\n        /* \"Contracts/StoreMap.sol\":8545:9112  function getLatBlock(string memory geohash) public view returns (uint256) {... */\n      dup2\n      add\n      swap1\n      dup1\n      dup1\n      calldataload\n      swap1\n      0x20\n      add\n      swap1\n        /* \"--CODEGEN--\":21:32   */\n      0x0100000000\n        /* \"--CODEGEN--\":8:19   */\n      dup2\n        /* \"--CODEGEN--\":5:33   */\n      gt\n        /* \"--CODEGEN--\":2:4   */\n      iszero\n      tag_53\n      jumpi\n        /* \"--CODEGEN--\":46:47   */\n      0x00\n        /* \"--CODEGEN--\":43:44   */\n      dup1\n        /* \"--CODEGEN--\":36:48   */\n      revert\n        /* \"--CODEGEN--\":2:4   */\n    tag_53:\n        /* \"Contracts/StoreMap.sol\":8545:9112  function getLatBlock(string memory geohash) public view returns (uint256) {... */\n      dup3\n      add\n        /* \"--CODEGEN--\":35:44   */\n      dup4\n        /* \"--CODEGEN--\":28:32   */\n      0x20\n        /* \"--CODEGEN--\":12:26   */\n      dup3\n        /* \"--CODEGEN--\":8:33   */\n      add\n        /* \"--CODEGEN--\":5:45   */\n      gt\n        /* \"--CODEGEN--\":2:4   */\n      iszero\n      tag_54\n      jumpi\n        /* \"--CODEGEN--\":58:59   */\n      0x00\n        /* \"--CODEGEN--\":55:56   */\n      dup1\n        /* \"--CODEGEN--\":48:60   */\n      revert\n        /* \"--CODEGEN--\":2:4   */\n    tag_54:\n        /* \"Contracts/StoreMap.sol\":8545:9112  function getLatBlock(string memory geohash) public view returns (uint256) {... */\n      dup1\n      calldataload\n      swap1\n      0x20\n      add\n      swap2\n        /* \"--CODEGEN--\":100:109   */\n      dup5\n        /* \"--CODEGEN--\":95:96   */\n      0x01\n        /* \"--CODEGEN--\":81:93   */\n      dup4\n        /* \"--CODEGEN--\":77:97   */\n      mul\n        /* \"--CODEGEN--\":67:75   */\n      dup5\n        /* \"--CODEGEN--\":63:98   */\n      add\n        /* \"--CODEGEN--\":60:110   */\n      gt\n        /* \"--CODEGEN--\":39:50   */\n      0x0100000000\n        /* \"--CODEGEN--\":25:37   */\n      dup4\n        /* \"--CODEGEN--\":22:51   */\n      gt\n        /* \"--CODEGEN--\":11:118   */\n      or\n        /* \"--CODEGEN--\":8:10   */\n      iszero\n      tag_55\n      jumpi\n        /* \"--CODEGEN--\":131:132   */\n      0x00\n        /* \"--CODEGEN--\":128:129   */\n      dup1\n        /* \"--CODEGEN--\":121:133   */\n      revert\n        /* \"--CODEGEN--\":8:10   */\n    tag_55:\n        /* \"Contracts/StoreMap.sol\":8545:9112  function getLatBlock(string memory geohash) public view returns (uint256) {... */\n      swap2\n      swap1\n      dup1\n      dup1\n      0x1f\n      add\n      0x20\n      dup1\n      swap2\n      div\n      mul\n      0x20\n      add\n      mload(0x40)\n      swap1\n      dup2\n      add\n      0x40\n      mstore\n      dup1\n      swap4\n      swap3\n      swap2\n      swap1\n      dup2\n      dup2\n      mstore\n      0x20\n      add\n      dup4\n      dup4\n        /* \"--CODEGEN--\":30:33   */\n      dup1\n        /* \"--CODEGEN--\":22:28   */\n      dup3\n        /* \"--CODEGEN--\":14:20   */\n      dup5\n        /* \"--CODEGEN--\":1:34   */\n      calldatacopy\n        /* \"--CODEGEN--\":99:100   */\n      0x00\n        /* \"--CODEGEN--\":93:96   */\n      dup2\n        /* \"--CODEGEN--\":85:91   */\n      dup5\n        /* \"--CODEGEN--\":81:97   */\n      add\n        /* \"--CODEGEN--\":74:101   */\n      mstore\n        /* \"--CODEGEN--\":137:141   */\n      0x1f\n        /* \"--CODEGEN--\":133:142   */\n      not\n        /* \"--CODEGEN--\":126:130   */\n      0x1f\n        /* \"--CODEGEN--\":121:124   */\n      dup3\n        /* \"--CODEGEN--\":117:131   */\n      add\n        /* \"--CODEGEN--\":113:143   */\n      and\n        /* \"--CODEGEN--\":106:143   */\n      swap1\n      pop\n        /* \"--CODEGEN--\":169:172   */\n      dup1\n        /* \"--CODEGEN--\":161:167   */\n      dup4\n        /* \"--CODEGEN--\":157:173   */\n      add\n        /* \"--CODEGEN--\":147:173   */\n      swap3\n      pop\n        /* \"Contracts/StoreMap.sol\":8545:9112  function getLatBlock(string memory geohash) public view returns (uint256) {... */\n      pop\n      pop\n      pop\n      pop\n      pop\n      pop\n      swap2\n      swap3\n      swap2\n      swap3\n      swap1\n      pop\n      pop\n      pop\n      tag_56\n      jump\t// in\n    tag_51:\n      mload(0x40)\n      dup1\n      dup3\n      dup2\n      mstore\n      0x20\n      add\n      swap2\n      pop\n      pop\n      mload(0x40)\n      dup1\n      swap2\n      sub\n      swap1\n      return\n        /* \"Contracts/StoreMap.sol\":3241:4275  function add_onetype(uint256 gid, int32 minzoom, int32 cost, int32 source, int32 target, bool oneway, bool building, bytes32 highway, bytes32 name, bytes32 gtype, bytes32[] memory path) public {... */\n    tag_8:\n      tag_57\n      0x04\n      dup1\n      calldatasize\n      sub\n        /* \"--CODEGEN--\":13:16   */\n      0x0160\n        /* \"--CODEGEN--\":8:11   */\n      dup2\n        /* \"--CODEGEN--\":5:17   */\n      lt\n        /* \"--CODEGEN--\":2:4   */\n      iszero\n      tag_58\n      jumpi\n        /* \"--CODEGEN--\":30:31   */\n      0x00\n        /* \"--CODEGEN--\":27:28   */\n      dup1\n        /* \"--CODEGEN--\":20:32   */\n      revert\n        /* \"--CODEGEN--\":2:4   */\n    tag_58:\n        /* \"Contracts/StoreMap.sol\":3241:4275  function add_onetype(uint256 gid, int32 minzoom, int32 cost, int32 source, int32 target, bool oneway, bool building, bytes32 highway, bytes32 name, bytes32 gtype, bytes32[] memory path) public {... */\n      dup2\n      add\n      swap1\n      dup1\n      dup1\n      calldataload\n      swap1\n      0x20\n      add\n      swap1\n      swap3\n      swap2\n      swap1\n      dup1\n      calldataload\n      0x03\n      signextend\n      swap1\n      0x20\n      add\n      swap1\n      swap3\n      swap2\n      swap1\n      dup1\n      calldataload\n      0x03\n      signextend\n      swap1\n      0x20\n      add\n      swap1\n      swap3\n      swap2\n      swap1\n      dup1\n      calldataload\n      0x03\n      signextend\n      swap1\n      0x20\n      add\n      swap1\n      swap3\n      swap2\n      swap1\n      dup1\n      calldataload\n      0x03\n      signextend\n      swap1\n      0x20\n      add\n      swap1\n      swap3\n      swap2\n      swap1\n      dup1\n      calldataload\n      iszero\n      iszero\n      swap1\n      0x20\n      add\n      swap1\n      swap3\n      swap2\n      swap1\n      dup1\n      calldataload\n      iszero\n      iszero\n      swap1\n      0x20\n      add\n      swap1\n      swap3\n      swap2\n      swap1\n      dup1\n      calldataload\n      swap1\n      0x20\n      add\n      swap1\n      swap3\n      swap2\n      swap1\n      dup1\n      calldataload\n      swap1\n      0x20\n      add\n      swap1\n      swap3\n      swap2\n      swap1\n      dup1\n      calldataload\n      swap1\n      0x20\n      add\n      swap1\n      swap3\n      swap2\n      swap1\n      dup1\n      calldataload\n      swap1\n      0x20\n      add\n      swap1\n        /* \"--CODEGEN--\":21:32   */\n      0x0100000000\n        /* \"--CODEGEN--\":8:19   */\n      dup2\n        /* \"--CODEGEN--\":5:33   */\n      gt\n        /* \"--CODEGEN--\":2:4   */\n      iszero\n      tag_59\n      jumpi\n        /* \"--CODEGEN--\":46:47   */\n      0x00\n        /* \"--CODEGEN--\":43:44   */\n      dup1\n        /* \"--CODEGEN--\":36:48   */\n      revert\n        /* \"--CODEGEN--\":2:4   */\n    tag_59:\n        /* \"Contracts/StoreMap.sol\":3241:4275  function add_onetype(uint256 gid, int32 minzoom, int32 cost, int32 source, int32 target, bool oneway, bool building, bytes32 highway, bytes32 name, bytes32 gtype, bytes32[] memory path) public {... */\n      dup3\n      add\n        /* \"--CODEGEN--\":35:44   */\n      dup4\n        /* \"--CODEGEN--\":28:32   */\n      0x20\n        /* \"--CODEGEN--\":12:26   */\n      dup3\n        /* \"--CODEGEN--\":8:33   */\n      add\n        /* \"--CODEGEN--\":5:45   */\n      gt\n        /* \"--CODEGEN--\":2:4   */\n      iszero\n      tag_60\n      jumpi\n        /* \"--CODEGEN--\":58:59   */\n      0x00\n        /* \"--CODEGEN--\":55:56   */\n      dup1\n        /* \"--CODEGEN--\":48:60   */\n      revert\n        /* \"--CODEGEN--\":2:4   */\n    tag_60:\n        /* \"Contracts/StoreMap.sol\":3241:4275  function add_onetype(uint256 gid, int32 minzoom, int32 cost, int32 source, int32 target, bool oneway, bool building, bytes32 highway, bytes32 name, bytes32 gtype, bytes32[] memory path) public {... */\n      dup1\n      calldataload\n      swap1\n      0x20\n      add\n      swap2\n        /* \"--CODEGEN--\":101:110   */\n      dup5\n        /* \"--CODEGEN--\":95:97   */\n      0x20\n        /* \"--CODEGEN--\":81:93   */\n      dup4\n        /* \"--CODEGEN--\":77:98   */\n      mul\n        /* \"--CODEGEN--\":67:75   */\n      dup5\n        /* \"--CODEGEN--\":63:99   */\n      add\n        /* \"--CODEGEN--\":60:111   */\n      gt\n        /* \"--CODEGEN--\":39:50   */\n      0x0100000000\n        /* \"--CODEGEN--\":25:37   */\n      dup4\n        /* \"--CODEGEN--\":22:51   */\n      gt\n        /* \"--CODEGEN--\":11:119   */\n      or\n        /* \"--CODEGEN--\":8:10   */\n      iszero\n      tag_61\n      jumpi\n        /* \"--CODEGEN--\":132:133   */\n      0x00\n        /* \"--CODEGEN--\":129:130   */\n      dup1\n        /* \"--CODEGEN--\":122:134   */\n      revert\n        /* \"--CODEGEN--\":8:10   */\n    tag_61:\n        /* \"Contracts/StoreMap.sol\":3241:4275  function add_onetype(uint256 gid, int32 minzoom, int32 cost, int32 source, int32 target, bool oneway, bool building, bytes32 highway, bytes32 name, bytes32 gtype, bytes32[] memory path) public {... */\n      swap2\n      swap1\n      dup1\n      dup1\n      0x20\n      mul\n      0x20\n      add\n      mload(0x40)\n      swap1\n      dup2\n      add\n      0x40\n      mstore\n      dup1\n      swap4\n      swap3\n      swap2\n      swap1\n      dup2\n      dup2\n      mstore\n      0x20\n      add\n      dup4\n      dup4\n      0x20\n      mul\n        /* \"--CODEGEN--\":30:33   */\n      dup1\n        /* \"--CODEGEN--\":22:28   */\n      dup3\n        /* \"--CODEGEN--\":14:20   */\n      dup5\n        /* \"--CODEGEN--\":1:34   */\n      calldatacopy\n        /* \"--CODEGEN--\":99:100   */\n      0x00\n        /* \"--CODEGEN--\":93:96   */\n      dup2\n        /* \"--CODEGEN--\":85:91   */\n      dup5\n        /* \"--CODEGEN--\":81:97   */\n      add\n        /* \"--CODEGEN--\":74:101   */\n      mstore\n        /* \"--CODEGEN--\":137:141   */\n      0x1f\n        /* \"--CODEGEN--\":133:142   */\n      not\n        /* \"--CODEGEN--\":126:130   */\n      0x1f\n        /* \"--CODEGEN--\":121:124   */\n      dup3\n        /* \"--CODEGEN--\":117:131   */\n      add\n        /* \"--CODEGEN--\":113:143   */\n      and\n        /* \"--CODEGEN--\":106:143   */\n      swap1\n      pop\n        /* \"--CODEGEN--\":169:172   */\n      dup1\n        /* \"--CODEGEN--\":161:167   */\n      dup4\n        /* \"--CODEGEN--\":157:173   */\n      add\n        /* \"--CODEGEN--\":147:173   */\n      swap3\n      pop\n        /* \"Contracts/StoreMap.sol\":3241:4275  function add_onetype(uint256 gid, int32 minzoom, int32 cost, int32 source, int32 target, bool oneway, bool building, bytes32 highway, bytes32 name, bytes32 gtype, bytes32[] memory path) public {... */\n      pop\n      pop\n      pop\n      pop\n      pop\n      pop\n      swap2\n      swap3\n      swap2\n      swap3\n      swap1\n      pop\n      pop\n      pop\n      tag_62\n      jump\t// in\n    tag_57:\n      stop\n        /* \"Contracts/StoreMap.sol\":10092:10771  function dequeue() public notEmpty(){... */\n    tag_9:\n      tag_63\n      tag_64\n      jump\t// in\n    tag_63:\n      stop\n        /* \"Contracts/StoreMap.sol\":1039:1089  mapping(bytes32 => adj_types) public adjacencyList */\n    tag_10:\n      tag_65\n      0x04\n      dup1\n      calldatasize\n      sub\n        /* \"--CODEGEN--\":13:15   */\n      0x20\n        /* \"--CODEGEN--\":8:11   */\n      dup2\n        /* \"--CODEGEN--\":5:16   */\n      lt\n        /* \"--CODEGEN--\":2:4   */\n      iszero\n      tag_66\n      jumpi\n        /* \"--CODEGEN--\":29:30   */\n      0x00\n        /* \"--CODEGEN--\":26:27   */\n      dup1\n        /* \"--CODEGEN--\":19:31   */\n      revert\n        /* \"--CODEGEN--\":2:4   */\n    tag_66:\n        /* \"Contracts/StoreMap.sol\":1039:1089  mapping(bytes32 => adj_types) public adjacencyList */\n      dup2\n      add\n      swap1\n      dup1\n      dup1\n      calldataload\n      swap1\n      0x20\n      add\n      swap1\n      swap3\n      swap2\n      swap1\n      pop\n      pop\n      pop\n      tag_67\n      jump\t// in\n    tag_65:\n      mload(0x40)\n      dup1\n      dup3\n      dup2\n      mstore\n      0x20\n      add\n      swap2\n      pop\n      pop\n      mload(0x40)\n      dup1\n      swap2\n      sub\n      swap1\n      return\n        /* \"Contracts/StoreMap.sol\":609:655  mapping(bytes32 => area_types) public geo_maps */\n    tag_11:\n      tag_68\n      0x04\n      dup1\n      calldatasize\n      sub\n        /* \"--CODEGEN--\":13:15   */\n      0x20\n        /* \"--CODEGEN--\":8:11   */\n      dup2\n        /* \"--CODEGEN--\":5:16   */\n      lt\n        /* \"--CODEGEN--\":2:4   */\n      iszero\n      tag_69\n      jumpi\n        /* \"--CODEGEN--\":29:30   */\n      0x00\n        /* \"--CODEGEN--\":26:27   */\n      dup1\n        /* \"--CODEGEN--\":19:31   */\n      revert\n        /* \"--CODEGEN--\":2:4   */\n    tag_69:\n        /* \"Contracts/StoreMap.sol\":609:655  mapping(bytes32 => area_types) public geo_maps */\n      dup2\n      add\n      swap1\n      dup1\n      dup1\n      calldataload\n      swap1\n      0x20\n      add\n      swap1\n      swap3\n      swap2\n      swap1\n      pop\n      pop\n      pop\n      tag_70\n      jump\t// in\n    tag_68:\n      mload(0x40)\n      dup1\n      dup3\n      dup2\n      mstore\n      0x20\n      add\n      swap2\n      pop\n      pop\n      mload(0x40)\n      dup1\n      swap2\n      sub\n      swap1\n      return\n        /* \"Contracts/StoreMap.sol\":7629:7712  function changeP(uint256 newP) public returns (uint256){... */\n    tag_12:\n      tag_71\n      0x04\n      dup1\n      calldatasize\n      sub\n        /* \"--CODEGEN--\":13:15   */\n      0x20\n        /* \"--CODEGEN--\":8:11   */\n      dup2\n        /* \"--CODEGEN--\":5:16   */\n      lt\n        /* \"--CODEGEN--\":2:4   */\n      iszero\n      tag_72\n      jumpi\n        /* \"--CODEGEN--\":29:30   */\n      0x00\n        /* \"--CODEGEN--\":26:27   */\n      dup1\n        /* \"--CODEGEN--\":19:31   */\n      revert\n        /* \"--CODEGEN--\":2:4   */\n    tag_72:\n        /* \"Contracts/StoreMap.sol\":7629:7712  function changeP(uint256 newP) public returns (uint256){... */\n      dup2\n      add\n      swap1\n      dup1\n      dup1\n      calldataload\n      swap1\n      0x20\n      add\n      swap1\n      swap3\n      swap2\n      swap1\n      pop\n      pop\n      pop\n      tag_73\n      jump\t// in\n    tag_71:\n      mload(0x40)\n      dup1\n      dup3\n      dup2\n      mstore\n      0x20\n      add\n      swap2\n      pop\n      pop\n      mload(0x40)\n      dup1\n      swap2\n      sub\n      swap1\n      return\n        /* \"Contracts/StoreMap.sol\":4476:6642  function astar(bytes32 startGeohash, bytes32 endGeohash) public returns(bytes32[] memory backwards, uint256 costAll){... */\n    tag_13:\n      tag_74\n      0x04\n      dup1\n      calldatasize\n      sub\n        /* \"--CODEGEN--\":13:15   */\n      0x40\n        /* \"--CODEGEN--\":8:11   */\n      dup2\n        /* \"--CODEGEN--\":5:16   */\n      lt\n        /* \"--CODEGEN--\":2:4   */\n      iszero\n      tag_75\n      jumpi\n        /* \"--CODEGEN--\":29:30   */\n      0x00\n        /* \"--CODEGEN--\":26:27   */\n      dup1\n        /* \"--CODEGEN--\":19:31   */\n      revert\n        /* \"--CODEGEN--\":2:4   */\n    tag_75:\n        /* \"Contracts/StoreMap.sol\":4476:6642  function astar(bytes32 startGeohash, bytes32 endGeohash) public returns(bytes32[] memory backwards, uint256 costAll){... */\n      dup2\n      add\n      swap1\n      dup1\n      dup1\n      calldataload\n      swap1\n      0x20\n      add\n      swap1\n      swap3\n      swap2\n      swap1\n      dup1\n      calldataload\n      swap1\n      0x20\n      add\n      swap1\n      swap3\n      swap2\n      swap1\n      pop\n      pop\n      pop\n      tag_76\n      jump\t// in\n    tag_74:\n      mload(0x40)\n      dup1\n      dup1\n      0x20\n      add\n      dup4\n      dup2\n      mstore\n      0x20\n      add\n      dup3\n      dup2\n      sub\n      dup3\n      mstore\n      dup5\n      dup2\n      dup2\n      mload\n      dup2\n      mstore\n      0x20\n      add\n      swap2\n      pop\n      dup1\n      mload\n      swap1\n      0x20\n      add\n      swap1\n      0x20\n      mul\n      dup1\n      dup4\n      dup4\n        /* \"--CODEGEN--\":23:24   */\n      0x00\n        /* \"--CODEGEN--\":8:108   */\n    tag_77:\n        /* \"--CODEGEN--\":33:36   */\n      dup4\n        /* \"--CODEGEN--\":30:31   */\n      dup2\n        /* \"--CODEGEN--\":27:37   */\n      lt\n        /* \"--CODEGEN--\":8:108   */\n      iszero\n      tag_79\n      jumpi\n        /* \"--CODEGEN--\":99:100   */\n      dup1\n        /* \"--CODEGEN--\":94:97   */\n      dup3\n        /* \"--CODEGEN--\":90:101   */\n      add\n        /* \"--CODEGEN--\":84:102   */\n      mload\n        /* \"--CODEGEN--\":80:81   */\n      dup2\n        /* \"--CODEGEN--\":75:78   */\n      dup5\n        /* \"--CODEGEN--\":71:82   */\n      add\n        /* \"--CODEGEN--\":64:103   */\n      mstore\n        /* \"--CODEGEN--\":52:54   */\n      0x20\n        /* \"--CODEGEN--\":49:50   */\n      dup2\n        /* \"--CODEGEN--\":45:55   */\n      add\n        /* \"--CODEGEN--\":40:55   */\n      swap1\n      pop\n        /* \"--CODEGEN--\":8:108   */\n      jump(tag_77)\n    tag_79:\n        /* \"--CODEGEN--\":12:26   */\n      pop\n        /* \"Contracts/StoreMap.sol\":4476:6642  function astar(bytes32 startGeohash, bytes32 endGeohash) public returns(bytes32[] memory backwards, uint256 costAll){... */\n      pop\n      pop\n      pop\n      swap1\n      pop\n      add\n      swap4\n      pop\n      pop\n      pop\n      pop\n      mload(0x40)\n      dup1\n      swap2\n      sub\n      swap1\n      return\n        /* \"Contracts/StoreMap.sol\":7504:7627  function changePrecision(uint256 newPrecision) public returns (uint256){... */\n    tag_14:\n      tag_80\n      0x04\n      dup1\n      calldatasize\n      sub\n        /* \"--CODEGEN--\":13:15   */\n      0x20\n        /* \"--CODEGEN--\":8:11   */\n      dup2\n        /* \"--CODEGEN--\":5:16   */\n      lt\n        /* \"--CODEGEN--\":2:4   */\n      iszero\n      tag_81\n      jumpi\n        /* \"--CODEGEN--\":29:30   */\n      0x00\n        /* \"--CODEGEN--\":26:27   */\n      dup1\n        /* \"--CODEGEN--\":19:31   */\n      revert\n        /* \"--CODEGEN--\":2:4   */\n    tag_81:\n        /* \"Contracts/StoreMap.sol\":7504:7627  function changePrecision(uint256 newPrecision) public returns (uint256){... */\n      dup2\n      add\n      swap1\n      dup1\n      dup1\n      calldataload\n      swap1\n      0x20\n      add\n      swap1\n      swap3\n      swap2\n      swap1\n      pop\n      pop\n      pop\n      tag_82\n      jump\t// in\n    tag_80:\n      mload(0x40)\n      dup1\n      dup3\n      dup2\n      mstore\n      0x20\n      add\n      swap2\n      pop\n      pop\n      mload(0x40)\n      dup1\n      swap2\n      sub\n      swap1\n      return\n        /* \"Contracts/StoreMap.sol\":4305:4444  function add_area_line(bytes32 hash, uint256 gid) public {... */\n    tag_15:\n      tag_83\n      0x04\n      dup1\n      calldatasize\n      sub\n        /* \"--CODEGEN--\":13:15   */\n      0x40\n        /* \"--CODEGEN--\":8:11   */\n      dup2\n        /* \"--CODEGEN--\":5:16   */\n      lt\n        /* \"--CODEGEN--\":2:4   */\n      iszero\n      tag_84\n      jumpi\n        /* \"--CODEGEN--\":29:30   */\n      0x00\n        /* \"--CODEGEN--\":26:27   */\n      dup1\n        /* \"--CODEGEN--\":19:31   */\n      revert\n        /* \"--CODEGEN--\":2:4   */\n    tag_84:\n        /* \"Contracts/StoreMap.sol\":4305:4444  function add_area_line(bytes32 hash, uint256 gid) public {... */\n      dup2\n      add\n      swap1\n      dup1\n      dup1\n      calldataload\n      swap1\n      0x20\n      add\n      swap1\n      swap3\n      swap2\n      swap1\n      dup1\n      calldataload\n      swap1\n      0x20\n      add\n      swap1\n      swap3\n      swap2\n      swap1\n      pop\n      pop\n      pop\n      tag_85\n      jump\t// in\n    tag_83:\n      stop\n        /* \"Contracts/StoreMap.sol\":7714:8420  function sliceGeoHash(bytes32 geohash1, bytes32 geohash2) public view returns (string memory, string memory){... */\n    tag_16:\n      tag_86\n      0x04\n      dup1\n      calldatasize\n      sub\n        /* \"--CODEGEN--\":13:15   */\n      0x40\n        /* \"--CODEGEN--\":8:11   */\n      dup2\n        /* \"--CODEGEN--\":5:16   */\n      lt\n        /* \"--CODEGEN--\":2:4   */\n      iszero\n      tag_87\n      jumpi\n        /* \"--CODEGEN--\":29:30   */\n      0x00\n        /* \"--CODEGEN--\":26:27   */\n      dup1\n        /* \"--CODEGEN--\":19:31   */\n      revert\n        /* \"--CODEGEN--\":2:4   */\n    tag_87:\n        /* \"Contracts/StoreMap.sol\":7714:8420  function sliceGeoHash(bytes32 geohash1, bytes32 geohash2) public view returns (string memory, string memory){... */\n      dup2\n      add\n      swap1\n      dup1\n      dup1\n      calldataload\n      swap1\n      0x20\n      add\n      swap1\n      swap3\n      swap2\n      swap1\n      dup1\n      calldataload\n      swap1\n      0x20\n      add\n      swap1\n      swap3\n      swap2\n      swap1\n      pop\n      pop\n      pop\n      tag_88\n      jump\t// in\n    tag_86:\n      mload(0x40)\n      dup1\n      dup1\n      0x20\n      add\n      dup1\n      0x20\n      add\n      dup4\n      dup2\n      sub\n      dup4\n      mstore\n      dup6\n      dup2\n      dup2\n      mload\n      dup2\n      mstore\n      0x20\n      add\n      swap2\n      pop\n      dup1\n      mload\n      swap1\n      0x20\n      add\n      swap1\n      dup1\n      dup4\n      dup4\n        /* \"--CODEGEN--\":23:24   */\n      0x00\n        /* \"--CODEGEN--\":8:108   */\n    tag_89:\n        /* \"--CODEGEN--\":33:36   */\n      dup4\n        /* \"--CODEGEN--\":30:31   */\n      dup2\n        /* \"--CODEGEN--\":27:37   */\n      lt\n        /* \"--CODEGEN--\":8:108   */\n      iszero\n      tag_91\n      jumpi\n        /* \"--CODEGEN--\":99:100   */\n      dup1\n        /* \"--CODEGEN--\":94:97   */\n      dup3\n        /* \"--CODEGEN--\":90:101   */\n      add\n        /* \"--CODEGEN--\":84:102   */\n      mload\n        /* \"--CODEGEN--\":80:81   */\n      dup2\n        /* \"--CODEGEN--\":75:78   */\n      dup5\n        /* \"--CODEGEN--\":71:82   */\n      add\n        /* \"--CODEGEN--\":64:103   */\n      mstore\n        /* \"--CODEGEN--\":52:54   */\n      0x20\n        /* \"--CODEGEN--\":49:50   */\n      dup2\n        /* \"--CODEGEN--\":45:55   */\n      add\n        /* \"--CODEGEN--\":40:55   */\n      swap1\n      pop\n        /* \"--CODEGEN--\":8:108   */\n      jump(tag_89)\n    tag_91:\n        /* \"--CODEGEN--\":12:26   */\n      pop\n        /* \"Contracts/StoreMap.sol\":7714:8420  function sliceGeoHash(bytes32 geohash1, bytes32 geohash2) public view returns (string memory, string memory){... */\n      pop\n      pop\n      pop\n      swap1\n      pop\n      swap1\n      dup2\n      add\n      swap1\n      0x1f\n      and\n      dup1\n      iszero\n      tag_92\n      jumpi\n      dup1\n      dup3\n      sub\n      dup1\n      mload\n      0x01\n      dup4\n      0x20\n      sub\n      0x0100\n      exp\n      sub\n      not\n      and\n      dup2\n      mstore\n      0x20\n      add\n      swap2\n      pop\n    tag_92:\n      pop\n      dup4\n      dup2\n      sub\n      dup3\n      mstore\n      dup5\n      dup2\n      dup2\n      mload\n      dup2\n      mstore\n      0x20\n      add\n      swap2\n      pop\n      dup1\n      mload\n      swap1\n      0x20\n      add\n      swap1\n      dup1\n      dup4\n      dup4\n        /* \"--CODEGEN--\":23:24   */\n      0x00\n        /* \"--CODEGEN--\":8:108   */\n    tag_93:\n        /* \"--CODEGEN--\":33:36   */\n      dup4\n        /* \"--CODEGEN--\":30:31   */\n      dup2\n        /* \"--CODEGEN--\":27:37   */\n      lt\n        /* \"--CODEGEN--\":8:108   */\n      iszero\n      tag_95\n      jumpi\n        /* \"--CODEGEN--\":99:100   */\n      dup1\n        /* \"--CODEGEN--\":94:97   */\n      dup3\n        /* \"--CODEGEN--\":90:101   */\n      add\n        /* \"--CODEGEN--\":84:102   */\n      mload\n        /* \"--CODEGEN--\":80:81   */\n      dup2\n        /* \"--CODEGEN--\":75:78   */\n      dup5\n        /* \"--CODEGEN--\":71:82   */\n      add\n        /* \"--CODEGEN--\":64:103   */\n      mstore\n        /* \"--CODEGEN--\":52:54   */\n      0x20\n        /* \"--CODEGEN--\":49:50   */\n      dup2\n        /* \"--CODEGEN--\":45:55   */\n      add\n        /* \"--CODEGEN--\":40:55   */\n      swap1\n      pop\n        /* \"--CODEGEN--\":8:108   */\n      jump(tag_93)\n    tag_95:\n        /* \"--CODEGEN--\":12:26   */\n      pop\n        /* \"Contracts/StoreMap.sol\":7714:8420  function sliceGeoHash(bytes32 geohash1, bytes32 geohash2) public view returns (string memory, string memory){... */\n      pop\n      pop\n      pop\n      swap1\n      pop\n      swap1\n      dup2\n      add\n      swap1\n      0x1f\n      and\n      dup1\n      iszero\n      tag_96\n      jumpi\n      dup1\n      dup3\n      sub\n      dup1\n      mload\n      0x01\n      dup4\n      0x20\n      sub\n      0x0100\n      exp\n      sub\n      not\n      and\n      dup2\n      mstore\n      0x20\n      add\n      swap2\n      pop\n    tag_96:\n      pop\n      swap5\n      pop\n      pop\n      pop\n      pop\n      pop\n      mload(0x40)\n      dup1\n      swap2\n      sub\n      swap1\n      return\n        /* \"Contracts/StoreMap.sol\":9960:10050  function top() public view notEmpty() returns(bytes32) {... */\n    tag_17:\n      tag_97\n      tag_98\n      jump\t// in\n    tag_97:\n      mload(0x40)\n      dup1\n      dup3\n      dup2\n      mstore\n      0x20\n      add\n      swap2\n      pop\n      pop\n      mload(0x40)\n      dup1\n      swap2\n      sub\n      swap1\n      return\n        /* \"Contracts/StoreMap.sol\":10783:11310  function enqueue(bytes32 geohash, uint256 cost) public {... */\n    tag_23:\n        /* \"Contracts/StoreMap.sol\":10874:10875  0 */\n      0x00\n        /* \"Contracts/StoreMap.sol\":10846:10854  frontier */\n      0x0d\n        /* \"Contracts/StoreMap.sol\":10846:10863  frontier.geohashs */\n      0x00\n      add\n        /* \"Contracts/StoreMap.sol\":10846:10870  frontier.geohashs.length */\n      dup1\n      sload\n      swap1\n      pop\n        /* \"Contracts/StoreMap.sol\":10846:10875  frontier.geohashs.length == 0 */\n      eq\n        /* \"Contracts/StoreMap.sol\":10842:10988  if (frontier.geohashs.length == 0) ... */\n      iszero\n      tag_100\n      jumpi\n        /* \"Contracts/StoreMap.sol\":10898:10906  frontier */\n      0x0d\n        /* \"Contracts/StoreMap.sol\":10898:10915  frontier.geohashs */\n      0x00\n      add\n        /* \"Contracts/StoreMap.sol\":10921:10987  0x0000000000000000000000000000000000000000000000000000000000000000 */\n      0x00\n        /* \"Contracts/StoreMap.sol\":10898:10988  frontier.geohashs.push(0x0000000000000000000000000000000000000000000000000000000000000000) */\n      swap1\n      dup1\n        /* \"--CODEGEN--\":39:40   */\n      0x01\n        /* \"--CODEGEN--\":33:36   */\n      dup2\n        /* \"--CODEGEN--\":27:37   */\n      sload\n        /* \"--CODEGEN--\":23:41   */\n      add\n        /* \"--CODEGEN--\":57:67   */\n      dup1\n        /* \"--CODEGEN--\":52:55   */\n      dup3\n        /* \"--CODEGEN--\":45:68   */\n      sstore\n        /* \"--CODEGEN--\":79:89   */\n      dup1\n        /* \"--CODEGEN--\":72:89   */\n      swap2\n      pop\n        /* \"--CODEGEN--\":0:93   */\n      pop\n        /* \"Contracts/StoreMap.sol\":10898:10988  frontier.geohashs.push(0x0000000000000000000000000000000000000000000000000000000000000000) */\n      swap1\n      0x01\n      dup3\n      sub\n      swap1\n      0x00\n      mstore\n      keccak256(0x00, 0x20)\n      add\n      0x00\n      swap1\n      swap2\n      swap3\n      0x00\n      shl\n      swap1\n      swap2\n      swap1\n      swap2\n      pop\n      sstore\n      pop\n        /* \"Contracts/StoreMap.sol\":10842:10988  if (frontier.geohashs.length == 0) ... */\n    tag_100:\n        /* \"Contracts/StoreMap.sol\":10996:11004  frontier */\n      0x0d\n        /* \"Contracts/StoreMap.sol\":10996:11013  frontier.geohashs */\n      0x00\n      add\n        /* \"Contracts/StoreMap.sol\":11019:11026  geohash */\n      dup3\n        /* \"Contracts/StoreMap.sol\":10996:11027  frontier.geohashs.push(geohash) */\n      swap1\n      dup1\n        /* \"--CODEGEN--\":39:40   */\n      0x01\n        /* \"--CODEGEN--\":33:36   */\n      dup2\n        /* \"--CODEGEN--\":27:37   */\n      sload\n        /* \"--CODEGEN--\":23:41   */\n      add\n        /* \"--CODEGEN--\":57:67   */\n      dup1\n        /* \"--CODEGEN--\":52:55   */\n      dup3\n        /* \"--CODEGEN--\":45:68   */\n      sstore\n        /* \"--CODEGEN--\":79:89   */\n      dup1\n        /* \"--CODEGEN--\":72:89   */\n      swap2\n      pop\n        /* \"--CODEGEN--\":0:93   */\n      pop\n        /* \"Contracts/StoreMap.sol\":10996:11027  frontier.geohashs.push(geohash) */\n      swap1\n      0x01\n      dup3\n      sub\n      swap1\n      0x00\n      mstore\n      keccak256(0x00, 0x20)\n      add\n      0x00\n      swap1\n      swap2\n      swap3\n      swap1\n      swap2\n      swap1\n      swap2\n      pop\n      sstore\n      pop\n        /* \"Contracts/StoreMap.sol\":11055:11059  cost */\n      dup1\n        /* \"Contracts/StoreMap.sol\":11031:11039  frontier */\n      0x0d\n        /* \"Contracts/StoreMap.sol\":11031:11043  frontier.map */\n      0x01\n      add\n        /* \"Contracts/StoreMap.sol\":11031:11052  frontier.map[geohash] */\n      0x00\n        /* \"Contracts/StoreMap.sol\":11044:11051  geohash */\n      dup5\n        /* \"Contracts/StoreMap.sol\":11031:11052  frontier.map[geohash] */\n      dup2\n      mstore\n      0x20\n      add\n      swap1\n      dup2\n      mstore\n      0x20\n      add\n      0x00\n      keccak256\n        /* \"Contracts/StoreMap.sol\":11031:11059  frontier.map[geohash] = cost */\n      dup2\n      swap1\n      sstore\n      pop\n        /* \"Contracts/StoreMap.sol\":11063:11072  uint256 i */\n      0x00\n        /* \"Contracts/StoreMap.sol\":11102:11103  1 */\n      0x01\n        /* \"Contracts/StoreMap.sol\":11075:11083  frontier */\n      0x0d\n        /* \"Contracts/StoreMap.sol\":11075:11092  frontier.geohashs */\n      0x00\n      add\n        /* \"Contracts/StoreMap.sol\":11075:11099  frontier.geohashs.length */\n      dup1\n      sload\n      swap1\n      pop\n        /* \"Contracts/StoreMap.sol\":11075:11103  frontier.geohashs.length - 1 */\n      sub\n        /* \"Contracts/StoreMap.sol\":11063:11103  uint256 i = frontier.geohashs.length - 1 */\n      swap1\n      pop\n        /* \"Contracts/StoreMap.sol\":11107:11307  while (i > 1 && frontier.map[frontier.geohashs[i / 2]] > frontier.map[frontier.geohashs[i]]) {... */\n    tag_103:\n        /* \"Contracts/StoreMap.sol\":11118:11119  1 */\n      0x01\n        /* \"Contracts/StoreMap.sol\":11114:11115  i */\n      dup2\n        /* \"Contracts/StoreMap.sol\":11114:11119  i > 1 */\n      gt\n        /* \"Contracts/StoreMap.sol\":11114:11198  i > 1 && frontier.map[frontier.geohashs[i / 2]] > frontier.map[frontier.geohashs[i]] */\n      dup1\n      iszero\n      tag_105\n      jumpi\n      pop\n        /* \"Contracts/StoreMap.sol\":11164:11172  frontier */\n      0x0d\n        /* \"Contracts/StoreMap.sol\":11164:11176  frontier.map */\n      0x01\n      add\n        /* \"Contracts/StoreMap.sol\":11164:11198  frontier.map[frontier.geohashs[i]] */\n      0x00\n        /* \"Contracts/StoreMap.sol\":11177:11185  frontier */\n      0x0d\n        /* \"Contracts/StoreMap.sol\":11177:11194  frontier.geohashs */\n      0x00\n      add\n        /* \"Contracts/StoreMap.sol\":11195:11196  i */\n      dup4\n        /* \"Contracts/StoreMap.sol\":11177:11197  frontier.geohashs[i] */\n      dup2\n      sload\n      dup2\n      lt\n      tag_106\n      jumpi\n      invalid\n    tag_106:\n      swap1\n      0x00\n      mstore\n      keccak256(0x00, 0x20)\n      add\n      sload\n        /* \"Contracts/StoreMap.sol\":11164:11198  frontier.map[frontier.geohashs[i]] */\n      dup2\n      mstore\n      0x20\n      add\n      swap1\n      dup2\n      mstore\n      0x20\n      add\n      0x00\n      keccak256\n      sload\n        /* \"Contracts/StoreMap.sol\":11123:11131  frontier */\n      0x0d\n        /* \"Contracts/StoreMap.sol\":11123:11135  frontier.map */\n      0x01\n      add\n        /* \"Contracts/StoreMap.sol\":11123:11161  frontier.map[frontier.geohashs[i / 2]] */\n      0x00\n        /* \"Contracts/StoreMap.sol\":11136:11144  frontier */\n      0x0d\n        /* \"Contracts/StoreMap.sol\":11136:11153  frontier.geohashs */\n      0x00\n      add\n        /* \"Contracts/StoreMap.sol\":11158:11159  2 */\n      0x02\n        /* \"Contracts/StoreMap.sol\":11154:11155  i */\n      dup6\n        /* \"Contracts/StoreMap.sol\":11154:11159  i / 2 */\n      dup2\n      tag_108\n      jumpi\n      invalid\n    tag_108:\n      div\n        /* \"Contracts/StoreMap.sol\":11136:11160  frontier.geohashs[i / 2] */\n      dup2\n      sload\n      dup2\n      lt\n      tag_109\n      jumpi\n      invalid\n    tag_109:\n      swap1\n      0x00\n      mstore\n      keccak256(0x00, 0x20)\n      add\n      sload\n        /* \"Contracts/StoreMap.sol\":11123:11161  frontier.map[frontier.geohashs[i / 2]] */\n      dup2\n      mstore\n      0x20\n      add\n      swap1\n      dup2\n      mstore\n      0x20\n      add\n      0x00\n      keccak256\n      sload\n        /* \"Contracts/StoreMap.sol\":11123:11198  frontier.map[frontier.geohashs[i / 2]] > frontier.map[frontier.geohashs[i]] */\n      gt\n        /* \"Contracts/StoreMap.sol\":11114:11198  i > 1 && frontier.map[frontier.geohashs[i / 2]] > frontier.map[frontier.geohashs[i]] */\n    tag_105:\n        /* \"Contracts/StoreMap.sol\":11107:11307  while (i > 1 && frontier.map[frontier.geohashs[i / 2]] > frontier.map[frontier.geohashs[i]]) {... */\n      iszero\n      tag_104\n      jumpi\n        /* \"Contracts/StoreMap.sol\":11257:11264  geohash */\n      dup3\n        /* \"Contracts/StoreMap.sol\":11266:11274  frontier */\n      0x0d\n        /* \"Contracts/StoreMap.sol\":11266:11283  frontier.geohashs */\n      0x00\n      add\n        /* \"Contracts/StoreMap.sol\":11288:11289  2 */\n      0x02\n        /* \"Contracts/StoreMap.sol\":11284:11285  i */\n      dup4\n        /* \"Contracts/StoreMap.sol\":11284:11289  i / 2 */\n      dup2\n      tag_111\n      jumpi\n      invalid\n    tag_111:\n      div\n        /* \"Contracts/StoreMap.sol\":11266:11290  frontier.geohashs[i / 2] */\n      dup2\n      sload\n      dup2\n      lt\n      tag_112\n      jumpi\n      invalid\n    tag_112:\n      swap1\n      0x00\n      mstore\n      keccak256(0x00, 0x20)\n      add\n      sload\n        /* \"Contracts/StoreMap.sol\":11206:11214  frontier */\n      0x0d\n        /* \"Contracts/StoreMap.sol\":11206:11223  frontier.geohashs */\n      0x00\n      add\n        /* \"Contracts/StoreMap.sol\":11228:11229  2 */\n      0x02\n        /* \"Contracts/StoreMap.sol\":11224:11225  i */\n      dup5\n        /* \"Contracts/StoreMap.sol\":11224:11229  i / 2 */\n      dup2\n      tag_114\n      jumpi\n      invalid\n    tag_114:\n      div\n        /* \"Contracts/StoreMap.sol\":11206:11230  frontier.geohashs[i / 2] */\n      dup2\n      sload\n      dup2\n      lt\n      tag_115\n      jumpi\n      invalid\n    tag_115:\n      swap1\n      0x00\n      mstore\n      keccak256(0x00, 0x20)\n      add\n      0x00\n        /* \"Contracts/StoreMap.sol\":11232:11240  frontier */\n      0x0d\n        /* \"Contracts/StoreMap.sol\":11232:11249  frontier.geohashs */\n      0x00\n      add\n        /* \"Contracts/StoreMap.sol\":11250:11251  i */\n      dup6\n        /* \"Contracts/StoreMap.sol\":11232:11252  frontier.geohashs[i] */\n      dup2\n      sload\n      dup2\n      lt\n      tag_117\n      jumpi\n      invalid\n    tag_117:\n      swap1\n      0x00\n      mstore\n      keccak256(0x00, 0x20)\n      add\n      0x00\n        /* \"Contracts/StoreMap.sol\":11205:11291  (frontier.geohashs[i / 2], frontier.geohashs[i]) = (geohash, frontier.geohashs[i / 2]) */\n      dup5\n      swap2\n      swap1\n      pop\n      sstore\n      dup4\n      swap2\n      swap1\n      pop\n      sstore\n      pop\n      pop\n        /* \"Contracts/StoreMap.sol\":11301:11302  2 */\n      0x02\n        /* \"Contracts/StoreMap.sol\":11296:11302  i /= 2 */\n      dup2\n      dup2\n      tag_119\n      jumpi\n      invalid\n    tag_119:\n      div\n      swap1\n      pop\n        /* \"Contracts/StoreMap.sol\":11107:11307  while (i > 1 && frontier.map[frontier.geohashs[i / 2]] > frontier.map[frontier.geohashs[i]]) {... */\n      jump(tag_103)\n    tag_104:\n        /* \"Contracts/StoreMap.sol\":10783:11310  function enqueue(bytes32 geohash, uint256 cost) public {... */\n      pop\n      pop\n      pop\n      jump\t// out\n        /* \"Contracts/StoreMap.sol\":1594:3221  function get_types(bytes32 hash) view public returns (int32[] memory feature, bytes32[] memory names, bytes32[] memory highways, bytes32[] memory gtypes, bytes32[] memory path) {... */\n    tag_26:\n        /* \"Contracts/StoreMap.sol\":1648:1670  int32[] memory feature */\n      0x60\n        /* \"Contracts/StoreMap.sol\":1672:1694  bytes32[] memory names */\n      dup1\n        /* \"Contracts/StoreMap.sol\":1696:1721  bytes32[] memory highways */\n      0x60\n        /* \"Contracts/StoreMap.sol\":1723:1746  bytes32[] memory gtypes */\n      dup1\n        /* \"Contracts/StoreMap.sol\":1748:1769  bytes32[] memory path */\n      0x60\n        /* \"Contracts/StoreMap.sol\":1775:1786  uint256 num */\n      0x00\n        /* \"Contracts/StoreMap.sol\":1789:1797  geo_maps */\n      0x01\n        /* \"Contracts/StoreMap.sol\":1789:1803  geo_maps[hash] */\n      0x00\n        /* \"Contracts/StoreMap.sol\":1798:1802  hash */\n      dup9\n        /* \"Contracts/StoreMap.sol\":1789:1803  geo_maps[hash] */\n      dup2\n      mstore\n      0x20\n      add\n      swap1\n      dup2\n      mstore\n      0x20\n      add\n      0x00\n      keccak256\n        /* \"Contracts/StoreMap.sol\":1789:1807  geo_maps[hash].num */\n      0x00\n      add\n      sload\n        /* \"Contracts/StoreMap.sol\":1775:1807  uint256 num = geo_maps[hash].num */\n      swap1\n      pop\n        /* \"Contracts/StoreMap.sol\":1811:1827  uint256 path_num */\n      0x00\n        /* \"Contracts/StoreMap.sol\":1830:1831  0 */\n      dup1\n        /* \"Contracts/StoreMap.sol\":1811:1831  uint256 path_num = 0 */\n      swap1\n      pop\n        /* \"Contracts/StoreMap.sol\":1934:1943  uint256 i */\n      0x00\n        /* \"Contracts/StoreMap.sol\":1957:1958  0 */\n      dup1\n        /* \"Contracts/StoreMap.sol\":1951:1954  num */\n      dup4\n        /* \"Contracts/StoreMap.sol\":1951:1958  num > 0 */\n      gt\n        /* \"Contracts/StoreMap.sol\":1948:3218  if(num > 0){... */\n      iszero\n      tag_121\n      jumpi\n        /* \"Contracts/StoreMap.sol\":1990:1993  num */\n      dup3\n        /* \"Contracts/StoreMap.sol\":1986:1987  7 */\n      0x07\n        /* \"Contracts/StoreMap.sol\":1986:1993  7 * num */\n      mul\n        /* \"Contracts/StoreMap.sol\":1974:1994  new int32[](7 * num) */\n      mload(0x40)\n      swap1\n      dup1\n      dup3\n      mstore\n      dup1\n      0x20\n      mul\n      0x20\n      add\n      dup3\n      add\n      0x40\n      mstore\n      dup1\n      iszero\n      tag_122\n      jumpi\n      dup2\n      0x20\n      add\n        /* \"--CODEGEN--\":29:31   */\n      0x20\n        /* \"--CODEGEN--\":21:27   */\n      dup3\n        /* \"--CODEGEN--\":17:32   */\n      mul\n        /* \"--CODEGEN--\":117:121   */\n      dup1\n        /* \"--CODEGEN--\":105:115   */\n      codesize\n        /* \"--CODEGEN--\":97:103   */\n      dup4\n        /* \"--CODEGEN--\":88:122   */\n      codecopy\n        /* \"--CODEGEN--\":148:152   */\n      dup1\n        /* \"--CODEGEN--\":140:146   */\n      dup3\n        /* \"--CODEGEN--\":136:153   */\n      add\n        /* \"--CODEGEN--\":126:153   */\n      swap2\n      pop\n        /* \"--CODEGEN--\":0:157   */\n      pop\n        /* \"Contracts/StoreMap.sol\":1974:1994  new int32[](7 * num) */\n      swap1\n      pop\n    tag_122:\n      pop\n        /* \"Contracts/StoreMap.sol\":1964:1994  feature = new int32[](7 * num) */\n      swap8\n      pop\n        /* \"Contracts/StoreMap.sol\":2022:2025  num */\n      dup3\n        /* \"Contracts/StoreMap.sol\":2007:2027  new bytes32[]( num ) */\n      mload(0x40)\n      swap1\n      dup1\n      dup3\n      mstore\n      dup1\n      0x20\n      mul\n      0x20\n      add\n      dup3\n      add\n      0x40\n      mstore\n      dup1\n      iszero\n      tag_123\n      jumpi\n      dup2\n      0x20\n      add\n        /* \"--CODEGEN--\":29:31   */\n      0x20\n        /* \"--CODEGEN--\":21:27   */\n      dup3\n        /* \"--CODEGEN--\":17:32   */\n      mul\n        /* \"--CODEGEN--\":117:121   */\n      dup1\n        /* \"--CODEGEN--\":105:115   */\n      codesize\n        /* \"--CODEGEN--\":97:103   */\n      dup4\n        /* \"--CODEGEN--\":88:122   */\n      codecopy\n        /* \"--CODEGEN--\":148:152   */\n      dup1\n        /* \"--CODEGEN--\":140:146   */\n      dup3\n        /* \"--CODEGEN--\":136:153   */\n      add\n        /* \"--CODEGEN--\":126:153   */\n      swap2\n      pop\n        /* \"--CODEGEN--\":0:157   */\n      pop\n        /* \"Contracts/StoreMap.sol\":2007:2027  new bytes32[]( num ) */\n      swap1\n      pop\n    tag_123:\n      pop\n        /* \"Contracts/StoreMap.sol\":1999:2027  names = new bytes32[]( num ) */\n      swap7\n      pop\n        /* \"Contracts/StoreMap.sol\":2058:2061  num */\n      dup3\n        /* \"Contracts/StoreMap.sol\":2043:2063  new bytes32[]( num ) */\n      mload(0x40)\n      swap1\n      dup1\n      dup3\n      mstore\n      dup1\n      0x20\n      mul\n      0x20\n      add\n      dup3\n      add\n      0x40\n      mstore\n      dup1\n      iszero\n      tag_124\n      jumpi\n      dup2\n      0x20\n      add\n        /* \"--CODEGEN--\":29:31   */\n      0x20\n        /* \"--CODEGEN--\":21:27   */\n      dup3\n        /* \"--CODEGEN--\":17:32   */\n      mul\n        /* \"--CODEGEN--\":117:121   */\n      dup1\n        /* \"--CODEGEN--\":105:115   */\n      codesize\n        /* \"--CODEGEN--\":97:103   */\n      dup4\n        /* \"--CODEGEN--\":88:122   */\n      codecopy\n        /* \"--CODEGEN--\":148:152   */\n      dup1\n        /* \"--CODEGEN--\":140:146   */\n      dup3\n        /* \"--CODEGEN--\":136:153   */\n      add\n        /* \"--CODEGEN--\":126:153   */\n      swap2\n      pop\n        /* \"--CODEGEN--\":0:157   */\n      pop\n        /* \"Contracts/StoreMap.sol\":2043:2063  new bytes32[]( num ) */\n      swap1\n      pop\n    tag_124:\n      pop\n        /* \"Contracts/StoreMap.sol\":2032:2063  highways = new bytes32[]( num ) */\n      swap6\n      pop\n        /* \"Contracts/StoreMap.sol\":2092:2095  num */\n      dup3\n        /* \"Contracts/StoreMap.sol\":2077:2097  new bytes32[]( num ) */\n      mload(0x40)\n      swap1\n      dup1\n      dup3\n      mstore\n      dup1\n      0x20\n      mul\n      0x20\n      add\n      dup3\n      add\n      0x40\n      mstore\n      dup1\n      iszero\n      tag_125\n      jumpi\n      dup2\n      0x20\n      add\n        /* \"--CODEGEN--\":29:31   */\n      0x20\n        /* \"--CODEGEN--\":21:27   */\n      dup3\n        /* \"--CODEGEN--\":17:32   */\n      mul\n        /* \"--CODEGEN--\":117:121   */\n      dup1\n        /* \"--CODEGEN--\":105:115   */\n      codesize\n        /* \"--CODEGEN--\":97:103   */\n      dup4\n        /* \"--CODEGEN--\":88:122   */\n      codecopy\n        /* \"--CODEGEN--\":148:152   */\n      dup1\n        /* \"--CODEGEN--\":140:146   */\n      dup3\n        /* \"--CODEGEN--\":136:153   */\n      add\n        /* \"--CODEGEN--\":126:153   */\n      swap2\n      pop\n        /* \"--CODEGEN--\":0:157   */\n      pop\n        /* \"Contracts/StoreMap.sol\":2077:2097  new bytes32[]( num ) */\n      swap1\n      pop\n    tag_125:\n      pop\n        /* \"Contracts/StoreMap.sol\":2068:2097  gtypes = new bytes32[]( num ) */\n      swap5\n      pop\n        /* \"Contracts/StoreMap.sol\":2102:2113  uint256 gid */\n      0x00\n        /* \"Contracts/StoreMap.sol\":2124:2125  0 */\n      dup1\n        /* \"Contracts/StoreMap.sol\":2122:2125  i=0 */\n      swap2\n      pop\n        /* \"Contracts/StoreMap.sol\":2118:2840  for(i=0; i < num; i++){... */\n    tag_126:\n        /* \"Contracts/StoreMap.sol\":2131:2134  num */\n      dup4\n        /* \"Contracts/StoreMap.sol\":2127:2128  i */\n      dup3\n        /* \"Contracts/StoreMap.sol\":2127:2134  i < num */\n      lt\n        /* \"Contracts/StoreMap.sol\":2118:2840  for(i=0; i < num; i++){... */\n      iszero\n      tag_127\n      jumpi\n        /* \"Contracts/StoreMap.sol\":2152:2160  geo_maps */\n      0x01\n        /* \"Contracts/StoreMap.sol\":2152:2166  geo_maps[hash] */\n      0x00\n        /* \"Contracts/StoreMap.sol\":2161:2165  hash */\n      dup12\n        /* \"Contracts/StoreMap.sol\":2152:2166  geo_maps[hash] */\n      dup2\n      mstore\n      0x20\n      add\n      swap1\n      dup2\n      mstore\n      0x20\n      add\n      0x00\n      keccak256\n        /* \"Contracts/StoreMap.sol\":2152:2177  geo_maps[hash].types_list */\n      0x01\n      add\n        /* \"Contracts/StoreMap.sol\":2152:2180  geo_maps[hash].types_list[i] */\n      0x00\n        /* \"Contracts/StoreMap.sol\":2178:2179  i */\n      dup4\n        /* \"Contracts/StoreMap.sol\":2152:2180  geo_maps[hash].types_list[i] */\n      dup2\n      mstore\n      0x20\n      add\n      swap1\n      dup2\n      mstore\n      0x20\n      add\n      0x00\n      keccak256\n      sload\n        /* \"Contracts/StoreMap.sol\":2146:2180  gid = geo_maps[hash].types_list[i] */\n      swap1\n      pop\n        /* \"Contracts/StoreMap.sol\":2187:2215  one_type storage single_type */\n      0x00\n        /* \"Contracts/StoreMap.sol\":2218:2223  types */\n      dup1\n        /* \"Contracts/StoreMap.sol\":2218:2228  types[gid] */\n      0x00\n        /* \"Contracts/StoreMap.sol\":2224:2227  gid */\n      dup4\n        /* \"Contracts/StoreMap.sol\":2218:2228  types[gid] */\n      dup2\n      mstore\n      0x20\n      add\n      swap1\n      dup2\n      mstore\n      0x20\n      add\n      0x00\n      keccak256\n        /* \"Contracts/StoreMap.sol\":2187:2228  one_type storage single_type = types[gid] */\n      swap1\n      pop\n        /* \"Contracts/StoreMap.sol\":2234:2246  uint256 base */\n      0x00\n        /* \"Contracts/StoreMap.sol\":2253:2254  7 */\n      0x07\n        /* \"Contracts/StoreMap.sol\":2249:2250  i */\n      dup5\n        /* \"Contracts/StoreMap.sol\":2249:2254  i * 7 */\n      mul\n        /* \"Contracts/StoreMap.sol\":2234:2254  uint256 base = i * 7 */\n      swap1\n      pop\n        /* \"Contracts/StoreMap.sol\":2282:2285  gid */\n      dup3\n        /* \"Contracts/StoreMap.sol\":2260:2267  feature */\n      dup12\n        /* \"Contracts/StoreMap.sol\":2268:2272  base */\n      dup3\n        /* \"Contracts/StoreMap.sol\":2260:2273  feature[base] */\n      dup2\n      mload\n      dup2\n      lt\n      tag_129\n      jumpi\n      invalid\n    tag_129:\n      0x20\n      mul\n      0x20\n      add\n      add\n        /* \"Contracts/StoreMap.sol\":2260:2286  feature[base] = int32(gid) */\n      swap1\n      0x03\n      signextend\n      swap1\n      dup2\n      0x03\n      signextend\n      dup2\n      mstore\n      pop\n      pop\n        /* \"Contracts/StoreMap.sol\":2312:2323  single_type */\n      dup2\n        /* \"Contracts/StoreMap.sol\":2312:2331  single_type.minzoom */\n      0x00\n      add\n      0x00\n      swap1\n      sload\n      swap1\n      0x0100\n      exp\n      swap1\n      div\n      0x03\n      signextend\n        /* \"Contracts/StoreMap.sol\":2292:2299  feature */\n      dup12\n        /* \"Contracts/StoreMap.sol\":2307:2308  1 */\n      0x01\n        /* \"Contracts/StoreMap.sol\":2300:2304  base */\n      dup4\n        /* \"Contracts/StoreMap.sol\":2300:2308  base + 1 */\n      add\n        /* \"Contracts/StoreMap.sol\":2292:2309  feature[base + 1] */\n      dup2\n      mload\n      dup2\n      lt\n      tag_130\n      jumpi\n      invalid\n    tag_130:\n      0x20\n      mul\n      0x20\n      add\n      add\n        /* \"Contracts/StoreMap.sol\":2292:2331  feature[base + 1] = single_type.minzoom */\n      swap1\n      0x03\n      signextend\n      swap1\n      dup2\n      0x03\n      signextend\n      dup2\n      mstore\n      pop\n      pop\n        /* \"Contracts/StoreMap.sol\":2357:2368  single_type */\n      dup2\n        /* \"Contracts/StoreMap.sol\":2357:2373  single_type.cost */\n      0x00\n      add\n      0x04\n      swap1\n      sload\n      swap1\n      0x0100\n      exp\n      swap1\n      div\n      0x03\n      signextend\n        /* \"Contracts/StoreMap.sol\":2337:2344  feature */\n      dup12\n        /* \"Contracts/StoreMap.sol\":2352:2353  2 */\n      0x02\n        /* \"Contracts/StoreMap.sol\":2345:2349  base */\n      dup4\n        /* \"Contracts/StoreMap.sol\":2345:2353  base + 2 */\n      add\n        /* \"Contracts/StoreMap.sol\":2337:2354  feature[base + 2] */\n      dup2\n      mload\n      dup2\n      lt\n      tag_131\n      jumpi\n      invalid\n    tag_131:\n      0x20\n      mul\n      0x20\n      add\n      add\n        /* \"Contracts/StoreMap.sol\":2337:2373  feature[base + 2] = single_type.cost */\n      swap1\n      0x03\n      signextend\n      swap1\n      dup2\n      0x03\n      signextend\n      dup2\n      mstore\n      pop\n      pop\n        /* \"Contracts/StoreMap.sol\":2399:2410  single_type */\n      dup2\n        /* \"Contracts/StoreMap.sol\":2399:2417  single_type.source */\n      0x03\n      add\n      0x00\n      swap1\n      sload\n      swap1\n      0x0100\n      exp\n      swap1\n      div\n      0x03\n      signextend\n        /* \"Contracts/StoreMap.sol\":2379:2386  feature */\n      dup12\n        /* \"Contracts/StoreMap.sol\":2394:2395  3 */\n      0x03\n        /* \"Contracts/StoreMap.sol\":2387:2391  base */\n      dup4\n        /* \"Contracts/StoreMap.sol\":2387:2395  base + 3 */\n      add\n        /* \"Contracts/StoreMap.sol\":2379:2396  feature[base + 3] */\n      dup2\n      mload\n      dup2\n      lt\n      tag_132\n      jumpi\n      invalid\n    tag_132:\n      0x20\n      mul\n      0x20\n      add\n      add\n        /* \"Contracts/StoreMap.sol\":2379:2417  feature[base + 3] = single_type.source */\n      swap1\n      0x03\n      signextend\n      swap1\n      dup2\n      0x03\n      signextend\n      dup2\n      mstore\n      pop\n      pop\n        /* \"Contracts/StoreMap.sol\":2443:2454  single_type */\n      dup2\n        /* \"Contracts/StoreMap.sol\":2443:2461  single_type.target */\n      0x03\n      add\n      0x04\n      swap1\n      sload\n      swap1\n      0x0100\n      exp\n      swap1\n      div\n      0x03\n      signextend\n        /* \"Contracts/StoreMap.sol\":2423:2430  feature */\n      dup12\n        /* \"Contracts/StoreMap.sol\":2438:2439  4 */\n      0x04\n        /* \"Contracts/StoreMap.sol\":2431:2435  base */\n      dup4\n        /* \"Contracts/StoreMap.sol\":2431:2439  base + 4 */\n      add\n        /* \"Contracts/StoreMap.sol\":2423:2440  feature[base + 4] */\n      dup2\n      mload\n      dup2\n      lt\n      tag_133\n      jumpi\n      invalid\n    tag_133:\n      0x20\n      mul\n      0x20\n      add\n      add\n        /* \"Contracts/StoreMap.sol\":2423:2461  feature[base + 4] = single_type.target */\n      swap1\n      0x03\n      signextend\n      swap1\n      dup2\n      0x03\n      signextend\n      dup2\n      mstore\n      pop\n      pop\n        /* \"Contracts/StoreMap.sol\":2470:2481  single_type */\n      dup2\n        /* \"Contracts/StoreMap.sol\":2470:2488  single_type.oneway */\n      0x00\n      add\n      0x08\n      swap1\n      sload\n      swap1\n      0x0100\n      exp\n      swap1\n      div\n      0xff\n      and\n        /* \"Contracts/StoreMap.sol\":2467:2568  if(single_type.oneway){... */\n      iszero\n      tag_134\n      jumpi\n        /* \"Contracts/StoreMap.sol\":2516:2517  1 */\n      0x01\n        /* \"Contracts/StoreMap.sol\":2496:2503  feature */\n      dup12\n        /* \"Contracts/StoreMap.sol\":2511:2512  5 */\n      0x05\n        /* \"Contracts/StoreMap.sol\":2504:2508  base */\n      dup4\n        /* \"Contracts/StoreMap.sol\":2504:2512  base + 5 */\n      add\n        /* \"Contracts/StoreMap.sol\":2496:2513  feature[base + 5] */\n      dup2\n      mload\n      dup2\n      lt\n      tag_135\n      jumpi\n      invalid\n    tag_135:\n      0x20\n      mul\n      0x20\n      add\n      add\n        /* \"Contracts/StoreMap.sol\":2496:2517  feature[base + 5] = 1 */\n      swap1\n      0x03\n      signextend\n      swap1\n      dup2\n      0x03\n      signextend\n      dup2\n      mstore\n      pop\n      pop\n        /* \"Contracts/StoreMap.sol\":2467:2568  if(single_type.oneway){... */\n      jump(tag_136)\n    tag_134:\n        /* \"Contracts/StoreMap.sol\":2560:2561  0 */\n      0x00\n        /* \"Contracts/StoreMap.sol\":2540:2547  feature */\n      dup12\n        /* \"Contracts/StoreMap.sol\":2555:2556  5 */\n      0x05\n        /* \"Contracts/StoreMap.sol\":2548:2552  base */\n      dup4\n        /* \"Contracts/StoreMap.sol\":2548:2556  base + 5 */\n      add\n        /* \"Contracts/StoreMap.sol\":2540:2557  feature[base + 5] */\n      dup2\n      mload\n      dup2\n      lt\n      tag_137\n      jumpi\n      invalid\n    tag_137:\n      0x20\n      mul\n      0x20\n      add\n      add\n        /* \"Contracts/StoreMap.sol\":2540:2561  feature[base + 5] = 0 */\n      swap1\n      0x03\n      signextend\n      swap1\n      dup2\n      0x03\n      signextend\n      dup2\n      mstore\n      pop\n      pop\n        /* \"Contracts/StoreMap.sol\":2467:2568  if(single_type.oneway){... */\n    tag_136:\n        /* \"Contracts/StoreMap.sol\":2576:2587  single_type */\n      dup2\n        /* \"Contracts/StoreMap.sol\":2576:2596  single_type.building */\n      0x00\n      add\n      0x09\n      swap1\n      sload\n      swap1\n      0x0100\n      exp\n      swap1\n      div\n      0xff\n      and\n        /* \"Contracts/StoreMap.sol\":2573:2676  if(single_type.building){... */\n      iszero\n      tag_138\n      jumpi\n        /* \"Contracts/StoreMap.sol\":2624:2625  1 */\n      0x01\n        /* \"Contracts/StoreMap.sol\":2604:2611  feature */\n      dup12\n        /* \"Contracts/StoreMap.sol\":2619:2620  6 */\n      0x06\n        /* \"Contracts/StoreMap.sol\":2612:2616  base */\n      dup4\n        /* \"Contracts/StoreMap.sol\":2612:2620  base + 6 */\n      add\n        /* \"Contracts/StoreMap.sol\":2604:2621  feature[base + 6] */\n      dup2\n      mload\n      dup2\n      lt\n      tag_139\n      jumpi\n      invalid\n    tag_139:\n      0x20\n      mul\n      0x20\n      add\n      add\n        /* \"Contracts/StoreMap.sol\":2604:2625  feature[base + 6] = 1 */\n      swap1\n      0x03\n      signextend\n      swap1\n      dup2\n      0x03\n      signextend\n      dup2\n      mstore\n      pop\n      pop\n        /* \"Contracts/StoreMap.sol\":2573:2676  if(single_type.building){... */\n      jump(tag_140)\n    tag_138:\n        /* \"Contracts/StoreMap.sol\":2668:2669  0 */\n      0x00\n        /* \"Contracts/StoreMap.sol\":2648:2655  feature */\n      dup12\n        /* \"Contracts/StoreMap.sol\":2663:2664  6 */\n      0x06\n        /* \"Contracts/StoreMap.sol\":2656:2660  base */\n      dup4\n        /* \"Contracts/StoreMap.sol\":2656:2664  base + 6 */\n      add\n        /* \"Contracts/StoreMap.sol\":2648:2665  feature[base + 6] */\n      dup2\n      mload\n      dup2\n      lt\n      tag_141\n      jumpi\n      invalid\n    tag_141:\n      0x20\n      mul\n      0x20\n      add\n      add\n        /* \"Contracts/StoreMap.sol\":2648:2669  feature[base + 6] = 0 */\n      swap1\n      0x03\n      signextend\n      swap1\n      dup2\n      0x03\n      signextend\n      dup2\n      mstore\n      pop\n      pop\n        /* \"Contracts/StoreMap.sol\":2573:2676  if(single_type.building){... */\n    tag_140:\n        /* \"Contracts/StoreMap.sol\":2707:2718  single_type */\n      dup2\n        /* \"Contracts/StoreMap.sol\":2707:2727  single_type.path_num */\n      0x05\n      add\n      sload\n        /* \"Contracts/StoreMap.sol\":2703:2704  1 */\n      0x01\n        /* \"Contracts/StoreMap.sol\":2692:2700  path_num */\n      dup7\n        /* \"Contracts/StoreMap.sol\":2692:2704  path_num + 1 */\n      add\n        /* \"Contracts/StoreMap.sol\":2692:2727  path_num + 1 + single_type.path_num */\n      add\n        /* \"Contracts/StoreMap.sol\":2681:2727  path_num = path_num + 1 + single_type.path_num */\n      swap5\n      pop\n        /* \"Contracts/StoreMap.sol\":2744:2755  single_type */\n      dup2\n        /* \"Contracts/StoreMap.sol\":2744:2760  single_type.name */\n      0x02\n      add\n      sload\n        /* \"Contracts/StoreMap.sol\":2733:2738  names */\n      dup11\n        /* \"Contracts/StoreMap.sol\":2739:2740  i */\n      dup6\n        /* \"Contracts/StoreMap.sol\":2733:2741  names[i] */\n      dup2\n      mload\n      dup2\n      lt\n      tag_142\n      jumpi\n      invalid\n    tag_142:\n      0x20\n      mul\n      0x20\n      add\n      add\n        /* \"Contracts/StoreMap.sol\":2733:2760  names[i] = single_type.name */\n      dup2\n      dup2\n      mstore\n      pop\n      pop\n        /* \"Contracts/StoreMap.sol\":2780:2791  single_type */\n      dup2\n        /* \"Contracts/StoreMap.sol\":2780:2799  single_type.highway */\n      0x01\n      add\n      sload\n        /* \"Contracts/StoreMap.sol\":2766:2774  highways */\n      dup10\n        /* \"Contracts/StoreMap.sol\":2775:2776  i */\n      dup6\n        /* \"Contracts/StoreMap.sol\":2766:2777  highways[i] */\n      dup2\n      mload\n      dup2\n      lt\n      tag_143\n      jumpi\n      invalid\n    tag_143:\n      0x20\n      mul\n      0x20\n      add\n      add\n        /* \"Contracts/StoreMap.sol\":2766:2799  highways[i] = single_type.highway */\n      dup2\n      dup2\n      mstore\n      pop\n      pop\n        /* \"Contracts/StoreMap.sol\":2817:2828  single_type */\n      dup2\n        /* \"Contracts/StoreMap.sol\":2817:2834  single_type.gtype */\n      0x04\n      add\n      sload\n        /* \"Contracts/StoreMap.sol\":2805:2811  gtypes */\n      dup9\n        /* \"Contracts/StoreMap.sol\":2812:2813  i */\n      dup6\n        /* \"Contracts/StoreMap.sol\":2805:2814  gtypes[i] */\n      dup2\n      mload\n      dup2\n      lt\n      tag_144\n      jumpi\n      invalid\n    tag_144:\n      0x20\n      mul\n      0x20\n      add\n      add\n        /* \"Contracts/StoreMap.sol\":2805:2834  gtypes[i] = single_type.gtype */\n      dup2\n      dup2\n      mstore\n      pop\n      pop\n        /* \"Contracts/StoreMap.sol\":2118:2840  for(i=0; i < num; i++){... */\n      pop\n      pop\n        /* \"Contracts/StoreMap.sol\":2136:2139  i++ */\n      dup2\n      dup1\n      0x01\n      add\n      swap3\n      pop\n      pop\n        /* \"Contracts/StoreMap.sol\":2118:2840  for(i=0; i < num; i++){... */\n      jump(tag_126)\n    tag_127:\n        /* \"Contracts/StoreMap.sol\":2865:2873  path_num */\n      dup3\n        /* \"Contracts/StoreMap.sol\":2851:2874  new bytes32[](path_num) */\n      mload(0x40)\n      swap1\n      dup1\n      dup3\n      mstore\n      dup1\n      0x20\n      mul\n      0x20\n      add\n      dup3\n      add\n      0x40\n      mstore\n      dup1\n      iszero\n      tag_145\n      jumpi\n      dup2\n      0x20\n      add\n        /* \"--CODEGEN--\":29:31   */\n      0x20\n        /* \"--CODEGEN--\":21:27   */\n      dup3\n        /* \"--CODEGEN--\":17:32   */\n      mul\n        /* \"--CODEGEN--\":117:121   */\n      dup1\n        /* \"--CODEGEN--\":105:115   */\n      codesize\n        /* \"--CODEGEN--\":97:103   */\n      dup4\n        /* \"--CODEGEN--\":88:122   */\n      codecopy\n        /* \"--CODEGEN--\":148:152   */\n      dup1\n        /* \"--CODEGEN--\":140:146   */\n      dup3\n        /* \"--CODEGEN--\":136:153   */\n      add\n        /* \"--CODEGEN--\":126:153   */\n      swap2\n      pop\n        /* \"--CODEGEN--\":0:157   */\n      pop\n        /* \"Contracts/StoreMap.sol\":2851:2874  new bytes32[](path_num) */\n      swap1\n      pop\n    tag_145:\n      pop\n        /* \"Contracts/StoreMap.sol\":2844:2874  path = new bytes32[](path_num) */\n      swap5\n      pop\n        /* \"Contracts/StoreMap.sol\":2879:2890  uint256 pos */\n      0x00\n        /* \"Contracts/StoreMap.sol\":2893:2894  0 */\n      dup1\n        /* \"Contracts/StoreMap.sol\":2879:2894  uint256 pos = 0 */\n      swap1\n      pop\n        /* \"Contracts/StoreMap.sol\":2905:2906  0 */\n      0x00\n        /* \"Contracts/StoreMap.sol\":2903:2906  i=0 */\n      swap3\n      pop\n        /* \"Contracts/StoreMap.sol\":2899:3214  for(i=0; i< num; i++){... */\n    tag_146:\n        /* \"Contracts/StoreMap.sol\":2911:2914  num */\n      dup5\n        /* \"Contracts/StoreMap.sol\":2908:2909  i */\n      dup4\n        /* \"Contracts/StoreMap.sol\":2908:2914  i< num */\n      lt\n        /* \"Contracts/StoreMap.sol\":2899:3214  for(i=0; i< num; i++){... */\n      iszero\n      tag_147\n      jumpi\n        /* \"Contracts/StoreMap.sol\":2932:2940  geo_maps */\n      0x01\n        /* \"Contracts/StoreMap.sol\":2932:2946  geo_maps[hash] */\n      0x00\n        /* \"Contracts/StoreMap.sol\":2941:2945  hash */\n      dup13\n        /* \"Contracts/StoreMap.sol\":2932:2946  geo_maps[hash] */\n      dup2\n      mstore\n      0x20\n      add\n      swap1\n      dup2\n      mstore\n      0x20\n      add\n      0x00\n      keccak256\n        /* \"Contracts/StoreMap.sol\":2932:2957  geo_maps[hash].types_list */\n      0x01\n      add\n        /* \"Contracts/StoreMap.sol\":2932:2960  geo_maps[hash].types_list[i] */\n      0x00\n        /* \"Contracts/StoreMap.sol\":2958:2959  i */\n      dup5\n        /* \"Contracts/StoreMap.sol\":2932:2960  geo_maps[hash].types_list[i] */\n      dup2\n      mstore\n      0x20\n      add\n      swap1\n      dup2\n      mstore\n      0x20\n      add\n      0x00\n      keccak256\n      sload\n        /* \"Contracts/StoreMap.sol\":2926:2960  gid = geo_maps[hash].types_list[i] */\n      swap2\n      pop\n        /* \"Contracts/StoreMap.sol\":3016:3045  one_type storage single_type2 */\n      0x00\n        /* \"Contracts/StoreMap.sol\":3048:3053  types */\n      dup1\n        /* \"Contracts/StoreMap.sol\":3048:3058  types[gid] */\n      0x00\n        /* \"Contracts/StoreMap.sol\":3054:3057  gid */\n      dup5\n        /* \"Contracts/StoreMap.sol\":3048:3058  types[gid] */\n      dup2\n      mstore\n      0x20\n      add\n      swap1\n      dup2\n      mstore\n      0x20\n      add\n      0x00\n      keccak256\n        /* \"Contracts/StoreMap.sol\":3016:3058  one_type storage single_type2 = types[gid] */\n      swap1\n      pop\n        /* \"Contracts/StoreMap.sol\":3086:3098  single_type2 */\n      dup1\n        /* \"Contracts/StoreMap.sol\":3086:3107  single_type2.path_num */\n      0x05\n      add\n      sload\n        /* \"Contracts/StoreMap.sol\":3078:3108  bytes32(single_type2.path_num) */\n      0x00\n      shl\n        /* \"Contracts/StoreMap.sol\":3064:3068  path */\n      dup8\n        /* \"Contracts/StoreMap.sol\":3069:3074  pos++ */\n      dup4\n      dup1\n      0x01\n      add\n      swap5\n      pop\n        /* \"Contracts/StoreMap.sol\":3064:3075  path[pos++] */\n      dup2\n      mload\n      dup2\n      lt\n      tag_149\n      jumpi\n      invalid\n    tag_149:\n      0x20\n      mul\n      0x20\n      add\n      add\n        /* \"Contracts/StoreMap.sol\":3064:3108  path[pos++] = bytes32(single_type2.path_num) */\n      dup2\n      dup2\n      mstore\n      pop\n      pop\n        /* \"Contracts/StoreMap.sol\":3118:3127  uint256 j */\n      0x00\n        /* \"Contracts/StoreMap.sol\":3128:3129  0 */\n      dup1\n        /* \"Contracts/StoreMap.sol\":3118:3129  uint256 j=0 */\n      swap1\n      pop\n        /* \"Contracts/StoreMap.sol\":3114:3209  for(uint256 j=0; j< single_type2.path_num; j++){... */\n    tag_150:\n        /* \"Contracts/StoreMap.sol\":3134:3146  single_type2 */\n      dup2\n        /* \"Contracts/StoreMap.sol\":3134:3155  single_type2.path_num */\n      0x05\n      add\n      sload\n        /* \"Contracts/StoreMap.sol\":3131:3132  j */\n      dup2\n        /* \"Contracts/StoreMap.sol\":3131:3155  j< single_type2.path_num */\n      lt\n        /* \"Contracts/StoreMap.sol\":3114:3209  for(uint256 j=0; j< single_type2.path_num; j++){... */\n      iszero\n      tag_151\n      jumpi\n        /* \"Contracts/StoreMap.sol\":3182:3194  single_type2 */\n      dup2\n        /* \"Contracts/StoreMap.sol\":3182:3199  single_type2.path */\n      0x06\n      add\n        /* \"Contracts/StoreMap.sol\":3182:3202  single_type2.path[j] */\n      0x00\n        /* \"Contracts/StoreMap.sol\":3200:3201  j */\n      dup3\n        /* \"Contracts/StoreMap.sol\":3182:3202  single_type2.path[j] */\n      dup2\n      mstore\n      0x20\n      add\n      swap1\n      dup2\n      mstore\n      0x20\n      add\n      0x00\n      keccak256\n      sload\n        /* \"Contracts/StoreMap.sol\":3168:3172  path */\n      dup9\n        /* \"Contracts/StoreMap.sol\":3173:3178  pos++ */\n      dup5\n      dup1\n      0x01\n      add\n      swap6\n      pop\n        /* \"Contracts/StoreMap.sol\":3168:3179  path[pos++] */\n      dup2\n      mload\n      dup2\n      lt\n      tag_153\n      jumpi\n      invalid\n    tag_153:\n      0x20\n      mul\n      0x20\n      add\n      add\n        /* \"Contracts/StoreMap.sol\":3168:3202  path[pos++] = single_type2.path[j] */\n      dup2\n      dup2\n      mstore\n      pop\n      pop\n        /* \"Contracts/StoreMap.sol\":3157:3160  j++ */\n      dup1\n      dup1\n      0x01\n      add\n      swap2\n      pop\n      pop\n        /* \"Contracts/StoreMap.sol\":3114:3209  for(uint256 j=0; j< single_type2.path_num; j++){... */\n      jump(tag_150)\n    tag_151:\n      pop\n        /* \"Contracts/StoreMap.sol\":2899:3214  for(i=0; i< num; i++){... */\n      pop\n        /* \"Contracts/StoreMap.sol\":2916:2919  i++ */\n      dup3\n      dup1\n      0x01\n      add\n      swap4\n      pop\n      pop\n        /* \"Contracts/StoreMap.sol\":2899:3214  for(i=0; i< num; i++){... */\n      jump(tag_146)\n    tag_147:\n        /* \"Contracts/StoreMap.sol\":1948:3218  if(num > 0){... */\n      pop\n      pop\n    tag_121:\n        /* \"Contracts/StoreMap.sol\":1594:3221  function get_types(bytes32 hash) view public returns (int32[] memory feature, bytes32[] memory names, bytes32[] memory highways, bytes32[] memory gtypes, bytes32[] memory path) {... */\n      pop\n      pop\n      pop\n      swap2\n      swap4\n      swap6\n      swap1\n      swap3\n      swap5\n      pop\n      jump\t// out\n        /* \"Contracts/StoreMap.sol\":9146:9714  function getLonBlock(string memory geohash) public view returns (uint256) {... */\n    tag_47:\n        /* \"Contracts/StoreMap.sol\":9211:9218  uint256 */\n      0x00\n        /* \"Contracts/StoreMap.sol\":9242:9251  bool even */\n      dup1\n        /* \"Contracts/StoreMap.sol\":9254:9258  true */\n      0x01\n        /* \"Contracts/StoreMap.sol\":9242:9258  bool even = true */\n      swap1\n      pop\n        /* \"Contracts/StoreMap.sol\":9262:9273  uint256 lon */\n      0x00\n        /* \"Contracts/StoreMap.sol\":9276:9277  0 */\n      dup1\n        /* \"Contracts/StoreMap.sol\":9262:9277  uint256 lon = 0 */\n      swap1\n      pop\n        /* \"Contracts/StoreMap.sol\":9286:9295  uint256 i */\n      0x00\n        /* \"Contracts/StoreMap.sol\":9298:9299  0 */\n      dup1\n        /* \"Contracts/StoreMap.sol\":9286:9299  uint256 i = 0 */\n      swap1\n      pop\n        /* \"Contracts/StoreMap.sol\":9281:9697  for (uint256 i = 0; i < bytes(geohash).length; i++) {... */\n    tag_155:\n        /* \"Contracts/StoreMap.sol\":9311:9318  geohash */\n      dup5\n        /* \"Contracts/StoreMap.sol\":9305:9326  bytes(geohash).length */\n      mload\n        /* \"Contracts/StoreMap.sol\":9301:9302  i */\n      dup2\n        /* \"Contracts/StoreMap.sol\":9301:9326  i < bytes(geohash).length */\n      lt\n        /* \"Contracts/StoreMap.sol\":9281:9697  for (uint256 i = 0; i < bytes(geohash).length; i++) {... */\n      iszero\n      tag_156\n      jumpi\n        /* \"Contracts/StoreMap.sol\":9338:9344  byte c */\n      0x00\n        /* \"Contracts/StoreMap.sol\":9353:9360  geohash */\n      dup6\n        /* \"Contracts/StoreMap.sol\":9362:9363  i */\n      dup3\n        /* \"Contracts/StoreMap.sol\":9347:9364  bytes(geohash)[i] */\n      dup2\n      mload\n      dup2\n      lt\n      tag_158\n      jumpi\n      invalid\n    tag_158:\n      0x20\n      add\n      add\n      mload\n      0xf8\n      shr\n      0xf8\n      shl\n        /* \"Contracts/StoreMap.sol\":9338:9364  byte c = bytes(geohash)[i] */\n      swap1\n      pop\n        /* \"Contracts/StoreMap.sol\":9369:9379  uint256 cd */\n      0x00\n        /* \"Contracts/StoreMap.sol\":9389:9398  uint256 j */\n      dup1\n        /* \"Contracts/StoreMap.sol\":9401:9402  0 */\n      0x00\n        /* \"Contracts/StoreMap.sol\":9389:9402  uint256 j = 0 */\n      swap1\n      pop\n        /* \"Contracts/StoreMap.sol\":9384:9505  for (uint256 j = 0; j < bytes(Base32).length; j++) {... */\n    tag_159:\n        /* \"Contracts/StoreMap.sol\":9414:9420  Base32 */\n      0x0c\n        /* \"Contracts/StoreMap.sol\":9408:9428  bytes(Base32).length */\n      dup1\n      sload\n      0x01\n      dup2\n      0x01\n      and\n      iszero\n      0x0100\n      mul\n      sub\n      and\n      0x02\n      swap1\n      div\n      swap1\n      pop\n        /* \"Contracts/StoreMap.sol\":9404:9405  j */\n      dup2\n        /* \"Contracts/StoreMap.sol\":9404:9428  j < bytes(Base32).length */\n      lt\n        /* \"Contracts/StoreMap.sol\":9384:9505  for (uint256 j = 0; j < bytes(Base32).length; j++) {... */\n      iszero\n      tag_160\n      jumpi\n        /* \"Contracts/StoreMap.sol\":9465:9466  c */\n      dup3\n        /* \"Contracts/StoreMap.sol\":9445:9466  bytes(Base32)[j] == c */\n      not(0xffffffffffffffffffffffffffffffffffffffffffffffffffffffffffffff)\n      and\n        /* \"Contracts/StoreMap.sol\":9451:9457  Base32 */\n      0x0c\n        /* \"Contracts/StoreMap.sol\":9459:9460  j */\n      dup3\n        /* \"Contracts/StoreMap.sol\":9445:9461  bytes(Base32)[j] */\n      dup2\n      sload\n      0x01\n      dup2\n      0x01\n      and\n      iszero\n      0x0100\n      mul\n      sub\n      and\n      0x02\n      swap1\n      div\n      dup2\n      lt\n      tag_162\n      jumpi\n      invalid\n    tag_162:\n      dup2\n      sload\n      0x01\n      and\n      iszero\n      tag_163\n      jumpi\n      swap1\n      0x00\n      mstore\n      keccak256(0x00, 0x20)\n      swap1\n      0x20\n      swap2\n      dup3\n      dup3\n      div\n      add\n      swap2\n      swap1\n      mod\n    tag_163:\n      swap1\n      sload\n      swap1\n      byte\n      0x0100000000000000000000000000000000000000000000000000000000000000\n      mul\n        /* \"Contracts/StoreMap.sol\":9445:9466  bytes(Base32)[j] == c */\n      not(0xffffffffffffffffffffffffffffffffffffffffffffffffffffffffffffff)\n      and\n      eq\n        /* \"Contracts/StoreMap.sol\":9441:9500  if (bytes(Base32)[j] == c) {... */\n      iszero\n      tag_164\n      jumpi\n        /* \"Contracts/StoreMap.sol\":9480:9481  j */\n      dup1\n        /* \"Contracts/StoreMap.sol\":9475:9481  cd = j */\n      swap2\n      pop\n        /* \"Contracts/StoreMap.sol\":9488:9493  break */\n      jump(tag_160)\n        /* \"Contracts/StoreMap.sol\":9441:9500  if (bytes(Base32)[j] == c) {... */\n    tag_164:\n        /* \"Contracts/StoreMap.sol\":9430:9433  j++ */\n      dup1\n      dup1\n      0x01\n      add\n      swap2\n      pop\n      pop\n        /* \"Contracts/StoreMap.sol\":9384:9505  for (uint256 j = 0; j < bytes(Base32).length; j++) {... */\n      jump(tag_159)\n    tag_160:\n      pop\n        /* \"Contracts/StoreMap.sol\":9514:9523  uint256 j */\n      0x00\n        /* \"Contracts/StoreMap.sol\":9526:9527  0 */\n      dup1\n        /* \"Contracts/StoreMap.sol\":9514:9527  uint256 j = 0 */\n      swap1\n      pop\n        /* \"Contracts/StoreMap.sol\":9509:9693  for (uint256 j = 0; j < 5; j++) {... */\n    tag_165:\n        /* \"Contracts/StoreMap.sol\":9533:9534  5 */\n      0x05\n        /* \"Contracts/StoreMap.sol\":9529:9530  j */\n      dup2\n        /* \"Contracts/StoreMap.sol\":9529:9534  j < 5 */\n      lt\n        /* \"Contracts/StoreMap.sol\":9509:9693  for (uint256 j = 0; j < 5; j++) {... */\n      iszero\n      tag_166\n      jumpi\n        /* \"Contracts/StoreMap.sol\":9547:9559  uint256 mask */\n      0x00\n        /* \"Contracts/StoreMap.sol\":9562:9566  Bits */\n      0x0b\n        /* \"Contracts/StoreMap.sol\":9567:9568  j */\n      dup3\n        /* \"Contracts/StoreMap.sol\":9562:9569  Bits[j] */\n      dup2\n      sload\n      dup2\n      lt\n      tag_168\n      jumpi\n      invalid\n    tag_168:\n      swap1\n      0x00\n      mstore\n      keccak256(0x00, 0x20)\n      add\n      sload\n        /* \"Contracts/StoreMap.sol\":9547:9569  uint256 mask = Bits[j] */\n      swap1\n      pop\n        /* \"Contracts/StoreMap.sol\":9580:9584  even */\n      dup7\n        /* \"Contracts/StoreMap.sol\":9575:9670  if (!even) {... */\n      tag_170\n      jumpi\n        /* \"Contracts/StoreMap.sol\":9605:9606  2 */\n      0x02\n        /* \"Contracts/StoreMap.sol\":9599:9602  lon */\n      dup7\n        /* \"Contracts/StoreMap.sol\":9599:9606  lon * 2 */\n      mul\n        /* \"Contracts/StoreMap.sol\":9593:9606  lon = lon * 2 */\n      swap6\n      pop\n        /* \"Contracts/StoreMap.sol\":9632:9633  0 */\n      0x00\n        /* \"Contracts/StoreMap.sol\":9623:9627  mask */\n      dup2\n        /* \"Contracts/StoreMap.sol\":9618:9620  cd */\n      dup5\n        /* \"Contracts/StoreMap.sol\":9618:9627  cd & mask */\n      and\n        /* \"Contracts/StoreMap.sol\":9617:9633  (cd & mask) != 0 */\n      eq\n        /* \"Contracts/StoreMap.sol\":9613:9664  if ((cd & mask) != 0) {... */\n      tag_171\n      jumpi\n        /* \"Contracts/StoreMap.sol\":9655:9656  1 */\n      0x01\n        /* \"Contracts/StoreMap.sol\":9649:9652  lon */\n      dup7\n        /* \"Contracts/StoreMap.sol\":9649:9656  lon + 1 */\n      add\n        /* \"Contracts/StoreMap.sol\":9643:9656  lon = lon + 1 */\n      swap6\n      pop\n        /* \"Contracts/StoreMap.sol\":9613:9664  if ((cd & mask) != 0) {... */\n    tag_171:\n        /* \"Contracts/StoreMap.sol\":9575:9670  if (!even) {... */\n    tag_170:\n        /* \"Contracts/StoreMap.sol\":9683:9687  even */\n      dup7\n        /* \"Contracts/StoreMap.sol\":9682:9687  !even */\n      iszero\n        /* \"Contracts/StoreMap.sol\":9675:9687  even = !even */\n      swap7\n      pop\n        /* \"Contracts/StoreMap.sol\":9509:9693  for (uint256 j = 0; j < 5; j++) {... */\n      pop\n        /* \"Contracts/StoreMap.sol\":9536:9539  j++ */\n      dup1\n      dup1\n      0x01\n      add\n      swap2\n      pop\n      pop\n        /* \"Contracts/StoreMap.sol\":9509:9693  for (uint256 j = 0; j < 5; j++) {... */\n      jump(tag_165)\n    tag_166:\n      pop\n        /* \"Contracts/StoreMap.sol\":9281:9697  for (uint256 i = 0; i < bytes(geohash).length; i++) {... */\n      pop\n      pop\n        /* \"Contracts/StoreMap.sol\":9328:9331  i++ */\n      dup1\n      dup1\n      0x01\n      add\n      swap2\n      pop\n      pop\n        /* \"Contracts/StoreMap.sol\":9281:9697  for (uint256 i = 0; i < bytes(geohash).length; i++) {... */\n      jump(tag_155)\n    tag_156:\n      pop\n        /* \"Contracts/StoreMap.sol\":9707:9710  lon */\n      dup1\n        /* \"Contracts/StoreMap.sol\":9700:9710  return lon */\n      swap3\n      pop\n      pop\n      pop\n        /* \"Contracts/StoreMap.sol\":9146:9714  function getLonBlock(string memory geohash) public view returns (uint256) {... */\n      swap2\n      swap1\n      pop\n      jump\t// out\n        /* \"Contracts/StoreMap.sol\":6648:7434  function manhattan(bytes32 nextGeohash, bytes32 endGeohash) public view returns (uint256){... */\n    tag_50:\n        /* \"Contracts/StoreMap.sol\":6729:6736  uint256 */\n      0x00\n        /* \"Contracts/StoreMap.sol\":6759:6769  endGeohash */\n      dup2\n        /* \"Contracts/StoreMap.sol\":6744:6755  nextGeohash */\n      dup4\n        /* \"Contracts/StoreMap.sol\":6744:6769  nextGeohash == endGeohash */\n      eq\n        /* \"Contracts/StoreMap.sol\":6741:6788  if(nextGeohash == endGeohash){... */\n      iszero\n      tag_173\n      jumpi\n        /* \"Contracts/StoreMap.sol\":6782:6783  0 */\n      0x00\n        /* \"Contracts/StoreMap.sol\":6775:6783  return 0 */\n      swap1\n      pop\n      jump(tag_172)\n        /* \"Contracts/StoreMap.sol\":6741:6788  if(nextGeohash == endGeohash){... */\n    tag_173:\n        /* \"Contracts/StoreMap.sol\":6871:6894  string memory shortNext */\n      0x60\n        /* \"Contracts/StoreMap.sol\":6898:6920  string memory shortEnd */\n      dup1\n        /* \"Contracts/StoreMap.sol\":6951:6988  sliceGeoHash(nextGeohash, endGeohash) */\n      tag_174\n        /* \"Contracts/StoreMap.sol\":6964:6975  nextGeohash */\n      dup6\n        /* \"Contracts/StoreMap.sol\":6977:6987  endGeohash */\n      dup6\n        /* \"Contracts/StoreMap.sol\":6951:6963  sliceGeoHash */\n      tag_88\n        /* \"Contracts/StoreMap.sol\":6951:6988  sliceGeoHash(nextGeohash, endGeohash) */\n      jump\t// in\n    tag_174:\n        /* \"Contracts/StoreMap.sol\":6927:6988  (shortNext, shortEnd) = sliceGeoHash(nextGeohash, endGeohash) */\n      dup1\n      swap3\n      pop\n      dup2\n      swap4\n      pop\n      pop\n      pop\n        /* \"Contracts/StoreMap.sol\":6993:7008  uint256 dislat1 */\n      0x00\n        /* \"Contracts/StoreMap.sol\":7011:7033  getLatBlock(shortNext) */\n      tag_175\n        /* \"Contracts/StoreMap.sol\":7023:7032  shortNext */\n      dup4\n        /* \"Contracts/StoreMap.sol\":7011:7022  getLatBlock */\n      tag_56\n        /* \"Contracts/StoreMap.sol\":7011:7033  getLatBlock(shortNext) */\n      jump\t// in\n    tag_175:\n        /* \"Contracts/StoreMap.sol\":6993:7033  uint256 dislat1 = getLatBlock(shortNext) */\n      swap1\n      pop\n        /* \"Contracts/StoreMap.sol\":7037:7052  uint256 dislat2 */\n      0x00\n        /* \"Contracts/StoreMap.sol\":7055:7076  getLatBlock(shortEnd) */\n      tag_176\n        /* \"Contracts/StoreMap.sol\":7067:7075  shortEnd */\n      dup4\n        /* \"Contracts/StoreMap.sol\":7055:7066  getLatBlock */\n      tag_56\n        /* \"Contracts/StoreMap.sol\":7055:7076  getLatBlock(shortEnd) */\n      jump\t// in\n    tag_176:\n        /* \"Contracts/StoreMap.sol\":7037:7076  uint256 dislat2 = getLatBlock(shortEnd) */\n      swap1\n      pop\n        /* \"Contracts/StoreMap.sol\":7080:7095  uint256 dislon1 */\n      0x00\n        /* \"Contracts/StoreMap.sol\":7098:7120  getLonBlock(shortNext) */\n      tag_177\n        /* \"Contracts/StoreMap.sol\":7110:7119  shortNext */\n      dup6\n        /* \"Contracts/StoreMap.sol\":7098:7109  getLonBlock */\n      tag_47\n        /* \"Contracts/StoreMap.sol\":7098:7120  getLonBlock(shortNext) */\n      jump\t// in\n    tag_177:\n        /* \"Contracts/StoreMap.sol\":7080:7120  uint256 dislon1 = getLonBlock(shortNext) */\n      swap1\n      pop\n        /* \"Contracts/StoreMap.sol\":7124:7139  uint256 dislon2 */\n      0x00\n        /* \"Contracts/StoreMap.sol\":7142:7163  getLonBlock(shortEnd) */\n      tag_178\n        /* \"Contracts/StoreMap.sol\":7154:7162  shortEnd */\n      dup6\n        /* \"Contracts/StoreMap.sol\":7142:7153  getLonBlock */\n      tag_47\n        /* \"Contracts/StoreMap.sol\":7142:7163  getLonBlock(shortEnd) */\n      jump\t// in\n    tag_178:\n        /* \"Contracts/StoreMap.sol\":7124:7163  uint256 dislon2 = getLonBlock(shortEnd) */\n      swap1\n      pop\n        /* \"Contracts/StoreMap.sol\":7170:7184  uint256 dislat */\n      0x00\n        /* \"Contracts/StoreMap.sol\":7188:7202  uint256 dislon */\n      dup1\n        /* \"Contracts/StoreMap.sol\":7219:7226  dislat1 */\n      dup6\n        /* \"Contracts/StoreMap.sol\":7209:7216  dislat2 */\n      dup6\n        /* \"Contracts/StoreMap.sol\":7209:7226  dislat2 > dislat1 */\n      gt\n        /* \"Contracts/StoreMap.sol\":7206:7303  if(dislat2 > dislat1){... */\n      iszero\n      tag_179\n      jumpi\n        /* \"Contracts/StoreMap.sol\":7251:7258  dislat1 */\n      dup6\n        /* \"Contracts/StoreMap.sol\":7241:7248  dislat2 */\n      dup6\n        /* \"Contracts/StoreMap.sol\":7241:7258  dislat2 - dislat1 */\n      sub\n        /* \"Contracts/StoreMap.sol\":7232:7258  dislat = dislat2 - dislat1 */\n      swap2\n      pop\n        /* \"Contracts/StoreMap.sol\":7206:7303  if(dislat2 > dislat1){... */\n      jump(tag_180)\n    tag_179:\n        /* \"Contracts/StoreMap.sol\":7291:7298  dislat2 */\n      dup5\n        /* \"Contracts/StoreMap.sol\":7281:7288  dislat1 */\n      dup7\n        /* \"Contracts/StoreMap.sol\":7281:7298  dislat1 - dislat2 */\n      sub\n        /* \"Contracts/StoreMap.sol\":7272:7298  dislat = dislat1 - dislat2 */\n      swap2\n      pop\n        /* \"Contracts/StoreMap.sol\":7206:7303  if(dislat2 > dislat1){... */\n    tag_180:\n        /* \"Contracts/StoreMap.sol\":7319:7326  dislon1 */\n      dup4\n        /* \"Contracts/StoreMap.sol\":7309:7316  dislon2 */\n      dup4\n        /* \"Contracts/StoreMap.sol\":7309:7326  dislon2 > dislon1 */\n      gt\n        /* \"Contracts/StoreMap.sol\":7306:7403  if(dislon2 > dislon1){... */\n      iszero\n      tag_181\n      jumpi\n        /* \"Contracts/StoreMap.sol\":7351:7358  dislon1 */\n      dup4\n        /* \"Contracts/StoreMap.sol\":7341:7348  dislon2 */\n      dup4\n        /* \"Contracts/StoreMap.sol\":7341:7358  dislon2 - dislon1 */\n      sub\n        /* \"Contracts/StoreMap.sol\":7332:7358  dislon = dislon2 - dislon1 */\n      swap1\n      pop\n        /* \"Contracts/StoreMap.sol\":7306:7403  if(dislon2 > dislon1){... */\n      jump(tag_182)\n    tag_181:\n        /* \"Contracts/StoreMap.sol\":7391:7398  dislon2 */\n      dup3\n        /* \"Contracts/StoreMap.sol\":7381:7388  dislon1 */\n      dup5\n        /* \"Contracts/StoreMap.sol\":7381:7398  dislon1 - dislon2 */\n      sub\n        /* \"Contracts/StoreMap.sol\":7372:7398  dislon = dislon1 - dislon2 */\n      swap1\n      pop\n        /* \"Contracts/StoreMap.sol\":7306:7403  if(dislon2 > dislon1){... */\n    tag_182:\n        /* \"Contracts/StoreMap.sol\":7423:7429  dislon */\n      dup1\n        /* \"Contracts/StoreMap.sol\":7414:7420  dislat */\n      dup3\n        /* \"Contracts/StoreMap.sol\":7414:7429  dislat + dislon */\n      add\n        /* \"Contracts/StoreMap.sol\":7406:7430  return (dislat + dislon) */\n      swap9\n      pop\n      pop\n      pop\n      pop\n      pop\n      pop\n      pop\n      pop\n      pop\n        /* \"Contracts/StoreMap.sol\":6648:7434  function manhattan(bytes32 nextGeohash, bytes32 endGeohash) public view returns (uint256){... */\n    tag_172:\n      swap3\n      swap2\n      pop\n      pop\n      jump\t// out\n        /* \"Contracts/StoreMap.sol\":8545:9112  function getLatBlock(string memory geohash) public view returns (uint256) {... */\n    tag_56:\n        /* \"Contracts/StoreMap.sol\":8610:8617  uint256 */\n      0x00\n        /* \"Contracts/StoreMap.sol\":8641:8650  bool even */\n      dup1\n        /* \"Contracts/StoreMap.sol\":8653:8657  true */\n      0x01\n        /* \"Contracts/StoreMap.sol\":8641:8657  bool even = true */\n      swap1\n      pop\n        /* \"Contracts/StoreMap.sol\":8661:8672  uint256 lat */\n      0x00\n        /* \"Contracts/StoreMap.sol\":8675:8676  0 */\n      dup1\n        /* \"Contracts/StoreMap.sol\":8661:8676  uint256 lat = 0 */\n      swap1\n      pop\n        /* \"Contracts/StoreMap.sol\":8685:8694  uint256 i */\n      0x00\n        /* \"Contracts/StoreMap.sol\":8697:8698  0 */\n      dup1\n        /* \"Contracts/StoreMap.sol\":8685:8698  uint256 i = 0 */\n      swap1\n      pop\n        /* \"Contracts/StoreMap.sol\":8680:9095  for (uint256 i = 0; i < bytes(geohash).length; i++) {... */\n    tag_184:\n        /* \"Contracts/StoreMap.sol\":8710:8717  geohash */\n      dup5\n        /* \"Contracts/StoreMap.sol\":8704:8725  bytes(geohash).length */\n      mload\n        /* \"Contracts/StoreMap.sol\":8700:8701  i */\n      dup2\n        /* \"Contracts/StoreMap.sol\":8700:8725  i < bytes(geohash).length */\n      lt\n        /* \"Contracts/StoreMap.sol\":8680:9095  for (uint256 i = 0; i < bytes(geohash).length; i++) {... */\n      iszero\n      tag_185\n      jumpi\n        /* \"Contracts/StoreMap.sol\":8737:8743  byte c */\n      0x00\n        /* \"Contracts/StoreMap.sol\":8752:8759  geohash */\n      dup6\n        /* \"Contracts/StoreMap.sol\":8761:8762  i */\n      dup3\n        /* \"Contracts/StoreMap.sol\":8746:8763  bytes(geohash)[i] */\n      dup2\n      mload\n      dup2\n      lt\n      tag_187\n      jumpi\n      invalid\n    tag_187:\n      0x20\n      add\n      add\n      mload\n      0xf8\n      shr\n      0xf8\n      shl\n        /* \"Contracts/StoreMap.sol\":8737:8763  byte c = bytes(geohash)[i] */\n      swap1\n      pop\n        /* \"Contracts/StoreMap.sol\":8768:8778  uint256 cd */\n      0x00\n        /* \"Contracts/StoreMap.sol\":8788:8797  uint256 j */\n      dup1\n        /* \"Contracts/StoreMap.sol\":8800:8801  0 */\n      0x00\n        /* \"Contracts/StoreMap.sol\":8788:8801  uint256 j = 0 */\n      swap1\n      pop\n        /* \"Contracts/StoreMap.sol\":8783:8904  for (uint256 j = 0; j < bytes(Base32).length; j++) {... */\n    tag_188:\n        /* \"Contracts/StoreMap.sol\":8813:8819  Base32 */\n      0x0c\n        /* \"Contracts/StoreMap.sol\":8807:8827  bytes(Base32).length */\n      dup1\n      sload\n      0x01\n      dup2\n      0x01\n      and\n      iszero\n      0x0100\n      mul\n      sub\n      and\n      0x02\n      swap1\n      div\n      swap1\n      pop\n        /* \"Contracts/StoreMap.sol\":8803:8804  j */\n      dup2\n        /* \"Contracts/StoreMap.sol\":8803:8827  j < bytes(Base32).length */\n      lt\n        /* \"Contracts/StoreMap.sol\":8783:8904  for (uint256 j = 0; j < bytes(Base32).length; j++) {... */\n      iszero\n      tag_189\n      jumpi\n        /* \"Contracts/StoreMap.sol\":8864:8865  c */\n      dup3\n        /* \"Contracts/StoreMap.sol\":8844:8865  bytes(Base32)[j] == c */\n      not(0xffffffffffffffffffffffffffffffffffffffffffffffffffffffffffffff)\n      and\n        /* \"Contracts/StoreMap.sol\":8850:8856  Base32 */\n      0x0c\n        /* \"Contracts/StoreMap.sol\":8858:8859  j */\n      dup3\n        /* \"Contracts/StoreMap.sol\":8844:8860  bytes(Base32)[j] */\n      dup2\n      sload\n      0x01\n      dup2\n      0x01\n      and\n      iszero\n      0x0100\n      mul\n      sub\n      and\n      0x02\n      swap1\n      div\n      dup2\n      lt\n      tag_191\n      jumpi\n      invalid\n    tag_191:\n      dup2\n      sload\n      0x01\n      and\n      iszero\n      tag_192\n      jumpi\n      swap1\n      0x00\n      mstore\n      keccak256(0x00, 0x20)\n      swap1\n      0x20\n      swap2\n      dup3\n      dup3\n      div\n      add\n      swap2\n      swap1\n      mod\n    tag_192:\n      swap1\n      sload\n      swap1\n      byte\n      0x0100000000000000000000000000000000000000000000000000000000000000\n      mul\n        /* \"Contracts/StoreMap.sol\":8844:8865  bytes(Base32)[j] == c */\n      not(0xffffffffffffffffffffffffffffffffffffffffffffffffffffffffffffff)\n      and\n      eq\n        /* \"Contracts/StoreMap.sol\":8840:8899  if (bytes(Base32)[j] == c) {... */\n      iszero\n      tag_193\n      jumpi\n        /* \"Contracts/StoreMap.sol\":8879:8880  j */\n      dup1\n        /* \"Contracts/StoreMap.sol\":8874:8880  cd = j */\n      swap2\n      pop\n        /* \"Contracts/StoreMap.sol\":8887:8892  break */\n      jump(tag_189)\n        /* \"Contracts/StoreMap.sol\":8840:8899  if (bytes(Base32)[j] == c) {... */\n    tag_193:\n        /* \"Contracts/StoreMap.sol\":8829:8832  j++ */\n      dup1\n      dup1\n      0x01\n      add\n      swap2\n      pop\n      pop\n        /* \"Contracts/StoreMap.sol\":8783:8904  for (uint256 j = 0; j < bytes(Base32).length; j++) {... */\n      jump(tag_188)\n    tag_189:\n      pop\n        /* \"Contracts/StoreMap.sol\":8913:8922  uint256 j */\n      0x00\n        /* \"Contracts/StoreMap.sol\":8925:8926  0 */\n      dup1\n        /* \"Contracts/StoreMap.sol\":8913:8926  uint256 j = 0 */\n      swap1\n      pop\n        /* \"Contracts/StoreMap.sol\":8908:9091  for (uint256 j = 0; j < 5; j++) {... */\n    tag_194:\n        /* \"Contracts/StoreMap.sol\":8932:8933  5 */\n      0x05\n        /* \"Contracts/StoreMap.sol\":8928:8929  j */\n      dup2\n        /* \"Contracts/StoreMap.sol\":8928:8933  j < 5 */\n      lt\n        /* \"Contracts/StoreMap.sol\":8908:9091  for (uint256 j = 0; j < 5; j++) {... */\n      iszero\n      tag_195\n      jumpi\n        /* \"Contracts/StoreMap.sol\":8946:8958  uint256 mask */\n      0x00\n        /* \"Contracts/StoreMap.sol\":8961:8965  Bits */\n      0x0b\n        /* \"Contracts/StoreMap.sol\":8966:8967  j */\n      dup3\n        /* \"Contracts/StoreMap.sol\":8961:8968  Bits[j] */\n      dup2\n      sload\n      dup2\n      lt\n      tag_197\n      jumpi\n      invalid\n    tag_197:\n      swap1\n      0x00\n      mstore\n      keccak256(0x00, 0x20)\n      add\n      sload\n        /* \"Contracts/StoreMap.sol\":8946:8968  uint256 mask = Bits[j] */\n      swap1\n      pop\n        /* \"Contracts/StoreMap.sol\":8978:8982  even */\n      dup7\n        /* \"Contracts/StoreMap.sol\":8974:9068  if (even) {... */\n      iszero\n      tag_199\n      jumpi\n        /* \"Contracts/StoreMap.sol\":9003:9004  2 */\n      0x02\n        /* \"Contracts/StoreMap.sol\":8997:9000  lat */\n      dup7\n        /* \"Contracts/StoreMap.sol\":8997:9004  lat * 2 */\n      mul\n        /* \"Contracts/StoreMap.sol\":8991:9004  lat = lat * 2 */\n      swap6\n      pop\n        /* \"Contracts/StoreMap.sol\":9030:9031  0 */\n      0x00\n        /* \"Contracts/StoreMap.sol\":9021:9025  mask */\n      dup2\n        /* \"Contracts/StoreMap.sol\":9016:9018  cd */\n      dup5\n        /* \"Contracts/StoreMap.sol\":9016:9025  cd & mask */\n      and\n        /* \"Contracts/StoreMap.sol\":9015:9031  (cd & mask) != 0 */\n      eq\n        /* \"Contracts/StoreMap.sol\":9011:9062  if ((cd & mask) != 0) {... */\n      tag_200\n      jumpi\n        /* \"Contracts/StoreMap.sol\":9053:9054  1 */\n      0x01\n        /* \"Contracts/StoreMap.sol\":9047:9050  lat */\n      dup7\n        /* \"Contracts/StoreMap.sol\":9047:9054  lat + 1 */\n      add\n        /* \"Contracts/StoreMap.sol\":9041:9054  lat = lat + 1 */\n      swap6\n      pop\n        /* \"Contracts/StoreMap.sol\":9011:9062  if ((cd & mask) != 0) {... */\n    tag_200:\n        /* \"Contracts/StoreMap.sol\":8974:9068  if (even) {... */\n    tag_199:\n        /* \"Contracts/StoreMap.sol\":9081:9085  even */\n      dup7\n        /* \"Contracts/StoreMap.sol\":9080:9085  !even */\n      iszero\n        /* \"Contracts/StoreMap.sol\":9073:9085  even = !even */\n      swap7\n      pop\n        /* \"Contracts/StoreMap.sol\":8908:9091  for (uint256 j = 0; j < 5; j++) {... */\n      pop\n        /* \"Contracts/StoreMap.sol\":8935:8938  j++ */\n      dup1\n      dup1\n      0x01\n      add\n      swap2\n      pop\n      pop\n        /* \"Contracts/StoreMap.sol\":8908:9091  for (uint256 j = 0; j < 5; j++) {... */\n      jump(tag_194)\n    tag_195:\n      pop\n        /* \"Contracts/StoreMap.sol\":8680:9095  for (uint256 i = 0; i < bytes(geohash).length; i++) {... */\n      pop\n      pop\n        /* \"Contracts/StoreMap.sol\":8727:8730  i++ */\n      dup1\n      dup1\n      0x01\n      add\n      swap2\n      pop\n      pop\n        /* \"Contracts/StoreMap.sol\":8680:9095  for (uint256 i = 0; i < bytes(geohash).length; i++) {... */\n      jump(tag_184)\n    tag_185:\n      pop\n        /* \"Contracts/StoreMap.sol\":9105:9108  lat */\n      dup1\n        /* \"Contracts/StoreMap.sol\":9098:9108  return lat */\n      swap3\n      pop\n      pop\n      pop\n        /* \"Contracts/StoreMap.sol\":8545:9112  function getLatBlock(string memory geohash) public view returns (uint256) {... */\n      swap2\n      swap1\n      pop\n      jump\t// out\n        /* \"Contracts/StoreMap.sol\":3241:4275  function add_onetype(uint256 gid, int32 minzoom, int32 cost, int32 source, int32 target, bool oneway, bool building, bytes32 highway, bytes32 name, bytes32 gtype, bytes32[] memory path) public {... */\n    tag_62:\n        /* \"Contracts/StoreMap.sol\":3459:3466  minzoom */\n      dup10\n        /* \"Contracts/StoreMap.sol\":3438:3443  types */\n      0x00\n        /* \"Contracts/StoreMap.sol\":3438:3448  types[gid] */\n      dup1\n        /* \"Contracts/StoreMap.sol\":3444:3447  gid */\n      dup14\n        /* \"Contracts/StoreMap.sol\":3438:3448  types[gid] */\n      dup2\n      mstore\n      0x20\n      add\n      swap1\n      dup2\n      mstore\n      0x20\n      add\n      0x00\n      keccak256\n        /* \"Contracts/StoreMap.sol\":3438:3456  types[gid].minzoom */\n      0x00\n      add\n      0x00\n        /* \"Contracts/StoreMap.sol\":3438:3466  types[gid].minzoom = minzoom */\n      0x0100\n      exp\n      dup2\n      sload\n      dup2\n      0xffffffff\n      mul\n      not\n      and\n      swap1\n      dup4\n      0x03\n      signextend\n      0xffffffff\n      and\n      mul\n      or\n      swap1\n      sstore\n      pop\n        /* \"Contracts/StoreMap.sol\":3488:3492  cost */\n      dup9\n        /* \"Contracts/StoreMap.sol\":3470:3475  types */\n      0x00\n        /* \"Contracts/StoreMap.sol\":3470:3480  types[gid] */\n      dup1\n        /* \"Contracts/StoreMap.sol\":3476:3479  gid */\n      dup14\n        /* \"Contracts/StoreMap.sol\":3470:3480  types[gid] */\n      dup2\n      mstore\n      0x20\n      add\n      swap1\n      dup2\n      mstore\n      0x20\n      add\n      0x00\n      keccak256\n        /* \"Contracts/StoreMap.sol\":3470:3485  types[gid].cost */\n      0x00\n      add\n      0x04\n        /* \"Contracts/StoreMap.sol\":3470:3492  types[gid].cost = cost */\n      0x0100\n      exp\n      dup2\n      sload\n      dup2\n      0xffffffff\n      mul\n      not\n      and\n      swap1\n      dup4\n      0x03\n      signextend\n      0xffffffff\n      and\n      mul\n      or\n      swap1\n      sstore\n      pop\n        /* \"Contracts/StoreMap.sol\":3516:3522  source */\n      dup8\n        /* \"Contracts/StoreMap.sol\":3496:3501  types */\n      0x00\n        /* \"Contracts/StoreMap.sol\":3496:3506  types[gid] */\n      dup1\n        /* \"Contracts/StoreMap.sol\":3502:3505  gid */\n      dup14\n        /* \"Contracts/StoreMap.sol\":3496:3506  types[gid] */\n      dup2\n      mstore\n      0x20\n      add\n      swap1\n      dup2\n      mstore\n      0x20\n      add\n      0x00\n      keccak256\n        /* \"Contracts/StoreMap.sol\":3496:3513  types[gid].source */\n      0x03\n      add\n      0x00\n        /* \"Contracts/StoreMap.sol\":3496:3522  types[gid].source = source */\n      0x0100\n      exp\n      dup2\n      sload\n      dup2\n      0xffffffff\n      mul\n      not\n      and\n      swap1\n      dup4\n      0x03\n      signextend\n      0xffffffff\n      and\n      mul\n      or\n      swap1\n      sstore\n      pop\n        /* \"Contracts/StoreMap.sol\":3546:3552  target */\n      dup7\n        /* \"Contracts/StoreMap.sol\":3526:3531  types */\n      0x00\n        /* \"Contracts/StoreMap.sol\":3526:3536  types[gid] */\n      dup1\n        /* \"Contracts/StoreMap.sol\":3532:3535  gid */\n      dup14\n        /* \"Contracts/StoreMap.sol\":3526:3536  types[gid] */\n      dup2\n      mstore\n      0x20\n      add\n      swap1\n      dup2\n      mstore\n      0x20\n      add\n      0x00\n      keccak256\n        /* \"Contracts/StoreMap.sol\":3526:3543  types[gid].target */\n      0x03\n      add\n      0x04\n        /* \"Contracts/StoreMap.sol\":3526:3552  types[gid].target = target */\n      0x0100\n      exp\n      dup2\n      sload\n      dup2\n      0xffffffff\n      mul\n      not\n      and\n      swap1\n      dup4\n      0x03\n      signextend\n      0xffffffff\n      and\n      mul\n      or\n      swap1\n      sstore\n      pop\n        /* \"Contracts/StoreMap.sol\":3576:3582  oneway */\n      dup6\n        /* \"Contracts/StoreMap.sol\":3556:3561  types */\n      0x00\n        /* \"Contracts/StoreMap.sol\":3556:3566  types[gid] */\n      dup1\n        /* \"Contracts/StoreMap.sol\":3562:3565  gid */\n      dup14\n        /* \"Contracts/StoreMap.sol\":3556:3566  types[gid] */\n      dup2\n      mstore\n      0x20\n      add\n      swap1\n      dup2\n      mstore\n      0x20\n      add\n      0x00\n      keccak256\n        /* \"Contracts/StoreMap.sol\":3556:3573  types[gid].oneway */\n      0x00\n      add\n      0x08\n        /* \"Contracts/StoreMap.sol\":3556:3582  types[gid].oneway = oneway */\n      0x0100\n      exp\n      dup2\n      sload\n      dup2\n      0xff\n      mul\n      not\n      and\n      swap1\n      dup4\n      iszero\n      iszero\n      mul\n      or\n      swap1\n      sstore\n      pop\n        /* \"Contracts/StoreMap.sol\":3608:3616  building */\n      dup5\n        /* \"Contracts/StoreMap.sol\":3586:3591  types */\n      0x00\n        /* \"Contracts/StoreMap.sol\":3586:3596  types[gid] */\n      dup1\n        /* \"Contracts/StoreMap.sol\":3592:3595  gid */\n      dup14\n        /* \"Contracts/StoreMap.sol\":3586:3596  types[gid] */\n      dup2\n      mstore\n      0x20\n      add\n      swap1\n      dup2\n      mstore\n      0x20\n      add\n      0x00\n      keccak256\n        /* \"Contracts/StoreMap.sol\":3586:3605  types[gid].building */\n      0x00\n      add\n      0x09\n        /* \"Contracts/StoreMap.sol\":3586:3616  types[gid].building = building */\n      0x0100\n      exp\n      dup2\n      sload\n      dup2\n      0xff\n      mul\n      not\n      and\n      swap1\n      dup4\n      iszero\n      iszero\n      mul\n      or\n      swap1\n      sstore\n      pop\n        /* \"Contracts/StoreMap.sol\":3641:3648  highway */\n      dup4\n        /* \"Contracts/StoreMap.sol\":3620:3625  types */\n      0x00\n        /* \"Contracts/StoreMap.sol\":3620:3630  types[gid] */\n      dup1\n        /* \"Contracts/StoreMap.sol\":3626:3629  gid */\n      dup14\n        /* \"Contracts/StoreMap.sol\":3620:3630  types[gid] */\n      dup2\n      mstore\n      0x20\n      add\n      swap1\n      dup2\n      mstore\n      0x20\n      add\n      0x00\n      keccak256\n        /* \"Contracts/StoreMap.sol\":3620:3638  types[gid].highway */\n      0x01\n      add\n        /* \"Contracts/StoreMap.sol\":3620:3648  types[gid].highway = highway */\n      dup2\n      swap1\n      sstore\n      pop\n        /* \"Contracts/StoreMap.sol\":3670:3674  name */\n      dup3\n        /* \"Contracts/StoreMap.sol\":3652:3657  types */\n      0x00\n        /* \"Contracts/StoreMap.sol\":3652:3662  types[gid] */\n      dup1\n        /* \"Contracts/StoreMap.sol\":3658:3661  gid */\n      dup14\n        /* \"Contracts/StoreMap.sol\":3652:3662  types[gid] */\n      dup2\n      mstore\n      0x20\n      add\n      swap1\n      dup2\n      mstore\n      0x20\n      add\n      0x00\n      keccak256\n        /* \"Contracts/StoreMap.sol\":3652:3667  types[gid].name */\n      0x02\n      add\n        /* \"Contracts/StoreMap.sol\":3652:3674  types[gid].name = name */\n      dup2\n      swap1\n      sstore\n      pop\n        /* \"Contracts/StoreMap.sol\":3697:3702  gtype */\n      dup2\n        /* \"Contracts/StoreMap.sol\":3678:3683  types */\n      0x00\n        /* \"Contracts/StoreMap.sol\":3678:3688  types[gid] */\n      dup1\n        /* \"Contracts/StoreMap.sol\":3684:3687  gid */\n      dup14\n        /* \"Contracts/StoreMap.sol\":3678:3688  types[gid] */\n      dup2\n      mstore\n      0x20\n      add\n      swap1\n      dup2\n      mstore\n      0x20\n      add\n      0x00\n      keccak256\n        /* \"Contracts/StoreMap.sol\":3678:3694  types[gid].gtype */\n      0x04\n      add\n        /* \"Contracts/StoreMap.sol\":3678:3702  types[gid].gtype = gtype */\n      dup2\n      swap1\n      sstore\n      pop\n        /* \"Contracts/StoreMap.sol\":3782:3786  path */\n      dup1\n        /* \"Contracts/StoreMap.sol\":3787:3788  0 */\n      0x00\n        /* \"Contracts/StoreMap.sol\":3782:3789  path[0] */\n      dup2\n      mload\n      dup2\n      lt\n      tag_202\n      jumpi\n      invalid\n    tag_202:\n      0x20\n      mul\n      0x20\n      add\n      add\n      mload\n        /* \"Contracts/StoreMap.sol\":3707:3720  adjacencyList */\n      0x02\n        /* \"Contracts/StoreMap.sol\":3707:3729  adjacencyList[path[0]] */\n      0x00\n        /* \"Contracts/StoreMap.sol\":3721:3725  path */\n      dup4\n        /* \"Contracts/StoreMap.sol\":3726:3727  0 */\n      0x00\n        /* \"Contracts/StoreMap.sol\":3721:3728  path[0] */\n      dup2\n      mload\n      dup2\n      lt\n      tag_203\n      jumpi\n      invalid\n    tag_203:\n      0x20\n      mul\n      0x20\n      add\n      add\n      mload\n        /* \"Contracts/StoreMap.sol\":3707:3729  adjacencyList[path[0]] */\n      dup2\n      mstore\n      0x20\n      add\n      swap1\n      dup2\n      mstore\n      0x20\n      add\n      0x00\n      keccak256\n        /* \"Contracts/StoreMap.sol\":3707:3734  adjacencyList[path[0]].adjs */\n      0x01\n      add\n        /* \"Contracts/StoreMap.sol\":3707:3765  adjacencyList[path[0]].adjs[adjacencyList[path[0]].adjnum] */\n      0x00\n        /* \"Contracts/StoreMap.sol\":3735:3748  adjacencyList */\n      0x02\n        /* \"Contracts/StoreMap.sol\":3735:3757  adjacencyList[path[0]] */\n      0x00\n        /* \"Contracts/StoreMap.sol\":3749:3753  path */\n      dup6\n        /* \"Contracts/StoreMap.sol\":3754:3755  0 */\n      0x00\n        /* \"Contracts/StoreMap.sol\":3749:3756  path[0] */\n      dup2\n      mload\n      dup2\n      lt\n      tag_204\n      jumpi\n      invalid\n    tag_204:\n      0x20\n      mul\n      0x20\n      add\n      add\n      mload\n        /* \"Contracts/StoreMap.sol\":3735:3757  adjacencyList[path[0]] */\n      dup2\n      mstore\n      0x20\n      add\n      swap1\n      dup2\n      mstore\n      0x20\n      add\n      0x00\n      keccak256\n        /* \"Contracts/StoreMap.sol\":3735:3764  adjacencyList[path[0]].adjnum */\n      0x00\n      add\n      sload\n        /* \"Contracts/StoreMap.sol\":3707:3765  adjacencyList[path[0]].adjs[adjacencyList[path[0]].adjnum] */\n      dup2\n      mstore\n      0x20\n      add\n      swap1\n      dup2\n      mstore\n      0x20\n      add\n      0x00\n      keccak256\n        /* \"Contracts/StoreMap.sol\":3707:3779  adjacencyList[path[0]].adjs[adjacencyList[path[0]].adjnum].sourceGeohash */\n      0x00\n      add\n        /* \"Contracts/StoreMap.sol\":3707:3789  adjacencyList[path[0]].adjs[adjacencyList[path[0]].adjnum].sourceGeohash = path[0] */\n      dup2\n      swap1\n      sstore\n      pop\n        /* \"Contracts/StoreMap.sol\":3868:3872  path */\n      dup1\n        /* \"Contracts/StoreMap.sol\":3887:3888  1 */\n      0x01\n        /* \"Contracts/StoreMap.sol\":3873:3877  path */\n      dup3\n        /* \"Contracts/StoreMap.sol\":3873:3884  path.length */\n      mload\n        /* \"Contracts/StoreMap.sol\":3873:3888  path.length - 1 */\n      sub\n        /* \"Contracts/StoreMap.sol\":3868:3889  path[path.length - 1] */\n      dup2\n      mload\n      dup2\n      lt\n      tag_205\n      jumpi\n      invalid\n    tag_205:\n      0x20\n      mul\n      0x20\n      add\n      add\n      mload\n        /* \"Contracts/StoreMap.sol\":3793:3806  adjacencyList */\n      0x02\n        /* \"Contracts/StoreMap.sol\":3793:3815  adjacencyList[path[0]] */\n      0x00\n        /* \"Contracts/StoreMap.sol\":3807:3811  path */\n      dup4\n        /* \"Contracts/StoreMap.sol\":3812:3813  0 */\n      0x00\n        /* \"Contracts/StoreMap.sol\":3807:3814  path[0] */\n      dup2\n      mload\n      dup2\n      lt\n      tag_206\n      jumpi\n      invalid\n    tag_206:\n      0x20\n      mul\n      0x20\n      add\n      add\n      mload\n        /* \"Contracts/StoreMap.sol\":3793:3815  adjacencyList[path[0]] */\n      dup2\n      mstore\n      0x20\n      add\n      swap1\n      dup2\n      mstore\n      0x20\n      add\n      0x00\n      keccak256\n        /* \"Contracts/StoreMap.sol\":3793:3820  adjacencyList[path[0]].adjs */\n      0x01\n      add\n        /* \"Contracts/StoreMap.sol\":3793:3851  adjacencyList[path[0]].adjs[adjacencyList[path[0]].adjnum] */\n      0x00\n        /* \"Contracts/StoreMap.sol\":3821:3834  adjacencyList */\n      0x02\n        /* \"Contracts/StoreMap.sol\":3821:3843  adjacencyList[path[0]] */\n      0x00\n        /* \"Contracts/StoreMap.sol\":3835:3839  path */\n      dup6\n        /* \"Contracts/StoreMap.sol\":3840:3841  0 */\n      0x00\n        /* \"Contracts/StoreMap.sol\":3835:3842  path[0] */\n      dup2\n      mload\n      dup2\n      lt\n      tag_207\n      jumpi\n      invalid\n    tag_207:\n      0x20\n      mul\n      0x20\n      add\n      add\n      mload\n        /* \"Contracts/StoreMap.sol\":3821:3843  adjacencyList[path[0]] */\n      dup2\n      mstore\n      0x20\n      add\n      swap1\n      dup2\n      mstore\n      0x20\n      add\n      0x00\n      keccak256\n        /* \"Contracts/StoreMap.sol\":3821:3850  adjacencyList[path[0]].adjnum */\n      0x00\n      add\n      sload\n        /* \"Contracts/StoreMap.sol\":3793:3851  adjacencyList[path[0]].adjs[adjacencyList[path[0]].adjnum] */\n      dup2\n      mstore\n      0x20\n      add\n      swap1\n      dup2\n      mstore\n      0x20\n      add\n      0x00\n      keccak256\n        /* \"Contracts/StoreMap.sol\":3793:3865  adjacencyList[path[0]].adjs[adjacencyList[path[0]].adjnum].targetGeohash */\n      0x01\n      add\n        /* \"Contracts/StoreMap.sol\":3793:3889  adjacencyList[path[0]].adjs[adjacencyList[path[0]].adjnum].targetGeohash = path[path.length - 1] */\n      dup2\n      swap1\n      sstore\n      pop\n        /* \"Contracts/StoreMap.sol\":3961:3967  target */\n      dup7\n        /* \"Contracts/StoreMap.sol\":3893:3906  adjacencyList */\n      0x02\n        /* \"Contracts/StoreMap.sol\":3893:3915  adjacencyList[path[0]] */\n      0x00\n        /* \"Contracts/StoreMap.sol\":3907:3911  path */\n      dup4\n        /* \"Contracts/StoreMap.sol\":3912:3913  0 */\n      0x00\n        /* \"Contracts/StoreMap.sol\":3907:3914  path[0] */\n      dup2\n      mload\n      dup2\n      lt\n      tag_208\n      jumpi\n      invalid\n    tag_208:\n      0x20\n      mul\n      0x20\n      add\n      add\n      mload\n        /* \"Contracts/StoreMap.sol\":3893:3915  adjacencyList[path[0]] */\n      dup2\n      mstore\n      0x20\n      add\n      swap1\n      dup2\n      mstore\n      0x20\n      add\n      0x00\n      keccak256\n        /* \"Contracts/StoreMap.sol\":3893:3920  adjacencyList[path[0]].adjs */\n      0x01\n      add\n        /* \"Contracts/StoreMap.sol\":3893:3951  adjacencyList[path[0]].adjs[adjacencyList[path[0]].adjnum] */\n      0x00\n        /* \"Contracts/StoreMap.sol\":3921:3934  adjacencyList */\n      0x02\n        /* \"Contracts/StoreMap.sol\":3921:3943  adjacencyList[path[0]] */\n      0x00\n        /* \"Contracts/StoreMap.sol\":3935:3939  path */\n      dup6\n        /* \"Contracts/StoreMap.sol\":3940:3941  0 */\n      0x00\n        /* \"Contracts/StoreMap.sol\":3935:3942  path[0] */\n      dup2\n      mload\n      dup2\n      lt\n      tag_209\n      jumpi\n      invalid\n    tag_209:\n      0x20\n      mul\n      0x20\n      add\n      add\n      mload\n        /* \"Contracts/StoreMap.sol\":3921:3943  adjacencyList[path[0]] */\n      dup2\n      mstore\n      0x20\n      add\n      swap1\n      dup2\n      mstore\n      0x20\n      add\n      0x00\n      keccak256\n        /* \"Contracts/StoreMap.sol\":3921:3950  adjacencyList[path[0]].adjnum */\n      0x00\n      add\n      sload\n        /* \"Contracts/StoreMap.sol\":3893:3951  adjacencyList[path[0]].adjs[adjacencyList[path[0]].adjnum] */\n      dup2\n      mstore\n      0x20\n      add\n      swap1\n      dup2\n      mstore\n      0x20\n      add\n      0x00\n      keccak256\n        /* \"Contracts/StoreMap.sol\":3893:3958  adjacencyList[path[0]].adjs[adjacencyList[path[0]].adjnum].target */\n      0x02\n      add\n      0x00\n        /* \"Contracts/StoreMap.sol\":3893:3967  adjacencyList[path[0]].adjs[adjacencyList[path[0]].adjnum].target = target */\n      0x0100\n      exp\n      dup2\n      sload\n      dup2\n      0xffffffff\n      mul\n      not\n      and\n      swap1\n      dup4\n      0x03\n      signextend\n      0xffffffff\n      and\n      mul\n      or\n      swap1\n      sstore\n      pop\n        /* \"Contracts/StoreMap.sol\":4037:4041  cost */\n      dup9\n        /* \"Contracts/StoreMap.sol\":3971:3984  adjacencyList */\n      0x02\n        /* \"Contracts/StoreMap.sol\":3971:3993  adjacencyList[path[0]] */\n      0x00\n        /* \"Contracts/StoreMap.sol\":3985:3989  path */\n      dup4\n        /* \"Contracts/StoreMap.sol\":3990:3991  0 */\n      0x00\n        /* \"Contracts/StoreMap.sol\":3985:3992  path[0] */\n      dup2\n      mload\n      dup2\n      lt\n      tag_210\n      jumpi\n      invalid\n    tag_210:\n      0x20\n      mul\n      0x20\n      add\n      add\n      mload\n        /* \"Contracts/StoreMap.sol\":3971:3993  adjacencyList[path[0]] */\n      dup2\n      mstore\n      0x20\n      add\n      swap1\n      dup2\n      mstore\n      0x20\n      add\n      0x00\n      keccak256\n        /* \"Contracts/StoreMap.sol\":3971:3998  adjacencyList[path[0]].adjs */\n      0x01\n      add\n        /* \"Contracts/StoreMap.sol\":3971:4029  adjacencyList[path[0]].adjs[adjacencyList[path[0]].adjnum] */\n      0x00\n        /* \"Contracts/StoreMap.sol\":3999:4012  adjacencyList */\n      0x02\n        /* \"Contracts/StoreMap.sol\":3999:4021  adjacencyList[path[0]] */\n      0x00\n        /* \"Contracts/StoreMap.sol\":4013:4017  path */\n      dup6\n        /* \"Contracts/StoreMap.sol\":4018:4019  0 */\n      0x00\n        /* \"Contracts/StoreMap.sol\":4013:4020  path[0] */\n      dup2\n      mload\n      dup2\n      lt\n      tag_211\n      jumpi\n      invalid\n    tag_211:\n      0x20\n      mul\n      0x20\n      add\n      add\n      mload\n        /* \"Contracts/StoreMap.sol\":3999:4021  adjacencyList[path[0]] */\n      dup2\n      mstore\n      0x20\n      add\n      swap1\n      dup2\n      mstore\n      0x20\n      add\n      0x00\n      keccak256\n        /* \"Contracts/StoreMap.sol\":3999:4028  adjacencyList[path[0]].adjnum */\n      0x00\n      add\n      sload\n        /* \"Contracts/StoreMap.sol\":3971:4029  adjacencyList[path[0]].adjs[adjacencyList[path[0]].adjnum] */\n      dup2\n      mstore\n      0x20\n      add\n      swap1\n      dup2\n      mstore\n      0x20\n      add\n      0x00\n      keccak256\n        /* \"Contracts/StoreMap.sol\":3971:4034  adjacencyList[path[0]].adjs[adjacencyList[path[0]].adjnum].cost */\n      0x02\n      add\n      0x04\n        /* \"Contracts/StoreMap.sol\":3971:4041  adjacencyList[path[0]].adjs[adjacencyList[path[0]].adjnum].cost = cost */\n      0x0100\n      exp\n      dup2\n      sload\n      dup2\n      0xffffffff\n      mul\n      not\n      and\n      swap1\n      dup4\n      0x03\n      signextend\n      0xffffffff\n      and\n      mul\n      or\n      swap1\n      sstore\n      pop\n        /* \"Contracts/StoreMap.sol\":4118:4121  gid */\n      dup11\n        /* \"Contracts/StoreMap.sol\":4045:4058  adjacencyList */\n      0x02\n        /* \"Contracts/StoreMap.sol\":4045:4067  adjacencyList[path[0]] */\n      0x00\n        /* \"Contracts/StoreMap.sol\":4059:4063  path */\n      dup4\n        /* \"Contracts/StoreMap.sol\":4064:4065  0 */\n      0x00\n        /* \"Contracts/StoreMap.sol\":4059:4066  path[0] */\n      dup2\n      mload\n      dup2\n      lt\n      tag_212\n      jumpi\n      invalid\n    tag_212:\n      0x20\n      mul\n      0x20\n      add\n      add\n      mload\n        /* \"Contracts/StoreMap.sol\":4045:4067  adjacencyList[path[0]] */\n      dup2\n      mstore\n      0x20\n      add\n      swap1\n      dup2\n      mstore\n      0x20\n      add\n      0x00\n      keccak256\n        /* \"Contracts/StoreMap.sol\":4045:4072  adjacencyList[path[0]].adjs */\n      0x01\n      add\n        /* \"Contracts/StoreMap.sol\":4045:4105  adjacencyList[path[0]].adjs[adjacencyList[path[0]].adjnum++] */\n      0x00\n        /* \"Contracts/StoreMap.sol\":4073:4086  adjacencyList */\n      0x02\n        /* \"Contracts/StoreMap.sol\":4073:4095  adjacencyList[path[0]] */\n      0x00\n        /* \"Contracts/StoreMap.sol\":4087:4091  path */\n      dup6\n        /* \"Contracts/StoreMap.sol\":4092:4093  0 */\n      0x00\n        /* \"Contracts/StoreMap.sol\":4087:4094  path[0] */\n      dup2\n      mload\n      dup2\n      lt\n      tag_213\n      jumpi\n      invalid\n    tag_213:\n      0x20\n      mul\n      0x20\n      add\n      add\n      mload\n        /* \"Contracts/StoreMap.sol\":4073:4095  adjacencyList[path[0]] */\n      dup2\n      mstore\n      0x20\n      add\n      swap1\n      dup2\n      mstore\n      0x20\n      add\n      0x00\n      keccak256\n        /* \"Contracts/StoreMap.sol\":4073:4102  adjacencyList[path[0]].adjnum */\n      0x00\n      add\n      0x00\n        /* \"Contracts/StoreMap.sol\":4073:4104  adjacencyList[path[0]].adjnum++ */\n      dup2\n      sload\n      dup1\n      swap3\n      swap2\n      swap1\n      0x01\n      add\n      swap2\n      swap1\n      pop\n      sstore\n        /* \"Contracts/StoreMap.sol\":4045:4105  adjacencyList[path[0]].adjs[adjacencyList[path[0]].adjnum++] */\n      dup2\n      mstore\n      0x20\n      add\n      swap1\n      dup2\n      mstore\n      0x20\n      add\n      0x00\n      keccak256\n        /* \"Contracts/StoreMap.sol\":4045:4109  adjacencyList[path[0]].adjs[adjacencyList[path[0]].adjnum++].gid */\n      0x02\n      add\n      0x08\n        /* \"Contracts/StoreMap.sol\":4045:4122  adjacencyList[path[0]].adjs[adjacencyList[path[0]].adjnum++].gid = int32(gid) */\n      0x0100\n      exp\n      dup2\n      sload\n      dup2\n      0xffffffff\n      mul\n      not\n      and\n      swap1\n      dup4\n      0x03\n      signextend\n      0xffffffff\n      and\n      mul\n      or\n      swap1\n      sstore\n      pop\n        /* \"Contracts/StoreMap.sol\":4127:4138  uint256 num */\n      0x00\n        /* \"Contracts/StoreMap.sol\":4141:4146  types */\n      dup1\n        /* \"Contracts/StoreMap.sol\":4141:4151  types[gid] */\n      0x00\n        /* \"Contracts/StoreMap.sol\":4147:4150  gid */\n      dup14\n        /* \"Contracts/StoreMap.sol\":4141:4151  types[gid] */\n      dup2\n      mstore\n      0x20\n      add\n      swap1\n      dup2\n      mstore\n      0x20\n      add\n      0x00\n      keccak256\n        /* \"Contracts/StoreMap.sol\":4141:4160  types[gid].path_num */\n      0x05\n      add\n      sload\n        /* \"Contracts/StoreMap.sol\":4127:4160  uint256 num = types[gid].path_num */\n      swap1\n      pop\n        /* \"Contracts/StoreMap.sol\":4168:4177  uint256 i */\n      0x00\n        /* \"Contracts/StoreMap.sol\":4178:4179  0 */\n      dup1\n        /* \"Contracts/StoreMap.sol\":4168:4179  uint256 i=0 */\n      swap1\n      pop\n        /* \"Contracts/StoreMap.sol\":4164:4243  for(uint256 i=0; i< path.length; i++){... */\n    tag_214:\n        /* \"Contracts/StoreMap.sol\":4184:4188  path */\n      dup3\n        /* \"Contracts/StoreMap.sol\":4184:4195  path.length */\n      mload\n        /* \"Contracts/StoreMap.sol\":4181:4182  i */\n      dup2\n        /* \"Contracts/StoreMap.sol\":4181:4195  i< path.length */\n      lt\n        /* \"Contracts/StoreMap.sol\":4164:4243  for(uint256 i=0; i< path.length; i++){... */\n      iszero\n      tag_215\n      jumpi\n        /* \"Contracts/StoreMap.sol\":4231:4235  path */\n      dup3\n        /* \"Contracts/StoreMap.sol\":4236:4237  i */\n      dup2\n        /* \"Contracts/StoreMap.sol\":4231:4238  path[i] */\n      dup2\n      mload\n      dup2\n      lt\n      tag_217\n      jumpi\n      invalid\n    tag_217:\n      0x20\n      mul\n      0x20\n      add\n      add\n      mload\n        /* \"Contracts/StoreMap.sol\":4206:4211  types */\n      0x00\n        /* \"Contracts/StoreMap.sol\":4206:4216  types[gid] */\n      dup1\n        /* \"Contracts/StoreMap.sol\":4212:4215  gid */\n      dup16\n        /* \"Contracts/StoreMap.sol\":4206:4216  types[gid] */\n      dup2\n      mstore\n      0x20\n      add\n      swap1\n      dup2\n      mstore\n      0x20\n      add\n      0x00\n      keccak256\n        /* \"Contracts/StoreMap.sol\":4206:4221  types[gid].path */\n      0x06\n      add\n        /* \"Contracts/StoreMap.sol\":4206:4228  types[gid].path[num++] */\n      0x00\n        /* \"Contracts/StoreMap.sol\":4222:4227  num++ */\n      dup5\n      dup1\n      0x01\n      add\n      swap6\n      pop\n        /* \"Contracts/StoreMap.sol\":4206:4228  types[gid].path[num++] */\n      dup2\n      mstore\n      0x20\n      add\n      swap1\n      dup2\n      mstore\n      0x20\n      add\n      0x00\n      keccak256\n        /* \"Contracts/StoreMap.sol\":4206:4238  types[gid].path[num++] = path[i] */\n      dup2\n      swap1\n      sstore\n      pop\n        /* \"Contracts/StoreMap.sol\":4197:4200  i++ */\n      dup1\n      dup1\n      0x01\n      add\n      swap2\n      pop\n      pop\n        /* \"Contracts/StoreMap.sol\":4164:4243  for(uint256 i=0; i< path.length; i++){... */\n      jump(tag_214)\n    tag_215:\n      pop\n        /* \"Contracts/StoreMap.sol\":4268:4271  num */\n      dup1\n        /* \"Contracts/StoreMap.sol\":4246:4251  types */\n      0x00\n        /* \"Contracts/StoreMap.sol\":4246:4256  types[gid] */\n      dup1\n        /* \"Contracts/StoreMap.sol\":4252:4255  gid */\n      dup15\n        /* \"Contracts/StoreMap.sol\":4246:4256  types[gid] */\n      dup2\n      mstore\n      0x20\n      add\n      swap1\n      dup2\n      mstore\n      0x20\n      add\n      0x00\n      keccak256\n        /* \"Contracts/StoreMap.sol\":4246:4265  types[gid].path_num */\n      0x05\n      add\n        /* \"Contracts/StoreMap.sol\":4246:4271  types[gid].path_num = num */\n      dup2\n      swap1\n      sstore\n      pop\n        /* \"Contracts/StoreMap.sol\":3241:4275  function add_onetype(uint256 gid, int32 minzoom, int32 cost, int32 source, int32 target, bool oneway, bool building, bytes32 highway, bytes32 name, bytes32 gtype, bytes32[] memory path) public {... */\n      pop\n      pop\n      pop\n      pop\n      pop\n      pop\n      pop\n      pop\n      pop\n      pop\n      pop\n      pop\n      jump\t// out\n        /* \"Contracts/StoreMap.sol\":10092:10771  function dequeue() public notEmpty(){... */\n    tag_64:\n        /* \"Contracts/StoreMap.sol\":9928:9929  1 */\n      0x01\n        /* \"Contracts/StoreMap.sol\":9901:9909  frontier */\n      0x0d\n        /* \"Contracts/StoreMap.sol\":9901:9918  frontier.geohashs */\n      0x00\n      add\n        /* \"Contracts/StoreMap.sol\":9901:9925  frontier.geohashs.length */\n      dup1\n      sload\n      swap1\n      pop\n        /* \"Contracts/StoreMap.sol\":9901:9929  frontier.geohashs.length > 1 */\n      gt\n        /* \"Contracts/StoreMap.sol\":9893:9930  require(frontier.geohashs.length > 1) */\n      tag_219\n      jumpi\n      0x00\n      dup1\n      revert\n    tag_219:\n        /* \"Contracts/StoreMap.sol\":10167:10168  1 */\n      0x01\n        /* \"Contracts/StoreMap.sol\":10140:10148  frontier */\n      0x0d\n        /* \"Contracts/StoreMap.sol\":10140:10157  frontier.geohashs */\n      0x00\n      add\n        /* \"Contracts/StoreMap.sol\":10140:10164  frontier.geohashs.length */\n      dup1\n      sload\n      swap1\n      pop\n        /* \"Contracts/StoreMap.sol\":10140:10168  frontier.geohashs.length > 1 */\n      gt\n        /* \"Contracts/StoreMap.sol\":10132:10169  require(frontier.geohashs.length > 1) */\n      tag_221\n      jumpi\n      0x00\n      dup1\n      revert\n    tag_221:\n        /* \"Contracts/StoreMap.sol\":10176:10192  bytes32 toReturn */\n      0x00\n        /* \"Contracts/StoreMap.sol\":10195:10200  top() */\n      tag_222\n        /* \"Contracts/StoreMap.sol\":10195:10198  top */\n      tag_98\n        /* \"Contracts/StoreMap.sol\":10195:10200  top() */\n      jump\t// in\n    tag_222:\n        /* \"Contracts/StoreMap.sol\":10176:10200  bytes32 toReturn = top() */\n      swap1\n      pop\n        /* \"Contracts/StoreMap.sol\":10227:10235  frontier */\n      0x0d\n        /* \"Contracts/StoreMap.sol\":10227:10244  frontier.geohashs */\n      0x00\n      add\n        /* \"Contracts/StoreMap.sol\":10272:10273  1 */\n      0x01\n        /* \"Contracts/StoreMap.sol\":10245:10253  frontier */\n      0x0d\n        /* \"Contracts/StoreMap.sol\":10245:10262  frontier.geohashs */\n      0x00\n      add\n        /* \"Contracts/StoreMap.sol\":10245:10269  frontier.geohashs.length */\n      dup1\n      sload\n      swap1\n      pop\n        /* \"Contracts/StoreMap.sol\":10245:10273  frontier.geohashs.length - 1 */\n      sub\n        /* \"Contracts/StoreMap.sol\":10227:10274  frontier.geohashs[frontier.geohashs.length - 1] */\n      dup2\n      sload\n      dup2\n      lt\n      tag_223\n      jumpi\n      invalid\n    tag_223:\n      swap1\n      0x00\n      mstore\n      keccak256(0x00, 0x20)\n      add\n      sload\n        /* \"Contracts/StoreMap.sol\":10204:10212  frontier */\n      0x0d\n        /* \"Contracts/StoreMap.sol\":10204:10221  frontier.geohashs */\n      0x00\n      add\n        /* \"Contracts/StoreMap.sol\":10222:10223  1 */\n      0x01\n        /* \"Contracts/StoreMap.sol\":10204:10224  frontier.geohashs[1] */\n      dup2\n      sload\n      dup2\n      lt\n      tag_225\n      jumpi\n      invalid\n    tag_225:\n      swap1\n      0x00\n      mstore\n      keccak256(0x00, 0x20)\n      add\n        /* \"Contracts/StoreMap.sol\":10204:10274  frontier.geohashs[1] = frontier.geohashs[frontier.geohashs.length - 1] */\n      dup2\n      swap1\n      sstore\n      pop\n        /* \"Contracts/StoreMap.sol\":10278:10286  frontier */\n      0x0d\n        /* \"Contracts/StoreMap.sol\":10278:10295  frontier.geohashs */\n      0x00\n      add\n        /* \"Contracts/StoreMap.sol\":10278:10301  frontier.geohashs.pop() */\n      dup1\n      sload\n      dup1\n      tag_227\n      jumpi\n      invalid\n    tag_227:\n      0x01\n      swap1\n      sub\n      dup2\n      dup2\n      swap1\n      0x00\n      mstore\n      keccak256(0x00, 0x20)\n      add\n      0x00\n      swap1\n      sstore\n      swap1\n      sstore\n        /* \"Contracts/StoreMap.sol\":10306:10315  uint256 i */\n      0x00\n        /* \"Contracts/StoreMap.sol\":10318:10319  1 */\n      0x01\n        /* \"Contracts/StoreMap.sol\":10306:10319  uint256 i = 1 */\n      swap1\n      pop\n        /* \"Contracts/StoreMap.sol\":10324:10735  while (i * 2 < frontier.geohashs.length) {... */\n    tag_229:\n        /* \"Contracts/StoreMap.sol\":10339:10347  frontier */\n      0x0d\n        /* \"Contracts/StoreMap.sol\":10339:10356  frontier.geohashs */\n      0x00\n      add\n        /* \"Contracts/StoreMap.sol\":10339:10363  frontier.geohashs.length */\n      dup1\n      sload\n      swap1\n      pop\n        /* \"Contracts/StoreMap.sol\":10335:10336  2 */\n      0x02\n        /* \"Contracts/StoreMap.sol\":10331:10332  i */\n      dup3\n        /* \"Contracts/StoreMap.sol\":10331:10336  i * 2 */\n      mul\n        /* \"Contracts/StoreMap.sol\":10331:10363  i * 2 < frontier.geohashs.length */\n      lt\n        /* \"Contracts/StoreMap.sol\":10324:10735  while (i * 2 < frontier.geohashs.length) {... */\n      iszero\n      tag_230\n      jumpi\n        /* \"Contracts/StoreMap.sol\":10370:10379  uint256 j */\n      0x00\n        /* \"Contracts/StoreMap.sol\":10386:10387  2 */\n      0x02\n        /* \"Contracts/StoreMap.sol\":10382:10383  i */\n      dup3\n        /* \"Contracts/StoreMap.sol\":10382:10387  i * 2 */\n      mul\n        /* \"Contracts/StoreMap.sol\":10370:10387  uint256 j = i * 2 */\n      swap1\n      pop\n        /* \"Contracts/StoreMap.sol\":10405:10413  frontier */\n      0x0d\n        /* \"Contracts/StoreMap.sol\":10405:10422  frontier.geohashs */\n      0x00\n      add\n        /* \"Contracts/StoreMap.sol\":10405:10429  frontier.geohashs.length */\n      dup1\n      sload\n      swap1\n      pop\n        /* \"Contracts/StoreMap.sol\":10401:10402  1 */\n      0x01\n        /* \"Contracts/StoreMap.sol\":10397:10398  j */\n      dup3\n        /* \"Contracts/StoreMap.sol\":10397:10402  j + 1 */\n      add\n        /* \"Contracts/StoreMap.sol\":10397:10429  j + 1 < frontier.geohashs.length */\n      lt\n        /* \"Contracts/StoreMap.sol\":10393:10525  if (j + 1 < frontier.geohashs.length)... */\n      iszero\n      tag_231\n      jumpi\n        /* \"Contracts/StoreMap.sol\":10476:10484  frontier */\n      0x0d\n        /* \"Contracts/StoreMap.sol\":10476:10488  frontier.map */\n      0x01\n      add\n        /* \"Contracts/StoreMap.sol\":10476:10514  frontier.map[frontier.geohashs[j + 1]] */\n      0x00\n        /* \"Contracts/StoreMap.sol\":10489:10497  frontier */\n      0x0d\n        /* \"Contracts/StoreMap.sol\":10489:10506  frontier.geohashs */\n      0x00\n      add\n        /* \"Contracts/StoreMap.sol\":10511:10512  1 */\n      0x01\n        /* \"Contracts/StoreMap.sol\":10507:10508  j */\n      dup5\n        /* \"Contracts/StoreMap.sol\":10507:10512  j + 1 */\n      add\n        /* \"Contracts/StoreMap.sol\":10489:10513  frontier.geohashs[j + 1] */\n      dup2\n      sload\n      dup2\n      lt\n      tag_232\n      jumpi\n      invalid\n    tag_232:\n      swap1\n      0x00\n      mstore\n      keccak256(0x00, 0x20)\n      add\n      sload\n        /* \"Contracts/StoreMap.sol\":10476:10514  frontier.map[frontier.geohashs[j + 1]] */\n      dup2\n      mstore\n      0x20\n      add\n      swap1\n      dup2\n      mstore\n      0x20\n      add\n      0x00\n      keccak256\n      sload\n        /* \"Contracts/StoreMap.sol\":10439:10447  frontier */\n      0x0d\n        /* \"Contracts/StoreMap.sol\":10439:10451  frontier.map */\n      0x01\n      add\n        /* \"Contracts/StoreMap.sol\":10439:10473  frontier.map[frontier.geohashs[j]] */\n      0x00\n        /* \"Contracts/StoreMap.sol\":10452:10460  frontier */\n      0x0d\n        /* \"Contracts/StoreMap.sol\":10452:10469  frontier.geohashs */\n      0x00\n      add\n        /* \"Contracts/StoreMap.sol\":10470:10471  j */\n      dup5\n        /* \"Contracts/StoreMap.sol\":10452:10472  frontier.geohashs[j] */\n      dup2\n      sload\n      dup2\n      lt\n      tag_234\n      jumpi\n      invalid\n    tag_234:\n      swap1\n      0x00\n      mstore\n      keccak256(0x00, 0x20)\n      add\n      sload\n        /* \"Contracts/StoreMap.sol\":10439:10473  frontier.map[frontier.geohashs[j]] */\n      dup2\n      mstore\n      0x20\n      add\n      swap1\n      dup2\n      mstore\n      0x20\n      add\n      0x00\n      keccak256\n      sload\n        /* \"Contracts/StoreMap.sol\":10439:10514  frontier.map[frontier.geohashs[j]] > frontier.map[frontier.geohashs[j + 1]] */\n      gt\n        /* \"Contracts/StoreMap.sol\":10435:10525  if (frontier.map[frontier.geohashs[j]] > frontier.map[frontier.geohashs[j + 1]]) ... */\n      iszero\n      tag_236\n      jumpi\n        /* \"Contracts/StoreMap.sol\":10522:10525  j++ */\n      dup1\n      dup1\n      0x01\n      add\n      swap2\n      pop\n      pop\n        /* \"Contracts/StoreMap.sol\":10435:10525  if (frontier.map[frontier.geohashs[j]] > frontier.map[frontier.geohashs[j + 1]]) ... */\n    tag_236:\n        /* \"Contracts/StoreMap.sol\":10393:10525  if (j + 1 < frontier.geohashs.length)... */\n    tag_231:\n        /* \"Contracts/StoreMap.sol\":10575:10583  frontier */\n      0x0d\n        /* \"Contracts/StoreMap.sol\":10575:10587  frontier.map */\n      0x01\n      add\n        /* \"Contracts/StoreMap.sol\":10575:10609  frontier.map[frontier.geohashs[j]] */\n      0x00\n        /* \"Contracts/StoreMap.sol\":10588:10596  frontier */\n      0x0d\n        /* \"Contracts/StoreMap.sol\":10588:10605  frontier.geohashs */\n      0x00\n      add\n        /* \"Contracts/StoreMap.sol\":10606:10607  j */\n      dup4\n        /* \"Contracts/StoreMap.sol\":10588:10608  frontier.geohashs[j] */\n      dup2\n      sload\n      dup2\n      lt\n      tag_237\n      jumpi\n      invalid\n    tag_237:\n      swap1\n      0x00\n      mstore\n      keccak256(0x00, 0x20)\n      add\n      sload\n        /* \"Contracts/StoreMap.sol\":10575:10609  frontier.map[frontier.geohashs[j]] */\n      dup2\n      mstore\n      0x20\n      add\n      swap1\n      dup2\n      mstore\n      0x20\n      add\n      0x00\n      keccak256\n      sload\n        /* \"Contracts/StoreMap.sol\":10538:10546  frontier */\n      0x0d\n        /* \"Contracts/StoreMap.sol\":10538:10550  frontier.map */\n      0x01\n      add\n        /* \"Contracts/StoreMap.sol\":10538:10572  frontier.map[frontier.geohashs[i]] */\n      0x00\n        /* \"Contracts/StoreMap.sol\":10551:10559  frontier */\n      0x0d\n        /* \"Contracts/StoreMap.sol\":10551:10568  frontier.geohashs */\n      0x00\n      add\n        /* \"Contracts/StoreMap.sol\":10569:10570  i */\n      dup6\n        /* \"Contracts/StoreMap.sol\":10551:10571  frontier.geohashs[i] */\n      dup2\n      sload\n      dup2\n      lt\n      tag_239\n      jumpi\n      invalid\n    tag_239:\n      swap1\n      0x00\n      mstore\n      keccak256(0x00, 0x20)\n      add\n      sload\n        /* \"Contracts/StoreMap.sol\":10538:10572  frontier.map[frontier.geohashs[i]] */\n      dup2\n      mstore\n      0x20\n      add\n      swap1\n      dup2\n      mstore\n      0x20\n      add\n      0x00\n      keccak256\n      sload\n        /* \"Contracts/StoreMap.sol\":10538:10609  frontier.map[frontier.geohashs[i]] < frontier.map[frontier.geohashs[j]] */\n      lt\n        /* \"Contracts/StoreMap.sol\":10534:10620  if (frontier.map[frontier.geohashs[i]] < frontier.map[frontier.geohashs[j]])... */\n      iszero\n      tag_241\n      jumpi\n        /* \"Contracts/StoreMap.sol\":10615:10620  break */\n      pop\n      jump(tag_230)\n        /* \"Contracts/StoreMap.sol\":10534:10620  if (frontier.map[frontier.geohashs[i]] < frontier.map[frontier.geohashs[j]])... */\n    tag_241:\n        /* \"Contracts/StoreMap.sol\":10677:10685  frontier */\n      0x0d\n        /* \"Contracts/StoreMap.sol\":10677:10694  frontier.geohashs */\n      0x00\n      add\n        /* \"Contracts/StoreMap.sol\":10695:10696  j */\n      dup2\n        /* \"Contracts/StoreMap.sol\":10677:10697  frontier.geohashs[j] */\n      dup2\n      sload\n      dup2\n      lt\n      tag_242\n      jumpi\n      invalid\n    tag_242:\n      swap1\n      0x00\n      mstore\n      keccak256(0x00, 0x20)\n      add\n      sload\n        /* \"Contracts/StoreMap.sol\":10699:10707  frontier */\n      0x0d\n        /* \"Contracts/StoreMap.sol\":10699:10716  frontier.geohashs */\n      0x00\n      add\n        /* \"Contracts/StoreMap.sol\":10717:10718  i */\n      dup4\n        /* \"Contracts/StoreMap.sol\":10699:10719  frontier.geohashs[i] */\n      dup2\n      sload\n      dup2\n      lt\n      tag_244\n      jumpi\n      invalid\n    tag_244:\n      swap1\n      0x00\n      mstore\n      keccak256(0x00, 0x20)\n      add\n      sload\n        /* \"Contracts/StoreMap.sol\":10630:10638  frontier */\n      0x0d\n        /* \"Contracts/StoreMap.sol\":10630:10647  frontier.geohashs */\n      0x00\n      add\n        /* \"Contracts/StoreMap.sol\":10648:10649  i */\n      dup5\n        /* \"Contracts/StoreMap.sol\":10630:10650  frontier.geohashs[i] */\n      dup2\n      sload\n      dup2\n      lt\n      tag_246\n      jumpi\n      invalid\n    tag_246:\n      swap1\n      0x00\n      mstore\n      keccak256(0x00, 0x20)\n      add\n      0x00\n        /* \"Contracts/StoreMap.sol\":10652:10660  frontier */\n      0x0d\n        /* \"Contracts/StoreMap.sol\":10652:10669  frontier.geohashs */\n      0x00\n      add\n        /* \"Contracts/StoreMap.sol\":10670:10671  j */\n      dup6\n        /* \"Contracts/StoreMap.sol\":10652:10672  frontier.geohashs[j] */\n      dup2\n      sload\n      dup2\n      lt\n      tag_248\n      jumpi\n      invalid\n    tag_248:\n      swap1\n      0x00\n      mstore\n      keccak256(0x00, 0x20)\n      add\n      0x00\n        /* \"Contracts/StoreMap.sol\":10629:10720  (frontier.geohashs[i], frontier.geohashs[j]) = (frontier.geohashs[j], frontier.geohashs[i]) */\n      dup5\n      swap2\n      swap1\n      pop\n      sstore\n      dup4\n      swap2\n      swap1\n      pop\n      sstore\n      pop\n      pop\n        /* \"Contracts/StoreMap.sol\":10729:10730  j */\n      dup1\n        /* \"Contracts/StoreMap.sol\":10725:10730  i = j */\n      swap2\n      pop\n        /* \"Contracts/StoreMap.sol\":10324:10735  while (i * 2 < frontier.geohashs.length) {... */\n      pop\n      jump(tag_229)\n    tag_230:\n        /* \"Contracts/StoreMap.sol\":10745:10753  frontier */\n      0x0d\n        /* \"Contracts/StoreMap.sol\":10745:10757  frontier.map */\n      0x01\n      add\n        /* \"Contracts/StoreMap.sol\":10745:10767  frontier.map[toReturn] */\n      0x00\n        /* \"Contracts/StoreMap.sol\":10758:10766  toReturn */\n      dup4\n        /* \"Contracts/StoreMap.sol\":10745:10767  frontier.map[toReturn] */\n      dup2\n      mstore\n      0x20\n      add\n      swap1\n      dup2\n      mstore\n      0x20\n      add\n      0x00\n      keccak256\n        /* \"Contracts/StoreMap.sol\":10738:10767  delete frontier.map[toReturn] */\n      0x00\n      swap1\n      sstore\n        /* \"Contracts/StoreMap.sol\":9934:9935  _ */\n      pop\n      pop\n        /* \"Contracts/StoreMap.sol\":10092:10771  function dequeue() public notEmpty(){... */\n      jump\t// out\n        /* \"Contracts/StoreMap.sol\":1039:1089  mapping(bytes32 => adj_types) public adjacencyList */\n    tag_67:\n      mstore(0x20, 0x02)\n      dup1\n      0x00\n      mstore\n      keccak256(0x00, 0x40)\n      0x00\n      swap2\n      pop\n      swap1\n      pop\n      dup1\n      0x00\n      add\n      sload\n      swap1\n      pop\n      dup2\n      jump\t// out\n        /* \"Contracts/StoreMap.sol\":609:655  mapping(bytes32 => area_types) public geo_maps */\n    tag_70:\n      mstore(0x20, 0x01)\n      dup1\n      0x00\n      mstore\n      keccak256(0x00, 0x40)\n      0x00\n      swap2\n      pop\n      swap1\n      pop\n      dup1\n      0x00\n      add\n      sload\n      swap1\n      pop\n      dup2\n      jump\t// out\n        /* \"Contracts/StoreMap.sol\":7629:7712  function changeP(uint256 newP) public returns (uint256){... */\n    tag_73:\n        /* \"Contracts/StoreMap.sol\":7676:7683  uint256 */\n      0x00\n        /* \"Contracts/StoreMap.sol\":7692:7696  newP */\n      dup2\n        /* \"Contracts/StoreMap.sol\":7688:7689  P */\n      0x03\n        /* \"Contracts/StoreMap.sol\":7688:7696  P = newP */\n      dup2\n      swap1\n      sstore\n      pop\n        /* \"Contracts/StoreMap.sol\":7707:7708  P */\n      sload(0x03)\n        /* \"Contracts/StoreMap.sol\":7700:7708  return P */\n      swap1\n      pop\n        /* \"Contracts/StoreMap.sol\":7629:7712  function changeP(uint256 newP) public returns (uint256){... */\n      swap2\n      swap1\n      pop\n      jump\t// out\n        /* \"Contracts/StoreMap.sol\":4476:6642  function astar(bytes32 startGeohash, bytes32 endGeohash) public returns(bytes32[] memory backwards, uint256 costAll){... */\n    tag_76:\n        /* \"Contracts/StoreMap.sol\":4548:4574  bytes32[] memory backwards */\n      0x60\n        /* \"Contracts/StoreMap.sol\":4576:4591  uint256 costAll */\n      0x00\n        /* \"Contracts/StoreMap.sol\":4596:4620  enqueue(startGeohash, 0) */\n      tag_252\n        /* \"Contracts/StoreMap.sol\":4604:4616  startGeohash */\n      dup5\n        /* \"Contracts/StoreMap.sol\":4618:4619  0 */\n      0x00\n        /* \"Contracts/StoreMap.sol\":4596:4603  enqueue */\n      tag_23\n        /* \"Contracts/StoreMap.sol\":4596:4620  enqueue(startGeohash, 0) */\n      jump\t// in\n    tag_252:\n        /* \"Contracts/StoreMap.sol\":4654:4655  0 */\n      0x00\n        /* \"Contracts/StoreMap.sol\":4624:4633  costSofar */\n      0x07\n        /* \"Contracts/StoreMap.sol\":4624:4637  costSofar.map */\n      0x02\n      add\n        /* \"Contracts/StoreMap.sol\":4624:4651  costSofar.map[startGeohash] */\n      0x00\n        /* \"Contracts/StoreMap.sol\":4638:4650  startGeohash */\n      dup7\n        /* \"Contracts/StoreMap.sol\":4624:4651  costSofar.map[startGeohash] */\n      dup2\n      mstore\n      0x20\n      add\n      swap1\n      dup2\n      mstore\n      0x20\n      add\n      0x00\n      keccak256\n        /* \"Contracts/StoreMap.sol\":4624:4655  costSofar.map[startGeohash] = 0 */\n      dup2\n      swap1\n      sstore\n      pop\n        /* \"Contracts/StoreMap.sol\":4692:4704  startGeohash */\n      dup4\n        /* \"Contracts/StoreMap.sol\":4659:4668  costSofar */\n      0x07\n        /* \"Contracts/StoreMap.sol\":4659:4674  costSofar.index */\n      0x01\n      add\n        /* \"Contracts/StoreMap.sol\":4659:4689  costSofar.index[costSofar.num] */\n      0x00\n        /* \"Contracts/StoreMap.sol\":4675:4684  costSofar */\n      0x07\n        /* \"Contracts/StoreMap.sol\":4675:4688  costSofar.num */\n      0x00\n      add\n      sload\n        /* \"Contracts/StoreMap.sol\":4659:4689  costSofar.index[costSofar.num] */\n      dup2\n      mstore\n      0x20\n      add\n      swap1\n      dup2\n      mstore\n      0x20\n      add\n      0x00\n      keccak256\n        /* \"Contracts/StoreMap.sol\":4659:4704  costSofar.index[costSofar.num] = startGeohash */\n      dup2\n      swap1\n      sstore\n      pop\n        /* \"Contracts/StoreMap.sol\":4708:4717  costSofar */\n      0x07\n        /* \"Contracts/StoreMap.sol\":4708:4721  costSofar.num */\n      0x00\n      add\n      0x00\n        /* \"Contracts/StoreMap.sol\":4708:4723  costSofar.num++ */\n      dup2\n      sload\n      dup1\n      swap3\n      swap2\n      swap1\n      0x01\n      add\n      swap2\n      swap1\n      pop\n      sstore\n      pop\n        /* \"Contracts/StoreMap.sol\":4727:4749  bytes32 currentGeohash */\n      0x00\n        /* \"Contracts/StoreMap.sol\":4753:4769  uint256 priority */\n      dup1\n        /* \"Contracts/StoreMap.sol\":4773:6639  while (frontier.geohashs.length > 1) {... */\n    tag_253:\n        /* \"Contracts/StoreMap.sol\":4807:4808  1 */\n      0x01\n        /* \"Contracts/StoreMap.sol\":4780:4788  frontier */\n      0x0d\n        /* \"Contracts/StoreMap.sol\":4780:4797  frontier.geohashs */\n      0x00\n      add\n        /* \"Contracts/StoreMap.sol\":4780:4804  frontier.geohashs.length */\n      dup1\n      sload\n      swap1\n      pop\n        /* \"Contracts/StoreMap.sol\":4780:4808  frontier.geohashs.length > 1 */\n      gt\n        /* \"Contracts/StoreMap.sol\":4773:6639  while (frontier.geohashs.length > 1) {... */\n      iszero\n      tag_254\n      jumpi\n        /* \"Contracts/StoreMap.sol\":4832:4837  top() */\n      tag_255\n        /* \"Contracts/StoreMap.sol\":4832:4835  top */\n      tag_98\n        /* \"Contracts/StoreMap.sol\":4832:4837  top() */\n      jump\t// in\n    tag_255:\n        /* \"Contracts/StoreMap.sol\":4815:4837  currentGeohash = top() */\n      swap2\n      pop\n        /* \"Contracts/StoreMap.sol\":4869:4878  dequeue() */\n      tag_256\n        /* \"Contracts/StoreMap.sol\":4869:4876  dequeue */\n      tag_64\n        /* \"Contracts/StoreMap.sol\":4869:4878  dequeue() */\n      jump\t// in\n    tag_256:\n        /* \"Contracts/StoreMap.sol\":4883:4909  adj_types storage adjNodes */\n      0x00\n        /* \"Contracts/StoreMap.sol\":4912:4925  adjacencyList */\n      0x02\n        /* \"Contracts/StoreMap.sol\":4912:4941  adjacencyList[currentGeohash] */\n      0x00\n        /* \"Contracts/StoreMap.sol\":4926:4940  currentGeohash */\n      dup5\n        /* \"Contracts/StoreMap.sol\":4912:4941  adjacencyList[currentGeohash] */\n      dup2\n      mstore\n      0x20\n      add\n      swap1\n      dup2\n      mstore\n      0x20\n      add\n      0x00\n      keccak256\n        /* \"Contracts/StoreMap.sol\":4883:4941  adj_types storage adjNodes = adjacencyList[currentGeohash] */\n      swap1\n      pop\n        /* \"Contracts/StoreMap.sol\":4968:4978  endGeohash */\n      dup6\n        /* \"Contracts/StoreMap.sol\":4950:4964  currentGeohash */\n      dup4\n        /* \"Contracts/StoreMap.sol\":4950:4978  currentGeohash == endGeohash */\n      eq\n        /* \"Contracts/StoreMap.sol\":4946:5703  if (currentGeohash == endGeohash) {... */\n      iszero\n      tag_257\n      jumpi\n        /* \"Contracts/StoreMap.sol\":4996:5005  costSofar */\n      0x07\n        /* \"Contracts/StoreMap.sol\":4996:5009  costSofar.map */\n      0x02\n      add\n        /* \"Contracts/StoreMap.sol\":4996:5025  costSofar.map[currentGeohash] */\n      0x00\n        /* \"Contracts/StoreMap.sol\":5010:5024  currentGeohash */\n      dup5\n        /* \"Contracts/StoreMap.sol\":4996:5025  costSofar.map[currentGeohash] */\n      dup2\n      mstore\n      0x20\n      add\n      swap1\n      dup2\n      mstore\n      0x20\n      add\n      0x00\n      keccak256\n      sload\n        /* \"Contracts/StoreMap.sol\":4986:5025  costAll = costSofar.map[currentGeohash] */\n      swap4\n      pop\n        /* \"Contracts/StoreMap.sol\":5067:5082  bytes32 current */\n      0x00\n        /* \"Contracts/StoreMap.sol\":5085:5095  endGeohash */\n      dup7\n        /* \"Contracts/StoreMap.sol\":5067:5095  bytes32 current = endGeohash */\n      swap1\n      pop\n        /* \"Contracts/StoreMap.sol\":5127:5132  paths */\n      0x04\n        /* \"Contracts/StoreMap.sol\":5127:5136  paths.num */\n      0x00\n      add\n      sload\n        /* \"Contracts/StoreMap.sol\":5113:5137  new bytes32[](paths.num) */\n      mload(0x40)\n      swap1\n      dup1\n      dup3\n      mstore\n      dup1\n      0x20\n      mul\n      0x20\n      add\n      dup3\n      add\n      0x40\n      mstore\n      dup1\n      iszero\n      tag_258\n      jumpi\n      dup2\n      0x20\n      add\n        /* \"--CODEGEN--\":29:31   */\n      0x20\n        /* \"--CODEGEN--\":21:27   */\n      dup3\n        /* \"--CODEGEN--\":17:32   */\n      mul\n        /* \"--CODEGEN--\":117:121   */\n      dup1\n        /* \"--CODEGEN--\":105:115   */\n      codesize\n        /* \"--CODEGEN--\":97:103   */\n      dup4\n        /* \"--CODEGEN--\":88:122   */\n      codecopy\n        /* \"--CODEGEN--\":148:152   */\n      dup1\n        /* \"--CODEGEN--\":140:146   */\n      dup3\n        /* \"--CODEGEN--\":136:153   */\n      add\n        /* \"--CODEGEN--\":126:153   */\n      swap2\n      pop\n        /* \"--CODEGEN--\":0:157   */\n      pop\n        /* \"Contracts/StoreMap.sol\":5113:5137  new bytes32[](paths.num) */\n      swap1\n      pop\n    tag_258:\n      pop\n        /* \"Contracts/StoreMap.sol\":5101:5137  backwards = new bytes32[](paths.num) */\n      swap6\n      pop\n        /* \"Contracts/StoreMap.sol\":5143:5152  uint256 i */\n      0x00\n        /* \"Contracts/StoreMap.sol\":5155:5156  0 */\n      dup1\n        /* \"Contracts/StoreMap.sol\":5143:5156  uint256 i = 0 */\n      swap1\n      pop\n        /* \"Contracts/StoreMap.sol\":5162:5273  while(current != startGeohash){... */\n    tag_259:\n        /* \"Contracts/StoreMap.sol\":5179:5191  startGeohash */\n      dup9\n        /* \"Contracts/StoreMap.sol\":5168:5175  current */\n      dup3\n        /* \"Contracts/StoreMap.sol\":5168:5191  current != startGeohash */\n      eq\n        /* \"Contracts/StoreMap.sol\":5162:5273  while(current != startGeohash){... */\n      tag_260\n      jumpi\n        /* \"Contracts/StoreMap.sol\":5214:5221  current */\n      dup2\n        /* \"Contracts/StoreMap.sol\":5199:5208  backwards */\n      dup8\n        /* \"Contracts/StoreMap.sol\":5209:5210  i */\n      dup3\n        /* \"Contracts/StoreMap.sol\":5199:5211  backwards[i] */\n      dup2\n      mload\n      dup2\n      lt\n      tag_261\n      jumpi\n      invalid\n    tag_261:\n      0x20\n      mul\n      0x20\n      add\n      add\n        /* \"Contracts/StoreMap.sol\":5199:5221  backwards[i] = current */\n      dup2\n      dup2\n      mstore\n      pop\n      pop\n        /* \"Contracts/StoreMap.sol\":5238:5243  paths */\n      0x04\n        /* \"Contracts/StoreMap.sol\":5238:5247  paths.map */\n      0x02\n      add\n        /* \"Contracts/StoreMap.sol\":5238:5256  paths.map[current] */\n      0x00\n        /* \"Contracts/StoreMap.sol\":5248:5255  current */\n      dup4\n        /* \"Contracts/StoreMap.sol\":5238:5256  paths.map[current] */\n      dup2\n      mstore\n      0x20\n      add\n      swap1\n      dup2\n      mstore\n      0x20\n      add\n      0x00\n      keccak256\n      sload\n        /* \"Contracts/StoreMap.sol\":5228:5256  current = paths.map[current] */\n      swap2\n      pop\n        /* \"Contracts/StoreMap.sol\":5263:5266  i++ */\n      dup1\n      dup1\n      0x01\n      add\n      swap2\n      pop\n      pop\n        /* \"Contracts/StoreMap.sol\":5162:5273  while(current != startGeohash){... */\n      jump(tag_259)\n    tag_260:\n        /* \"Contracts/StoreMap.sol\":5293:5305  startGeohash */\n      dup9\n        /* \"Contracts/StoreMap.sol\":5278:5287  backwards */\n      dup8\n        /* \"Contracts/StoreMap.sol\":5288:5289  i */\n      dup3\n        /* \"Contracts/StoreMap.sol\":5278:5290  backwards[i] */\n      dup2\n      mload\n      dup2\n      lt\n      tag_262\n      jumpi\n      invalid\n    tag_262:\n      0x20\n      mul\n      0x20\n      add\n      add\n        /* \"Contracts/StoreMap.sol\":5278:5305  backwards[i] = startGeohash */\n      dup2\n      dup2\n      mstore\n      pop\n      pop\n        /* \"Contracts/StoreMap.sol\":5340:5349  uint256 j */\n      0x00\n        /* \"Contracts/StoreMap.sol\":5352:5353  0 */\n      dup1\n        /* \"Contracts/StoreMap.sol\":5340:5353  uint256 j = 0 */\n      swap1\n      pop\n        /* \"Contracts/StoreMap.sol\":5336:5448  for(uint256 j = 0; j < paths.num; j++){... */\n    tag_263:\n        /* \"Contracts/StoreMap.sol\":5359:5364  paths */\n      0x04\n        /* \"Contracts/StoreMap.sol\":5359:5368  paths.num */\n      0x00\n      add\n      sload\n        /* \"Contracts/StoreMap.sol\":5355:5356  j */\n      dup2\n        /* \"Contracts/StoreMap.sol\":5355:5368  j < paths.num */\n      lt\n        /* \"Contracts/StoreMap.sol\":5336:5448  for(uint256 j = 0; j < paths.num; j++){... */\n      iszero\n      tag_264\n      jumpi\n        /* \"Contracts/StoreMap.sol\":5388:5393  paths */\n      0x04\n        /* \"Contracts/StoreMap.sol\":5388:5397  paths.map */\n      0x02\n      add\n        /* \"Contracts/StoreMap.sol\":5388:5413  paths.map[paths.index[j]] */\n      0x00\n        /* \"Contracts/StoreMap.sol\":5398:5403  paths */\n      0x04\n        /* \"Contracts/StoreMap.sol\":5398:5409  paths.index */\n      0x01\n      add\n        /* \"Contracts/StoreMap.sol\":5398:5412  paths.index[j] */\n      0x00\n        /* \"Contracts/StoreMap.sol\":5410:5411  j */\n      dup5\n        /* \"Contracts/StoreMap.sol\":5398:5412  paths.index[j] */\n      dup2\n      mstore\n      0x20\n      add\n      swap1\n      dup2\n      mstore\n      0x20\n      add\n      0x00\n      keccak256\n      sload\n        /* \"Contracts/StoreMap.sol\":5388:5413  paths.map[paths.index[j]] */\n      dup2\n      mstore\n      0x20\n      add\n      swap1\n      dup2\n      mstore\n      0x20\n      add\n      0x00\n      keccak256\n        /* \"Contracts/StoreMap.sol\":5381:5413  delete paths.map[paths.index[j]] */\n      0x00\n      swap1\n      sstore\n        /* \"Contracts/StoreMap.sol\":5427:5432  paths */\n      0x04\n        /* \"Contracts/StoreMap.sol\":5427:5438  paths.index */\n      0x01\n      add\n        /* \"Contracts/StoreMap.sol\":5427:5441  paths.index[j] */\n      0x00\n        /* \"Contracts/StoreMap.sol\":5439:5440  j */\n      dup3\n        /* \"Contracts/StoreMap.sol\":5427:5441  paths.index[j] */\n      dup2\n      mstore\n      0x20\n      add\n      swap1\n      dup2\n      mstore\n      0x20\n      add\n      0x00\n      keccak256\n        /* \"Contracts/StoreMap.sol\":5420:5441  delete paths.index[j] */\n      0x00\n      swap1\n      sstore\n        /* \"Contracts/StoreMap.sol\":5370:5373  j++ */\n      dup1\n      dup1\n      0x01\n      add\n      swap2\n      pop\n      pop\n        /* \"Contracts/StoreMap.sol\":5336:5448  for(uint256 j = 0; j < paths.num; j++){... */\n      jump(tag_263)\n    tag_264:\n      pop\n        /* \"Contracts/StoreMap.sol\":5465:5466  0 */\n      0x00\n        /* \"Contracts/StoreMap.sol\":5453:5458  paths */\n      0x04\n        /* \"Contracts/StoreMap.sol\":5453:5462  paths.num */\n      0x00\n      add\n        /* \"Contracts/StoreMap.sol\":5453:5466  paths.num = 0 */\n      dup2\n      swap1\n      sstore\n      pop\n        /* \"Contracts/StoreMap.sol\":5476:5485  uint256 j */\n      0x00\n        /* \"Contracts/StoreMap.sol\":5488:5489  0 */\n      dup1\n        /* \"Contracts/StoreMap.sol\":5476:5489  uint256 j = 0 */\n      swap1\n      pop\n        /* \"Contracts/StoreMap.sol\":5472:5600  for(uint256 j = 0; j < costSofar.num; j++){... */\n    tag_266:\n        /* \"Contracts/StoreMap.sol\":5495:5504  costSofar */\n      0x07\n        /* \"Contracts/StoreMap.sol\":5495:5508  costSofar.num */\n      0x00\n      add\n      sload\n        /* \"Contracts/StoreMap.sol\":5491:5492  j */\n      dup2\n        /* \"Contracts/StoreMap.sol\":5491:5508  j < costSofar.num */\n      lt\n        /* \"Contracts/StoreMap.sol\":5472:5600  for(uint256 j = 0; j < costSofar.num; j++){... */\n      iszero\n      tag_267\n      jumpi\n        /* \"Contracts/StoreMap.sol\":5528:5537  costSofar */\n      0x07\n        /* \"Contracts/StoreMap.sol\":5528:5541  costSofar.map */\n      0x02\n      add\n        /* \"Contracts/StoreMap.sol\":5528:5561  costSofar.map[costSofar.index[j]] */\n      0x00\n        /* \"Contracts/StoreMap.sol\":5542:5551  costSofar */\n      0x07\n        /* \"Contracts/StoreMap.sol\":5542:5557  costSofar.index */\n      0x01\n      add\n        /* \"Contracts/StoreMap.sol\":5542:5560  costSofar.index[j] */\n      0x00\n        /* \"Contracts/StoreMap.sol\":5558:5559  j */\n      dup5\n        /* \"Contracts/StoreMap.sol\":5542:5560  costSofar.index[j] */\n      dup2\n      mstore\n      0x20\n      add\n      swap1\n      dup2\n      mstore\n      0x20\n      add\n      0x00\n      keccak256\n      sload\n        /* \"Contracts/StoreMap.sol\":5528:5561  costSofar.map[costSofar.index[j]] */\n      dup2\n      mstore\n      0x20\n      add\n      swap1\n      dup2\n      mstore\n      0x20\n      add\n      0x00\n      keccak256\n        /* \"Contracts/StoreMap.sol\":5521:5561  delete costSofar.map[costSofar.index[j]] */\n      0x00\n      swap1\n      sstore\n        /* \"Contracts/StoreMap.sol\":5575:5584  costSofar */\n      0x07\n        /* \"Contracts/StoreMap.sol\":5575:5590  costSofar.index */\n      0x01\n      add\n        /* \"Contracts/StoreMap.sol\":5575:5593  costSofar.index[j] */\n      0x00\n        /* \"Contracts/StoreMap.sol\":5591:5592  j */\n      dup3\n        /* \"Contracts/StoreMap.sol\":5575:5593  costSofar.index[j] */\n      dup2\n      mstore\n      0x20\n      add\n      swap1\n      dup2\n      mstore\n      0x20\n      add\n      0x00\n      keccak256\n        /* \"Contracts/StoreMap.sol\":5568:5593  delete costSofar.index[j] */\n      0x00\n      swap1\n      sstore\n        /* \"Contracts/StoreMap.sol\":5510:5513  j++ */\n      dup1\n      dup1\n      0x01\n      add\n      swap2\n      pop\n      pop\n        /* \"Contracts/StoreMap.sol\":5472:5600  for(uint256 j = 0; j < costSofar.num; j++){... */\n      jump(tag_266)\n    tag_267:\n      pop\n        /* \"Contracts/StoreMap.sol\":5621:5622  0 */\n      0x00\n        /* \"Contracts/StoreMap.sol\":5605:5614  costSofar */\n      0x07\n        /* \"Contracts/StoreMap.sol\":5605:5618  costSofar.num */\n      0x00\n      add\n        /* \"Contracts/StoreMap.sol\":5605:5622  costSofar.num = 0 */\n      dup2\n      swap1\n      sstore\n      pop\n        /* \"Contracts/StoreMap.sol\":5628:5687  while (frontier.geohashs.length > 1){... */\n    tag_269:\n        /* \"Contracts/StoreMap.sol\":5662:5663  1 */\n      0x01\n        /* \"Contracts/StoreMap.sol\":5635:5643  frontier */\n      0x0d\n        /* \"Contracts/StoreMap.sol\":5635:5652  frontier.geohashs */\n      0x00\n      add\n        /* \"Contracts/StoreMap.sol\":5635:5659  frontier.geohashs.length */\n      dup1\n      sload\n      swap1\n      pop\n        /* \"Contracts/StoreMap.sol\":5635:5663  frontier.geohashs.length > 1 */\n      gt\n        /* \"Contracts/StoreMap.sol\":5628:5687  while (frontier.geohashs.length > 1){... */\n      iszero\n      tag_270\n      jumpi\n        /* \"Contracts/StoreMap.sol\":5671:5680  dequeue() */\n      tag_271\n        /* \"Contracts/StoreMap.sol\":5671:5678  dequeue */\n      tag_64\n        /* \"Contracts/StoreMap.sol\":5671:5680  dequeue() */\n      jump\t// in\n    tag_271:\n        /* \"Contracts/StoreMap.sol\":5628:5687  while (frontier.geohashs.length > 1){... */\n      jump(tag_269)\n    tag_270:\n        /* \"Contracts/StoreMap.sol\":5692:5697  break */\n      pop\n      pop\n      pop\n      jump(tag_254)\n        /* \"Contracts/StoreMap.sol\":4946:5703  if (currentGeohash == endGeohash) {... */\n    tag_257:\n        /* \"Contracts/StoreMap.sol\":5713:5722  uint256 i */\n      0x00\n        /* \"Contracts/StoreMap.sol\":5725:5726  0 */\n      dup1\n        /* \"Contracts/StoreMap.sol\":5713:5726  uint256 i = 0 */\n      swap1\n      pop\n        /* \"Contracts/StoreMap.sol\":5708:6635  for (uint256 i = 0; i < adjNodes.adjnum; i++) {... */\n    tag_272:\n        /* \"Contracts/StoreMap.sol\":5732:5740  adjNodes */\n      dup2\n        /* \"Contracts/StoreMap.sol\":5732:5747  adjNodes.adjnum */\n      0x00\n      add\n      sload\n        /* \"Contracts/StoreMap.sol\":5728:5729  i */\n      dup2\n        /* \"Contracts/StoreMap.sol\":5728:5747  i < adjNodes.adjnum */\n      lt\n        /* \"Contracts/StoreMap.sol\":5708:6635  for (uint256 i = 0; i < adjNodes.adjnum; i++) {... */\n      iszero\n      tag_273\n      jumpi\n        /* \"Contracts/StoreMap.sol\":5760:5775  uint256 newCost */\n      0x00\n        /* \"Contracts/StoreMap.sol\":5818:5831  adjacencyList */\n      0x02\n        /* \"Contracts/StoreMap.sol\":5818:5847  adjacencyList[currentGeohash] */\n      0x00\n        /* \"Contracts/StoreMap.sol\":5832:5846  currentGeohash */\n      dup7\n        /* \"Contracts/StoreMap.sol\":5818:5847  adjacencyList[currentGeohash] */\n      dup2\n      mstore\n      0x20\n      add\n      swap1\n      dup2\n      mstore\n      0x20\n      add\n      0x00\n      keccak256\n        /* \"Contracts/StoreMap.sol\":5818:5852  adjacencyList[currentGeohash].adjs */\n      0x01\n      add\n        /* \"Contracts/StoreMap.sol\":5818:5855  adjacencyList[currentGeohash].adjs[i] */\n      0x00\n        /* \"Contracts/StoreMap.sol\":5853:5854  i */\n      dup4\n        /* \"Contracts/StoreMap.sol\":5818:5855  adjacencyList[currentGeohash].adjs[i] */\n      dup2\n      mstore\n      0x20\n      add\n      swap1\n      dup2\n      mstore\n      0x20\n      add\n      0x00\n      keccak256\n        /* \"Contracts/StoreMap.sol\":5818:5860  adjacencyList[currentGeohash].adjs[i].cost */\n      0x02\n      add\n      0x04\n      swap1\n      sload\n      swap1\n      0x0100\n      exp\n      swap1\n      div\n      0x03\n      signextend\n        /* \"Contracts/StoreMap.sol\":5810:5861  uint256(adjacencyList[currentGeohash].adjs[i].cost) */\n      0x03\n      signextend\n        /* \"Contracts/StoreMap.sol\":5778:5787  costSofar */\n      0x07\n        /* \"Contracts/StoreMap.sol\":5778:5791  costSofar.map */\n      0x02\n      add\n        /* \"Contracts/StoreMap.sol\":5778:5807  costSofar.map[currentGeohash] */\n      0x00\n        /* \"Contracts/StoreMap.sol\":5792:5806  currentGeohash */\n      dup8\n        /* \"Contracts/StoreMap.sol\":5778:5807  costSofar.map[currentGeohash] */\n      dup2\n      mstore\n      0x20\n      add\n      swap1\n      dup2\n      mstore\n      0x20\n      add\n      0x00\n      keccak256\n      sload\n        /* \"Contracts/StoreMap.sol\":5778:5861  costSofar.map[currentGeohash] + uint256(adjacencyList[currentGeohash].adjs[i].cost) */\n      add\n        /* \"Contracts/StoreMap.sol\":5760:5861  uint256 newCost = costSofar.map[currentGeohash] + uint256(adjacencyList[currentGeohash].adjs[i].cost) */\n      swap1\n      pop\n        /* \"Contracts/StoreMap.sol\":5920:5921  0 */\n      0x00\n        /* \"Contracts/StoreMap.sol\":5871:5880  costSofar */\n      0x07\n        /* \"Contracts/StoreMap.sol\":5871:5884  costSofar.map */\n      0x02\n      add\n        /* \"Contracts/StoreMap.sol\":5871:5916  costSofar.map[adjNodes.adjs[i].targetGeohash] */\n      0x00\n        /* \"Contracts/StoreMap.sol\":5885:5893  adjNodes */\n      dup6\n        /* \"Contracts/StoreMap.sol\":5885:5898  adjNodes.adjs */\n      0x01\n      add\n        /* \"Contracts/StoreMap.sol\":5885:5901  adjNodes.adjs[i] */\n      0x00\n        /* \"Contracts/StoreMap.sol\":5899:5900  i */\n      dup7\n        /* \"Contracts/StoreMap.sol\":5885:5901  adjNodes.adjs[i] */\n      dup2\n      mstore\n      0x20\n      add\n      swap1\n      dup2\n      mstore\n      0x20\n      add\n      0x00\n      keccak256\n        /* \"Contracts/StoreMap.sol\":5885:5915  adjNodes.adjs[i].targetGeohash */\n      0x01\n      add\n      sload\n        /* \"Contracts/StoreMap.sol\":5871:5916  costSofar.map[adjNodes.adjs[i].targetGeohash] */\n      dup2\n      mstore\n      0x20\n      add\n      swap1\n      dup2\n      mstore\n      0x20\n      add\n      0x00\n      keccak256\n      sload\n        /* \"Contracts/StoreMap.sol\":5871:5921  costSofar.map[adjNodes.adjs[i].targetGeohash] == 0 */\n      eq\n        /* \"Contracts/StoreMap.sol\":5871:5980  costSofar.map[adjNodes.adjs[i].targetGeohash] == 0 || newCost < costSofar.map[adjNodes.adjs[i].targetGeohash] */\n      dup1\n      tag_275\n      jumpi\n      pop\n        /* \"Contracts/StoreMap.sol\":5935:5944  costSofar */\n      0x07\n        /* \"Contracts/StoreMap.sol\":5935:5948  costSofar.map */\n      0x02\n      add\n        /* \"Contracts/StoreMap.sol\":5935:5980  costSofar.map[adjNodes.adjs[i].targetGeohash] */\n      0x00\n        /* \"Contracts/StoreMap.sol\":5949:5957  adjNodes */\n      dup5\n        /* \"Contracts/StoreMap.sol\":5949:5962  adjNodes.adjs */\n      0x01\n      add\n        /* \"Contracts/StoreMap.sol\":5949:5965  adjNodes.adjs[i] */\n      0x00\n        /* \"Contracts/StoreMap.sol\":5963:5964  i */\n      dup6\n        /* \"Contracts/StoreMap.sol\":5949:5965  adjNodes.adjs[i] */\n      dup2\n      mstore\n      0x20\n      add\n      swap1\n      dup2\n      mstore\n      0x20\n      add\n      0x00\n      keccak256\n        /* \"Contracts/StoreMap.sol\":5949:5979  adjNodes.adjs[i].targetGeohash */\n      0x01\n      add\n      sload\n        /* \"Contracts/StoreMap.sol\":5935:5980  costSofar.map[adjNodes.adjs[i].targetGeohash] */\n      dup2\n      mstore\n      0x20\n      add\n      swap1\n      dup2\n      mstore\n      0x20\n      add\n      0x00\n      keccak256\n      sload\n        /* \"Contracts/StoreMap.sol\":5925:5932  newCost */\n      dup2\n        /* \"Contracts/StoreMap.sol\":5925:5980  newCost < costSofar.map[adjNodes.adjs[i].targetGeohash] */\n      lt\n        /* \"Contracts/StoreMap.sol\":5871:5980  costSofar.map[adjNodes.adjs[i].targetGeohash] == 0 || newCost < costSofar.map[adjNodes.adjs[i].targetGeohash] */\n    tag_275:\n        /* \"Contracts/StoreMap.sol\":5867:6630  if (costSofar.map[adjNodes.adjs[i].targetGeohash] == 0 || newCost < costSofar.map[adjNodes.adjs[i].targetGeohash]) {... */\n      iszero\n      tag_276\n      jumpi\n        /* \"Contracts/StoreMap.sol\":6041:6042  0 */\n      0x00\n        /* \"Contracts/StoreMap.sol\":5992:6001  costSofar */\n      0x07\n        /* \"Contracts/StoreMap.sol\":5992:6005  costSofar.map */\n      0x02\n      add\n        /* \"Contracts/StoreMap.sol\":5992:6037  costSofar.map[adjNodes.adjs[i].targetGeohash] */\n      0x00\n        /* \"Contracts/StoreMap.sol\":6006:6014  adjNodes */\n      dup6\n        /* \"Contracts/StoreMap.sol\":6006:6019  adjNodes.adjs */\n      0x01\n      add\n        /* \"Contracts/StoreMap.sol\":6006:6022  adjNodes.adjs[i] */\n      0x00\n        /* \"Contracts/StoreMap.sol\":6020:6021  i */\n      dup7\n        /* \"Contracts/StoreMap.sol\":6006:6022  adjNodes.adjs[i] */\n      dup2\n      mstore\n      0x20\n      add\n      swap1\n      dup2\n      mstore\n      0x20\n      add\n      0x00\n      keccak256\n        /* \"Contracts/StoreMap.sol\":6006:6036  adjNodes.adjs[i].targetGeohash */\n      0x01\n      add\n      sload\n        /* \"Contracts/StoreMap.sol\":5992:6037  costSofar.map[adjNodes.adjs[i].targetGeohash] */\n      dup2\n      mstore\n      0x20\n      add\n      swap1\n      dup2\n      mstore\n      0x20\n      add\n      0x00\n      keccak256\n      sload\n        /* \"Contracts/StoreMap.sol\":5992:6042  costSofar.map[adjNodes.adjs[i].targetGeohash] == 0 */\n      eq\n        /* \"Contracts/StoreMap.sol\":5989:6145  if(costSofar.map[adjNodes.adjs[i].targetGeohash] == 0){... */\n      iszero\n      tag_277\n      jumpi\n        /* \"Contracts/StoreMap.sol\":6084:6092  adjNodes */\n      dup3\n        /* \"Contracts/StoreMap.sol\":6084:6097  adjNodes.adjs */\n      0x01\n      add\n        /* \"Contracts/StoreMap.sol\":6084:6100  adjNodes.adjs[i] */\n      0x00\n        /* \"Contracts/StoreMap.sol\":6098:6099  i */\n      dup4\n        /* \"Contracts/StoreMap.sol\":6084:6100  adjNodes.adjs[i] */\n      dup2\n      mstore\n      0x20\n      add\n      swap1\n      dup2\n      mstore\n      0x20\n      add\n      0x00\n      keccak256\n        /* \"Contracts/StoreMap.sol\":6084:6114  adjNodes.adjs[i].targetGeohash */\n      0x01\n      add\n      sload\n        /* \"Contracts/StoreMap.sol\":6051:6060  costSofar */\n      0x07\n        /* \"Contracts/StoreMap.sol\":6051:6066  costSofar.index */\n      0x01\n      add\n        /* \"Contracts/StoreMap.sol\":6051:6081  costSofar.index[costSofar.num] */\n      0x00\n        /* \"Contracts/StoreMap.sol\":6067:6076  costSofar */\n      0x07\n        /* \"Contracts/StoreMap.sol\":6067:6080  costSofar.num */\n      0x00\n      add\n      sload\n        /* \"Contracts/StoreMap.sol\":6051:6081  costSofar.index[costSofar.num] */\n      dup2\n      mstore\n      0x20\n      add\n      swap1\n      dup2\n      mstore\n      0x20\n      add\n      0x00\n      keccak256\n        /* \"Contracts/StoreMap.sol\":6051:6114  costSofar.index[costSofar.num] = adjNodes.adjs[i].targetGeohash */\n      dup2\n      swap1\n      sstore\n      pop\n        /* \"Contracts/StoreMap.sol\":6122:6131  costSofar */\n      0x07\n        /* \"Contracts/StoreMap.sol\":6122:6135  costSofar.num */\n      0x00\n      add\n      0x00\n        /* \"Contracts/StoreMap.sol\":6122:6137  costSofar.num++ */\n      dup2\n      sload\n      dup1\n      swap3\n      swap2\n      swap1\n      0x01\n      add\n      swap2\n      swap1\n      pop\n      sstore\n      pop\n        /* \"Contracts/StoreMap.sol\":5989:6145  if(costSofar.map[adjNodes.adjs[i].targetGeohash] == 0){... */\n    tag_277:\n        /* \"Contracts/StoreMap.sol\":6199:6206  newCost */\n      dup1\n        /* \"Contracts/StoreMap.sol\":6151:6160  costSofar */\n      0x07\n        /* \"Contracts/StoreMap.sol\":6151:6164  costSofar.map */\n      0x02\n      add\n        /* \"Contracts/StoreMap.sol\":6151:6196  costSofar.map[adjNodes.adjs[i].targetGeohash] */\n      0x00\n        /* \"Contracts/StoreMap.sol\":6165:6173  adjNodes */\n      dup6\n        /* \"Contracts/StoreMap.sol\":6165:6178  adjNodes.adjs */\n      0x01\n      add\n        /* \"Contracts/StoreMap.sol\":6165:6181  adjNodes.adjs[i] */\n      0x00\n        /* \"Contracts/StoreMap.sol\":6179:6180  i */\n      dup7\n        /* \"Contracts/StoreMap.sol\":6165:6181  adjNodes.adjs[i] */\n      dup2\n      mstore\n      0x20\n      add\n      swap1\n      dup2\n      mstore\n      0x20\n      add\n      0x00\n      keccak256\n        /* \"Contracts/StoreMap.sol\":6165:6195  adjNodes.adjs[i].targetGeohash */\n      0x01\n      add\n      sload\n        /* \"Contracts/StoreMap.sol\":6151:6196  costSofar.map[adjNodes.adjs[i].targetGeohash] */\n      dup2\n      mstore\n      0x20\n      add\n      swap1\n      dup2\n      mstore\n      0x20\n      add\n      0x00\n      keccak256\n        /* \"Contracts/StoreMap.sol\":6151:6206  costSofar.map[adjNodes.adjs[i].targetGeohash] = newCost */\n      dup2\n      swap1\n      sstore\n      pop\n        /* \"Contracts/StoreMap.sol\":6238:6291  manhattan(adjNodes.adjs[i].targetGeohash, endGeohash) */\n      tag_278\n        /* \"Contracts/StoreMap.sol\":6248:6256  adjNodes */\n      dup4\n        /* \"Contracts/StoreMap.sol\":6248:6261  adjNodes.adjs */\n      0x01\n      add\n        /* \"Contracts/StoreMap.sol\":6248:6264  adjNodes.adjs[i] */\n      0x00\n        /* \"Contracts/StoreMap.sol\":6262:6263  i */\n      dup5\n        /* \"Contracts/StoreMap.sol\":6248:6264  adjNodes.adjs[i] */\n      dup2\n      mstore\n      0x20\n      add\n      swap1\n      dup2\n      mstore\n      0x20\n      add\n      0x00\n      keccak256\n        /* \"Contracts/StoreMap.sol\":6248:6278  adjNodes.adjs[i].targetGeohash */\n      0x01\n      add\n      sload\n        /* \"Contracts/StoreMap.sol\":6280:6290  endGeohash */\n      dup10\n        /* \"Contracts/StoreMap.sol\":6238:6247  manhattan */\n      tag_50\n        /* \"Contracts/StoreMap.sol\":6238:6291  manhattan(adjNodes.adjs[i].targetGeohash, endGeohash) */\n      jump\t// in\n    tag_278:\n        /* \"Contracts/StoreMap.sol\":6234:6235  P */\n      sload(0x03)\n        /* \"Contracts/StoreMap.sol\":6224:6231  newCost */\n      dup3\n        /* \"Contracts/StoreMap.sol\":6224:6235  newCost * P */\n      mul\n        /* \"Contracts/StoreMap.sol\":6224:6291  newCost * P + manhattan(adjNodes.adjs[i].targetGeohash, endGeohash) */\n      add\n        /* \"Contracts/StoreMap.sol\":6213:6291  priority = newCost * P + manhattan(adjNodes.adjs[i].targetGeohash, endGeohash) */\n      swap4\n      pop\n        /* \"Contracts/StoreMap.sol\":6298:6347  enqueue(adjNodes.adjs[i].targetGeohash, priority) */\n      tag_279\n        /* \"Contracts/StoreMap.sol\":6306:6314  adjNodes */\n      dup4\n        /* \"Contracts/StoreMap.sol\":6306:6319  adjNodes.adjs */\n      0x01\n      add\n        /* \"Contracts/StoreMap.sol\":6306:6322  adjNodes.adjs[i] */\n      0x00\n        /* \"Contracts/StoreMap.sol\":6320:6321  i */\n      dup5\n        /* \"Contracts/StoreMap.sol\":6306:6322  adjNodes.adjs[i] */\n      dup2\n      mstore\n      0x20\n      add\n      swap1\n      dup2\n      mstore\n      0x20\n      add\n      0x00\n      keccak256\n        /* \"Contracts/StoreMap.sol\":6306:6336  adjNodes.adjs[i].targetGeohash */\n      0x01\n      add\n      sload\n        /* \"Contracts/StoreMap.sol\":6338:6346  priority */\n      dup6\n        /* \"Contracts/StoreMap.sol\":6298:6305  enqueue */\n      tag_23\n        /* \"Contracts/StoreMap.sol\":6298:6347  enqueue(adjNodes.adjs[i].targetGeohash, priority) */\n      jump\t// in\n    tag_279:\n        /* \"Contracts/StoreMap.sol\":6402:6468  0x0000000000000000000000000000000000000000000000000000000000000000 */\n      0x00\n        /* \"Contracts/StoreMap.sol\":6357:6468  paths.map[adjNodes.adjs[i].targetGeohash] == 0x0000000000000000000000000000000000000000000000000000000000000000 */\n      dup1\n      shl\n        /* \"Contracts/StoreMap.sol\":6357:6362  paths */\n      0x04\n        /* \"Contracts/StoreMap.sol\":6357:6366  paths.map */\n      0x02\n      add\n        /* \"Contracts/StoreMap.sol\":6357:6398  paths.map[adjNodes.adjs[i].targetGeohash] */\n      0x00\n        /* \"Contracts/StoreMap.sol\":6367:6375  adjNodes */\n      dup6\n        /* \"Contracts/StoreMap.sol\":6367:6380  adjNodes.adjs */\n      0x01\n      add\n        /* \"Contracts/StoreMap.sol\":6367:6383  adjNodes.adjs[i] */\n      0x00\n        /* \"Contracts/StoreMap.sol\":6381:6382  i */\n      dup7\n        /* \"Contracts/StoreMap.sol\":6367:6383  adjNodes.adjs[i] */\n      dup2\n      mstore\n      0x20\n      add\n      swap1\n      dup2\n      mstore\n      0x20\n      add\n      0x00\n      keccak256\n        /* \"Contracts/StoreMap.sol\":6367:6397  adjNodes.adjs[i].targetGeohash */\n      0x01\n      add\n      sload\n        /* \"Contracts/StoreMap.sol\":6357:6398  paths.map[adjNodes.adjs[i].targetGeohash] */\n      dup2\n      mstore\n      0x20\n      add\n      swap1\n      dup2\n      mstore\n      0x20\n      add\n      0x00\n      keccak256\n      sload\n        /* \"Contracts/StoreMap.sol\":6357:6468  paths.map[adjNodes.adjs[i].targetGeohash] == 0x0000000000000000000000000000000000000000000000000000000000000000 */\n      eq\n        /* \"Contracts/StoreMap.sol\":6354:6559  if(paths.map[adjNodes.adjs[i].targetGeohash] == 0x0000000000000000000000000000000000000000000000000000000000000000){... */\n      iszero\n      tag_280\n      jumpi\n        /* \"Contracts/StoreMap.sol\":6502:6510  adjNodes */\n      dup3\n        /* \"Contracts/StoreMap.sol\":6502:6515  adjNodes.adjs */\n      0x01\n      add\n        /* \"Contracts/StoreMap.sol\":6502:6518  adjNodes.adjs[i] */\n      0x00\n        /* \"Contracts/StoreMap.sol\":6516:6517  i */\n      dup4\n        /* \"Contracts/StoreMap.sol\":6502:6518  adjNodes.adjs[i] */\n      dup2\n      mstore\n      0x20\n      add\n      swap1\n      dup2\n      mstore\n      0x20\n      add\n      0x00\n      keccak256\n        /* \"Contracts/StoreMap.sol\":6502:6532  adjNodes.adjs[i].targetGeohash */\n      0x01\n      add\n      sload\n        /* \"Contracts/StoreMap.sol\":6477:6482  paths */\n      0x04\n        /* \"Contracts/StoreMap.sol\":6477:6488  paths.index */\n      0x01\n      add\n        /* \"Contracts/StoreMap.sol\":6477:6499  paths.index[paths.num] */\n      0x00\n        /* \"Contracts/StoreMap.sol\":6489:6494  paths */\n      0x04\n        /* \"Contracts/StoreMap.sol\":6489:6498  paths.num */\n      0x00\n      add\n      sload\n        /* \"Contracts/StoreMap.sol\":6477:6499  paths.index[paths.num] */\n      dup2\n      mstore\n      0x20\n      add\n      swap1\n      dup2\n      mstore\n      0x20\n      add\n      0x00\n      keccak256\n        /* \"Contracts/StoreMap.sol\":6477:6532  paths.index[paths.num] = adjNodes.adjs[i].targetGeohash */\n      dup2\n      swap1\n      sstore\n      pop\n        /* \"Contracts/StoreMap.sol\":6540:6545  paths */\n      0x04\n        /* \"Contracts/StoreMap.sol\":6540:6549  paths.num */\n      0x00\n      add\n      0x00\n        /* \"Contracts/StoreMap.sol\":6540:6551  paths.num++ */\n      dup2\n      sload\n      dup1\n      swap3\n      swap2\n      swap1\n      0x01\n      add\n      swap2\n      swap1\n      pop\n      sstore\n      pop\n        /* \"Contracts/StoreMap.sol\":6354:6559  if(paths.map[adjNodes.adjs[i].targetGeohash] == 0x0000000000000000000000000000000000000000000000000000000000000000){... */\n    tag_280:\n        /* \"Contracts/StoreMap.sol\":6609:6623  currentGeohash */\n      dup5\n        /* \"Contracts/StoreMap.sol\":6565:6570  paths */\n      0x04\n        /* \"Contracts/StoreMap.sol\":6565:6574  paths.map */\n      0x02\n      add\n        /* \"Contracts/StoreMap.sol\":6565:6606  paths.map[adjNodes.adjs[i].targetGeohash] */\n      0x00\n        /* \"Contracts/StoreMap.sol\":6575:6583  adjNodes */\n      dup6\n        /* \"Contracts/StoreMap.sol\":6575:6588  adjNodes.adjs */\n      0x01\n      add\n        /* \"Contracts/StoreMap.sol\":6575:6591  adjNodes.adjs[i] */\n      0x00\n        /* \"Contracts/StoreMap.sol\":6589:6590  i */\n      dup7\n        /* \"Contracts/StoreMap.sol\":6575:6591  adjNodes.adjs[i] */\n      dup2\n      mstore\n      0x20\n      add\n      swap1\n      dup2\n      mstore\n      0x20\n      add\n      0x00\n      keccak256\n        /* \"Contracts/StoreMap.sol\":6575:6605  adjNodes.adjs[i].targetGeohash */\n      0x01\n      add\n      sload\n        /* \"Contracts/StoreMap.sol\":6565:6606  paths.map[adjNodes.adjs[i].targetGeohash] */\n      dup2\n      mstore\n      0x20\n      add\n      swap1\n      dup2\n      mstore\n      0x20\n      add\n      0x00\n      keccak256\n        /* \"Contracts/StoreMap.sol\":6565:6623  paths.map[adjNodes.adjs[i].targetGeohash] = currentGeohash */\n      dup2\n      swap1\n      sstore\n      pop\n        /* \"Contracts/StoreMap.sol\":5867:6630  if (costSofar.map[adjNodes.adjs[i].targetGeohash] == 0 || newCost < costSofar.map[adjNodes.adjs[i].targetGeohash]) {... */\n    tag_276:\n        /* \"Contracts/StoreMap.sol\":5708:6635  for (uint256 i = 0; i < adjNodes.adjnum; i++) {... */\n      pop\n        /* \"Contracts/StoreMap.sol\":5749:5752  i++ */\n      dup1\n      dup1\n      0x01\n      add\n      swap2\n      pop\n      pop\n        /* \"Contracts/StoreMap.sol\":5708:6635  for (uint256 i = 0; i < adjNodes.adjnum; i++) {... */\n      jump(tag_272)\n    tag_273:\n      pop\n        /* \"Contracts/StoreMap.sol\":4773:6639  while (frontier.geohashs.length > 1) {... */\n      pop\n      jump(tag_253)\n    tag_254:\n        /* \"Contracts/StoreMap.sol\":4476:6642  function astar(bytes32 startGeohash, bytes32 endGeohash) public returns(bytes32[] memory backwards, uint256 costAll){... */\n      pop\n      pop\n      swap3\n      pop\n      swap3\n      swap1\n      pop\n      jump\t// out\n        /* \"Contracts/StoreMap.sol\":7504:7627  function changePrecision(uint256 newPrecision) public returns (uint256){... */\n    tag_82:\n        /* \"Contracts/StoreMap.sol\":7567:7574  uint256 */\n      0x00\n        /* \"Contracts/StoreMap.sol\":7591:7603  newPrecision */\n      dup2\n        /* \"Contracts/StoreMap.sol\":7579:7588  PRECISION */\n      0x0a\n        /* \"Contracts/StoreMap.sol\":7579:7603  PRECISION = newPrecision */\n      dup2\n      swap1\n      sstore\n      pop\n        /* \"Contracts/StoreMap.sol\":7614:7623  PRECISION */\n      sload(0x0a)\n        /* \"Contracts/StoreMap.sol\":7607:7623  return PRECISION */\n      swap1\n      pop\n        /* \"Contracts/StoreMap.sol\":7504:7627  function changePrecision(uint256 newPrecision) public returns (uint256){... */\n      swap2\n      swap1\n      pop\n      jump\t// out\n        /* \"Contracts/StoreMap.sol\":4305:4444  function add_area_line(bytes32 hash, uint256 gid) public {... */\n    tag_85:\n        /* \"Contracts/StoreMap.sol\":4366:4377  uint256 num */\n      0x00\n        /* \"Contracts/StoreMap.sol\":4380:4388  geo_maps */\n      0x01\n        /* \"Contracts/StoreMap.sol\":4380:4394  geo_maps[hash] */\n      0x00\n        /* \"Contracts/StoreMap.sol\":4389:4393  hash */\n      dup5\n        /* \"Contracts/StoreMap.sol\":4380:4394  geo_maps[hash] */\n      dup2\n      mstore\n      0x20\n      add\n      swap1\n      dup2\n      mstore\n      0x20\n      add\n      0x00\n      keccak256\n        /* \"Contracts/StoreMap.sol\":4380:4398  geo_maps[hash].num */\n      0x00\n      add\n      0x00\n        /* \"Contracts/StoreMap.sol\":4380:4400  geo_maps[hash].num++ */\n      dup2\n      sload\n      dup1\n      swap3\n      swap2\n      swap1\n      0x01\n      add\n      swap2\n      swap1\n      pop\n      sstore\n        /* \"Contracts/StoreMap.sol\":4366:4400  uint256 num = geo_maps[hash].num++ */\n      swap1\n      pop\n        /* \"Contracts/StoreMap.sol\":4437:4440  gid */\n      dup2\n        /* \"Contracts/StoreMap.sol\":4404:4412  geo_maps */\n      0x01\n        /* \"Contracts/StoreMap.sol\":4404:4418  geo_maps[hash] */\n      0x00\n        /* \"Contracts/StoreMap.sol\":4413:4417  hash */\n      dup6\n        /* \"Contracts/StoreMap.sol\":4404:4418  geo_maps[hash] */\n      dup2\n      mstore\n      0x20\n      add\n      swap1\n      dup2\n      mstore\n      0x20\n      add\n      0x00\n      keccak256\n        /* \"Contracts/StoreMap.sol\":4404:4429  geo_maps[hash].types_list */\n      0x01\n      add\n        /* \"Contracts/StoreMap.sol\":4404:4434  geo_maps[hash].types_list[num] */\n      0x00\n        /* \"Contracts/StoreMap.sol\":4430:4433  num */\n      dup4\n        /* \"Contracts/StoreMap.sol\":4404:4434  geo_maps[hash].types_list[num] */\n      dup2\n      mstore\n      0x20\n      add\n      swap1\n      dup2\n      mstore\n      0x20\n      add\n      0x00\n      keccak256\n        /* \"Contracts/StoreMap.sol\":4404:4440  geo_maps[hash].types_list[num] = gid */\n      dup2\n      swap1\n      sstore\n      pop\n        /* \"Contracts/StoreMap.sol\":4305:4444  function add_area_line(bytes32 hash, uint256 gid) public {... */\n      pop\n      pop\n      pop\n      jump\t// out\n        /* \"Contracts/StoreMap.sol\":7714:8420  function sliceGeoHash(bytes32 geohash1, bytes32 geohash2) public view returns (string memory, string memory){... */\n    tag_88:\n        /* \"Contracts/StoreMap.sol\":7793:7806  string memory */\n      0x60\n        /* \"Contracts/StoreMap.sol\":7808:7821  string memory */\n      dup1\n        /* \"Contracts/StoreMap.sol\":7826:7838  bytes32 geo1 */\n      0x00\n        /* \"Contracts/StoreMap.sol\":7841:7849  geohash1 */\n      dup5\n        /* \"Contracts/StoreMap.sol\":7826:7849  bytes32 geo1 = geohash1 */\n      swap1\n      pop\n        /* \"Contracts/StoreMap.sol\":7853:7865  bytes32 geo2 */\n      0x00\n        /* \"Contracts/StoreMap.sol\":7868:7876  geohash2 */\n      dup5\n        /* \"Contracts/StoreMap.sol\":7853:7876  bytes32 geo2 = geohash2 */\n      swap1\n      pop\n        /* \"Contracts/StoreMap.sol\":7880:7891  uint256 len */\n      0x00\n        /* \"Contracts/StoreMap.sol\":7894:7905  geo1.length */\n      0x20\n        /* \"Contracts/StoreMap.sol\":7880:7905  uint256 len = geo1.length */\n      0xff\n      and\n      swap1\n      pop\n        /* \"Contracts/StoreMap.sol\":7943:7956  uint256 index */\n      0x00\n        /* \"Contracts/StoreMap.sol\":7989:8000  uint256 dif */\n      dup1\n        /* \"Contracts/StoreMap.sol\":8003:8004  0 */\n      0x00\n        /* \"Contracts/StoreMap.sol\":7989:8004  uint256 dif = 0 */\n      swap1\n      pop\n        /* \"Contracts/StoreMap.sol\":8021:8022  0 */\n      0x00\n        /* \"Contracts/StoreMap.sol\":8013:8022  index = 0 */\n      swap2\n      pop\n        /* \"Contracts/StoreMap.sol\":8008:8104  for (index = 0; index < len; index++) {... */\n    tag_284:\n        /* \"Contracts/StoreMap.sol\":8032:8035  len */\n      dup3\n        /* \"Contracts/StoreMap.sol\":8024:8029  index */\n      dup3\n        /* \"Contracts/StoreMap.sol\":8024:8035  index < len */\n      lt\n        /* \"Contracts/StoreMap.sol\":8008:8104  for (index = 0; index < len; index++) {... */\n      iszero\n      tag_285\n      jumpi\n        /* \"Contracts/StoreMap.sol\":8070:8074  geo2 */\n      dup4\n        /* \"Contracts/StoreMap.sol\":8075:8080  index */\n      dup3\n        /* \"Contracts/StoreMap.sol\":8070:8081  geo2[index] */\n      0x20\n      dup2\n      lt\n      tag_287\n      jumpi\n      invalid\n    tag_287:\n      byte\n      0xf8\n      shl\n        /* \"Contracts/StoreMap.sol\":8055:8081  geo1[index] != geo2[index] */\n      not(0xffffffffffffffffffffffffffffffffffffffffffffffffffffffffffffff)\n      and\n        /* \"Contracts/StoreMap.sol\":8055:8059  geo1 */\n      dup6\n        /* \"Contracts/StoreMap.sol\":8060:8065  index */\n      dup4\n        /* \"Contracts/StoreMap.sol\":8055:8066  geo1[index] */\n      0x20\n      dup2\n      lt\n      tag_288\n      jumpi\n      invalid\n    tag_288:\n      byte\n      0xf8\n      shl\n        /* \"Contracts/StoreMap.sol\":8055:8081  geo1[index] != geo2[index] */\n      not(0xffffffffffffffffffffffffffffffffffffffffffffffffffffffffffffff)\n      and\n      eq\n        /* \"Contracts/StoreMap.sol\":8051:8100  if (geo1[index] != geo2[index]) {... */\n      tag_289\n      jumpi\n        /* \"Contracts/StoreMap.sol\":8089:8094  break */\n      jump(tag_285)\n        /* \"Contracts/StoreMap.sol\":8051:8100  if (geo1[index] != geo2[index]) {... */\n    tag_289:\n        /* \"Contracts/StoreMap.sol\":8037:8044  index++ */\n      dup2\n      dup1\n      0x01\n      add\n      swap3\n      pop\n      pop\n        /* \"Contracts/StoreMap.sol\":8008:8104  for (index = 0; index < len; index++) {... */\n      jump(tag_284)\n    tag_285:\n        /* \"Contracts/StoreMap.sol\":8125:8130  index */\n      dup2\n        /* \"Contracts/StoreMap.sol\":8113:8122  PRECISION */\n      sload(0x0a)\n        /* \"Contracts/StoreMap.sol\":8113:8130  PRECISION - index */\n      sub\n        /* \"Contracts/StoreMap.sol\":8107:8130  dif = PRECISION - index */\n      swap1\n      pop\n        /* \"Contracts/StoreMap.sol\":8134:8148  uint256 index2 */\n      0x00\n        /* \"Contracts/StoreMap.sol\":8151:8152  0 */\n      dup1\n        /* \"Contracts/StoreMap.sol\":8134:8152  uint256 index2 = 0 */\n      swap1\n      pop\n        /* \"Contracts/StoreMap.sol\":8156:8178  bytes memory shortGeo1 */\n      0x60\n        /* \"Contracts/StoreMap.sol\":8191:8194  dif */\n      dup3\n        /* \"Contracts/StoreMap.sol\":8181:8195  new bytes(dif) */\n      mload(0x40)\n      swap1\n      dup1\n      dup3\n      mstore\n      dup1\n      0x1f\n      add\n      not(0x1f)\n      and\n      0x20\n      add\n      dup3\n      add\n      0x40\n      mstore\n      dup1\n      iszero\n      tag_290\n      jumpi\n      dup2\n      0x20\n      add\n        /* \"--CODEGEN--\":29:30   */\n      0x01\n        /* \"--CODEGEN--\":21:27   */\n      dup3\n        /* \"--CODEGEN--\":17:31   */\n      mul\n        /* \"--CODEGEN--\":116:120   */\n      dup1\n        /* \"--CODEGEN--\":104:114   */\n      codesize\n        /* \"--CODEGEN--\":96:102   */\n      dup4\n        /* \"--CODEGEN--\":87:121   */\n      codecopy\n        /* \"--CODEGEN--\":147:151   */\n      dup1\n        /* \"--CODEGEN--\":139:145   */\n      dup3\n        /* \"--CODEGEN--\":135:152   */\n      add\n        /* \"--CODEGEN--\":125:152   */\n      swap2\n      pop\n        /* \"--CODEGEN--\":0:156   */\n      pop\n        /* \"Contracts/StoreMap.sol\":8181:8195  new bytes(dif) */\n      swap1\n      pop\n    tag_290:\n      pop\n        /* \"Contracts/StoreMap.sol\":8156:8195  bytes memory shortGeo1 = new bytes(dif) */\n      swap1\n      pop\n        /* \"Contracts/StoreMap.sol\":8199:8221  bytes memory shortGeo2 */\n      0x60\n        /* \"Contracts/StoreMap.sol\":8234:8237  dif */\n      dup4\n        /* \"Contracts/StoreMap.sol\":8224:8238  new bytes(dif) */\n      mload(0x40)\n      swap1\n      dup1\n      dup3\n      mstore\n      dup1\n      0x1f\n      add\n      not(0x1f)\n      and\n      0x20\n      add\n      dup3\n      add\n      0x40\n      mstore\n      dup1\n      iszero\n      tag_291\n      jumpi\n      dup2\n      0x20\n      add\n        /* \"--CODEGEN--\":29:30   */\n      0x01\n        /* \"--CODEGEN--\":21:27   */\n      dup3\n        /* \"--CODEGEN--\":17:31   */\n      mul\n        /* \"--CODEGEN--\":116:120   */\n      dup1\n        /* \"--CODEGEN--\":104:114   */\n      codesize\n        /* \"--CODEGEN--\":96:102   */\n      dup4\n        /* \"--CODEGEN--\":87:121   */\n      codecopy\n        /* \"--CODEGEN--\":147:151   */\n      dup1\n        /* \"--CODEGEN--\":139:145   */\n      dup3\n        /* \"--CODEGEN--\":135:152   */\n      add\n        /* \"--CODEGEN--\":125:152   */\n      swap2\n      pop\n        /* \"--CODEGEN--\":0:156   */\n      pop\n        /* \"Contracts/StoreMap.sol\":8224:8238  new bytes(dif) */\n      swap1\n      pop\n    tag_291:\n      pop\n        /* \"Contracts/StoreMap.sol\":8199:8238  bytes memory shortGeo2 = new bytes(dif) */\n      swap1\n      pop\n        /* \"Contracts/StoreMap.sol\":8247:8256  uint256 j */\n      0x00\n        /* \"Contracts/StoreMap.sol\":8259:8264  index */\n      dup6\n        /* \"Contracts/StoreMap.sol\":8247:8264  uint256 j = index */\n      swap1\n      pop\n        /* \"Contracts/StoreMap.sol\":8242:8368  for (uint256 j = index; j < PRECISION; j++) {... */\n    tag_292:\n        /* \"Contracts/StoreMap.sol\":8270:8279  PRECISION */\n      sload(0x0a)\n        /* \"Contracts/StoreMap.sol\":8266:8267  j */\n      dup2\n        /* \"Contracts/StoreMap.sol\":8266:8279  j < PRECISION */\n      lt\n        /* \"Contracts/StoreMap.sol\":8242:8368  for (uint256 j = index; j < PRECISION; j++) {... */\n      iszero\n      tag_293\n      jumpi\n        /* \"Contracts/StoreMap.sol\":8311:8315  geo1 */\n      dup9\n        /* \"Contracts/StoreMap.sol\":8316:8317  j */\n      dup2\n        /* \"Contracts/StoreMap.sol\":8311:8318  geo1[j] */\n      0x20\n      dup2\n      lt\n      tag_295\n      jumpi\n      invalid\n    tag_295:\n      byte\n      0xf8\n      shl\n        /* \"Contracts/StoreMap.sol\":8291:8300  shortGeo1 */\n      dup4\n        /* \"Contracts/StoreMap.sol\":8301:8307  index2 */\n      dup6\n        /* \"Contracts/StoreMap.sol\":8291:8308  shortGeo1[index2] */\n      dup2\n      mload\n      dup2\n      lt\n      tag_296\n      jumpi\n      invalid\n    tag_296:\n      0x20\n      add\n      add\n        /* \"Contracts/StoreMap.sol\":8291:8318  shortGeo1[index2] = geo1[j] */\n      swap1\n      not(0xffffffffffffffffffffffffffffffffffffffffffffffffffffffffffffff)\n      and\n      swap1\n      dup2\n      0x00\n      byte\n      swap1\n      mstore8\n      pop\n        /* \"Contracts/StoreMap.sol\":8343:8347  geo2 */\n      dup8\n        /* \"Contracts/StoreMap.sol\":8348:8349  j */\n      dup2\n        /* \"Contracts/StoreMap.sol\":8343:8350  geo2[j] */\n      0x20\n      dup2\n      lt\n      tag_297\n      jumpi\n      invalid\n    tag_297:\n      byte\n      0xf8\n      shl\n        /* \"Contracts/StoreMap.sol\":8323:8332  shortGeo2 */\n      dup3\n        /* \"Contracts/StoreMap.sol\":8333:8339  index2 */\n      dup6\n        /* \"Contracts/StoreMap.sol\":8323:8340  shortGeo2[index2] */\n      dup2\n      mload\n      dup2\n      lt\n      tag_298\n      jumpi\n      invalid\n    tag_298:\n      0x20\n      add\n      add\n        /* \"Contracts/StoreMap.sol\":8323:8350  shortGeo2[index2] = geo2[j] */\n      swap1\n      not(0xffffffffffffffffffffffffffffffffffffffffffffffffffffffffffffff)\n      and\n      swap1\n      dup2\n      0x00\n      byte\n      swap1\n      mstore8\n      pop\n        /* \"Contracts/StoreMap.sol\":8355:8363  index2++ */\n      dup4\n      dup1\n      0x01\n      add\n      swap5\n      pop\n      pop\n        /* \"Contracts/StoreMap.sol\":8281:8284  j++ */\n      dup1\n      dup1\n      0x01\n      add\n      swap2\n      pop\n      pop\n        /* \"Contracts/StoreMap.sol\":8242:8368  for (uint256 j = index; j < PRECISION; j++) {... */\n      jump(tag_292)\n    tag_293:\n      pop\n        /* \"Contracts/StoreMap.sol\":8386:8395  shortGeo1 */\n      dup2\n        /* \"Contracts/StoreMap.sol\":8405:8414  shortGeo2 */\n      dup2\n        /* \"Contracts/StoreMap.sol\":8371:8416  return (string(shortGeo1), string(shortGeo2)) */\n      swap10\n      pop\n      swap10\n      pop\n      pop\n      pop\n      pop\n      pop\n      pop\n      pop\n      pop\n      pop\n        /* \"Contracts/StoreMap.sol\":7714:8420  function sliceGeoHash(bytes32 geohash1, bytes32 geohash2) public view returns (string memory, string memory){... */\n      swap3\n      pop\n      swap3\n      swap1\n      pop\n      jump\t// out\n        /* \"Contracts/StoreMap.sol\":9960:10050  function top() public view notEmpty() returns(bytes32) {... */\n    tag_98:\n        /* \"Contracts/StoreMap.sol\":10006:10013  bytes32 */\n      0x00\n        /* \"Contracts/StoreMap.sol\":9928:9929  1 */\n      0x01\n        /* \"Contracts/StoreMap.sol\":9901:9909  frontier */\n      0x0d\n        /* \"Contracts/StoreMap.sol\":9901:9918  frontier.geohashs */\n      0x00\n      add\n        /* \"Contracts/StoreMap.sol\":9901:9925  frontier.geohashs.length */\n      dup1\n      sload\n      swap1\n      pop\n        /* \"Contracts/StoreMap.sol\":9901:9929  frontier.geohashs.length > 1 */\n      gt\n        /* \"Contracts/StoreMap.sol\":9893:9930  require(frontier.geohashs.length > 1) */\n      tag_300\n      jumpi\n      0x00\n      dup1\n      revert\n    tag_300:\n        /* \"Contracts/StoreMap.sol\":10026:10034  frontier */\n      0x0d\n        /* \"Contracts/StoreMap.sol\":10026:10043  frontier.geohashs */\n      0x00\n      add\n        /* \"Contracts/StoreMap.sol\":10044:10045  1 */\n      0x01\n        /* \"Contracts/StoreMap.sol\":10026:10046  frontier.geohashs[1] */\n      dup2\n      sload\n      dup2\n      lt\n      tag_302\n      jumpi\n      invalid\n    tag_302:\n      swap1\n      0x00\n      mstore\n      keccak256(0x00, 0x20)\n      add\n      sload\n        /* \"Contracts/StoreMap.sol\":10019:10046  return frontier.geohashs[1] */\n      swap1\n      pop\n        /* \"Contracts/StoreMap.sol\":9960:10050  function top() public view notEmpty() returns(bytes32) {... */\n      swap1\n      jump\t// out\n\n    auxdata: 0xa265627a7a72315820212bd588df077e96181e57da836af8261b32fa49eb4e92cdef53377ec7f2e3d464736f6c63430005110032\n}\n",
				"bytecode": {
					"linkReferences": {},
					"object": "608060405260016003556008600a556040518060a00160405280601060ff168152602001600860ff168152602001600460ff168152602001600260ff168152602001600160ff16815250600b9060056200005b929190620000be565b506040518060400160405280602081526020017f30313233343536373839626364656667686a6b6d6e707172737475767778797a815250600c9080519060200190620000a992919062000115565b50348015620000b757600080fd5b50620001c4565b82805482825590600052602060002090810192821562000102579160200282015b8281111562000101578251829060ff16905591602001919060010190620000df565b5b5090506200011191906200019c565b5090565b828054600181600116156101000203166002900490600052602060002090601f016020900481019282601f106200015857805160ff191683800117855562000189565b8280016001018555821562000189579182015b82811115620001885782518255916020019190600101906200016b565b5b5090506200019891906200019c565b5090565b620001c191905b80821115620001bd576000816000905550600101620001a3565b5090565b90565b61229280620001d46000396000f3fe608060405234801561001057600080fd5b50600436106100f55760003560e01c8063bc6331da11610097578063d35a1d0d11610066578063d35a1d0d14610750578063f90e5ca914610792578063fdcd80aa146107ca578063fe6dcdba146108e7576100f5565b8063bc6331da146105f6578063cbf3b01e14610638578063cd3d71961461067a578063d1cf2408146106bc576100f5565b806353f065fd116100d357806353f065fd146103a457806368ba6df9146103f05780637f6d50c9146104bf578063957908d1146105ec576100f5565b806313372041146100fa5780633fb805821461013257806344cf2cd7146102d5575b600080fd5b6101306004803603604081101561011057600080fd5b810190808035906020019092919080359060200190929190505050610905565b005b61015e6004803603602081101561014857600080fd5b8101908080359060200190929190505050610aae565b60405180806020018060200180602001806020018060200186810386528b818151815260200191508051906020019060200280838360005b838110156101b1578082015181840152602081019050610196565b5050505090500186810385528a818151815260200191508051906020019060200280838360005b838110156101f35780820151818401526020810190506101d8565b50505050905001868103845289818151815260200191508051906020019060200280838360005b8381101561023557808201518184015260208101905061021a565b50505050905001868103835288818151815260200191508051906020019060200280838360005b8381101561027757808201518184015260208101905061025c565b50505050905001868103825287818151815260200191508051906020019060200280838360005b838110156102b957808201518184015260208101905061029e565b505050509050019a505050505050505050505060405180910390f35b61038e600480360360208110156102eb57600080fd5b810190808035906020019064010000000081111561030857600080fd5b82018360208201111561031a57600080fd5b8035906020019184600183028401116401000000008311171561033c57600080fd5b91908080601f016020809104026020016040519081016040528093929190818152602001838380828437600081840152601f19601f820116905080830192505050505050509192919290505050610f51565b6040518082815260200191505060405180910390f35b6103da600480360360408110156103ba57600080fd5b8101908080359060200190929190803590602001909291905050506110e6565b6040518082815260200191505060405180910390f35b6104a96004803603602081101561040657600080fd5b810190808035906020019064010000000081111561042357600080fd5b82018360208201111561043557600080fd5b8035906020019184600183028401116401000000008311171561045757600080fd5b91908080601f016020809104026020016040519081016040528093929190818152602001838380828437600081840152601f19601f820116905080830192505050505050509192919290505050611189565b6040518082815260200191505060405180910390f35b6105ea60048036036101608110156104d657600080fd5b8101908080359060200190929190803560030b9060200190929190803560030b9060200190929190803560030b9060200190929190803560030b90602001909291908035151590602001909291908035151590602001909291908035906020019092919080359060200190929190803590602001909291908035906020019064010000000081111561056757600080fd5b82018360208201111561057957600080fd5b8035906020019184602083028401116401000000008311171561059b57600080fd5b919080806020026020016040519081016040528093929190818152602001838360200280828437600081840152601f19601f82011690508083019250505050505050919291929050505061131f565b005b6105f46117f7565b005b6106226004803603602081101561060c57600080fd5b8101908080359060200190929190505050611a4f565b6040518082815260200191505060405180910390f35b6106646004803603602081101561064e57600080fd5b8101908080359060200190929190505050611a6d565b6040518082815260200191505060405180910390f35b6106a66004803603602081101561069057600080fd5b8101908080359060200190929190505050611a8b565b6040518082815260200191505060405180910390f35b6106f2600480360360408110156106d257600080fd5b810190808035906020019092919080359060200190929190505050611a9e565b6040518080602001838152602001828103825284818151815260200191508051906020019060200280838360005b8381101561073b578082015181840152602081019050610720565b50505050905001935050505060405180910390f35b61077c6004803603602081101561076657600080fd5b8101908080359060200190929190505050611fc6565b6040518082815260200191505060405180910390f35b6107c8600480360360408110156107a857600080fd5b810190808035906020019092919080359060200190929190505050611fd9565b005b610800600480360360408110156107e057600080fd5b810190808035906020019092919080359060200190929190505050612033565b604051808060200180602001838103835285818151815260200191508051906020019080838360005b83811015610844578082015181840152602081019050610829565b50505050905090810190601f1680156108715780820380516001836020036101000a031916815260200191505b50838103825284818151815260200191508051906020019080838360005b838110156108aa57808201518184015260208101905061088f565b50505050905090810190601f1680156108d75780820380516001836020036101000a031916815260200191505b5094505050505060405180910390f35b6108ef612225565b6040518082815260200191505060405180910390f35b6000600d60000180549050141561094a57600d60000160009080600181540180825580915050906001820390600052602060002001600090919260001b909190915055505b600d60000182908060018154018082558091505090600182039060005260206000200160009091929091909150555080600d60010160008481526020019081526020016000208190555060006001600d600001805490500390505b600181118015610a1e5750600d6001016000600d60000183815481106109c757fe5b9060005260206000200154815260200190815260200160002054600d6001016000600d600001600285816109f757fe5b0481548110610a0257fe5b9060005260206000200154815260200190815260200160002054115b15610aa95782600d60000160028381610a3357fe5b0481548110610a3e57fe5b9060005260206000200154600d60000160028481610a5857fe5b0481548110610a6357fe5b906000526020600020016000600d6000018581548110610a7f57fe5b90600052602060002001600084919050558391905055505060028181610aa157fe5b0490506109a5565b505050565b60608060608060606000600160008881526020019081526020016000206000015490506000809050600080831115610f455782600702604051908082528060200260200182016040528015610b125781602001602082028038833980820191505090505b50975082604051908082528060200260200182016040528015610b445781602001602082028038833980820191505090505b50965082604051908082528060200260200182016040528015610b765781602001602082028038833980820191505090505b50955082604051908082528060200260200182016040528015610ba85781602001602082028038833980820191505090505b50945060008091505b83821015610e3657600160008b81526020019081526020016000206001016000838152602001908152602001600020549050600080600083815260200190815260200160002090506000600784029050828b8281518110610c0e57fe5b602002602001019060030b908160030b815250508160000160009054906101000a900460030b8b6001830181518110610c4357fe5b602002602001019060030b908160030b815250508160000160049054906101000a900460030b8b6002830181518110610c7857fe5b602002602001019060030b908160030b815250508160030160009054906101000a900460030b8b6003830181518110610cad57fe5b602002602001019060030b908160030b815250508160030160049054906101000a900460030b8b6004830181518110610ce257fe5b602002602001019060030b908160030b815250508160000160089054906101000a900460ff1615610d375760018b6005830181518110610d1e57fe5b602002602001019060030b908160030b81525050610d5d565b60008b6005830181518110610d4857fe5b602002602001019060030b908160030b815250505b8160000160099054906101000a900460ff1615610d9e5760018b6006830181518110610d8557fe5b602002602001019060030b908160030b81525050610dc4565b60008b6006830181518110610daf57fe5b602002602001019060030b908160030b815250505b81600501546001860101945081600201548a8581518110610de157fe5b6020026020010181815250508160010154898581518110610dfe57fe5b6020026020010181815250508160040154888581518110610e1b57fe5b60200260200101818152505050508180600101925050610bb1565b82604051908082528060200260200182016040528015610e655781602001602082028038833980820191505090505b5094506000809050600092505b84831015610f4257600160008c8152602001908152602001600020600101600084815260200190815260200160002054915060008060008481526020019081526020016000209050806005015460001b878380600101945081518110610ed457fe5b60200260200101818152505060008090505b8160050154811015610f335781600601600082815260200190815260200160002054888480600101955081518110610f1a57fe5b6020026020010181815250508080600101915050610ee6565b50508280600101935050610e72565b50505b50505091939590929450565b60008060019050600080905060008090505b84518110156110db576000858281518110610f7a57fe5b602001015160f81c60f81b9050600080600090505b600c80546001816001161561010002031660029004905081101561107057827effffffffffffffffffffffffffffffffffffffffffffffffffffffffffffff1916600c82815460018160011615610100020316600290048110610fee57fe5b81546001161561100d5790600052602060002090602091828204019190065b9054901a7f0100000000000000000000000000000000000000000000000000000000000000027effffffffffffffffffffffffffffffffffffffffffffffffffffffffffffff1916141561106357809150611070565b8080600101915050610f8f565b5060008090505b60058110156110cb576000600b828154811061108f57fe5b90600052602060002001549050866110b9576002860295506000818416146110b8576001860195505b5b86159650508080600101915050611077565b5050508080600101915050610f63565b508092505050919050565b6000818314156110f95760009050611183565b6060806111068585612033565b8092508193505050600061111983611189565b9050600061112683611189565b9050600061113385610f51565b9050600061114085610f51565b90506000808585111561115757858503915061115d565b84860391505b8383111561116f578383039050611175565b82840390505b808201985050505050505050505b92915050565b60008060019050600080905060008090505b84518110156113145760008582815181106111b257fe5b602001015160f81c60f81b9050600080600090505b600c8054600181600116156101000203166002900490508110156112a857827effffffffffffffffffffffffffffffffffffffffffffffffffffffffffffff1916600c8281546001816001161561010002031660029004811061122657fe5b8154600116156112455790600052602060002090602091828204019190065b9054901a7f0100000000000000000000000000000000000000000000000000000000000000027effffffffffffffffffffffffffffffffffffffffffffffffffffffffffffff1916141561129b578091506112a8565b80806001019150506111c7565b5060008090505b6005811015611304576000600b82815481106112c757fe5b9060005260206000200154905086156112f2576002860295506000818416146112f1576001860195505b5b861596505080806001019150506112af565b505050808060010191505061119b565b508092505050919050565b896000808d815260200190815260200160002060000160006101000a81548163ffffffff021916908360030b63ffffffff160217905550886000808d815260200190815260200160002060000160046101000a81548163ffffffff021916908360030b63ffffffff160217905550876000808d815260200190815260200160002060030160006101000a81548163ffffffff021916908360030b63ffffffff160217905550866000808d815260200190815260200160002060030160046101000a81548163ffffffff021916908360030b63ffffffff160217905550856000808d815260200190815260200160002060000160086101000a81548160ff021916908315150217905550846000808d815260200190815260200160002060000160096101000a81548160ff021916908315150217905550836000808d815260200190815260200160002060010181905550826000808d815260200190815260200160002060020181905550816000808d815260200190815260200160002060040181905550806000815181106114b057fe5b602002602001015160026000836000815181106114c957fe5b60200260200101518152602001908152602001600020600101600060026000856000815181106114f557fe5b60200260200101518152602001908152602001600020600001548152602001908152602001600020600001819055508060018251038151811061153457fe5b6020026020010151600260008360008151811061154d57fe5b602002602001015181526020019081526020016000206001016000600260008560008151811061157957fe5b60200260200101518152602001908152602001600020600001548152602001908152602001600020600101819055508660026000836000815181106115ba57fe5b60200260200101518152602001908152602001600020600101600060026000856000815181106115e657fe5b6020026020010151815260200190815260200160002060000154815260200190815260200160002060020160006101000a81548163ffffffff021916908360030b63ffffffff16021790555088600260008360008151811061164457fe5b602002602001015181526020019081526020016000206001016000600260008560008151811061167057fe5b6020026020010151815260200190815260200160002060000154815260200190815260200160002060020160046101000a81548163ffffffff021916908360030b63ffffffff1602179055508a60026000836000815181106116ce57fe5b60200260200101518152602001908152602001600020600101600060026000856000815181106116fa57fe5b60200260200101518152602001908152602001600020600001600081548092919060010191905055815260200190815260200160002060020160086101000a81548163ffffffff021916908360030b63ffffffff16021790555060008060008d815260200190815260200160002060050154905060008090505b82518110156117ce5782818151811061178957fe5b60200260200101516000808f81526020019081526020016000206006016000848060010195508152602001908152602001600020819055508080600101915050611774565b50806000808e815260200190815260200160002060050181905550505050505050505050505050565b6001600d600001805490501161180c57600080fd5b6001600d600001805490501161182157600080fd5b600061182b612225565b9050600d6000016001600d60000180549050038154811061184857fe5b9060005260206000200154600d60000160018154811061186457fe5b9060005260206000200181905550600d60000180548061188057fe5b600190038181906000526020600020016000905590556000600190505b600d60000180549050600282021015611a31576000600282029050600d6000018054905060018201101561194057600d6001016000600d60000160018401815481106118e557fe5b9060005260206000200154815260200190815260200160002054600d6001016000600d600001848154811061191657fe5b9060005260206000200154815260200190815260200160002054111561193f5780806001019150505b5b600d6001016000600d600001838154811061195757fe5b9060005260206000200154815260200190815260200160002054600d6001016000600d600001858154811061198857fe5b906000526020600020015481526020019081526020016000205410156119ae5750611a31565b600d60000181815481106119be57fe5b9060005260206000200154600d60000183815481106119d957fe5b9060005260206000200154600d60000184815481106119f457fe5b906000526020600020016000600d6000018581548110611a1057fe5b9060005260206000200160008491905055839190505550508091505061189d565b600d6001016000838152602001908152602001600020600090555050565b60026020528060005260406000206000915090508060000154905081565b60016020528060005260406000206000915090508060000154905081565b6000816003819055506003549050919050565b60606000611aad846000610905565b6000600760020160008681526020019081526020016000208190555083600760010160006007600001548152602001908152602001600020819055506007600001600081548092919060010191905055506000805b6001600d600001805490501115611fbd57611b1b612225565b9150611b256117f7565b600060026000848152602001908152602001600020905085831415611d1157600760020160008481526020019081526020016000205493506000869050600460000154604051908082528060200260200182016040528015611b965781602001602082028038833980820191505090505b50955060008090505b888214611be55781878281518110611bb357fe5b602002602001018181525050600460020160008381526020019081526020016000205491508080600101915050611b9f565b88878281518110611bf257fe5b60200260200101818152505060008090505b600460000154811015611c685760046002016000600460010160008481526020019081526020016000205481526020019081526020016000206000905560046001016000828152602001908152602001600020600090558080600101915050611c04565b50600060046000018190555060008090505b600760000154811015611cde5760076002016000600760010160008481526020019081526020016000205481526020019081526020016000206000905560076001016000828152602001908152602001600020600090558080600101915050611c7a565b5060006007600001819055505b6001600d600001805490501115611d0957611d046117f7565b611ceb565b505050611fbd565b60008090505b8160000154811015611fb657600060026000868152602001908152602001600020600101600083815260200190815260200160002060020160049054906101000a900460030b60030b6007600201600087815260200190815260200160002054019050600060076002016000856001016000868152602001908152602001600020600101548152602001908152602001600020541480611de45750600760020160008460010160008581526020019081526020016000206001015481526020019081526020016000205481105b15611fa857600060076002016000856001016000868152602001908152602001600020600101548152602001908152602001600020541415611e6e5782600101600083815260200190815260200160002060010154600760010160006007600001548152602001908152602001600020819055506007600001600081548092919060010191905055505b806007600201600085600101600086815260200190815260200160002060010154815260200190815260200160002081905550611ec383600101600084815260200190815260200160002060010154896110e6565b6003548202019350611eed8360010160008481526020019081526020016000206001015485610905565b6000801b60046002016000856001016000868152602001908152602001600020600101548152602001908152602001600020541415611f745782600101600083815260200190815260200160002060010154600460010160006004600001548152602001908152602001600020819055506004600001600081548092919060010191905055505b8460046002016000856001016000868152602001908152602001600020600101548152602001908152602001600020819055505b508080600101915050611d17565b5050611b02565b50509250929050565b600081600a81905550600a549050919050565b60006001600084815260200190815260200160002060000160008154809291906001019190505590508160016000858152602001908152602001600020600101600083815260200190815260200160002081905550505050565b606080600084905060008490506000602060ff16905060008060009050600091505b828210156120d85783826020811061206957fe5b1a60f81b7effffffffffffffffffffffffffffffffffffffffffffffffffffffffffffff191685836020811061209b57fe5b1a60f81b7effffffffffffffffffffffffffffffffffffffffffffffffffffffffffffff1916146120cb576120d8565b8180600101925050612055565b81600a5403905060008090506060826040519080825280601f01601f1916602001820160405280156121195781602001600182028038833980820191505090505b5090506060836040519080825280601f01601f1916602001820160405280156121515781602001600182028038833980820191505090505b50905060008590505b600a5481101561220f5788816020811061217057fe5b1a60f81b83858151811061218057fe5b60200101907effffffffffffffffffffffffffffffffffffffffffffffffffffffffffffff1916908160001a9053508781602081106121bb57fe5b1a60f81b8285815181106121cb57fe5b60200101907effffffffffffffffffffffffffffffffffffffffffffffffffffffffffffff1916908160001a9053508380600101945050808060010191505061215a565b5081819950995050505050505050509250929050565b60006001600d600001805490501161223c57600080fd5b600d60000160018154811061224d57fe5b906000526020600020015490509056fea265627a7a72315820212bd588df077e96181e57da836af8261b32fa49eb4e92cdef53377ec7f2e3d464736f6c63430005110032",
					"opcodes": "PUSH1 0x80 PUSH1 0x40 MSTORE PUSH1 0x1 PUSH1 0x3 SSTORE PUSH1 0x8 PUSH1 0xA SSTORE PUSH1 0x40 MLOAD DUP1 PUSH1 0xA0 ADD PUSH1 0x40 MSTORE DUP1 PUSH1 0x10 PUSH1 0xFF AND DUP2 MSTORE PUSH1 0x20 ADD PUSH1 0x8 PUSH1 0xFF AND DUP2 MSTORE PUSH1 0x20 ADD PUSH1 0x4 PUSH1 0xFF AND DUP2 MSTORE PUSH1 0x20 ADD PUSH1 0x2 PUSH1 0xFF AND DUP2 MSTORE PUSH1 0x20 ADD PUSH1 0x1 PUSH1 0xFF AND DUP2 MSTORE POP PUSH1 0xB SWAP1 PUSH1 0x5 PUSH3 0x5B SWAP3 SWAP2 SWAP1 PUSH3 0xBE JUMP JUMPDEST POP PUSH1 0x40 MLOAD DUP1 PUSH1 0x40 ADD PUSH1 0x40 MSTORE DUP1 PUSH1 0x20 DUP2 MSTORE PUSH1 0x20 ADD PUSH32 0x30313233343536373839626364656667686A6B6D6E707172737475767778797A DUP2 MSTORE POP PUSH1 0xC SWAP1 DUP1 MLOAD SWAP1 PUSH1 0x20 ADD SWAP1 PUSH3 0xA9 SWAP3 SWAP2 SWAP1 PUSH3 0x115 JUMP JUMPDEST POP CALLVALUE DUP1 ISZERO PUSH3 0xB7 JUMPI PUSH1 0x0 DUP1 REVERT JUMPDEST POP PUSH3 0x1C4 JUMP JUMPDEST DUP3 DUP1 SLOAD DUP3 DUP3 SSTORE SWAP1 PUSH1 0x0 MSTORE PUSH1 0x20 PUSH1 0x0 KECCAK256 SWAP1 DUP2 ADD SWAP3 DUP3 ISZERO PUSH3 0x102 JUMPI SWAP2 PUSH1 0x20 MUL DUP3 ADD JUMPDEST DUP3 DUP2 GT ISZERO PUSH3 0x101 JUMPI DUP3 MLOAD DUP3 SWAP1 PUSH1 0xFF AND SWAP1 SSTORE SWAP2 PUSH1 0x20 ADD SWAP2 SWAP1 PUSH1 0x1 ADD SWAP1 PUSH3 0xDF JUMP JUMPDEST JUMPDEST POP SWAP1 POP PUSH3 0x111 SWAP2 SWAP1 PUSH3 0x19C JUMP JUMPDEST POP SWAP1 JUMP JUMPDEST DUP3 DUP1 SLOAD PUSH1 0x1 DUP2 PUSH1 0x1 AND ISZERO PUSH2 0x100 MUL SUB AND PUSH1 0x2 SWAP1 DIV SWAP1 PUSH1 0x0 MSTORE PUSH1 0x20 PUSH1 0x0 KECCAK256 SWAP1 PUSH1 0x1F ADD PUSH1 0x20 SWAP1 DIV DUP2 ADD SWAP3 DUP3 PUSH1 0x1F LT PUSH3 0x158 JUMPI DUP1 MLOAD PUSH1 0xFF NOT AND DUP4 DUP1 ADD OR DUP6 SSTORE PUSH3 0x189 JUMP JUMPDEST DUP3 DUP1 ADD PUSH1 0x1 ADD DUP6 SSTORE DUP3 ISZERO PUSH3 0x189 JUMPI SWAP2 DUP3 ADD JUMPDEST DUP3 DUP2 GT ISZERO PUSH3 0x188 JUMPI DUP3 MLOAD DUP3 SSTORE SWAP2 PUSH1 0x20 ADD SWAP2 SWAP1 PUSH1 0x1 ADD SWAP1 PUSH3 0x16B JUMP JUMPDEST JUMPDEST POP SWAP1 POP PUSH3 0x198 SWAP2 SWAP1 PUSH3 0x19C JUMP JUMPDEST POP SWAP1 JUMP JUMPDEST PUSH3 0x1C1 SWAP2 SWAP1 JUMPDEST DUP1 DUP3 GT ISZERO PUSH3 0x1BD JUMPI PUSH1 0x0 DUP2 PUSH1 0x0 SWAP1 SSTORE POP PUSH1 0x1 ADD PUSH3 0x1A3 JUMP JUMPDEST POP SWAP1 JUMP JUMPDEST SWAP1 JUMP JUMPDEST PUSH2 0x2292 DUP1 PUSH3 0x1D4 PUSH1 0x0 CODECOPY PUSH1 0x0 RETURN INVALID PUSH1 0x80 PUSH1 0x40 MSTORE CALLVALUE DUP1 ISZERO PUSH2 0x10 JUMPI PUSH1 0x0 DUP1 REVERT JUMPDEST POP PUSH1 0x4 CALLDATASIZE LT PUSH2 0xF5 JUMPI PUSH1 0x0 CALLDATALOAD PUSH1 0xE0 SHR DUP1 PUSH4 0xBC6331DA GT PUSH2 0x97 JUMPI DUP1 PUSH4 0xD35A1D0D GT PUSH2 0x66 JUMPI DUP1 PUSH4 0xD35A1D0D EQ PUSH2 0x750 JUMPI DUP1 PUSH4 0xF90E5CA9 EQ PUSH2 0x792 JUMPI DUP1 PUSH4 0xFDCD80AA EQ PUSH2 0x7CA JUMPI DUP1 PUSH4 0xFE6DCDBA EQ PUSH2 0x8E7 JUMPI PUSH2 0xF5 JUMP JUMPDEST DUP1 PUSH4 0xBC6331DA EQ PUSH2 0x5F6 JUMPI DUP1 PUSH4 0xCBF3B01E EQ PUSH2 0x638 JUMPI DUP1 PUSH4 0xCD3D7196 EQ PUSH2 0x67A JUMPI DUP1 PUSH4 0xD1CF2408 EQ PUSH2 0x6BC JUMPI PUSH2 0xF5 JUMP JUMPDEST DUP1 PUSH4 0x53F065FD GT PUSH2 0xD3 JUMPI DUP1 PUSH4 0x53F065FD EQ PUSH2 0x3A4 JUMPI DUP1 PUSH4 0x68BA6DF9 EQ PUSH2 0x3F0 JUMPI DUP1 PUSH4 0x7F6D50C9 EQ PUSH2 0x4BF JUMPI DUP1 PUSH4 0x957908D1 EQ PUSH2 0x5EC JUMPI PUSH2 0xF5 JUMP JUMPDEST DUP1 PUSH4 0x13372041 EQ PUSH2 0xFA JUMPI DUP1 PUSH4 0x3FB80582 EQ PUSH2 0x132 JUMPI DUP1 PUSH4 0x44CF2CD7 EQ PUSH2 0x2D5 JUMPI JUMPDEST PUSH1 0x0 DUP1 REVERT JUMPDEST PUSH2 0x130 PUSH1 0x4 DUP1 CALLDATASIZE SUB PUSH1 0x40 DUP2 LT ISZERO PUSH2 0x110 JUMPI PUSH1 0x0 DUP1 REVERT JUMPDEST DUP2 ADD SWAP1 DUP1 DUP1 CALLDATALOAD SWAP1 PUSH1 0x20 ADD SWAP1 SWAP3 SWAP2 SWAP1 DUP1 CALLDATALOAD SWAP1 PUSH1 0x20 ADD SWAP1 SWAP3 SWAP2 SWAP1 POP POP POP PUSH2 0x905 JUMP JUMPDEST STOP JUMPDEST PUSH2 0x15E PUSH1 0x4 DUP1 CALLDATASIZE SUB PUSH1 0x20 DUP2 LT ISZERO PUSH2 0x148 JUMPI PUSH1 0x0 DUP1 REVERT JUMPDEST DUP2 ADD SWAP1 DUP1 DUP1 CALLDATALOAD SWAP1 PUSH1 0x20 ADD SWAP1 SWAP3 SWAP2 SWAP1 POP POP POP PUSH2 0xAAE JUMP JUMPDEST PUSH1 0x40 MLOAD DUP1 DUP1 PUSH1 0x20 ADD DUP1 PUSH1 0x20 ADD DUP1 PUSH1 0x20 ADD DUP1 PUSH1 0x20 ADD DUP1 PUSH1 0x20 ADD DUP7 DUP2 SUB DUP7 MSTORE DUP12 DUP2 DUP2 MLOAD DUP2 MSTORE PUSH1 0x20 ADD SWAP2 POP DUP1 MLOAD SWAP1 PUSH1 0x20 ADD SWAP1 PUSH1 0x20 MUL DUP1 DUP4 DUP4 PUSH1 0x0 JUMPDEST DUP4 DUP2 LT ISZERO PUSH2 0x1B1 JUMPI DUP1 DUP3 ADD MLOAD DUP2 DUP5 ADD MSTORE PUSH1 0x20 DUP2 ADD SWAP1 POP PUSH2 0x196 JUMP JUMPDEST POP POP POP POP SWAP1 POP ADD DUP7 DUP2 SUB DUP6 MSTORE DUP11 DUP2 DUP2 MLOAD DUP2 MSTORE PUSH1 0x20 ADD SWAP2 POP DUP1 MLOAD SWAP1 PUSH1 0x20 ADD SWAP1 PUSH1 0x20 MUL DUP1 DUP4 DUP4 PUSH1 0x0 JUMPDEST DUP4 DUP2 LT ISZERO PUSH2 0x1F3 JUMPI DUP1 DUP3 ADD MLOAD DUP2 DUP5 ADD MSTORE PUSH1 0x20 DUP2 ADD SWAP1 POP PUSH2 0x1D8 JUMP JUMPDEST POP POP POP POP SWAP1 POP ADD DUP7 DUP2 SUB DUP5 MSTORE DUP10 DUP2 DUP2 MLOAD DUP2 MSTORE PUSH1 0x20 ADD SWAP2 POP DUP1 MLOAD SWAP1 PUSH1 0x20 ADD SWAP1 PUSH1 0x20 MUL DUP1 DUP4 DUP4 PUSH1 0x0 JUMPDEST DUP4 DUP2 LT ISZERO PUSH2 0x235 JUMPI DUP1 DUP3 ADD MLOAD DUP2 DUP5 ADD MSTORE PUSH1 0x20 DUP2 ADD SWAP1 POP PUSH2 0x21A JUMP JUMPDEST POP POP POP POP SWAP1 POP ADD DUP7 DUP2 SUB DUP4 MSTORE DUP9 DUP2 DUP2 MLOAD DUP2 MSTORE PUSH1 0x20 ADD SWAP2 POP DUP1 MLOAD SWAP1 PUSH1 0x20 ADD SWAP1 PUSH1 0x20 MUL DUP1 DUP4 DUP4 PUSH1 0x0 JUMPDEST DUP4 DUP2 LT ISZERO PUSH2 0x277 JUMPI DUP1 DUP3 ADD MLOAD DUP2 DUP5 ADD MSTORE PUSH1 0x20 DUP2 ADD SWAP1 POP PUSH2 0x25C JUMP JUMPDEST POP POP POP POP SWAP1 POP ADD DUP7 DUP2 SUB DUP3 MSTORE DUP8 DUP2 DUP2 MLOAD DUP2 MSTORE PUSH1 0x20 ADD SWAP2 POP DUP1 MLOAD SWAP1 PUSH1 0x20 ADD SWAP1 PUSH1 0x20 MUL DUP1 DUP4 DUP4 PUSH1 0x0 JUMPDEST DUP4 DUP2 LT ISZERO PUSH2 0x2B9 JUMPI DUP1 DUP3 ADD MLOAD DUP2 DUP5 ADD MSTORE PUSH1 0x20 DUP2 ADD SWAP1 POP PUSH2 0x29E JUMP JUMPDEST POP POP POP POP SWAP1 POP ADD SWAP11 POP POP POP POP POP POP POP POP POP POP POP PUSH1 0x40 MLOAD DUP1 SWAP2 SUB SWAP1 RETURN JUMPDEST PUSH2 0x38E PUSH1 0x4 DUP1 CALLDATASIZE SUB PUSH1 0x20 DUP2 LT ISZERO PUSH2 0x2EB JUMPI PUSH1 0x0 DUP1 REVERT JUMPDEST DUP2 ADD SWAP1 DUP1 DUP1 CALLDATALOAD SWAP1 PUSH1 0x20 ADD SWAP1 PUSH5 0x100000000 DUP2 GT ISZERO PUSH2 0x308 JUMPI PUSH1 0x0 DUP1 REVERT JUMPDEST DUP3 ADD DUP4 PUSH1 0x20 DUP3 ADD GT ISZERO PUSH2 0x31A JUMPI PUSH1 0x0 DUP1 REVERT JUMPDEST DUP1 CALLDATALOAD SWAP1 PUSH1 0x20 ADD SWAP2 DUP5 PUSH1 0x1 DUP4 MUL DUP5 ADD GT PUSH5 0x100000000 DUP4 GT OR ISZERO PUSH2 0x33C JUMPI PUSH1 0x0 DUP1 REVERT JUMPDEST SWAP2 SWAP1 DUP1 DUP1 PUSH1 0x1F ADD PUSH1 0x20 DUP1 SWAP2 DIV MUL PUSH1 0x20 ADD PUSH1 0x40 MLOAD SWAP1 DUP2 ADD PUSH1 0x40 MSTORE DUP1 SWAP4 SWAP3 SWAP2 SWAP1 DUP2 DUP2 MSTORE PUSH1 0x20 ADD DUP4 DUP4 DUP1 DUP3 DUP5 CALLDATACOPY PUSH1 0x0 DUP2 DUP5 ADD MSTORE PUSH1 0x1F NOT PUSH1 0x1F DUP3 ADD AND SWAP1 POP DUP1 DUP4 ADD SWAP3 POP POP POP POP POP POP POP SWAP2 SWAP3 SWAP2 SWAP3 SWAP1 POP POP POP PUSH2 0xF51 JUMP JUMPDEST PUSH1 0x40 MLOAD DUP1 DUP3 DUP2 MSTORE PUSH1 0x20 ADD SWAP2 POP POP PUSH1 0x40 MLOAD DUP1 SWAP2 SUB SWAP1 RETURN JUMPDEST PUSH2 0x3DA PUSH1 0x4 DUP1 CALLDATASIZE SUB PUSH1 0x40 DUP2 LT ISZERO PUSH2 0x3BA JUMPI PUSH1 0x0 DUP1 REVERT JUMPDEST DUP2 ADD SWAP1 DUP1 DUP1 CALLDATALOAD SWAP1 PUSH1 0x20 ADD SWAP1 SWAP3 SWAP2 SWAP1 DUP1 CALLDATALOAD SWAP1 PUSH1 0x20 ADD SWAP1 SWAP3 SWAP2 SWAP1 POP POP POP PUSH2 0x10E6 JUMP JUMPDEST PUSH1 0x40 MLOAD DUP1 DUP3 DUP2 MSTORE PUSH1 0x20 ADD SWAP2 POP POP PUSH1 0x40 MLOAD DUP1 SWAP2 SUB SWAP1 RETURN JUMPDEST PUSH2 0x4A9 PUSH1 0x4 DUP1 CALLDATASIZE SUB PUSH1 0x20 DUP2 LT ISZERO PUSH2 0x406 JUMPI PUSH1 0x0 DUP1 REVERT JUMPDEST DUP2 ADD SWAP1 DUP1 DUP1 CALLDATALOAD SWAP1 PUSH1 0x20 ADD SWAP1 PUSH5 0x100000000 DUP2 GT ISZERO PUSH2 0x423 JUMPI PUSH1 0x0 DUP1 REVERT JUMPDEST DUP3 ADD DUP4 PUSH1 0x20 DUP3 ADD GT ISZERO PUSH2 0x435 JUMPI PUSH1 0x0 DUP1 REVERT JUMPDEST DUP1 CALLDATALOAD SWAP1 PUSH1 0x20 ADD SWAP2 DUP5 PUSH1 0x1 DUP4 MUL DUP5 ADD GT PUSH5 0x100000000 DUP4 GT OR ISZERO PUSH2 0x457 JUMPI PUSH1 0x0 DUP1 REVERT JUMPDEST SWAP2 SWAP1 DUP1 DUP1 PUSH1 0x1F ADD PUSH1 0x20 DUP1 SWAP2 DIV MUL PUSH1 0x20 ADD PUSH1 0x40 MLOAD SWAP1 DUP2 ADD PUSH1 0x40 MSTORE DUP1 SWAP4 SWAP3 SWAP2 SWAP1 DUP2 DUP2 MSTORE PUSH1 0x20 ADD DUP4 DUP4 DUP1 DUP3 DUP5 CALLDATACOPY PUSH1 0x0 DUP2 DUP5 ADD MSTORE PUSH1 0x1F NOT PUSH1 0x1F DUP3 ADD AND SWAP1 POP DUP1 DUP4 ADD SWAP3 POP POP POP POP POP POP POP SWAP2 SWAP3 SWAP2 SWAP3 SWAP1 POP POP POP PUSH2 0x1189 JUMP JUMPDEST PUSH1 0x40 MLOAD DUP1 DUP3 DUP2 MSTORE PUSH1 0x20 ADD SWAP2 POP POP PUSH1 0x40 MLOAD DUP1 SWAP2 SUB SWAP1 RETURN JUMPDEST PUSH2 0x5EA PUSH1 0x4 DUP1 CALLDATASIZE SUB PUSH2 0x160 DUP2 LT ISZERO PUSH2 0x4D6 JUMPI PUSH1 0x0 DUP1 REVERT JUMPDEST DUP2 ADD SWAP1 DUP1 DUP1 CALLDATALOAD SWAP1 PUSH1 0x20 ADD SWAP1 SWAP3 SWAP2 SWAP1 DUP1 CALLDATALOAD PUSH1 0x3 SIGNEXTEND SWAP1 PUSH1 0x20 ADD SWAP1 SWAP3 SWAP2 SWAP1 DUP1 CALLDATALOAD PUSH1 0x3 SIGNEXTEND SWAP1 PUSH1 0x20 ADD SWAP1 SWAP3 SWAP2 SWAP1 DUP1 CALLDATALOAD PUSH1 0x3 SIGNEXTEND SWAP1 PUSH1 0x20 ADD SWAP1 SWAP3 SWAP2 SWAP1 DUP1 CALLDATALOAD PUSH1 0x3 SIGNEXTEND SWAP1 PUSH1 0x20 ADD SWAP1 SWAP3 SWAP2 SWAP1 DUP1 CALLDATALOAD ISZERO ISZERO SWAP1 PUSH1 0x20 ADD SWAP1 SWAP3 SWAP2 SWAP1 DUP1 CALLDATALOAD ISZERO ISZERO SWAP1 PUSH1 0x20 ADD SWAP1 SWAP3 SWAP2 SWAP1 DUP1 CALLDATALOAD SWAP1 PUSH1 0x20 ADD SWAP1 SWAP3 SWAP2 SWAP1 DUP1 CALLDATALOAD SWAP1 PUSH1 0x20 ADD SWAP1 SWAP3 SWAP2 SWAP1 DUP1 CALLDATALOAD SWAP1 PUSH1 0x20 ADD SWAP1 SWAP3 SWAP2 SWAP1 DUP1 CALLDATALOAD SWAP1 PUSH1 0x20 ADD SWAP1 PUSH5 0x100000000 DUP2 GT ISZERO PUSH2 0x567 JUMPI PUSH1 0x0 DUP1 REVERT JUMPDEST DUP3 ADD DUP4 PUSH1 0x20 DUP3 ADD GT ISZERO PUSH2 0x579 JUMPI PUSH1 0x0 DUP1 REVERT JUMPDEST DUP1 CALLDATALOAD SWAP1 PUSH1 0x20 ADD SWAP2 DUP5 PUSH1 0x20 DUP4 MUL DUP5 ADD GT PUSH5 0x100000000 DUP4 GT OR ISZERO PUSH2 0x59B JUMPI PUSH1 0x0 DUP1 REVERT JUMPDEST SWAP2 SWAP1 DUP1 DUP1 PUSH1 0x20 MUL PUSH1 0x20 ADD PUSH1 0x40 MLOAD SWAP1 DUP2 ADD PUSH1 0x40 MSTORE DUP1 SWAP4 SWAP3 SWAP2 SWAP1 DUP2 DUP2 MSTORE PUSH1 0x20 ADD DUP4 DUP4 PUSH1 0x20 MUL DUP1 DUP3 DUP5 CALLDATACOPY PUSH1 0x0 DUP2 DUP5 ADD MSTORE PUSH1 0x1F NOT PUSH1 0x1F DUP3 ADD AND SWAP1 POP DUP1 DUP4 ADD SWAP3 POP POP POP POP POP POP POP SWAP2 SWAP3 SWAP2 SWAP3 SWAP1 POP POP POP PUSH2 0x131F JUMP JUMPDEST STOP JUMPDEST PUSH2 0x5F4 PUSH2 0x17F7 JUMP JUMPDEST STOP JUMPDEST PUSH2 0x622 PUSH1 0x4 DUP1 CALLDATASIZE SUB PUSH1 0x20 DUP2 LT ISZERO PUSH2 0x60C JUMPI PUSH1 0x0 DUP1 REVERT JUMPDEST DUP2 ADD SWAP1 DUP1 DUP1 CALLDATALOAD SWAP1 PUSH1 0x20 ADD SWAP1 SWAP3 SWAP2 SWAP1 POP POP POP PUSH2 0x1A4F JUMP JUMPDEST PUSH1 0x40 MLOAD DUP1 DUP3 DUP2 MSTORE PUSH1 0x20 ADD SWAP2 POP POP PUSH1 0x40 MLOAD DUP1 SWAP2 SUB SWAP1 RETURN JUMPDEST PUSH2 0x664 PUSH1 0x4 DUP1 CALLDATASIZE SUB PUSH1 0x20 DUP2 LT ISZERO PUSH2 0x64E JUMPI PUSH1 0x0 DUP1 REVERT JUMPDEST DUP2 ADD SWAP1 DUP1 DUP1 CALLDATALOAD SWAP1 PUSH1 0x20 ADD SWAP1 SWAP3 SWAP2 SWAP1 POP POP POP PUSH2 0x1A6D JUMP JUMPDEST PUSH1 0x40 MLOAD DUP1 DUP3 DUP2 MSTORE PUSH1 0x20 ADD SWAP2 POP POP PUSH1 0x40 MLOAD DUP1 SWAP2 SUB SWAP1 RETURN JUMPDEST PUSH2 0x6A6 PUSH1 0x4 DUP1 CALLDATASIZE SUB PUSH1 0x20 DUP2 LT ISZERO PUSH2 0x690 JUMPI PUSH1 0x0 DUP1 REVERT JUMPDEST DUP2 ADD SWAP1 DUP1 DUP1 CALLDATALOAD SWAP1 PUSH1 0x20 ADD SWAP1 SWAP3 SWAP2 SWAP1 POP POP POP PUSH2 0x1A8B JUMP JUMPDEST PUSH1 0x40 MLOAD DUP1 DUP3 DUP2 MSTORE PUSH1 0x20 ADD SWAP2 POP POP PUSH1 0x40 MLOAD DUP1 SWAP2 SUB SWAP1 RETURN JUMPDEST PUSH2 0x6F2 PUSH1 0x4 DUP1 CALLDATASIZE SUB PUSH1 0x40 DUP2 LT ISZERO PUSH2 0x6D2 JUMPI PUSH1 0x0 DUP1 REVERT JUMPDEST DUP2 ADD SWAP1 DUP1 DUP1 CALLDATALOAD SWAP1 PUSH1 0x20 ADD SWAP1 SWAP3 SWAP2 SWAP1 DUP1 CALLDATALOAD SWAP1 PUSH1 0x20 ADD SWAP1 SWAP3 SWAP2 SWAP1 POP POP POP PUSH2 0x1A9E JUMP JUMPDEST PUSH1 0x40 MLOAD DUP1 DUP1 PUSH1 0x20 ADD DUP4 DUP2 MSTORE PUSH1 0x20 ADD DUP3 DUP2 SUB DUP3 MSTORE DUP5 DUP2 DUP2 MLOAD DUP2 MSTORE PUSH1 0x20 ADD SWAP2 POP DUP1 MLOAD SWAP1 PUSH1 0x20 ADD SWAP1 PUSH1 0x20 MUL DUP1 DUP4 DUP4 PUSH1 0x0 JUMPDEST DUP4 DUP2 LT ISZERO PUSH2 0x73B JUMPI DUP1 DUP3 ADD MLOAD DUP2 DUP5 ADD MSTORE PUSH1 0x20 DUP2 ADD SWAP1 POP PUSH2 0x720 JUMP JUMPDEST POP POP POP POP SWAP1 POP ADD SWAP4 POP POP POP POP PUSH1 0x40 MLOAD DUP1 SWAP2 SUB SWAP1 RETURN JUMPDEST PUSH2 0x77C PUSH1 0x4 DUP1 CALLDATASIZE SUB PUSH1 0x20 DUP2 LT ISZERO PUSH2 0x766 JUMPI PUSH1 0x0 DUP1 REVERT JUMPDEST DUP2 ADD SWAP1 DUP1 DUP1 CALLDATALOAD SWAP1 PUSH1 0x20 ADD SWAP1 SWAP3 SWAP2 SWAP1 POP POP POP PUSH2 0x1FC6 JUMP JUMPDEST PUSH1 0x40 MLOAD DUP1 DUP3 DUP2 MSTORE PUSH1 0x20 ADD SWAP2 POP POP PUSH1 0x40 MLOAD DUP1 SWAP2 SUB SWAP1 RETURN JUMPDEST PUSH2 0x7C8 PUSH1 0x4 DUP1 CALLDATASIZE SUB PUSH1 0x40 DUP2 LT ISZERO PUSH2 0x7A8 JUMPI PUSH1 0x0 DUP1 REVERT JUMPDEST DUP2 ADD SWAP1 DUP1 DUP1 CALLDATALOAD SWAP1 PUSH1 0x20 ADD SWAP1 SWAP3 SWAP2 SWAP1 DUP1 CALLDATALOAD SWAP1 PUSH1 0x20 ADD SWAP1 SWAP3 SWAP2 SWAP1 POP POP POP PUSH2 0x1FD9 JUMP JUMPDEST STOP JUMPDEST PUSH2 0x800 PUSH1 0x4 DUP1 CALLDATASIZE SUB PUSH1 0x40 DUP2 LT ISZERO PUSH2 0x7E0 JUMPI PUSH1 0x0 DUP1 REVERT JUMPDEST DUP2 ADD SWAP1 DUP1 DUP1 CALLDATALOAD SWAP1 PUSH1 0x20 ADD SWAP1 SWAP3 SWAP2 SWAP1 DUP1 CALLDATALOAD SWAP1 PUSH1 0x20 ADD SWAP1 SWAP3 SWAP2 SWAP1 POP POP POP PUSH2 0x2033 JUMP JUMPDEST PUSH1 0x40 MLOAD DUP1 DUP1 PUSH1 0x20 ADD DUP1 PUSH1 0x20 ADD DUP4 DUP2 SUB DUP4 MSTORE DUP6 DUP2 DUP2 MLOAD DUP2 MSTORE PUSH1 0x20 ADD SWAP2 POP DUP1 MLOAD SWAP1 PUSH1 0x20 ADD SWAP1 DUP1 DUP4 DUP4 PUSH1 0x0 JUMPDEST DUP4 DUP2 LT ISZERO PUSH2 0x844 JUMPI DUP1 DUP3 ADD MLOAD DUP2 DUP5 ADD MSTORE PUSH1 0x20 DUP2 ADD SWAP1 POP PUSH2 0x829 JUMP JUMPDEST POP POP POP POP SWAP1 POP SWAP1 DUP2 ADD SWAP1 PUSH1 0x1F AND DUP1 ISZERO PUSH2 0x871 JUMPI DUP1 DUP3 SUB DUP1 MLOAD PUSH1 0x1 DUP4 PUSH1 0x20 SUB PUSH2 0x100 EXP SUB NOT AND DUP2 MSTORE PUSH1 0x20 ADD SWAP2 POP JUMPDEST POP DUP4 DUP2 SUB DUP3 MSTORE DUP5 DUP2 DUP2 MLOAD DUP2 MSTORE PUSH1 0x20 ADD SWAP2 POP DUP1 MLOAD SWAP1 PUSH1 0x20 ADD SWAP1 DUP1 DUP4 DUP4 PUSH1 0x0 JUMPDEST DUP4 DUP2 LT ISZERO PUSH2 0x8AA JUMPI DUP1 DUP3 ADD MLOAD DUP2 DUP5 ADD MSTORE PUSH1 0x20 DUP2 ADD SWAP1 POP PUSH2 0x88F JUMP JUMPDEST POP POP POP POP SWAP1 POP SWAP1 DUP2 ADD SWAP1 PUSH1 0x1F AND DUP1 ISZERO PUSH2 0x8D7 JUMPI DUP1 DUP3 SUB DUP1 MLOAD PUSH1 0x1 DUP4 PUSH1 0x20 SUB PUSH2 0x100 EXP SUB NOT AND DUP2 MSTORE PUSH1 0x20 ADD SWAP2 POP JUMPDEST POP SWAP5 POP POP POP POP POP PUSH1 0x40 MLOAD DUP1 SWAP2 SUB SWAP1 RETURN JUMPDEST PUSH2 0x8EF PUSH2 0x2225 JUMP JUMPDEST PUSH1 0x40 MLOAD DUP1 DUP3 DUP2 MSTORE PUSH1 0x20 ADD SWAP2 POP POP PUSH1 0x40 MLOAD DUP1 SWAP2 SUB SWAP1 RETURN JUMPDEST PUSH1 0x0 PUSH1 0xD PUSH1 0x0 ADD DUP1 SLOAD SWAP1 POP EQ ISZERO PUSH2 0x94A JUMPI PUSH1 0xD PUSH1 0x0 ADD PUSH1 0x0 SWAP1 DUP1 PUSH1 0x1 DUP2 SLOAD ADD DUP1 DUP3 SSTORE DUP1 SWAP2 POP POP SWAP1 PUSH1 0x1 DUP3 SUB SWAP1 PUSH1 0x0 MSTORE PUSH1 0x20 PUSH1 0x0 KECCAK256 ADD PUSH1 0x0 SWAP1 SWAP2 SWAP3 PUSH1 0x0 SHL SWAP1 SWAP2 SWAP1 SWAP2 POP SSTORE POP JUMPDEST PUSH1 0xD PUSH1 0x0 ADD DUP3 SWAP1 DUP1 PUSH1 0x1 DUP2 SLOAD ADD DUP1 DUP3 SSTORE DUP1 SWAP2 POP POP SWAP1 PUSH1 0x1 DUP3 SUB SWAP1 PUSH1 0x0 MSTORE PUSH1 0x20 PUSH1 0x0 KECCAK256 ADD PUSH1 0x0 SWAP1 SWAP2 SWAP3 SWAP1 SWAP2 SWAP1 SWAP2 POP SSTORE POP DUP1 PUSH1 0xD PUSH1 0x1 ADD PUSH1 0x0 DUP5 DUP2 MSTORE PUSH1 0x20 ADD SWAP1 DUP2 MSTORE PUSH1 0x20 ADD PUSH1 0x0 KECCAK256 DUP2 SWAP1 SSTORE POP PUSH1 0x0 PUSH1 0x1 PUSH1 0xD PUSH1 0x0 ADD DUP1 SLOAD SWAP1 POP SUB SWAP1 POP JUMPDEST PUSH1 0x1 DUP2 GT DUP1 ISZERO PUSH2 0xA1E JUMPI POP PUSH1 0xD PUSH1 0x1 ADD PUSH1 0x0 PUSH1 0xD PUSH1 0x0 ADD DUP4 DUP2 SLOAD DUP2 LT PUSH2 0x9C7 JUMPI INVALID JUMPDEST SWAP1 PUSH1 0x0 MSTORE PUSH1 0x20 PUSH1 0x0 KECCAK256 ADD SLOAD DUP2 MSTORE PUSH1 0x20 ADD SWAP1 DUP2 MSTORE PUSH1 0x20 ADD PUSH1 0x0 KECCAK256 SLOAD PUSH1 0xD PUSH1 0x1 ADD PUSH1 0x0 PUSH1 0xD PUSH1 0x0 ADD PUSH1 0x2 DUP6 DUP2 PUSH2 0x9F7 JUMPI INVALID JUMPDEST DIV DUP2 SLOAD DUP2 LT PUSH2 0xA02 JUMPI INVALID JUMPDEST SWAP1 PUSH1 0x0 MSTORE PUSH1 0x20 PUSH1 0x0 KECCAK256 ADD SLOAD DUP2 MSTORE PUSH1 0x20 ADD SWAP1 DUP2 MSTORE PUSH1 0x20 ADD PUSH1 0x0 KECCAK256 SLOAD GT JUMPDEST ISZERO PUSH2 0xAA9 JUMPI DUP3 PUSH1 0xD PUSH1 0x0 ADD PUSH1 0x2 DUP4 DUP2 PUSH2 0xA33 JUMPI INVALID JUMPDEST DIV DUP2 SLOAD DUP2 LT PUSH2 0xA3E JUMPI INVALID JUMPDEST SWAP1 PUSH1 0x0 MSTORE PUSH1 0x20 PUSH1 0x0 KECCAK256 ADD SLOAD PUSH1 0xD PUSH1 0x0 ADD PUSH1 0x2 DUP5 DUP2 PUSH2 0xA58 JUMPI INVALID JUMPDEST DIV DUP2 SLOAD DUP2 LT PUSH2 0xA63 JUMPI INVALID JUMPDEST SWAP1 PUSH1 0x0 MSTORE PUSH1 0x20 PUSH1 0x0 KECCAK256 ADD PUSH1 0x0 PUSH1 0xD PUSH1 0x0 ADD DUP6 DUP2 SLOAD DUP2 LT PUSH2 0xA7F JUMPI INVALID JUMPDEST SWAP1 PUSH1 0x0 MSTORE PUSH1 0x20 PUSH1 0x0 KECCAK256 ADD PUSH1 0x0 DUP5 SWAP2 SWAP1 POP SSTORE DUP4 SWAP2 SWAP1 POP SSTORE POP POP PUSH1 0x2 DUP2 DUP2 PUSH2 0xAA1 JUMPI INVALID JUMPDEST DIV SWAP1 POP PUSH2 0x9A5 JUMP JUMPDEST POP POP POP JUMP JUMPDEST PUSH1 0x60 DUP1 PUSH1 0x60 DUP1 PUSH1 0x60 PUSH1 0x0 PUSH1 0x1 PUSH1 0x0 DUP9 DUP2 MSTORE PUSH1 0x20 ADD SWAP1 DUP2 MSTORE PUSH1 0x20 ADD PUSH1 0x0 KECCAK256 PUSH1 0x0 ADD SLOAD SWAP1 POP PUSH1 0x0 DUP1 SWAP1 POP PUSH1 0x0 DUP1 DUP4 GT ISZERO PUSH2 0xF45 JUMPI DUP3 PUSH1 0x7 MUL PUSH1 0x40 MLOAD SWAP1 DUP1 DUP3 MSTORE DUP1 PUSH1 0x20 MUL PUSH1 0x20 ADD DUP3 ADD PUSH1 0x40 MSTORE DUP1 ISZERO PUSH2 0xB12 JUMPI DUP2 PUSH1 0x20 ADD PUSH1 0x20 DUP3 MUL DUP1 CODESIZE DUP4 CODECOPY DUP1 DUP3 ADD SWAP2 POP POP SWAP1 POP JUMPDEST POP SWAP8 POP DUP3 PUSH1 0x40 MLOAD SWAP1 DUP1 DUP3 MSTORE DUP1 PUSH1 0x20 MUL PUSH1 0x20 ADD DUP3 ADD PUSH1 0x40 MSTORE DUP1 ISZERO PUSH2 0xB44 JUMPI DUP2 PUSH1 0x20 ADD PUSH1 0x20 DUP3 MUL DUP1 CODESIZE DUP4 CODECOPY DUP1 DUP3 ADD SWAP2 POP POP SWAP1 POP JUMPDEST POP SWAP7 POP DUP3 PUSH1 0x40 MLOAD SWAP1 DUP1 DUP3 MSTORE DUP1 PUSH1 0x20 MUL PUSH1 0x20 ADD DUP3 ADD PUSH1 0x40 MSTORE DUP1 ISZERO PUSH2 0xB76 JUMPI DUP2 PUSH1 0x20 ADD PUSH1 0x20 DUP3 MUL DUP1 CODESIZE DUP4 CODECOPY DUP1 DUP3 ADD SWAP2 POP POP SWAP1 POP JUMPDEST POP SWAP6 POP DUP3 PUSH1 0x40 MLOAD SWAP1 DUP1 DUP3 MSTORE DUP1 PUSH1 0x20 MUL PUSH1 0x20 ADD DUP3 ADD PUSH1 0x40 MSTORE DUP1 ISZERO PUSH2 0xBA8 JUMPI DUP2 PUSH1 0x20 ADD PUSH1 0x20 DUP3 MUL DUP1 CODESIZE DUP4 CODECOPY DUP1 DUP3 ADD SWAP2 POP POP SWAP1 POP JUMPDEST POP SWAP5 POP PUSH1 0x0 DUP1 SWAP2 POP JUMPDEST DUP4 DUP3 LT ISZERO PUSH2 0xE36 JUMPI PUSH1 0x1 PUSH1 0x0 DUP12 DUP2 MSTORE PUSH1 0x20 ADD SWAP1 DUP2 MSTORE PUSH1 0x20 ADD PUSH1 0x0 KECCAK256 PUSH1 0x1 ADD PUSH1 0x0 DUP4 DUP2 MSTORE PUSH1 0x20 ADD SWAP1 DUP2 MSTORE PUSH1 0x20 ADD PUSH1 0x0 KECCAK256 SLOAD SWAP1 POP PUSH1 0x0 DUP1 PUSH1 0x0 DUP4 DUP2 MSTORE PUSH1 0x20 ADD SWAP1 DUP2 MSTORE PUSH1 0x20 ADD PUSH1 0x0 KECCAK256 SWAP1 POP PUSH1 0x0 PUSH1 0x7 DUP5 MUL SWAP1 POP DUP3 DUP12 DUP3 DUP2 MLOAD DUP2 LT PUSH2 0xC0E JUMPI INVALID JUMPDEST PUSH1 0x20 MUL PUSH1 0x20 ADD ADD SWAP1 PUSH1 0x3 SIGNEXTEND SWAP1 DUP2 PUSH1 0x3 SIGNEXTEND DUP2 MSTORE POP POP DUP2 PUSH1 0x0 ADD PUSH1 0x0 SWAP1 SLOAD SWAP1 PUSH2 0x100 EXP SWAP1 DIV PUSH1 0x3 SIGNEXTEND DUP12 PUSH1 0x1 DUP4 ADD DUP2 MLOAD DUP2 LT PUSH2 0xC43 JUMPI INVALID JUMPDEST PUSH1 0x20 MUL PUSH1 0x20 ADD ADD SWAP1 PUSH1 0x3 SIGNEXTEND SWAP1 DUP2 PUSH1 0x3 SIGNEXTEND DUP2 MSTORE POP POP DUP2 PUSH1 0x0 ADD PUSH1 0x4 SWAP1 SLOAD SWAP1 PUSH2 0x100 EXP SWAP1 DIV PUSH1 0x3 SIGNEXTEND DUP12 PUSH1 0x2 DUP4 ADD DUP2 MLOAD DUP2 LT PUSH2 0xC78 JUMPI INVALID JUMPDEST PUSH1 0x20 MUL PUSH1 0x20 ADD ADD SWAP1 PUSH1 0x3 SIGNEXTEND SWAP1 DUP2 PUSH1 0x3 SIGNEXTEND DUP2 MSTORE POP POP DUP2 PUSH1 0x3 ADD PUSH1 0x0 SWAP1 SLOAD SWAP1 PUSH2 0x100 EXP SWAP1 DIV PUSH1 0x3 SIGNEXTEND DUP12 PUSH1 0x3 DUP4 ADD DUP2 MLOAD DUP2 LT PUSH2 0xCAD JUMPI INVALID JUMPDEST PUSH1 0x20 MUL PUSH1 0x20 ADD ADD SWAP1 PUSH1 0x3 SIGNEXTEND SWAP1 DUP2 PUSH1 0x3 SIGNEXTEND DUP2 MSTORE POP POP DUP2 PUSH1 0x3 ADD PUSH1 0x4 SWAP1 SLOAD SWAP1 PUSH2 0x100 EXP SWAP1 DIV PUSH1 0x3 SIGNEXTEND DUP12 PUSH1 0x4 DUP4 ADD DUP2 MLOAD DUP2 LT PUSH2 0xCE2 JUMPI INVALID JUMPDEST PUSH1 0x20 MUL PUSH1 0x20 ADD ADD SWAP1 PUSH1 0x3 SIGNEXTEND SWAP1 DUP2 PUSH1 0x3 SIGNEXTEND DUP2 MSTORE POP POP DUP2 PUSH1 0x0 ADD PUSH1 0x8 SWAP1 SLOAD SWAP1 PUSH2 0x100 EXP SWAP1 DIV PUSH1 0xFF AND ISZERO PUSH2 0xD37 JUMPI PUSH1 0x1 DUP12 PUSH1 0x5 DUP4 ADD DUP2 MLOAD DUP2 LT PUSH2 0xD1E JUMPI INVALID JUMPDEST PUSH1 0x20 MUL PUSH1 0x20 ADD ADD SWAP1 PUSH1 0x3 SIGNEXTEND SWAP1 DUP2 PUSH1 0x3 SIGNEXTEND DUP2 MSTORE POP POP PUSH2 0xD5D JUMP JUMPDEST PUSH1 0x0 DUP12 PUSH1 0x5 DUP4 ADD DUP2 MLOAD DUP2 LT PUSH2 0xD48 JUMPI INVALID JUMPDEST PUSH1 0x20 MUL PUSH1 0x20 ADD ADD SWAP1 PUSH1 0x3 SIGNEXTEND SWAP1 DUP2 PUSH1 0x3 SIGNEXTEND DUP2 MSTORE POP POP JUMPDEST DUP2 PUSH1 0x0 ADD PUSH1 0x9 SWAP1 SLOAD SWAP1 PUSH2 0x100 EXP SWAP1 DIV PUSH1 0xFF AND ISZERO PUSH2 0xD9E JUMPI PUSH1 0x1 DUP12 PUSH1 0x6 DUP4 ADD DUP2 MLOAD DUP2 LT PUSH2 0xD85 JUMPI INVALID JUMPDEST PUSH1 0x20 MUL PUSH1 0x20 ADD ADD SWAP1 PUSH1 0x3 SIGNEXTEND SWAP1 DUP2 PUSH1 0x3 SIGNEXTEND DUP2 MSTORE POP POP PUSH2 0xDC4 JUMP JUMPDEST PUSH1 0x0 DUP12 PUSH1 0x6 DUP4 ADD DUP2 MLOAD DUP2 LT PUSH2 0xDAF JUMPI INVALID JUMPDEST PUSH1 0x20 MUL PUSH1 0x20 ADD ADD SWAP1 PUSH1 0x3 SIGNEXTEND SWAP1 DUP2 PUSH1 0x3 SIGNEXTEND DUP2 MSTORE POP POP JUMPDEST DUP2 PUSH1 0x5 ADD SLOAD PUSH1 0x1 DUP7 ADD ADD SWAP5 POP DUP2 PUSH1 0x2 ADD SLOAD DUP11 DUP6 DUP2 MLOAD DUP2 LT PUSH2 0xDE1 JUMPI INVALID JUMPDEST PUSH1 0x20 MUL PUSH1 0x20 ADD ADD DUP2 DUP2 MSTORE POP POP DUP2 PUSH1 0x1 ADD SLOAD DUP10 DUP6 DUP2 MLOAD DUP2 LT PUSH2 0xDFE JUMPI INVALID JUMPDEST PUSH1 0x20 MUL PUSH1 0x20 ADD ADD DUP2 DUP2 MSTORE POP POP DUP2 PUSH1 0x4 ADD SLOAD DUP9 DUP6 DUP2 MLOAD DUP2 LT PUSH2 0xE1B JUMPI INVALID JUMPDEST PUSH1 0x20 MUL PUSH1 0x20 ADD ADD DUP2 DUP2 MSTORE POP POP POP POP DUP2 DUP1 PUSH1 0x1 ADD SWAP3 POP POP PUSH2 0xBB1 JUMP JUMPDEST DUP3 PUSH1 0x40 MLOAD SWAP1 DUP1 DUP3 MSTORE DUP1 PUSH1 0x20 MUL PUSH1 0x20 ADD DUP3 ADD PUSH1 0x40 MSTORE DUP1 ISZERO PUSH2 0xE65 JUMPI DUP2 PUSH1 0x20 ADD PUSH1 0x20 DUP3 MUL DUP1 CODESIZE DUP4 CODECOPY DUP1 DUP3 ADD SWAP2 POP POP SWAP1 POP JUMPDEST POP SWAP5 POP PUSH1 0x0 DUP1 SWAP1 POP PUSH1 0x0 SWAP3 POP JUMPDEST DUP5 DUP4 LT ISZERO PUSH2 0xF42 JUMPI PUSH1 0x1 PUSH1 0x0 DUP13 DUP2 MSTORE PUSH1 0x20 ADD SWAP1 DUP2 MSTORE PUSH1 0x20 ADD PUSH1 0x0 KECCAK256 PUSH1 0x1 ADD PUSH1 0x0 DUP5 DUP2 MSTORE PUSH1 0x20 ADD SWAP1 DUP2 MSTORE PUSH1 0x20 ADD PUSH1 0x0 KECCAK256 SLOAD SWAP2 POP PUSH1 0x0 DUP1 PUSH1 0x0 DUP5 DUP2 MSTORE PUSH1 0x20 ADD SWAP1 DUP2 MSTORE PUSH1 0x20 ADD PUSH1 0x0 KECCAK256 SWAP1 POP DUP1 PUSH1 0x5 ADD SLOAD PUSH1 0x0 SHL DUP8 DUP4 DUP1 PUSH1 0x1 ADD SWAP5 POP DUP2 MLOAD DUP2 LT PUSH2 0xED4 JUMPI INVALID JUMPDEST PUSH1 0x20 MUL PUSH1 0x20 ADD ADD DUP2 DUP2 MSTORE POP POP PUSH1 0x0 DUP1 SWAP1 POP JUMPDEST DUP2 PUSH1 0x5 ADD SLOAD DUP2 LT ISZERO PUSH2 0xF33 JUMPI DUP2 PUSH1 0x6 ADD PUSH1 0x0 DUP3 DUP2 MSTORE PUSH1 0x20 ADD SWAP1 DUP2 MSTORE PUSH1 0x20 ADD PUSH1 0x0 KECCAK256 SLOAD DUP9 DUP5 DUP1 PUSH1 0x1 ADD SWAP6 POP DUP2 MLOAD DUP2 LT PUSH2 0xF1A JUMPI INVALID JUMPDEST PUSH1 0x20 MUL PUSH1 0x20 ADD ADD DUP2 DUP2 MSTORE POP POP DUP1 DUP1 PUSH1 0x1 ADD SWAP2 POP POP PUSH2 0xEE6 JUMP JUMPDEST POP POP DUP3 DUP1 PUSH1 0x1 ADD SWAP4 POP POP PUSH2 0xE72 JUMP JUMPDEST POP POP JUMPDEST POP POP POP SWAP2 SWAP4 SWAP6 SWAP1 SWAP3 SWAP5 POP JUMP JUMPDEST PUSH1 0x0 DUP1 PUSH1 0x1 SWAP1 POP PUSH1 0x0 DUP1 SWAP1 POP PUSH1 0x0 DUP1 SWAP1 POP JUMPDEST DUP5 MLOAD DUP2 LT ISZERO PUSH2 0x10DB JUMPI PUSH1 0x0 DUP6 DUP3 DUP2 MLOAD DUP2 LT PUSH2 0xF7A JUMPI INVALID JUMPDEST PUSH1 0x20 ADD ADD MLOAD PUSH1 0xF8 SHR PUSH1 0xF8 SHL SWAP1 POP PUSH1 0x0 DUP1 PUSH1 0x0 SWAP1 POP JUMPDEST PUSH1 0xC DUP1 SLOAD PUSH1 0x1 DUP2 PUSH1 0x1 AND ISZERO PUSH2 0x100 MUL SUB AND PUSH1 0x2 SWAP1 DIV SWAP1 POP DUP2 LT ISZERO PUSH2 0x1070 JUMPI DUP3 PUSH31 0xFFFFFFFFFFFFFFFFFFFFFFFFFFFFFFFFFFFFFFFFFFFFFFFFFFFFFFFFFFFFFF NOT AND PUSH1 0xC DUP3 DUP2 SLOAD PUSH1 0x1 DUP2 PUSH1 0x1 AND ISZERO PUSH2 0x100 MUL SUB AND PUSH1 0x2 SWAP1 DIV DUP2 LT PUSH2 0xFEE JUMPI INVALID JUMPDEST DUP2 SLOAD PUSH1 0x1 AND ISZERO PUSH2 0x100D JUMPI SWAP1 PUSH1 0x0 MSTORE PUSH1 0x20 PUSH1 0x0 KECCAK256 SWAP1 PUSH1 0x20 SWAP2 DUP3 DUP3 DIV ADD SWAP2 SWAP1 MOD JUMPDEST SWAP1 SLOAD SWAP1 BYTE PUSH32 0x100000000000000000000000000000000000000000000000000000000000000 MUL PUSH31 0xFFFFFFFFFFFFFFFFFFFFFFFFFFFFFFFFFFFFFFFFFFFFFFFFFFFFFFFFFFFFFF NOT AND EQ ISZERO PUSH2 0x1063 JUMPI DUP1 SWAP2 POP PUSH2 0x1070 JUMP JUMPDEST DUP1 DUP1 PUSH1 0x1 ADD SWAP2 POP POP PUSH2 0xF8F JUMP JUMPDEST POP PUSH1 0x0 DUP1 SWAP1 POP JUMPDEST PUSH1 0x5 DUP2 LT ISZERO PUSH2 0x10CB JUMPI PUSH1 0x0 PUSH1 0xB DUP3 DUP2 SLOAD DUP2 LT PUSH2 0x108F JUMPI INVALID JUMPDEST SWAP1 PUSH1 0x0 MSTORE PUSH1 0x20 PUSH1 0x0 KECCAK256 ADD SLOAD SWAP1 POP DUP7 PUSH2 0x10B9 JUMPI PUSH1 0x2 DUP7 MUL SWAP6 POP PUSH1 0x0 DUP2 DUP5 AND EQ PUSH2 0x10B8 JUMPI PUSH1 0x1 DUP7 ADD SWAP6 POP JUMPDEST JUMPDEST DUP7 ISZERO SWAP7 POP POP DUP1 DUP1 PUSH1 0x1 ADD SWAP2 POP POP PUSH2 0x1077 JUMP JUMPDEST POP POP POP DUP1 DUP1 PUSH1 0x1 ADD SWAP2 POP POP PUSH2 0xF63 JUMP JUMPDEST POP DUP1 SWAP3 POP POP POP SWAP2 SWAP1 POP JUMP JUMPDEST PUSH1 0x0 DUP2 DUP4 EQ ISZERO PUSH2 0x10F9 JUMPI PUSH1 0x0 SWAP1 POP PUSH2 0x1183 JUMP JUMPDEST PUSH1 0x60 DUP1 PUSH2 0x1106 DUP6 DUP6 PUSH2 0x2033 JUMP JUMPDEST DUP1 SWAP3 POP DUP2 SWAP4 POP POP POP PUSH1 0x0 PUSH2 0x1119 DUP4 PUSH2 0x1189 JUMP JUMPDEST SWAP1 POP PUSH1 0x0 PUSH2 0x1126 DUP4 PUSH2 0x1189 JUMP JUMPDEST SWAP1 POP PUSH1 0x0 PUSH2 0x1133 DUP6 PUSH2 0xF51 JUMP JUMPDEST SWAP1 POP PUSH1 0x0 PUSH2 0x1140 DUP6 PUSH2 0xF51 JUMP JUMPDEST SWAP1 POP PUSH1 0x0 DUP1 DUP6 DUP6 GT ISZERO PUSH2 0x1157 JUMPI DUP6 DUP6 SUB SWAP2 POP PUSH2 0x115D JUMP JUMPDEST DUP5 DUP7 SUB SWAP2 POP JUMPDEST DUP4 DUP4 GT ISZERO PUSH2 0x116F JUMPI DUP4 DUP4 SUB SWAP1 POP PUSH2 0x1175 JUMP JUMPDEST DUP3 DUP5 SUB SWAP1 POP JUMPDEST DUP1 DUP3 ADD SWAP9 POP POP POP POP POP POP POP POP POP JUMPDEST SWAP3 SWAP2 POP POP JUMP JUMPDEST PUSH1 0x0 DUP1 PUSH1 0x1 SWAP1 POP PUSH1 0x0 DUP1 SWAP1 POP PUSH1 0x0 DUP1 SWAP1 POP JUMPDEST DUP5 MLOAD DUP2 LT ISZERO PUSH2 0x1314 JUMPI PUSH1 0x0 DUP6 DUP3 DUP2 MLOAD DUP2 LT PUSH2 0x11B2 JUMPI INVALID JUMPDEST PUSH1 0x20 ADD ADD MLOAD PUSH1 0xF8 SHR PUSH1 0xF8 SHL SWAP1 POP PUSH1 0x0 DUP1 PUSH1 0x0 SWAP1 POP JUMPDEST PUSH1 0xC DUP1 SLOAD PUSH1 0x1 DUP2 PUSH1 0x1 AND ISZERO PUSH2 0x100 MUL SUB AND PUSH1 0x2 SWAP1 DIV SWAP1 POP DUP2 LT ISZERO PUSH2 0x12A8 JUMPI DUP3 PUSH31 0xFFFFFFFFFFFFFFFFFFFFFFFFFFFFFFFFFFFFFFFFFFFFFFFFFFFFFFFFFFFFFF NOT AND PUSH1 0xC DUP3 DUP2 SLOAD PUSH1 0x1 DUP2 PUSH1 0x1 AND ISZERO PUSH2 0x100 MUL SUB AND PUSH1 0x2 SWAP1 DIV DUP2 LT PUSH2 0x1226 JUMPI INVALID JUMPDEST DUP2 SLOAD PUSH1 0x1 AND ISZERO PUSH2 0x1245 JUMPI SWAP1 PUSH1 0x0 MSTORE PUSH1 0x20 PUSH1 0x0 KECCAK256 SWAP1 PUSH1 0x20 SWAP2 DUP3 DUP3 DIV ADD SWAP2 SWAP1 MOD JUMPDEST SWAP1 SLOAD SWAP1 BYTE PUSH32 0x100000000000000000000000000000000000000000000000000000000000000 MUL PUSH31 0xFFFFFFFFFFFFFFFFFFFFFFFFFFFFFFFFFFFFFFFFFFFFFFFFFFFFFFFFFFFFFF NOT AND EQ ISZERO PUSH2 0x129B JUMPI DUP1 SWAP2 POP PUSH2 0x12A8 JUMP JUMPDEST DUP1 DUP1 PUSH1 0x1 ADD SWAP2 POP POP PUSH2 0x11C7 JUMP JUMPDEST POP PUSH1 0x0 DUP1 SWAP1 POP JUMPDEST PUSH1 0x5 DUP2 LT ISZERO PUSH2 0x1304 JUMPI PUSH1 0x0 PUSH1 0xB DUP3 DUP2 SLOAD DUP2 LT PUSH2 0x12C7 JUMPI INVALID JUMPDEST SWAP1 PUSH1 0x0 MSTORE PUSH1 0x20 PUSH1 0x0 KECCAK256 ADD SLOAD SWAP1 POP DUP7 ISZERO PUSH2 0x12F2 JUMPI PUSH1 0x2 DUP7 MUL SWAP6 POP PUSH1 0x0 DUP2 DUP5 AND EQ PUSH2 0x12F1 JUMPI PUSH1 0x1 DUP7 ADD SWAP6 POP JUMPDEST JUMPDEST DUP7 ISZERO SWAP7 POP POP DUP1 DUP1 PUSH1 0x1 ADD SWAP2 POP POP PUSH2 0x12AF JUMP JUMPDEST POP POP POP DUP1 DUP1 PUSH1 0x1 ADD SWAP2 POP POP PUSH2 0x119B JUMP JUMPDEST POP DUP1 SWAP3 POP POP POP SWAP2 SWAP1 POP JUMP JUMPDEST DUP10 PUSH1 0x0 DUP1 DUP14 DUP2 MSTORE PUSH1 0x20 ADD SWAP1 DUP2 MSTORE PUSH1 0x20 ADD PUSH1 0x0 KECCAK256 PUSH1 0x0 ADD PUSH1 0x0 PUSH2 0x100 EXP DUP2 SLOAD DUP2 PUSH4 0xFFFFFFFF MUL NOT AND SWAP1 DUP4 PUSH1 0x3 SIGNEXTEND PUSH4 0xFFFFFFFF AND MUL OR SWAP1 SSTORE POP DUP9 PUSH1 0x0 DUP1 DUP14 DUP2 MSTORE PUSH1 0x20 ADD SWAP1 DUP2 MSTORE PUSH1 0x20 ADD PUSH1 0x0 KECCAK256 PUSH1 0x0 ADD PUSH1 0x4 PUSH2 0x100 EXP DUP2 SLOAD DUP2 PUSH4 0xFFFFFFFF MUL NOT AND SWAP1 DUP4 PUSH1 0x3 SIGNEXTEND PUSH4 0xFFFFFFFF AND MUL OR SWAP1 SSTORE POP DUP8 PUSH1 0x0 DUP1 DUP14 DUP2 MSTORE PUSH1 0x20 ADD SWAP1 DUP2 MSTORE PUSH1 0x20 ADD PUSH1 0x0 KECCAK256 PUSH1 0x3 ADD PUSH1 0x0 PUSH2 0x100 EXP DUP2 SLOAD DUP2 PUSH4 0xFFFFFFFF MUL NOT AND SWAP1 DUP4 PUSH1 0x3 SIGNEXTEND PUSH4 0xFFFFFFFF AND MUL OR SWAP1 SSTORE POP DUP7 PUSH1 0x0 DUP1 DUP14 DUP2 MSTORE PUSH1 0x20 ADD SWAP1 DUP2 MSTORE PUSH1 0x20 ADD PUSH1 0x0 KECCAK256 PUSH1 0x3 ADD PUSH1 0x4 PUSH2 0x100 EXP DUP2 SLOAD DUP2 PUSH4 0xFFFFFFFF MUL NOT AND SWAP1 DUP4 PUSH1 0x3 SIGNEXTEND PUSH4 0xFFFFFFFF AND MUL OR SWAP1 SSTORE POP DUP6 PUSH1 0x0 DUP1 DUP14 DUP2 MSTORE PUSH1 0x20 ADD SWAP1 DUP2 MSTORE PUSH1 0x20 ADD PUSH1 0x0 KECCAK256 PUSH1 0x0 ADD PUSH1 0x8 PUSH2 0x100 EXP DUP2 SLOAD DUP2 PUSH1 0xFF MUL NOT AND SWAP1 DUP4 ISZERO ISZERO MUL OR SWAP1 SSTORE POP DUP5 PUSH1 0x0 DUP1 DUP14 DUP2 MSTORE PUSH1 0x20 ADD SWAP1 DUP2 MSTORE PUSH1 0x20 ADD PUSH1 0x0 KECCAK256 PUSH1 0x0 ADD PUSH1 0x9 PUSH2 0x100 EXP DUP2 SLOAD DUP2 PUSH1 0xFF MUL NOT AND SWAP1 DUP4 ISZERO ISZERO MUL OR SWAP1 SSTORE POP DUP4 PUSH1 0x0 DUP1 DUP14 DUP2 MSTORE PUSH1 0x20 ADD SWAP1 DUP2 MSTORE PUSH1 0x20 ADD PUSH1 0x0 KECCAK256 PUSH1 0x1 ADD DUP2 SWAP1 SSTORE POP DUP3 PUSH1 0x0 DUP1 DUP14 DUP2 MSTORE PUSH1 0x20 ADD SWAP1 DUP2 MSTORE PUSH1 0x20 ADD PUSH1 0x0 KECCAK256 PUSH1 0x2 ADD DUP2 SWAP1 SSTORE POP DUP2 PUSH1 0x0 DUP1 DUP14 DUP2 MSTORE PUSH1 0x20 ADD SWAP1 DUP2 MSTORE PUSH1 0x20 ADD PUSH1 0x0 KECCAK256 PUSH1 0x4 ADD DUP2 SWAP1 SSTORE POP DUP1 PUSH1 0x0 DUP2 MLOAD DUP2 LT PUSH2 0x14B0 JUMPI INVALID JUMPDEST PUSH1 0x20 MUL PUSH1 0x20 ADD ADD MLOAD PUSH1 0x2 PUSH1 0x0 DUP4 PUSH1 0x0 DUP2 MLOAD DUP2 LT PUSH2 0x14C9 JUMPI INVALID JUMPDEST PUSH1 0x20 MUL PUSH1 0x20 ADD ADD MLOAD DUP2 MSTORE PUSH1 0x20 ADD SWAP1 DUP2 MSTORE PUSH1 0x20 ADD PUSH1 0x0 KECCAK256 PUSH1 0x1 ADD PUSH1 0x0 PUSH1 0x2 PUSH1 0x0 DUP6 PUSH1 0x0 DUP2 MLOAD DUP2 LT PUSH2 0x14F5 JUMPI INVALID JUMPDEST PUSH1 0x20 MUL PUSH1 0x20 ADD ADD MLOAD DUP2 MSTORE PUSH1 0x20 ADD SWAP1 DUP2 MSTORE PUSH1 0x20 ADD PUSH1 0x0 KECCAK256 PUSH1 0x0 ADD SLOAD DUP2 MSTORE PUSH1 0x20 ADD SWAP1 DUP2 MSTORE PUSH1 0x20 ADD PUSH1 0x0 KECCAK256 PUSH1 0x0 ADD DUP2 SWAP1 SSTORE POP DUP1 PUSH1 0x1 DUP3 MLOAD SUB DUP2 MLOAD DUP2 LT PUSH2 0x1534 JUMPI INVALID JUMPDEST PUSH1 0x20 MUL PUSH1 0x20 ADD ADD MLOAD PUSH1 0x2 PUSH1 0x0 DUP4 PUSH1 0x0 DUP2 MLOAD DUP2 LT PUSH2 0x154D JUMPI INVALID JUMPDEST PUSH1 0x20 MUL PUSH1 0x20 ADD ADD MLOAD DUP2 MSTORE PUSH1 0x20 ADD SWAP1 DUP2 MSTORE PUSH1 0x20 ADD PUSH1 0x0 KECCAK256 PUSH1 0x1 ADD PUSH1 0x0 PUSH1 0x2 PUSH1 0x0 DUP6 PUSH1 0x0 DUP2 MLOAD DUP2 LT PUSH2 0x1579 JUMPI INVALID JUMPDEST PUSH1 0x20 MUL PUSH1 0x20 ADD ADD MLOAD DUP2 MSTORE PUSH1 0x20 ADD SWAP1 DUP2 MSTORE PUSH1 0x20 ADD PUSH1 0x0 KECCAK256 PUSH1 0x0 ADD SLOAD DUP2 MSTORE PUSH1 0x20 ADD SWAP1 DUP2 MSTORE PUSH1 0x20 ADD PUSH1 0x0 KECCAK256 PUSH1 0x1 ADD DUP2 SWAP1 SSTORE POP DUP7 PUSH1 0x2 PUSH1 0x0 DUP4 PUSH1 0x0 DUP2 MLOAD DUP2 LT PUSH2 0x15BA JUMPI INVALID JUMPDEST PUSH1 0x20 MUL PUSH1 0x20 ADD ADD MLOAD DUP2 MSTORE PUSH1 0x20 ADD SWAP1 DUP2 MSTORE PUSH1 0x20 ADD PUSH1 0x0 KECCAK256 PUSH1 0x1 ADD PUSH1 0x0 PUSH1 0x2 PUSH1 0x0 DUP6 PUSH1 0x0 DUP2 MLOAD DUP2 LT PUSH2 0x15E6 JUMPI INVALID JUMPDEST PUSH1 0x20 MUL PUSH1 0x20 ADD ADD MLOAD DUP2 MSTORE PUSH1 0x20 ADD SWAP1 DUP2 MSTORE PUSH1 0x20 ADD PUSH1 0x0 KECCAK256 PUSH1 0x0 ADD SLOAD DUP2 MSTORE PUSH1 0x20 ADD SWAP1 DUP2 MSTORE PUSH1 0x20 ADD PUSH1 0x0 KECCAK256 PUSH1 0x2 ADD PUSH1 0x0 PUSH2 0x100 EXP DUP2 SLOAD DUP2 PUSH4 0xFFFFFFFF MUL NOT AND SWAP1 DUP4 PUSH1 0x3 SIGNEXTEND PUSH4 0xFFFFFFFF AND MUL OR SWAP1 SSTORE POP DUP9 PUSH1 0x2 PUSH1 0x0 DUP4 PUSH1 0x0 DUP2 MLOAD DUP2 LT PUSH2 0x1644 JUMPI INVALID JUMPDEST PUSH1 0x20 MUL PUSH1 0x20 ADD ADD MLOAD DUP2 MSTORE PUSH1 0x20 ADD SWAP1 DUP2 MSTORE PUSH1 0x20 ADD PUSH1 0x0 KECCAK256 PUSH1 0x1 ADD PUSH1 0x0 PUSH1 0x2 PUSH1 0x0 DUP6 PUSH1 0x0 DUP2 MLOAD DUP2 LT PUSH2 0x1670 JUMPI INVALID JUMPDEST PUSH1 0x20 MUL PUSH1 0x20 ADD ADD MLOAD DUP2 MSTORE PUSH1 0x20 ADD SWAP1 DUP2 MSTORE PUSH1 0x20 ADD PUSH1 0x0 KECCAK256 PUSH1 0x0 ADD SLOAD DUP2 MSTORE PUSH1 0x20 ADD SWAP1 DUP2 MSTORE PUSH1 0x20 ADD PUSH1 0x0 KECCAK256 PUSH1 0x2 ADD PUSH1 0x4 PUSH2 0x100 EXP DUP2 SLOAD DUP2 PUSH4 0xFFFFFFFF MUL NOT AND SWAP1 DUP4 PUSH1 0x3 SIGNEXTEND PUSH4 0xFFFFFFFF AND MUL OR SWAP1 SSTORE POP DUP11 PUSH1 0x2 PUSH1 0x0 DUP4 PUSH1 0x0 DUP2 MLOAD DUP2 LT PUSH2 0x16CE JUMPI INVALID JUMPDEST PUSH1 0x20 MUL PUSH1 0x20 ADD ADD MLOAD DUP2 MSTORE PUSH1 0x20 ADD SWAP1 DUP2 MSTORE PUSH1 0x20 ADD PUSH1 0x0 KECCAK256 PUSH1 0x1 ADD PUSH1 0x0 PUSH1 0x2 PUSH1 0x0 DUP6 PUSH1 0x0 DUP2 MLOAD DUP2 LT PUSH2 0x16FA JUMPI INVALID JUMPDEST PUSH1 0x20 MUL PUSH1 0x20 ADD ADD MLOAD DUP2 MSTORE PUSH1 0x20 ADD SWAP1 DUP2 MSTORE PUSH1 0x20 ADD PUSH1 0x0 KECCAK256 PUSH1 0x0 ADD PUSH1 0x0 DUP2 SLOAD DUP1 SWAP3 SWAP2 SWAP1 PUSH1 0x1 ADD SWAP2 SWAP1 POP SSTORE DUP2 MSTORE PUSH1 0x20 ADD SWAP1 DUP2 MSTORE PUSH1 0x20 ADD PUSH1 0x0 KECCAK256 PUSH1 0x2 ADD PUSH1 0x8 PUSH2 0x100 EXP DUP2 SLOAD DUP2 PUSH4 0xFFFFFFFF MUL NOT AND SWAP1 DUP4 PUSH1 0x3 SIGNEXTEND PUSH4 0xFFFFFFFF AND MUL OR SWAP1 SSTORE POP PUSH1 0x0 DUP1 PUSH1 0x0 DUP14 DUP2 MSTORE PUSH1 0x20 ADD SWAP1 DUP2 MSTORE PUSH1 0x20 ADD PUSH1 0x0 KECCAK256 PUSH1 0x5 ADD SLOAD SWAP1 POP PUSH1 0x0 DUP1 SWAP1 POP JUMPDEST DUP3 MLOAD DUP2 LT ISZERO PUSH2 0x17CE JUMPI DUP3 DUP2 DUP2 MLOAD DUP2 LT PUSH2 0x1789 JUMPI INVALID JUMPDEST PUSH1 0x20 MUL PUSH1 0x20 ADD ADD MLOAD PUSH1 0x0 DUP1 DUP16 DUP2 MSTORE PUSH1 0x20 ADD SWAP1 DUP2 MSTORE PUSH1 0x20 ADD PUSH1 0x0 KECCAK256 PUSH1 0x6 ADD PUSH1 0x0 DUP5 DUP1 PUSH1 0x1 ADD SWAP6 POP DUP2 MSTORE PUSH1 0x20 ADD SWAP1 DUP2 MSTORE PUSH1 0x20 ADD PUSH1 0x0 KECCAK256 DUP2 SWAP1 SSTORE POP DUP1 DUP1 PUSH1 0x1 ADD SWAP2 POP POP PUSH2 0x1774 JUMP JUMPDEST POP DUP1 PUSH1 0x0 DUP1 DUP15 DUP2 MSTORE PUSH1 0x20 ADD SWAP1 DUP2 MSTORE PUSH1 0x20 ADD PUSH1 0x0 KECCAK256 PUSH1 0x5 ADD DUP2 SWAP1 SSTORE POP POP POP POP POP POP POP POP POP POP POP POP POP JUMP JUMPDEST PUSH1 0x1 PUSH1 0xD PUSH1 0x0 ADD DUP1 SLOAD SWAP1 POP GT PUSH2 0x180C JUMPI PUSH1 0x0 DUP1 REVERT JUMPDEST PUSH1 0x1 PUSH1 0xD PUSH1 0x0 ADD DUP1 SLOAD SWAP1 POP GT PUSH2 0x1821 JUMPI PUSH1 0x0 DUP1 REVERT JUMPDEST PUSH1 0x0 PUSH2 0x182B PUSH2 0x2225 JUMP JUMPDEST SWAP1 POP PUSH1 0xD PUSH1 0x0 ADD PUSH1 0x1 PUSH1 0xD PUSH1 0x0 ADD DUP1 SLOAD SWAP1 POP SUB DUP2 SLOAD DUP2 LT PUSH2 0x1848 JUMPI INVALID JUMPDEST SWAP1 PUSH1 0x0 MSTORE PUSH1 0x20 PUSH1 0x0 KECCAK256 ADD SLOAD PUSH1 0xD PUSH1 0x0 ADD PUSH1 0x1 DUP2 SLOAD DUP2 LT PUSH2 0x1864 JUMPI INVALID JUMPDEST SWAP1 PUSH1 0x0 MSTORE PUSH1 0x20 PUSH1 0x0 KECCAK256 ADD DUP2 SWAP1 SSTORE POP PUSH1 0xD PUSH1 0x0 ADD DUP1 SLOAD DUP1 PUSH2 0x1880 JUMPI INVALID JUMPDEST PUSH1 0x1 SWAP1 SUB DUP2 DUP2 SWAP1 PUSH1 0x0 MSTORE PUSH1 0x20 PUSH1 0x0 KECCAK256 ADD PUSH1 0x0 SWAP1 SSTORE SWAP1 SSTORE PUSH1 0x0 PUSH1 0x1 SWAP1 POP JUMPDEST PUSH1 0xD PUSH1 0x0 ADD DUP1 SLOAD SWAP1 POP PUSH1 0x2 DUP3 MUL LT ISZERO PUSH2 0x1A31 JUMPI PUSH1 0x0 PUSH1 0x2 DUP3 MUL SWAP1 POP PUSH1 0xD PUSH1 0x0 ADD DUP1 SLOAD SWAP1 POP PUSH1 0x1 DUP3 ADD LT ISZERO PUSH2 0x1940 JUMPI PUSH1 0xD PUSH1 0x1 ADD PUSH1 0x0 PUSH1 0xD PUSH1 0x0 ADD PUSH1 0x1 DUP5 ADD DUP2 SLOAD DUP2 LT PUSH2 0x18E5 JUMPI INVALID JUMPDEST SWAP1 PUSH1 0x0 MSTORE PUSH1 0x20 PUSH1 0x0 KECCAK256 ADD SLOAD DUP2 MSTORE PUSH1 0x20 ADD SWAP1 DUP2 MSTORE PUSH1 0x20 ADD PUSH1 0x0 KECCAK256 SLOAD PUSH1 0xD PUSH1 0x1 ADD PUSH1 0x0 PUSH1 0xD PUSH1 0x0 ADD DUP5 DUP2 SLOAD DUP2 LT PUSH2 0x1916 JUMPI INVALID JUMPDEST SWAP1 PUSH1 0x0 MSTORE PUSH1 0x20 PUSH1 0x0 KECCAK256 ADD SLOAD DUP2 MSTORE PUSH1 0x20 ADD SWAP1 DUP2 MSTORE PUSH1 0x20 ADD PUSH1 0x0 KECCAK256 SLOAD GT ISZERO PUSH2 0x193F JUMPI DUP1 DUP1 PUSH1 0x1 ADD SWAP2 POP POP JUMPDEST JUMPDEST PUSH1 0xD PUSH1 0x1 ADD PUSH1 0x0 PUSH1 0xD PUSH1 0x0 ADD DUP4 DUP2 SLOAD DUP2 LT PUSH2 0x1957 JUMPI INVALID JUMPDEST SWAP1 PUSH1 0x0 MSTORE PUSH1 0x20 PUSH1 0x0 KECCAK256 ADD SLOAD DUP2 MSTORE PUSH1 0x20 ADD SWAP1 DUP2 MSTORE PUSH1 0x20 ADD PUSH1 0x0 KECCAK256 SLOAD PUSH1 0xD PUSH1 0x1 ADD PUSH1 0x0 PUSH1 0xD PUSH1 0x0 ADD DUP6 DUP2 SLOAD DUP2 LT PUSH2 0x1988 JUMPI INVALID JUMPDEST SWAP1 PUSH1 0x0 MSTORE PUSH1 0x20 PUSH1 0x0 KECCAK256 ADD SLOAD DUP2 MSTORE PUSH1 0x20 ADD SWAP1 DUP2 MSTORE PUSH1 0x20 ADD PUSH1 0x0 KECCAK256 SLOAD LT ISZERO PUSH2 0x19AE JUMPI POP PUSH2 0x1A31 JUMP JUMPDEST PUSH1 0xD PUSH1 0x0 ADD DUP2 DUP2 SLOAD DUP2 LT PUSH2 0x19BE JUMPI INVALID JUMPDEST SWAP1 PUSH1 0x0 MSTORE PUSH1 0x20 PUSH1 0x0 KECCAK256 ADD SLOAD PUSH1 0xD PUSH1 0x0 ADD DUP4 DUP2 SLOAD DUP2 LT PUSH2 0x19D9 JUMPI INVALID JUMPDEST SWAP1 PUSH1 0x0 MSTORE PUSH1 0x20 PUSH1 0x0 KECCAK256 ADD SLOAD PUSH1 0xD PUSH1 0x0 ADD DUP5 DUP2 SLOAD DUP2 LT PUSH2 0x19F4 JUMPI INVALID JUMPDEST SWAP1 PUSH1 0x0 MSTORE PUSH1 0x20 PUSH1 0x0 KECCAK256 ADD PUSH1 0x0 PUSH1 0xD PUSH1 0x0 ADD DUP6 DUP2 SLOAD DUP2 LT PUSH2 0x1A10 JUMPI INVALID JUMPDEST SWAP1 PUSH1 0x0 MSTORE PUSH1 0x20 PUSH1 0x0 KECCAK256 ADD PUSH1 0x0 DUP5 SWAP2 SWAP1 POP SSTORE DUP4 SWAP2 SWAP1 POP SSTORE POP POP DUP1 SWAP2 POP POP PUSH2 0x189D JUMP JUMPDEST PUSH1 0xD PUSH1 0x1 ADD PUSH1 0x0 DUP4 DUP2 MSTORE PUSH1 0x20 ADD SWAP1 DUP2 MSTORE PUSH1 0x20 ADD PUSH1 0x0 KECCAK256 PUSH1 0x0 SWAP1 SSTORE POP POP JUMP JUMPDEST PUSH1 0x2 PUSH1 0x20 MSTORE DUP1 PUSH1 0x0 MSTORE PUSH1 0x40 PUSH1 0x0 KECCAK256 PUSH1 0x0 SWAP2 POP SWAP1 POP DUP1 PUSH1 0x0 ADD SLOAD SWAP1 POP DUP2 JUMP JUMPDEST PUSH1 0x1 PUSH1 0x20 MSTORE DUP1 PUSH1 0x0 MSTORE PUSH1 0x40 PUSH1 0x0 KECCAK256 PUSH1 0x0 SWAP2 POP SWAP1 POP DUP1 PUSH1 0x0 ADD SLOAD SWAP1 POP DUP2 JUMP JUMPDEST PUSH1 0x0 DUP2 PUSH1 0x3 DUP2 SWAP1 SSTORE POP PUSH1 0x3 SLOAD SWAP1 POP SWAP2 SWAP1 POP JUMP JUMPDEST PUSH1 0x60 PUSH1 0x0 PUSH2 0x1AAD DUP5 PUSH1 0x0 PUSH2 0x905 JUMP JUMPDEST PUSH1 0x0 PUSH1 0x7 PUSH1 0x2 ADD PUSH1 0x0 DUP7 DUP2 MSTORE PUSH1 0x20 ADD SWAP1 DUP2 MSTORE PUSH1 0x20 ADD PUSH1 0x0 KECCAK256 DUP2 SWAP1 SSTORE POP DUP4 PUSH1 0x7 PUSH1 0x1 ADD PUSH1 0x0 PUSH1 0x7 PUSH1 0x0 ADD SLOAD DUP2 MSTORE PUSH1 0x20 ADD SWAP1 DUP2 MSTORE PUSH1 0x20 ADD PUSH1 0x0 KECCAK256 DUP2 SWAP1 SSTORE POP PUSH1 0x7 PUSH1 0x0 ADD PUSH1 0x0 DUP2 SLOAD DUP1 SWAP3 SWAP2 SWAP1 PUSH1 0x1 ADD SWAP2 SWAP1 POP SSTORE POP PUSH1 0x0 DUP1 JUMPDEST PUSH1 0x1 PUSH1 0xD PUSH1 0x0 ADD DUP1 SLOAD SWAP1 POP GT ISZERO PUSH2 0x1FBD JUMPI PUSH2 0x1B1B PUSH2 0x2225 JUMP JUMPDEST SWAP2 POP PUSH2 0x1B25 PUSH2 0x17F7 JUMP JUMPDEST PUSH1 0x0 PUSH1 0x2 PUSH1 0x0 DUP5 DUP2 MSTORE PUSH1 0x20 ADD SWAP1 DUP2 MSTORE PUSH1 0x20 ADD PUSH1 0x0 KECCAK256 SWAP1 POP DUP6 DUP4 EQ ISZERO PUSH2 0x1D11 JUMPI PUSH1 0x7 PUSH1 0x2 ADD PUSH1 0x0 DUP5 DUP2 MSTORE PUSH1 0x20 ADD SWAP1 DUP2 MSTORE PUSH1 0x20 ADD PUSH1 0x0 KECCAK256 SLOAD SWAP4 POP PUSH1 0x0 DUP7 SWAP1 POP PUSH1 0x4 PUSH1 0x0 ADD SLOAD PUSH1 0x40 MLOAD SWAP1 DUP1 DUP3 MSTORE DUP1 PUSH1 0x20 MUL PUSH1 0x20 ADD DUP3 ADD PUSH1 0x40 MSTORE DUP1 ISZERO PUSH2 0x1B96 JUMPI DUP2 PUSH1 0x20 ADD PUSH1 0x20 DUP3 MUL DUP1 CODESIZE DUP4 CODECOPY DUP1 DUP3 ADD SWAP2 POP POP SWAP1 POP JUMPDEST POP SWAP6 POP PUSH1 0x0 DUP1 SWAP1 POP JUMPDEST DUP9 DUP3 EQ PUSH2 0x1BE5 JUMPI DUP2 DUP8 DUP3 DUP2 MLOAD DUP2 LT PUSH2 0x1BB3 JUMPI INVALID JUMPDEST PUSH1 0x20 MUL PUSH1 0x20 ADD ADD DUP2 DUP2 MSTORE POP POP PUSH1 0x4 PUSH1 0x2 ADD PUSH1 0x0 DUP4 DUP2 MSTORE PUSH1 0x20 ADD SWAP1 DUP2 MSTORE PUSH1 0x20 ADD PUSH1 0x0 KECCAK256 SLOAD SWAP2 POP DUP1 DUP1 PUSH1 0x1 ADD SWAP2 POP POP PUSH2 0x1B9F JUMP JUMPDEST DUP9 DUP8 DUP3 DUP2 MLOAD DUP2 LT PUSH2 0x1BF2 JUMPI INVALID JUMPDEST PUSH1 0x20 MUL PUSH1 0x20 ADD ADD DUP2 DUP2 MSTORE POP POP PUSH1 0x0 DUP1 SWAP1 POP JUMPDEST PUSH1 0x4 PUSH1 0x0 ADD SLOAD DUP2 LT ISZERO PUSH2 0x1C68 JUMPI PUSH1 0x4 PUSH1 0x2 ADD PUSH1 0x0 PUSH1 0x4 PUSH1 0x1 ADD PUSH1 0x0 DUP5 DUP2 MSTORE PUSH1 0x20 ADD SWAP1 DUP2 MSTORE PUSH1 0x20 ADD PUSH1 0x0 KECCAK256 SLOAD DUP2 MSTORE PUSH1 0x20 ADD SWAP1 DUP2 MSTORE PUSH1 0x20 ADD PUSH1 0x0 KECCAK256 PUSH1 0x0 SWAP1 SSTORE PUSH1 0x4 PUSH1 0x1 ADD PUSH1 0x0 DUP3 DUP2 MSTORE PUSH1 0x20 ADD SWAP1 DUP2 MSTORE PUSH1 0x20 ADD PUSH1 0x0 KECCAK256 PUSH1 0x0 SWAP1 SSTORE DUP1 DUP1 PUSH1 0x1 ADD SWAP2 POP POP PUSH2 0x1C04 JUMP JUMPDEST POP PUSH1 0x0 PUSH1 0x4 PUSH1 0x0 ADD DUP2 SWAP1 SSTORE POP PUSH1 0x0 DUP1 SWAP1 POP JUMPDEST PUSH1 0x7 PUSH1 0x0 ADD SLOAD DUP2 LT ISZERO PUSH2 0x1CDE JUMPI PUSH1 0x7 PUSH1 0x2 ADD PUSH1 0x0 PUSH1 0x7 PUSH1 0x1 ADD PUSH1 0x0 DUP5 DUP2 MSTORE PUSH1 0x20 ADD SWAP1 DUP2 MSTORE PUSH1 0x20 ADD PUSH1 0x0 KECCAK256 SLOAD DUP2 MSTORE PUSH1 0x20 ADD SWAP1 DUP2 MSTORE PUSH1 0x20 ADD PUSH1 0x0 KECCAK256 PUSH1 0x0 SWAP1 SSTORE PUSH1 0x7 PUSH1 0x1 ADD PUSH1 0x0 DUP3 DUP2 MSTORE PUSH1 0x20 ADD SWAP1 DUP2 MSTORE PUSH1 0x20 ADD PUSH1 0x0 KECCAK256 PUSH1 0x0 SWAP1 SSTORE DUP1 DUP1 PUSH1 0x1 ADD SWAP2 POP POP PUSH2 0x1C7A JUMP JUMPDEST POP PUSH1 0x0 PUSH1 0x7 PUSH1 0x0 ADD DUP2 SWAP1 SSTORE POP JUMPDEST PUSH1 0x1 PUSH1 0xD PUSH1 0x0 ADD DUP1 SLOAD SWAP1 POP GT ISZERO PUSH2 0x1D09 JUMPI PUSH2 0x1D04 PUSH2 0x17F7 JUMP JUMPDEST PUSH2 0x1CEB JUMP JUMPDEST POP POP POP PUSH2 0x1FBD JUMP JUMPDEST PUSH1 0x0 DUP1 SWAP1 POP JUMPDEST DUP2 PUSH1 0x0 ADD SLOAD DUP2 LT ISZERO PUSH2 0x1FB6 JUMPI PUSH1 0x0 PUSH1 0x2 PUSH1 0x0 DUP7 DUP2 MSTORE PUSH1 0x20 ADD SWAP1 DUP2 MSTORE PUSH1 0x20 ADD PUSH1 0x0 KECCAK256 PUSH1 0x1 ADD PUSH1 0x0 DUP4 DUP2 MSTORE PUSH1 0x20 ADD SWAP1 DUP2 MSTORE PUSH1 0x20 ADD PUSH1 0x0 KECCAK256 PUSH1 0x2 ADD PUSH1 0x4 SWAP1 SLOAD SWAP1 PUSH2 0x100 EXP SWAP1 DIV PUSH1 0x3 SIGNEXTEND PUSH1 0x3 SIGNEXTEND PUSH1 0x7 PUSH1 0x2 ADD PUSH1 0x0 DUP8 DUP2 MSTORE PUSH1 0x20 ADD SWAP1 DUP2 MSTORE PUSH1 0x20 ADD PUSH1 0x0 KECCAK256 SLOAD ADD SWAP1 POP PUSH1 0x0 PUSH1 0x7 PUSH1 0x2 ADD PUSH1 0x0 DUP6 PUSH1 0x1 ADD PUSH1 0x0 DUP7 DUP2 MSTORE PUSH1 0x20 ADD SWAP1 DUP2 MSTORE PUSH1 0x20 ADD PUSH1 0x0 KECCAK256 PUSH1 0x1 ADD SLOAD DUP2 MSTORE PUSH1 0x20 ADD SWAP1 DUP2 MSTORE PUSH1 0x20 ADD PUSH1 0x0 KECCAK256 SLOAD EQ DUP1 PUSH2 0x1DE4 JUMPI POP PUSH1 0x7 PUSH1 0x2 ADD PUSH1 0x0 DUP5 PUSH1 0x1 ADD PUSH1 0x0 DUP6 DUP2 MSTORE PUSH1 0x20 ADD SWAP1 DUP2 MSTORE PUSH1 0x20 ADD PUSH1 0x0 KECCAK256 PUSH1 0x1 ADD SLOAD DUP2 MSTORE PUSH1 0x20 ADD SWAP1 DUP2 MSTORE PUSH1 0x20 ADD PUSH1 0x0 KECCAK256 SLOAD DUP2 LT JUMPDEST ISZERO PUSH2 0x1FA8 JUMPI PUSH1 0x0 PUSH1 0x7 PUSH1 0x2 ADD PUSH1 0x0 DUP6 PUSH1 0x1 ADD PUSH1 0x0 DUP7 DUP2 MSTORE PUSH1 0x20 ADD SWAP1 DUP2 MSTORE PUSH1 0x20 ADD PUSH1 0x0 KECCAK256 PUSH1 0x1 ADD SLOAD DUP2 MSTORE PUSH1 0x20 ADD SWAP1 DUP2 MSTORE PUSH1 0x20 ADD PUSH1 0x0 KECCAK256 SLOAD EQ ISZERO PUSH2 0x1E6E JUMPI DUP3 PUSH1 0x1 ADD PUSH1 0x0 DUP4 DUP2 MSTORE PUSH1 0x20 ADD SWAP1 DUP2 MSTORE PUSH1 0x20 ADD PUSH1 0x0 KECCAK256 PUSH1 0x1 ADD SLOAD PUSH1 0x7 PUSH1 0x1 ADD PUSH1 0x0 PUSH1 0x7 PUSH1 0x0 ADD SLOAD DUP2 MSTORE PUSH1 0x20 ADD SWAP1 DUP2 MSTORE PUSH1 0x20 ADD PUSH1 0x0 KECCAK256 DUP2 SWAP1 SSTORE POP PUSH1 0x7 PUSH1 0x0 ADD PUSH1 0x0 DUP2 SLOAD DUP1 SWAP3 SWAP2 SWAP1 PUSH1 0x1 ADD SWAP2 SWAP1 POP SSTORE POP JUMPDEST DUP1 PUSH1 0x7 PUSH1 0x2 ADD PUSH1 0x0 DUP6 PUSH1 0x1 ADD PUSH1 0x0 DUP7 DUP2 MSTORE PUSH1 0x20 ADD SWAP1 DUP2 MSTORE PUSH1 0x20 ADD PUSH1 0x0 KECCAK256 PUSH1 0x1 ADD SLOAD DUP2 MSTORE PUSH1 0x20 ADD SWAP1 DUP2 MSTORE PUSH1 0x20 ADD PUSH1 0x0 KECCAK256 DUP2 SWAP1 SSTORE POP PUSH2 0x1EC3 DUP4 PUSH1 0x1 ADD PUSH1 0x0 DUP5 DUP2 MSTORE PUSH1 0x20 ADD SWAP1 DUP2 MSTORE PUSH1 0x20 ADD PUSH1 0x0 KECCAK256 PUSH1 0x1 ADD SLOAD DUP10 PUSH2 0x10E6 JUMP JUMPDEST PUSH1 0x3 SLOAD DUP3 MUL ADD SWAP4 POP PUSH2 0x1EED DUP4 PUSH1 0x1 ADD PUSH1 0x0 DUP5 DUP2 MSTORE PUSH1 0x20 ADD SWAP1 DUP2 MSTORE PUSH1 0x20 ADD PUSH1 0x0 KECCAK256 PUSH1 0x1 ADD SLOAD DUP6 PUSH2 0x905 JUMP JUMPDEST PUSH1 0x0 DUP1 SHL PUSH1 0x4 PUSH1 0x2 ADD PUSH1 0x0 DUP6 PUSH1 0x1 ADD PUSH1 0x0 DUP7 DUP2 MSTORE PUSH1 0x20 ADD SWAP1 DUP2 MSTORE PUSH1 0x20 ADD PUSH1 0x0 KECCAK256 PUSH1 0x1 ADD SLOAD DUP2 MSTORE PUSH1 0x20 ADD SWAP1 DUP2 MSTORE PUSH1 0x20 ADD PUSH1 0x0 KECCAK256 SLOAD EQ ISZERO PUSH2 0x1F74 JUMPI DUP3 PUSH1 0x1 ADD PUSH1 0x0 DUP4 DUP2 MSTORE PUSH1 0x20 ADD SWAP1 DUP2 MSTORE PUSH1 0x20 ADD PUSH1 0x0 KECCAK256 PUSH1 0x1 ADD SLOAD PUSH1 0x4 PUSH1 0x1 ADD PUSH1 0x0 PUSH1 0x4 PUSH1 0x0 ADD SLOAD DUP2 MSTORE PUSH1 0x20 ADD SWAP1 DUP2 MSTORE PUSH1 0x20 ADD PUSH1 0x0 KECCAK256 DUP2 SWAP1 SSTORE POP PUSH1 0x4 PUSH1 0x0 ADD PUSH1 0x0 DUP2 SLOAD DUP1 SWAP3 SWAP2 SWAP1 PUSH1 0x1 ADD SWAP2 SWAP1 POP SSTORE POP JUMPDEST DUP5 PUSH1 0x4 PUSH1 0x2 ADD PUSH1 0x0 DUP6 PUSH1 0x1 ADD PUSH1 0x0 DUP7 DUP2 MSTORE PUSH1 0x20 ADD SWAP1 DUP2 MSTORE PUSH1 0x20 ADD PUSH1 0x0 KECCAK256 PUSH1 0x1 ADD SLOAD DUP2 MSTORE PUSH1 0x20 ADD SWAP1 DUP2 MSTORE PUSH1 0x20 ADD PUSH1 0x0 KECCAK256 DUP2 SWAP1 SSTORE POP JUMPDEST POP DUP1 DUP1 PUSH1 0x1 ADD SWAP2 POP POP PUSH2 0x1D17 JUMP JUMPDEST POP POP PUSH2 0x1B02 JUMP JUMPDEST POP POP SWAP3 POP SWAP3 SWAP1 POP JUMP JUMPDEST PUSH1 0x0 DUP2 PUSH1 0xA DUP2 SWAP1 SSTORE POP PUSH1 0xA SLOAD SWAP1 POP SWAP2 SWAP1 POP JUMP JUMPDEST PUSH1 0x0 PUSH1 0x1 PUSH1 0x0 DUP5 DUP2 MSTORE PUSH1 0x20 ADD SWAP1 DUP2 MSTORE PUSH1 0x20 ADD PUSH1 0x0 KECCAK256 PUSH1 0x0 ADD PUSH1 0x0 DUP2 SLOAD DUP1 SWAP3 SWAP2 SWAP1 PUSH1 0x1 ADD SWAP2 SWAP1 POP SSTORE SWAP1 POP DUP2 PUSH1 0x1 PUSH1 0x0 DUP6 DUP2 MSTORE PUSH1 0x20 ADD SWAP1 DUP2 MSTORE PUSH1 0x20 ADD PUSH1 0x0 KECCAK256 PUSH1 0x1 ADD PUSH1 0x0 DUP4 DUP2 MSTORE PUSH1 0x20 ADD SWAP1 DUP2 MSTORE PUSH1 0x20 ADD PUSH1 0x0 KECCAK256 DUP2 SWAP1 SSTORE POP POP POP POP JUMP JUMPDEST PUSH1 0x60 DUP1 PUSH1 0x0 DUP5 SWAP1 POP PUSH1 0x0 DUP5 SWAP1 POP PUSH1 0x0 PUSH1 0x20 PUSH1 0xFF AND SWAP1 POP PUSH1 0x0 DUP1 PUSH1 0x0 SWAP1 POP PUSH1 0x0 SWAP2 POP JUMPDEST DUP3 DUP3 LT ISZERO PUSH2 0x20D8 JUMPI DUP4 DUP3 PUSH1 0x20 DUP2 LT PUSH2 0x2069 JUMPI INVALID JUMPDEST BYTE PUSH1 0xF8 SHL PUSH31 0xFFFFFFFFFFFFFFFFFFFFFFFFFFFFFFFFFFFFFFFFFFFFFFFFFFFFFFFFFFFFFF NOT AND DUP6 DUP4 PUSH1 0x20 DUP2 LT PUSH2 0x209B JUMPI INVALID JUMPDEST BYTE PUSH1 0xF8 SHL PUSH31 0xFFFFFFFFFFFFFFFFFFFFFFFFFFFFFFFFFFFFFFFFFFFFFFFFFFFFFFFFFFFFFF NOT AND EQ PUSH2 0x20CB JUMPI PUSH2 0x20D8 JUMP JUMPDEST DUP2 DUP1 PUSH1 0x1 ADD SWAP3 POP POP PUSH2 0x2055 JUMP JUMPDEST DUP2 PUSH1 0xA SLOAD SUB SWAP1 POP PUSH1 0x0 DUP1 SWAP1 POP PUSH1 0x60 DUP3 PUSH1 0x40 MLOAD SWAP1 DUP1 DUP3 MSTORE DUP1 PUSH1 0x1F ADD PUSH1 0x1F NOT AND PUSH1 0x20 ADD DUP3 ADD PUSH1 0x40 MSTORE DUP1 ISZERO PUSH2 0x2119 JUMPI DUP2 PUSH1 0x20 ADD PUSH1 0x1 DUP3 MUL DUP1 CODESIZE DUP4 CODECOPY DUP1 DUP3 ADD SWAP2 POP POP SWAP1 POP JUMPDEST POP SWAP1 POP PUSH1 0x60 DUP4 PUSH1 0x40 MLOAD SWAP1 DUP1 DUP3 MSTORE DUP1 PUSH1 0x1F ADD PUSH1 0x1F NOT AND PUSH1 0x20 ADD DUP3 ADD PUSH1 0x40 MSTORE DUP1 ISZERO PUSH2 0x2151 JUMPI DUP2 PUSH1 0x20 ADD PUSH1 0x1 DUP3 MUL DUP1 CODESIZE DUP4 CODECOPY DUP1 DUP3 ADD SWAP2 POP POP SWAP1 POP JUMPDEST POP SWAP1 POP PUSH1 0x0 DUP6 SWAP1 POP JUMPDEST PUSH1 0xA SLOAD DUP2 LT ISZERO PUSH2 0x220F JUMPI DUP9 DUP2 PUSH1 0x20 DUP2 LT PUSH2 0x2170 JUMPI INVALID JUMPDEST BYTE PUSH1 0xF8 SHL DUP4 DUP6 DUP2 MLOAD DUP2 LT PUSH2 0x2180 JUMPI INVALID JUMPDEST PUSH1 0x20 ADD ADD SWAP1 PUSH31 0xFFFFFFFFFFFFFFFFFFFFFFFFFFFFFFFFFFFFFFFFFFFFFFFFFFFFFFFFFFFFFF NOT AND SWAP1 DUP2 PUSH1 0x0 BYTE SWAP1 MSTORE8 POP DUP8 DUP2 PUSH1 0x20 DUP2 LT PUSH2 0x21BB JUMPI INVALID JUMPDEST BYTE PUSH1 0xF8 SHL DUP3 DUP6 DUP2 MLOAD DUP2 LT PUSH2 0x21CB JUMPI INVALID JUMPDEST PUSH1 0x20 ADD ADD SWAP1 PUSH31 0xFFFFFFFFFFFFFFFFFFFFFFFFFFFFFFFFFFFFFFFFFFFFFFFFFFFFFFFFFFFFFF NOT AND SWAP1 DUP2 PUSH1 0x0 BYTE SWAP1 MSTORE8 POP DUP4 DUP1 PUSH1 0x1 ADD SWAP5 POP POP DUP1 DUP1 PUSH1 0x1 ADD SWAP2 POP POP PUSH2 0x215A JUMP JUMPDEST POP DUP2 DUP2 SWAP10 POP SWAP10 POP POP POP POP POP POP POP POP POP SWAP3 POP SWAP3 SWAP1 POP JUMP JUMPDEST PUSH1 0x0 PUSH1 0x1 PUSH1 0xD PUSH1 0x0 ADD DUP1 SLOAD SWAP1 POP GT PUSH2 0x223C JUMPI PUSH1 0x0 DUP1 REVERT JUMPDEST PUSH1 0xD PUSH1 0x0 ADD PUSH1 0x1 DUP2 SLOAD DUP2 LT PUSH2 0x224D JUMPI INVALID JUMPDEST SWAP1 PUSH1 0x0 MSTORE PUSH1 0x20 PUSH1 0x0 KECCAK256 ADD SLOAD SWAP1 POP SWAP1 JUMP INVALID LOG2 PUSH6 0x627A7A723158 KECCAK256 0x21 0x2B 0xD5 DUP9 0xDF SMOD PUSH31 0x96181E57DA836AF8261B32FA49EB4E92CDEF53377EC7F2E3D464736F6C6343 STOP SDIV GT STOP ORIGIN "
				},
				"gasEstimates": {
					"creation": {
						"codeDepositCost": "1770000",
						"executionCost": "infinite",
						"totalCost": "infinite"
					},
					"external": {
						"add_area_line(bytes32,uint256)": "41406",
						"add_onetype(uint256,int32,int32,int32,int32,bool,bool,bytes32,bytes32,bytes32,bytes32[])": "infinite",
						"adjacencyList(bytes32)": "1200",
						"astar(bytes32,bytes32)": "infinite",
						"changeP(uint256)": "21181",
						"changePrecision(uint256)": "21136",
						"dequeue()": "infinite",
						"enqueue(bytes32,uint256)": "infinite",
						"geo_maps(bytes32)": "1222",
						"getLatBlock(string)": "infinite",
						"getLonBlock(string)": "infinite",
						"get_types(bytes32)": "infinite",
						"manhattan(bytes32,bytes32)": "infinite",
						"sliceGeoHash(bytes32,bytes32)": "infinite",
						"top()": "2824"
					}
				},
				"methodIdentifiers": {
					"add_area_line(bytes32,uint256)": "f90e5ca9",
					"add_onetype(uint256,int32,int32,int32,int32,bool,bool,bytes32,bytes32,bytes32,bytes32[])": "7f6d50c9",
					"adjacencyList(bytes32)": "bc6331da",
					"astar(bytes32,bytes32)": "d1cf2408",
					"changeP(uint256)": "cd3d7196",
					"changePrecision(uint256)": "d35a1d0d",
					"dequeue()": "957908d1",
					"enqueue(bytes32,uint256)": "13372041",
					"geo_maps(bytes32)": "cbf3b01e",
					"getLatBlock(string)": "68ba6df9",
					"getLonBlock(string)": "44cf2cd7",
					"get_types(bytes32)": "3fb80582",
					"manhattan(bytes32,bytes32)": "53f065fd",
					"sliceGeoHash(bytes32,bytes32)": "fdcd80aa",
					"top()": "fe6dcdba"
				}
			},
			"storageLayout": {
				"storage": [
					{
						"astId": 30,
						"contract": "Contracts/StoreMap.sol:StoreMap",
						"label": "types",
						"offset": 0,
						"slot": "0",
						"type": "t_mapping(t_uint256,t_struct(one_type)26_storage)"
					},
					{
						"astId": 41,
						"contract": "Contracts/StoreMap.sol:StoreMap",
						"label": "geo_maps",
						"offset": 0,
						"slot": "1",
						"type": "t_mapping(t_bytes32,t_struct(area_types)37_storage)"
					},
					{
						"astId": 63,
						"contract": "Contracts/StoreMap.sol:StoreMap",
						"label": "adjacencyList",
						"offset": 0,
						"slot": "2",
						"type": "t_mapping(t_bytes32,t_struct(adj_types)59_storage)"
					},
					{
						"astId": 66,
						"contract": "Contracts/StoreMap.sol:StoreMap",
						"label": "P",
						"offset": 0,
						"slot": "3",
						"type": "t_uint256"
					},
					{
						"astId": 90,
						"contract": "Contracts/StoreMap.sol:StoreMap",
						"label": "paths",
						"offset": 0,
						"slot": "4",
						"type": "t_struct(pathType)77_storage"
					},
					{
						"astId": 92,
						"contract": "Contracts/StoreMap.sol:StoreMap",
						"label": "costSofar",
						"offset": 0,
						"slot": "7",
						"type": "t_struct(costSofarType)88_storage"
					},
					{
						"astId": 1108,
						"contract": "Contracts/StoreMap.sol:StoreMap",
						"label": "PRECISION",
						"offset": 0,
						"slot": "10",
						"type": "t_uint256"
					},
					{
						"astId": 1262,
						"contract": "Contracts/StoreMap.sol:StoreMap",
						"label": "Bits",
						"offset": 0,
						"slot": "11",
						"type": "t_array(t_uint256)dyn_storage"
					},
					{
						"astId": 1265,
						"contract": "Contracts/StoreMap.sol:StoreMap",
						"label": "Base32",
						"offset": 0,
						"slot": "12",
						"type": "t_string_storage"
					},
					{
						"astId": 1514,
						"contract": "Contracts/StoreMap.sol:StoreMap",
						"label": "frontier",
						"offset": 0,
						"slot": "13",
						"type": "t_struct(Heap)1512_storage"
					}
				],
				"types": {
					"t_array(t_bytes32)dyn_storage": {
						"base": "t_bytes32",
						"encoding": "dynamic_array",
						"label": "bytes32[]",
						"numberOfBytes": "32"
					},
					"t_array(t_uint256)dyn_storage": {
						"base": "t_uint256",
						"encoding": "dynamic_array",
						"label": "uint256[]",
						"numberOfBytes": "32"
					},
					"t_bool": {
						"encoding": "inplace",
						"label": "bool",
						"numberOfBytes": "1"
					},
					"t_bytes32": {
						"encoding": "inplace",
						"label": "bytes32",
						"numberOfBytes": "32"
					},
					"t_int32": {
						"encoding": "inplace",
						"label": "int32",
						"numberOfBytes": "4"
					},
					"t_mapping(t_bytes32,t_bytes32)": {
						"encoding": "mapping",
						"key": "t_bytes32",
						"label": "mapping(bytes32 => bytes32)",
						"numberOfBytes": "32",
						"value": "t_bytes32"
					},
					"t_mapping(t_bytes32,t_struct(adj_types)59_storage)": {
						"encoding": "mapping",
						"key": "t_bytes32",
						"label": "mapping(bytes32 => struct StoreMap.adj_types)",
						"numberOfBytes": "32",
						"value": "t_struct(adj_types)59_storage"
					},
					"t_mapping(t_bytes32,t_struct(area_types)37_storage)": {
						"encoding": "mapping",
						"key": "t_bytes32",
						"label": "mapping(bytes32 => struct StoreMap.area_types)",
						"numberOfBytes": "32",
						"value": "t_struct(area_types)37_storage"
					},
					"t_mapping(t_bytes32,t_uint256)": {
						"encoding": "mapping",
						"key": "t_bytes32",
						"label": "mapping(bytes32 => uint256)",
						"numberOfBytes": "32",
						"value": "t_uint256"
					},
					"t_mapping(t_uint256,t_bytes32)": {
						"encoding": "mapping",
						"key": "t_uint256",
						"label": "mapping(uint256 => bytes32)",
						"numberOfBytes": "32",
						"value": "t_bytes32"
					},
					"t_mapping(t_uint256,t_struct(adj)52_storage)": {
						"encoding": "mapping",
						"key": "t_uint256",
						"label": "mapping(uint256 => struct StoreMap.adj)",
						"numberOfBytes": "32",
						"value": "t_struct(adj)52_storage"
					},
					"t_mapping(t_uint256,t_struct(one_type)26_storage)": {
						"encoding": "mapping",
						"key": "t_uint256",
						"label": "mapping(uint256 => struct StoreMap.one_type)",
						"numberOfBytes": "32",
						"value": "t_struct(one_type)26_storage"
					},
					"t_mapping(t_uint256,t_uint256)": {
						"encoding": "mapping",
						"key": "t_uint256",
						"label": "mapping(uint256 => uint256)",
						"numberOfBytes": "32",
						"value": "t_uint256"
					},
					"t_string_storage": {
						"encoding": "bytes",
						"label": "string",
						"numberOfBytes": "32"
					},
					"t_struct(Heap)1512_storage": {
						"encoding": "inplace",
						"label": "struct StoreMap.Heap",
						"members": [
							{
								"astId": 1507,
								"contract": "Contracts/StoreMap.sol:StoreMap",
								"label": "geohashs",
								"offset": 0,
								"slot": "0",
								"type": "t_array(t_bytes32)dyn_storage"
							},
							{
								"astId": 1511,
								"contract": "Contracts/StoreMap.sol:StoreMap",
								"label": "map",
								"offset": 0,
								"slot": "1",
								"type": "t_mapping(t_bytes32,t_uint256)"
							}
						],
						"numberOfBytes": "64"
					},
					"t_struct(adj)52_storage": {
						"encoding": "inplace",
						"label": "struct StoreMap.adj",
						"members": [
							{
								"astId": 43,
								"contract": "Contracts/StoreMap.sol:StoreMap",
								"label": "sourceGeohash",
								"offset": 0,
								"slot": "0",
								"type": "t_bytes32"
							},
							{
								"astId": 45,
								"contract": "Contracts/StoreMap.sol:StoreMap",
								"label": "targetGeohash",
								"offset": 0,
								"slot": "1",
								"type": "t_bytes32"
							},
							{
								"astId": 47,
								"contract": "Contracts/StoreMap.sol:StoreMap",
								"label": "target",
								"offset": 0,
								"slot": "2",
								"type": "t_int32"
							},
							{
								"astId": 49,
								"contract": "Contracts/StoreMap.sol:StoreMap",
								"label": "cost",
								"offset": 4,
								"slot": "2",
								"type": "t_int32"
							},
							{
								"astId": 51,
								"contract": "Contracts/StoreMap.sol:StoreMap",
								"label": "gid",
								"offset": 8,
								"slot": "2",
								"type": "t_int32"
							}
						],
						"numberOfBytes": "96"
					},
					"t_struct(adj_types)59_storage": {
						"encoding": "inplace",
						"label": "struct StoreMap.adj_types",
						"members": [
							{
								"astId": 54,
								"contract": "Contracts/StoreMap.sol:StoreMap",
								"label": "adjnum",
								"offset": 0,
								"slot": "0",
								"type": "t_uint256"
							},
							{
								"astId": 58,
								"contract": "Contracts/StoreMap.sol:StoreMap",
								"label": "adjs",
								"offset": 0,
								"slot": "1",
								"type": "t_mapping(t_uint256,t_struct(adj)52_storage)"
							}
						],
						"numberOfBytes": "64"
					},
					"t_struct(area_types)37_storage": {
						"encoding": "inplace",
						"label": "struct StoreMap.area_types",
						"members": [
							{
								"astId": 32,
								"contract": "Contracts/StoreMap.sol:StoreMap",
								"label": "num",
								"offset": 0,
								"slot": "0",
								"type": "t_uint256"
							},
							{
								"astId": 36,
								"contract": "Contracts/StoreMap.sol:StoreMap",
								"label": "types_list",
								"offset": 0,
								"slot": "1",
								"type": "t_mapping(t_uint256,t_uint256)"
							}
						],
						"numberOfBytes": "64"
					},
					"t_struct(costSofarType)88_storage": {
						"encoding": "inplace",
						"label": "struct StoreMap.costSofarType",
						"members": [
							{
								"astId": 79,
								"contract": "Contracts/StoreMap.sol:StoreMap",
								"label": "num",
								"offset": 0,
								"slot": "0",
								"type": "t_uint256"
							},
							{
								"astId": 83,
								"contract": "Contracts/StoreMap.sol:StoreMap",
								"label": "index",
								"offset": 0,
								"slot": "1",
								"type": "t_mapping(t_uint256,t_bytes32)"
							},
							{
								"astId": 87,
								"contract": "Contracts/StoreMap.sol:StoreMap",
								"label": "map",
								"offset": 0,
								"slot": "2",
								"type": "t_mapping(t_bytes32,t_uint256)"
							}
						],
						"numberOfBytes": "96"
					},
					"t_struct(one_type)26_storage": {
						"encoding": "inplace",
						"label": "struct StoreMap.one_type",
						"members": [
							{
								"astId": 3,
								"contract": "Contracts/StoreMap.sol:StoreMap",
								"label": "minzoom",
								"offset": 0,
								"slot": "0",
								"type": "t_int32"
							},
							{
								"astId": 5,
								"contract": "Contracts/StoreMap.sol:StoreMap",
								"label": "cost",
								"offset": 4,
								"slot": "0",
								"type": "t_int32"
							},
							{
								"astId": 7,
								"contract": "Contracts/StoreMap.sol:StoreMap",
								"label": "oneway",
								"offset": 8,
								"slot": "0",
								"type": "t_bool"
							},
							{
								"astId": 9,
								"contract": "Contracts/StoreMap.sol:StoreMap",
								"label": "building",
								"offset": 9,
								"slot": "0",
								"type": "t_bool"
							},
							{
								"astId": 11,
								"contract": "Contracts/StoreMap.sol:StoreMap",
								"label": "highway",
								"offset": 0,
								"slot": "1",
								"type": "t_bytes32"
							},
							{
								"astId": 13,
								"contract": "Contracts/StoreMap.sol:StoreMap",
								"label": "name",
								"offset": 0,
								"slot": "2",
								"type": "t_bytes32"
							},
							{
								"astId": 15,
								"contract": "Contracts/StoreMap.sol:StoreMap",
								"label": "source",
								"offset": 0,
								"slot": "3",
								"type": "t_int32"
							},
							{
								"astId": 17,
								"contract": "Contracts/StoreMap.sol:StoreMap",
								"label": "target",
								"offset": 4,
								"slot": "3",
								"type": "t_int32"
							},
							{
								"astId": 19,
								"contract": "Contracts/StoreMap.sol:StoreMap",
								"label": "gtype",
								"offset": 0,
								"slot": "4",
								"type": "t_bytes32"
							},
							{
								"astId": 21,
								"contract": "Contracts/StoreMap.sol:StoreMap",
								"label": "path_num",
								"offset": 0,
								"slot": "5",
								"type": "t_uint256"
							},
							{
								"astId": 25,
								"contract": "Contracts/StoreMap.sol:StoreMap",
								"label": "path",
								"offset": 0,
								"slot": "6",
								"type": "t_mapping(t_uint256,t_bytes32)"
							}
						],
						"numberOfBytes": "224"
					},
					"t_struct(pathType)77_storage": {
						"encoding": "inplace",
						"label": "struct StoreMap.pathType",
						"members": [
							{
								"astId": 68,
								"contract": "Contracts/StoreMap.sol:StoreMap",
								"label": "num",
								"offset": 0,
								"slot": "0",
								"type": "t_uint256"
							},
							{
								"astId": 72,
								"contract": "Contracts/StoreMap.sol:StoreMap",
								"label": "index",
								"offset": 0,
								"slot": "1",
								"type": "t_mapping(t_uint256,t_bytes32)"
							},
							{
								"astId": 76,
								"contract": "Contracts/StoreMap.sol:StoreMap",
								"label": "map",
								"offset": 0,
								"slot": "2",
								"type": "t_mapping(t_bytes32,t_bytes32)"
							}
						],
						"numberOfBytes": "96"
					},
					"t_uint256": {
						"encoding": "inplace",
						"label": "uint256",
						"numberOfBytes": "32"
					}
				}
			},
			"userdoc": {
				"methods": {}
			}
		}
	}
}