{
	"Contracts/StoreTraffic.sol": {
		"StoreTraffic": {
			"abi": [
				{
					"anonymous": false,
					"inputs": [
						{
							"indexed": false,
							"internalType": "bytes32",
							"name": "vehicleId",
							"type": "bytes32"
						},
						{
							"indexed": false,
							"internalType": "bytes32",
							"name": "passengerId",
							"type": "bytes32"
						},
						{
							"indexed": false,
							"internalType": "bytes32",
							"name": "passengerGeohash",
							"type": "bytes32"
						}
					],
					"name": "Myevent",
					"type": "event"
				},
				{
					"anonymous": false,
					"inputs": [
						{
							"indexed": false,
							"internalType": "bytes32",
							"name": "vehicleId",
							"type": "bytes32"
						}
					],
					"name": "boardEvent",
					"type": "event"
				},
				{
					"anonymous": false,
					"inputs": [
						{
							"indexed": false,
							"internalType": "bytes32",
							"name": "vehicleId",
							"type": "bytes32"
						}
					],
					"name": "payEvent",
					"type": "event"
				},
				{
					"anonymous": false,
					"inputs": [
						{
							"indexed": false,
							"internalType": "bytes32",
							"name": "passengerId",
							"type": "bytes32"
						}
					],
					"name": "rejectEvent",
					"type": "event"
				},
				{
					"anonymous": false,
					"inputs": [
						{
							"indexed": false,
							"internalType": "bytes32",
							"name": "passengerId",
							"type": "bytes32"
						}
					],
					"name": "routeEvent",
					"type": "event"
				},
				{
					"constant": false,
					"inputs": [
						{
							"internalType": "uint256",
							"name": "newPrecision",
							"type": "uint256"
						}
					],
					"name": "changePrecision",
					"outputs": [
						{
							"internalType": "uint256",
							"name": "",
							"type": "uint256"
						}
					],
					"payable": false,
					"stateMutability": "nonpayable",
					"type": "function"
				},
				{
					"constant": false,
					"inputs": [
						{
							"internalType": "bytes32",
							"name": "vehicleId",
							"type": "bytes32"
						}
					],
					"name": "confirmBoard",
					"outputs": [],
					"payable": false,
					"stateMutability": "nonpayable",
					"type": "function"
				},
				{
					"constant": false,
					"inputs": [
						{
							"internalType": "bytes32",
							"name": "vehicleId",
							"type": "bytes32"
						}
					],
					"name": "confirmPay",
					"outputs": [],
					"payable": false,
					"stateMutability": "nonpayable",
					"type": "function"
				},
				{
					"constant": false,
					"inputs": [
						{
							"internalType": "bytes32",
							"name": "vehicleId",
							"type": "bytes32"
						}
					],
					"name": "deleteVehicle",
					"outputs": [],
					"payable": false,
					"stateMutability": "nonpayable",
					"type": "function"
				},
				{
					"constant": true,
					"inputs": [
						{
							"internalType": "string",
							"name": "geohash",
							"type": "string"
						}
					],
					"name": "getLatBlock",
					"outputs": [
						{
							"internalType": "uint256",
							"name": "",
							"type": "uint256"
						}
					],
					"payable": false,
					"stateMutability": "view",
					"type": "function"
				},
				{
					"constant": true,
					"inputs": [
						{
							"internalType": "string",
							"name": "geohash",
							"type": "string"
						}
					],
					"name": "getLonBlock",
					"outputs": [
						{
							"internalType": "uint256",
							"name": "",
							"type": "uint256"
						}
					],
					"payable": false,
					"stateMutability": "view",
					"type": "function"
				},
				{
					"constant": false,
					"inputs": [
						{
							"internalType": "bytes32",
							"name": "passengerId",
							"type": "bytes32"
						}
					],
					"name": "getPassengerEnd",
					"outputs": [
						{
							"internalType": "bytes32",
							"name": "end",
							"type": "bytes32"
						}
					],
					"payable": false,
					"stateMutability": "nonpayable",
					"type": "function"
				},
				{
					"constant": true,
					"inputs": [
						{
							"internalType": "bytes32",
							"name": "passengerId",
							"type": "bytes32"
						}
					],
					"name": "getPassengerPos",
					"outputs": [
						{
							"internalType": "bytes32",
							"name": "position",
							"type": "bytes32"
						}
					],
					"payable": false,
					"stateMutability": "view",
					"type": "function"
				},
				{
					"constant": true,
					"inputs": [
						{
							"internalType": "bytes32",
							"name": "vehicleId",
							"type": "bytes32"
						}
					],
					"name": "getRoutes",
					"outputs": [
						{
							"internalType": "bytes32[]",
							"name": "route",
							"type": "bytes32[]"
						},
						{
							"internalType": "uint256",
							"name": "cost",
							"type": "uint256"
						}
					],
					"payable": false,
					"stateMutability": "view",
					"type": "function"
				},
				{
					"constant": true,
					"inputs": [
						{
							"internalType": "bytes32",
							"name": "passengerGeohash",
							"type": "bytes32"
						}
					],
					"name": "getVehicle",
					"outputs": [
						{
							"internalType": "bytes32",
							"name": "",
							"type": "bytes32"
						},
						{
							"internalType": "bytes32",
							"name": "",
							"type": "bytes32"
						}
					],
					"payable": false,
					"stateMutability": "view",
					"type": "function"
				},
				{
					"constant": true,
					"inputs": [
						{
							"internalType": "bytes32",
							"name": "passengerGeohash",
							"type": "bytes32"
						},
						{
							"internalType": "bytes32[]",
							"name": "regionVehicles",
							"type": "bytes32[]"
						}
					],
					"name": "getVehicleByRegion",
					"outputs": [
						{
							"internalType": "bytes32",
							"name": "",
							"type": "bytes32"
						},
						{
							"internalType": "bytes32",
							"name": "",
							"type": "bytes32"
						}
					],
					"payable": false,
					"stateMutability": "view",
					"type": "function"
				},
				{
					"constant": true,
					"inputs": [
						{
							"internalType": "bytes32",
							"name": "vehicleId",
							"type": "bytes32"
						}
					],
					"name": "getVehicleStatus",
					"outputs": [
						{
							"internalType": "int32",
							"name": "",
							"type": "int32"
						}
					],
					"payable": false,
					"stateMutability": "view",
					"type": "function"
				},
				{
					"constant": false,
					"inputs": [
						{
							"internalType": "bytes32",
							"name": "passengerId",
							"type": "bytes32"
						},
						{
							"internalType": "bytes32",
							"name": "geohash",
							"type": "bytes32"
						}
					],
					"name": "initPassenger",
					"outputs": [],
					"payable": false,
					"stateMutability": "nonpayable",
					"type": "function"
				},
				{
					"constant": false,
					"inputs": [
						{
							"internalType": "bytes32",
							"name": "vehicleId",
							"type": "bytes32"
						},
						{
							"internalType": "bytes32",
							"name": "geohash",
							"type": "bytes32"
						}
					],
					"name": "initVehicle",
					"outputs": [],
					"payable": false,
					"stateMutability": "nonpayable",
					"type": "function"
				},
				{
					"constant": true,
					"inputs": [
						{
							"internalType": "bytes32",
							"name": "nextGeohash",
							"type": "bytes32"
						},
						{
							"internalType": "bytes32",
							"name": "endGeohash",
							"type": "bytes32"
						}
					],
					"name": "manhattan",
					"outputs": [
						{
							"internalType": "uint256",
							"name": "",
							"type": "uint256"
						}
					],
					"payable": false,
					"stateMutability": "view",
					"type": "function"
				},
				{
					"constant": false,
					"inputs": [
						{
							"internalType": "bytes32",
							"name": "passengerId",
							"type": "bytes32"
						},
						{
							"internalType": "bytes32",
							"name": "startGeohash",
							"type": "bytes32"
						},
						{
							"internalType": "bytes32",
							"name": "endGeohash",
							"type": "bytes32"
						}
					],
					"name": "setPassengerDemand",
					"outputs": [],
					"payable": false,
					"stateMutability": "nonpayable",
					"type": "function"
				},
				{
					"constant": false,
					"inputs": [
						{
							"internalType": "bytes32",
							"name": "passengerId",
							"type": "bytes32"
						},
						{
							"internalType": "bytes32",
							"name": "passengerGeohash",
							"type": "bytes32"
						}
					],
					"name": "setPassengerPosition",
					"outputs": [],
					"payable": false,
					"stateMutability": "nonpayable",
					"type": "function"
				},
				{
					"constant": false,
					"inputs": [
						{
							"internalType": "bytes32",
							"name": "vehicleId",
							"type": "bytes32"
						},
						{
							"internalType": "bytes32",
							"name": "passengerId",
							"type": "bytes32"
						}
					],
					"name": "setRejectVehicleStatus",
					"outputs": [],
					"payable": false,
					"stateMutability": "nonpayable",
					"type": "function"
				},
				{
					"constant": false,
					"inputs": [
						{
							"internalType": "bytes32",
							"name": "vehicleId",
							"type": "bytes32"
						},
						{
							"internalType": "bytes32",
							"name": "vehicleGeohash",
							"type": "bytes32"
						}
					],
					"name": "setVehicle",
					"outputs": [],
					"payable": false,
					"stateMutability": "nonpayable",
					"type": "function"
				},
				{
					"constant": false,
					"inputs": [
						{
							"internalType": "bytes32",
							"name": "vehicleId",
							"type": "bytes32"
						},
						{
							"internalType": "bytes32",
							"name": "passengerId",
							"type": "bytes32"
						},
						{
							"internalType": "bytes32",
							"name": "passengerGeohash",
							"type": "bytes32"
						}
					],
					"name": "setVehicleStatus",
					"outputs": [],
					"payable": false,
					"stateMutability": "nonpayable",
					"type": "function"
				},
				{
					"constant": false,
					"inputs": [
						{
							"internalType": "bytes32",
							"name": "vehicleId",
							"type": "bytes32"
						}
					],
					"name": "setVehicleStatusEmpty",
					"outputs": [],
					"payable": false,
					"stateMutability": "nonpayable",
					"type": "function"
				},
				{
					"constant": true,
					"inputs": [
						{
							"internalType": "bytes32",
							"name": "geohash1",
							"type": "bytes32"
						},
						{
							"internalType": "bytes32",
							"name": "geohash2",
							"type": "bytes32"
						}
					],
					"name": "sliceGeoHash",
					"outputs": [
						{
							"internalType": "string",
							"name": "",
							"type": "string"
						},
						{
							"internalType": "string",
							"name": "",
							"type": "string"
						}
					],
					"payable": false,
					"stateMutability": "view",
					"type": "function"
				},
				{
					"constant": false,
					"inputs": [
						{
							"internalType": "uint256",
							"name": "cost",
							"type": "uint256"
						},
						{
							"internalType": "bytes32",
							"name": "vehicleId",
							"type": "bytes32"
						},
						{
							"internalType": "bytes32",
							"name": "passengerId",
							"type": "bytes32"
						},
						{
							"internalType": "bytes32[]",
							"name": "route",
							"type": "bytes32[]"
						}
					],
					"name": "storeRoutes",
					"outputs": [],
					"payable": false,
					"stateMutability": "nonpayable",
					"type": "function"
				}
			],
			"devdoc": {
				"methods": {}
			},
			"evm": {
				"assembly": "    /* \"Contracts/StoreTraffic.sol\":26:10036  contract StoreTraffic {... */\n  mstore(0x40, 0x80)\n    /* \"Contracts/StoreTraffic.sol\":1503:1504  0 */\n  0x00\n    /* \"Contracts/StoreTraffic.sol\":1478:1504  uint256 vehiclesLength = 0 */\n  0x03\n  sstore\n    /* \"Contracts/StoreTraffic.sol\":4946:4947  0 */\n  0x00\n    /* \"Contracts/StoreTraffic.sol\":4919:4947  uint256 passengersLength = 0 */\n  0x06\n  sstore\n    /* \"Contracts/StoreTraffic.sol\":7163:7164  8 */\n  0x08\n    /* \"Contracts/StoreTraffic.sol\":7143:7164  uint256 PRECISION = 8 */\n  0x07\n  sstore\n    /* \"Contracts/StoreTraffic.sol\":8207:8240  uint256[] Bits = [16, 8, 4, 2, 1] */\n  mload(0x40)\n  dup1\n  0xa0\n  add\n  0x40\n  mstore\n  dup1\n    /* \"Contracts/StoreTraffic.sol\":8225:8227  16 */\n  0x10\n    /* \"Contracts/StoreTraffic.sol\":8207:8240  uint256[] Bits = [16, 8, 4, 2, 1] */\n  0xff\n  and\n  dup2\n  mstore\n  0x20\n  add\n    /* \"Contracts/StoreTraffic.sol\":8229:8230  8 */\n  0x08\n    /* \"Contracts/StoreTraffic.sol\":8207:8240  uint256[] Bits = [16, 8, 4, 2, 1] */\n  0xff\n  and\n  dup2\n  mstore\n  0x20\n  add\n    /* \"Contracts/StoreTraffic.sol\":8232:8233  4 */\n  0x04\n    /* \"Contracts/StoreTraffic.sol\":8207:8240  uint256[] Bits = [16, 8, 4, 2, 1] */\n  0xff\n  and\n  dup2\n  mstore\n  0x20\n  add\n    /* \"Contracts/StoreTraffic.sol\":8235:8236  2 */\n  0x02\n    /* \"Contracts/StoreTraffic.sol\":8207:8240  uint256[] Bits = [16, 8, 4, 2, 1] */\n  0xff\n  and\n  dup2\n  mstore\n  0x20\n  add\n    /* \"Contracts/StoreTraffic.sol\":8238:8239  1 */\n  0x01\n    /* \"Contracts/StoreTraffic.sol\":8207:8240  uint256[] Bits = [16, 8, 4, 2, 1] */\n  0xff\n  and\n  dup2\n  mstore\n  pop\n  0x08\n  swap1\n  0x05\n  tag_1\n  swap3\n  swap2\n  swap1\n  tag_2\n  jump\t// in\ntag_1:\n  pop\n    /* \"Contracts/StoreTraffic.sol\":8246:8296  string Base32 = \"0123456789bcdefghjkmnpqrstuvwxyz\" */\n  mload(0x40)\n  dup1\n  0x40\n  add\n  0x40\n  mstore\n  dup1\n  0x20\n  dup2\n  mstore\n  0x20\n  add\n  0x30313233343536373839626364656667686a6b6d6e707172737475767778797a\n  dup2\n  mstore\n  pop\n  0x09\n  swap1\n  dup1\n  mload\n  swap1\n  0x20\n  add\n  swap1\n  tag_3\n  swap3\n  swap2\n  swap1\n  tag_4\n  jump\t// in\ntag_3:\n  pop\n    /* \"Contracts/StoreTraffic.sol\":26:10036  contract StoreTraffic {... */\n  callvalue\n    /* \"--CODEGEN--\":8:17   */\n  dup1\n    /* \"--CODEGEN--\":5:7   */\n  iszero\n  tag_5\n  jumpi\n    /* \"--CODEGEN--\":30:31   */\n  0x00\n    /* \"--CODEGEN--\":27:28   */\n  dup1\n    /* \"--CODEGEN--\":20:32   */\n  revert\n    /* \"--CODEGEN--\":5:7   */\ntag_5:\n    /* \"Contracts/StoreTraffic.sol\":26:10036  contract StoreTraffic {... */\n  pop\n  jump(tag_6)\ntag_2:\n  dup3\n  dup1\n  sload\n  dup3\n  dup3\n  sstore\n  swap1\n  0x00\n  mstore\n  keccak256(0x00, 0x20)\n  swap1\n  dup2\n  add\n  swap3\n  dup3\n  iszero\n  tag_7\n  jumpi\n  swap2\n  0x20\n  mul\n  dup3\n  add\ntag_8:\n  dup3\n  dup2\n  gt\n  iszero\n  tag_9\n  jumpi\n  dup3\n  mload\n  dup3\n  swap1\n  0xff\n  and\n  swap1\n  sstore\n  swap2\n  0x20\n  add\n  swap2\n  swap1\n  0x01\n  add\n  swap1\n  jump(tag_8)\ntag_9:\ntag_7:\n  pop\n  swap1\n  pop\n  tag_10\n  swap2\n  swap1\n  tag_11\n  jump\t// in\ntag_10:\n  pop\n  swap1\n  jump\t// out\ntag_4:\n  dup3\n  dup1\n  sload\n  0x01\n  dup2\n  0x01\n  and\n  iszero\n  0x0100\n  mul\n  sub\n  and\n  0x02\n  swap1\n  div\n  swap1\n  0x00\n  mstore\n  keccak256(0x00, 0x20)\n  swap1\n  0x1f\n  add\n  0x20\n  swap1\n  div\n  dup2\n  add\n  swap3\n  dup3\n  0x1f\n  lt\n  tag_13\n  jumpi\n  dup1\n  mload\n  not(0xff)\n  and\n  dup4\n  dup1\n  add\n  or\n  dup6\n  sstore\n  jump(tag_12)\ntag_13:\n  dup3\n  dup1\n  add\n  0x01\n  add\n  dup6\n  sstore\n  dup3\n  iszero\n  tag_12\n  jumpi\n  swap2\n  dup3\n  add\ntag_14:\n  dup3\n  dup2\n  gt\n  iszero\n  tag_15\n  jumpi\n  dup3\n  mload\n  dup3\n  sstore\n  swap2\n  0x20\n  add\n  swap2\n  swap1\n  0x01\n  add\n  swap1\n  jump(tag_14)\ntag_15:\ntag_12:\n  pop\n  swap1\n  pop\n  tag_16\n  swap2\n  swap1\n  tag_11\n  jump\t// in\ntag_16:\n  pop\n  swap1\n  jump\t// out\ntag_11:\n  tag_17\n  swap2\n  swap1\ntag_18:\n  dup1\n  dup3\n  gt\n  iszero\n  tag_19\n  jumpi\n  0x00\n  dup2\n  0x00\n  swap1\n  sstore\n  pop\n  0x01\n  add\n  jump(tag_18)\ntag_19:\n  pop\n  swap1\n  jump\ntag_17:\n  swap1\n  jump\t// out\ntag_6:\n  dataSize(sub_0)\n  dup1\n  dataOffset(sub_0)\n  0x00\n  codecopy\n  0x00\n  return\nstop\n\nsub_0: assembly {\n        /* \"Contracts/StoreTraffic.sol\":26:10036  contract StoreTraffic {... */\n      mstore(0x40, 0x80)\n      callvalue\n        /* \"--CODEGEN--\":8:17   */\n      dup1\n        /* \"--CODEGEN--\":5:7   */\n      iszero\n      tag_1\n      jumpi\n        /* \"--CODEGEN--\":30:31   */\n      0x00\n        /* \"--CODEGEN--\":27:28   */\n      dup1\n        /* \"--CODEGEN--\":20:32   */\n      revert\n        /* \"--CODEGEN--\":5:7   */\n    tag_1:\n        /* \"Contracts/StoreTraffic.sol\":26:10036  contract StoreTraffic {... */\n      pop\n      jumpi(tag_2, lt(calldatasize, 0x04))\n      shr(0xe0, calldataload(0x00))\n      dup1\n      0x501df3f1\n      gt\n      tag_26\n      jumpi\n      dup1\n      0xbf5b1f9b\n      gt\n      tag_27\n      jumpi\n      dup1\n      0xbf5b1f9b\n      eq\n      tag_20\n      jumpi\n      dup1\n      0xc7e63d02\n      eq\n      tag_21\n      jumpi\n      dup1\n      0xcf23e7a6\n      eq\n      tag_22\n      jumpi\n      dup1\n      0xd35a1d0d\n      eq\n      tag_23\n      jumpi\n      dup1\n      0xe464bbd5\n      eq\n      tag_24\n      jumpi\n      dup1\n      0xfdcd80aa\n      eq\n      tag_25\n      jumpi\n      jump(tag_2)\n    tag_27:\n      dup1\n      0x501df3f1\n      eq\n      tag_14\n      jumpi\n      dup1\n      0x5265da35\n      eq\n      tag_15\n      jumpi\n      dup1\n      0x53f065fd\n      eq\n      tag_16\n      jumpi\n      dup1\n      0x56f90ed4\n      eq\n      tag_17\n      jumpi\n      dup1\n      0x68ba6df9\n      eq\n      tag_18\n      jumpi\n      dup1\n      0x964c10a1\n      eq\n      tag_19\n      jumpi\n      jump(tag_2)\n    tag_26:\n      dup1\n      0x2e708dcd\n      gt\n      tag_28\n      jumpi\n      dup1\n      0x2e708dcd\n      eq\n      tag_8\n      jumpi\n      dup1\n      0x3d2e10b4\n      eq\n      tag_9\n      jumpi\n      dup1\n      0x3f81eee4\n      eq\n      tag_10\n      jumpi\n      dup1\n      0x44cf2cd7\n      eq\n      tag_11\n      jumpi\n      dup1\n      0x4a620efc\n      eq\n      tag_12\n      jumpi\n      dup1\n      0x4ce00aa9\n      eq\n      tag_13\n      jumpi\n      jump(tag_2)\n    tag_28:\n      dup1\n      0x075b8b1d\n      eq\n      tag_3\n      jumpi\n      dup1\n      0x08389071\n      eq\n      tag_4\n      jumpi\n      dup1\n      0x118129f4\n      eq\n      tag_5\n      jumpi\n      dup1\n      0x135d15cd\n      eq\n      tag_6\n      jumpi\n      dup1\n      0x184968ea\n      eq\n      tag_7\n      jumpi\n    tag_2:\n      0x00\n      dup1\n      revert\n        /* \"Contracts/StoreTraffic.sol\":1044:1253  function getRoutes(... */\n    tag_3:\n      tag_29\n      0x04\n      dup1\n      calldatasize\n      sub\n        /* \"--CODEGEN--\":13:15   */\n      0x20\n        /* \"--CODEGEN--\":8:11   */\n      dup2\n        /* \"--CODEGEN--\":5:16   */\n      lt\n        /* \"--CODEGEN--\":2:4   */\n      iszero\n      tag_30\n      jumpi\n        /* \"--CODEGEN--\":29:30   */\n      0x00\n        /* \"--CODEGEN--\":26:27   */\n      dup1\n        /* \"--CODEGEN--\":19:31   */\n      revert\n        /* \"--CODEGEN--\":2:4   */\n    tag_30:\n        /* \"Contracts/StoreTraffic.sol\":1044:1253  function getRoutes(... */\n      dup2\n      add\n      swap1\n      dup1\n      dup1\n      calldataload\n      swap1\n      0x20\n      add\n      swap1\n      swap3\n      swap2\n      swap1\n      pop\n      pop\n      pop\n      tag_31\n      jump\t// in\n    tag_29:\n      mload(0x40)\n      dup1\n      dup1\n      0x20\n      add\n      dup4\n      dup2\n      mstore\n      0x20\n      add\n      dup3\n      dup2\n      sub\n      dup3\n      mstore\n      dup5\n      dup2\n      dup2\n      mload\n      dup2\n      mstore\n      0x20\n      add\n      swap2\n      pop\n      dup1\n      mload\n      swap1\n      0x20\n      add\n      swap1\n      0x20\n      mul\n      dup1\n      dup4\n      dup4\n        /* \"--CODEGEN--\":23:24   */\n      0x00\n        /* \"--CODEGEN--\":8:108   */\n    tag_32:\n        /* \"--CODEGEN--\":33:36   */\n      dup4\n        /* \"--CODEGEN--\":30:31   */\n      dup2\n        /* \"--CODEGEN--\":27:37   */\n      lt\n        /* \"--CODEGEN--\":8:108   */\n      iszero\n      tag_34\n      jumpi\n        /* \"--CODEGEN--\":99:100   */\n      dup1\n        /* \"--CODEGEN--\":94:97   */\n      dup3\n        /* \"--CODEGEN--\":90:101   */\n      add\n        /* \"--CODEGEN--\":84:102   */\n      mload\n        /* \"--CODEGEN--\":80:81   */\n      dup2\n        /* \"--CODEGEN--\":75:78   */\n      dup5\n        /* \"--CODEGEN--\":71:82   */\n      add\n        /* \"--CODEGEN--\":64:103   */\n      mstore\n        /* \"--CODEGEN--\":52:54   */\n      0x20\n        /* \"--CODEGEN--\":49:50   */\n      dup2\n        /* \"--CODEGEN--\":45:55   */\n      add\n        /* \"--CODEGEN--\":40:55   */\n      swap1\n      pop\n        /* \"--CODEGEN--\":8:108   */\n      jump(tag_32)\n    tag_34:\n        /* \"--CODEGEN--\":12:26   */\n      pop\n        /* \"Contracts/StoreTraffic.sol\":1044:1253  function getRoutes(... */\n      pop\n      pop\n      pop\n      swap1\n      pop\n      add\n      swap4\n      pop\n      pop\n      pop\n      pop\n      mload(0x40)\n      dup1\n      swap2\n      sub\n      swap1\n      return\n        /* \"Contracts/StoreTraffic.sol\":4224:4377  function setVehicleStatusEmpty(bytes32 vehicleId) public {... */\n    tag_4:\n      tag_35\n      0x04\n      dup1\n      calldatasize\n      sub\n        /* \"--CODEGEN--\":13:15   */\n      0x20\n        /* \"--CODEGEN--\":8:11   */\n      dup2\n        /* \"--CODEGEN--\":5:16   */\n      lt\n        /* \"--CODEGEN--\":2:4   */\n      iszero\n      tag_36\n      jumpi\n        /* \"--CODEGEN--\":29:30   */\n      0x00\n        /* \"--CODEGEN--\":26:27   */\n      dup1\n        /* \"--CODEGEN--\":19:31   */\n      revert\n        /* \"--CODEGEN--\":2:4   */\n    tag_36:\n        /* \"Contracts/StoreTraffic.sol\":4224:4377  function setVehicleStatusEmpty(bytes32 vehicleId) public {... */\n      dup2\n      add\n      swap1\n      dup1\n      dup1\n      calldataload\n      swap1\n      0x20\n      add\n      swap1\n      swap3\n      swap2\n      swap1\n      pop\n      pop\n      pop\n      tag_37\n      jump\t// in\n    tag_35:\n      stop\n        /* \"Contracts/StoreTraffic.sol\":5715:5874  function getPassengerPos(... */\n    tag_5:\n      tag_38\n      0x04\n      dup1\n      calldatasize\n      sub\n        /* \"--CODEGEN--\":13:15   */\n      0x20\n        /* \"--CODEGEN--\":8:11   */\n      dup2\n        /* \"--CODEGEN--\":5:16   */\n      lt\n        /* \"--CODEGEN--\":2:4   */\n      iszero\n      tag_39\n      jumpi\n        /* \"--CODEGEN--\":29:30   */\n      0x00\n        /* \"--CODEGEN--\":26:27   */\n      dup1\n        /* \"--CODEGEN--\":19:31   */\n      revert\n        /* \"--CODEGEN--\":2:4   */\n    tag_39:\n        /* \"Contracts/StoreTraffic.sol\":5715:5874  function getPassengerPos(... */\n      dup2\n      add\n      swap1\n      dup1\n      dup1\n      calldataload\n      swap1\n      0x20\n      add\n      swap1\n      swap3\n      swap2\n      swap1\n      pop\n      pop\n      pop\n      tag_40\n      jump\t// in\n    tag_38:\n      mload(0x40)\n      dup1\n      dup3\n      dup2\n      mstore\n      0x20\n      add\n      swap2\n      pop\n      pop\n      mload(0x40)\n      dup1\n      swap2\n      sub\n      swap1\n      return\n        /* \"Contracts/StoreTraffic.sol\":327:418  function confirmBoard(bytes32 vehicleId) public {... */\n    tag_6:\n      tag_41\n      0x04\n      dup1\n      calldatasize\n      sub\n        /* \"--CODEGEN--\":13:15   */\n      0x20\n        /* \"--CODEGEN--\":8:11   */\n      dup2\n        /* \"--CODEGEN--\":5:16   */\n      lt\n        /* \"--CODEGEN--\":2:4   */\n      iszero\n      tag_42\n      jumpi\n        /* \"--CODEGEN--\":29:30   */\n      0x00\n        /* \"--CODEGEN--\":26:27   */\n      dup1\n        /* \"--CODEGEN--\":19:31   */\n      revert\n        /* \"--CODEGEN--\":2:4   */\n    tag_42:\n        /* \"Contracts/StoreTraffic.sol\":327:418  function confirmBoard(bytes32 vehicleId) public {... */\n      dup2\n      add\n      swap1\n      dup1\n      dup1\n      calldataload\n      swap1\n      0x20\n      add\n      swap1\n      swap3\n      swap2\n      swap1\n      pop\n      pop\n      pop\n      tag_43\n      jump\t// in\n    tag_41:\n      stop\n        /* \"Contracts/StoreTraffic.sol\":3022:3756  function getVehicleByRegion(... */\n    tag_7:\n      tag_44\n      0x04\n      dup1\n      calldatasize\n      sub\n        /* \"--CODEGEN--\":13:15   */\n      0x40\n        /* \"--CODEGEN--\":8:11   */\n      dup2\n        /* \"--CODEGEN--\":5:16   */\n      lt\n        /* \"--CODEGEN--\":2:4   */\n      iszero\n      tag_45\n      jumpi\n        /* \"--CODEGEN--\":29:30   */\n      0x00\n        /* \"--CODEGEN--\":26:27   */\n      dup1\n        /* \"--CODEGEN--\":19:31   */\n      revert\n        /* \"--CODEGEN--\":2:4   */\n    tag_45:\n        /* \"Contracts/StoreTraffic.sol\":3022:3756  function getVehicleByRegion(... */\n      dup2\n      add\n      swap1\n      dup1\n      dup1\n      calldataload\n      swap1\n      0x20\n      add\n      swap1\n      swap3\n      swap2\n      swap1\n      dup1\n      calldataload\n      swap1\n      0x20\n      add\n      swap1\n        /* \"--CODEGEN--\":21:32   */\n      0x0100000000\n        /* \"--CODEGEN--\":8:19   */\n      dup2\n        /* \"--CODEGEN--\":5:33   */\n      gt\n        /* \"--CODEGEN--\":2:4   */\n      iszero\n      tag_46\n      jumpi\n        /* \"--CODEGEN--\":46:47   */\n      0x00\n        /* \"--CODEGEN--\":43:44   */\n      dup1\n        /* \"--CODEGEN--\":36:48   */\n      revert\n        /* \"--CODEGEN--\":2:4   */\n    tag_46:\n        /* \"Contracts/StoreTraffic.sol\":3022:3756  function getVehicleByRegion(... */\n      dup3\n      add\n        /* \"--CODEGEN--\":35:44   */\n      dup4\n        /* \"--CODEGEN--\":28:32   */\n      0x20\n        /* \"--CODEGEN--\":12:26   */\n      dup3\n        /* \"--CODEGEN--\":8:33   */\n      add\n        /* \"--CODEGEN--\":5:45   */\n      gt\n        /* \"--CODEGEN--\":2:4   */\n      iszero\n      tag_47\n      jumpi\n        /* \"--CODEGEN--\":58:59   */\n      0x00\n        /* \"--CODEGEN--\":55:56   */\n      dup1\n        /* \"--CODEGEN--\":48:60   */\n      revert\n        /* \"--CODEGEN--\":2:4   */\n    tag_47:\n        /* \"Contracts/StoreTraffic.sol\":3022:3756  function getVehicleByRegion(... */\n      dup1\n      calldataload\n      swap1\n      0x20\n      add\n      swap2\n        /* \"--CODEGEN--\":101:110   */\n      dup5\n        /* \"--CODEGEN--\":95:97   */\n      0x20\n        /* \"--CODEGEN--\":81:93   */\n      dup4\n        /* \"--CODEGEN--\":77:98   */\n      mul\n        /* \"--CODEGEN--\":67:75   */\n      dup5\n        /* \"--CODEGEN--\":63:99   */\n      add\n        /* \"--CODEGEN--\":60:111   */\n      gt\n        /* \"--CODEGEN--\":39:50   */\n      0x0100000000\n        /* \"--CODEGEN--\":25:37   */\n      dup4\n        /* \"--CODEGEN--\":22:51   */\n      gt\n        /* \"--CODEGEN--\":11:119   */\n      or\n        /* \"--CODEGEN--\":8:10   */\n      iszero\n      tag_48\n      jumpi\n        /* \"--CODEGEN--\":132:133   */\n      0x00\n        /* \"--CODEGEN--\":129:130   */\n      dup1\n        /* \"--CODEGEN--\":122:134   */\n      revert\n        /* \"--CODEGEN--\":8:10   */\n    tag_48:\n        /* \"Contracts/StoreTraffic.sol\":3022:3756  function getVehicleByRegion(... */\n      swap2\n      swap1\n      dup1\n      dup1\n      0x20\n      mul\n      0x20\n      add\n      mload(0x40)\n      swap1\n      dup2\n      add\n      0x40\n      mstore\n      dup1\n      swap4\n      swap3\n      swap2\n      swap1\n      dup2\n      dup2\n      mstore\n      0x20\n      add\n      dup4\n      dup4\n      0x20\n      mul\n        /* \"--CODEGEN--\":30:33   */\n      dup1\n        /* \"--CODEGEN--\":22:28   */\n      dup3\n        /* \"--CODEGEN--\":14:20   */\n      dup5\n        /* \"--CODEGEN--\":1:34   */\n      calldatacopy\n        /* \"--CODEGEN--\":99:100   */\n      0x00\n        /* \"--CODEGEN--\":93:96   */\n      dup2\n        /* \"--CODEGEN--\":85:91   */\n      dup5\n        /* \"--CODEGEN--\":81:97   */\n      add\n        /* \"--CODEGEN--\":74:101   */\n      mstore\n        /* \"--CODEGEN--\":137:141   */\n      0x1f\n        /* \"--CODEGEN--\":133:142   */\n      not\n        /* \"--CODEGEN--\":126:130   */\n      0x1f\n        /* \"--CODEGEN--\":121:124   */\n      dup3\n        /* \"--CODEGEN--\":117:131   */\n      add\n        /* \"--CODEGEN--\":113:143   */\n      and\n        /* \"--CODEGEN--\":106:143   */\n      swap1\n      pop\n        /* \"--CODEGEN--\":169:172   */\n      dup1\n        /* \"--CODEGEN--\":161:167   */\n      dup4\n        /* \"--CODEGEN--\":157:173   */\n      add\n        /* \"--CODEGEN--\":147:173   */\n      swap3\n      pop\n        /* \"Contracts/StoreTraffic.sol\":3022:3756  function getVehicleByRegion(... */\n      pop\n      pop\n      pop\n      pop\n      pop\n      pop\n      swap2\n      swap3\n      swap2\n      swap3\n      swap1\n      pop\n      pop\n      pop\n      tag_49\n      jump\t// in\n    tag_44:\n      mload(0x40)\n      dup1\n      dup4\n      dup2\n      mstore\n      0x20\n      add\n      dup3\n      dup2\n      mstore\n      0x20\n      add\n      swap3\n      pop\n      pop\n      pop\n      mload(0x40)\n      dup1\n      swap2\n      sub\n      swap1\n      return\n        /* \"Contracts/StoreTraffic.sol\":2208:2340  function setVehicle(bytes32 vehicleId, bytes32 vehicleGeohash) public {... */\n    tag_8:\n      tag_50\n      0x04\n      dup1\n      calldatasize\n      sub\n        /* \"--CODEGEN--\":13:15   */\n      0x40\n        /* \"--CODEGEN--\":8:11   */\n      dup2\n        /* \"--CODEGEN--\":5:16   */\n      lt\n        /* \"--CODEGEN--\":2:4   */\n      iszero\n      tag_51\n      jumpi\n        /* \"--CODEGEN--\":29:30   */\n      0x00\n        /* \"--CODEGEN--\":26:27   */\n      dup1\n        /* \"--CODEGEN--\":19:31   */\n      revert\n        /* \"--CODEGEN--\":2:4   */\n    tag_51:\n        /* \"Contracts/StoreTraffic.sol\":2208:2340  function setVehicle(bytes32 vehicleId, bytes32 vehicleGeohash) public {... */\n      dup2\n      add\n      swap1\n      dup1\n      dup1\n      calldataload\n      swap1\n      0x20\n      add\n      swap1\n      swap3\n      swap2\n      swap1\n      dup1\n      calldataload\n      swap1\n      0x20\n      add\n      swap1\n      swap3\n      swap2\n      swap1\n      pop\n      pop\n      pop\n      tag_52\n      jump\t// in\n    tag_50:\n      stop\n        /* \"Contracts/StoreTraffic.sol\":758:1038  function storeRoutes(... */\n    tag_9:\n      tag_53\n      0x04\n      dup1\n      calldatasize\n      sub\n        /* \"--CODEGEN--\":13:16   */\n      0x80\n        /* \"--CODEGEN--\":8:11   */\n      dup2\n        /* \"--CODEGEN--\":5:17   */\n      lt\n        /* \"--CODEGEN--\":2:4   */\n      iszero\n      tag_54\n      jumpi\n        /* \"--CODEGEN--\":30:31   */\n      0x00\n        /* \"--CODEGEN--\":27:28   */\n      dup1\n        /* \"--CODEGEN--\":20:32   */\n      revert\n        /* \"--CODEGEN--\":2:4   */\n    tag_54:\n        /* \"Contracts/StoreTraffic.sol\":758:1038  function storeRoutes(... */\n      dup2\n      add\n      swap1\n      dup1\n      dup1\n      calldataload\n      swap1\n      0x20\n      add\n      swap1\n      swap3\n      swap2\n      swap1\n      dup1\n      calldataload\n      swap1\n      0x20\n      add\n      swap1\n      swap3\n      swap2\n      swap1\n      dup1\n      calldataload\n      swap1\n      0x20\n      add\n      swap1\n      swap3\n      swap2\n      swap1\n      dup1\n      calldataload\n      swap1\n      0x20\n      add\n      swap1\n        /* \"--CODEGEN--\":21:32   */\n      0x0100000000\n        /* \"--CODEGEN--\":8:19   */\n      dup2\n        /* \"--CODEGEN--\":5:33   */\n      gt\n        /* \"--CODEGEN--\":2:4   */\n      iszero\n      tag_55\n      jumpi\n        /* \"--CODEGEN--\":46:47   */\n      0x00\n        /* \"--CODEGEN--\":43:44   */\n      dup1\n        /* \"--CODEGEN--\":36:48   */\n      revert\n        /* \"--CODEGEN--\":2:4   */\n    tag_55:\n        /* \"Contracts/StoreTraffic.sol\":758:1038  function storeRoutes(... */\n      dup3\n      add\n        /* \"--CODEGEN--\":35:44   */\n      dup4\n        /* \"--CODEGEN--\":28:32   */\n      0x20\n        /* \"--CODEGEN--\":12:26   */\n      dup3\n        /* \"--CODEGEN--\":8:33   */\n      add\n        /* \"--CODEGEN--\":5:45   */\n      gt\n        /* \"--CODEGEN--\":2:4   */\n      iszero\n      tag_56\n      jumpi\n        /* \"--CODEGEN--\":58:59   */\n      0x00\n        /* \"--CODEGEN--\":55:56   */\n      dup1\n        /* \"--CODEGEN--\":48:60   */\n      revert\n        /* \"--CODEGEN--\":2:4   */\n    tag_56:\n        /* \"Contracts/StoreTraffic.sol\":758:1038  function storeRoutes(... */\n      dup1\n      calldataload\n      swap1\n      0x20\n      add\n      swap2\n        /* \"--CODEGEN--\":101:110   */\n      dup5\n        /* \"--CODEGEN--\":95:97   */\n      0x20\n        /* \"--CODEGEN--\":81:93   */\n      dup4\n        /* \"--CODEGEN--\":77:98   */\n      mul\n        /* \"--CODEGEN--\":67:75   */\n      dup5\n        /* \"--CODEGEN--\":63:99   */\n      add\n        /* \"--CODEGEN--\":60:111   */\n      gt\n        /* \"--CODEGEN--\":39:50   */\n      0x0100000000\n        /* \"--CODEGEN--\":25:37   */\n      dup4\n        /* \"--CODEGEN--\":22:51   */\n      gt\n        /* \"--CODEGEN--\":11:119   */\n      or\n        /* \"--CODEGEN--\":8:10   */\n      iszero\n      tag_57\n      jumpi\n        /* \"--CODEGEN--\":132:133   */\n      0x00\n        /* \"--CODEGEN--\":129:130   */\n      dup1\n        /* \"--CODEGEN--\":122:134   */\n      revert\n        /* \"--CODEGEN--\":8:10   */\n    tag_57:\n        /* \"Contracts/StoreTraffic.sol\":758:1038  function storeRoutes(... */\n      swap2\n      swap1\n      dup1\n      dup1\n      0x20\n      mul\n      0x20\n      add\n      mload(0x40)\n      swap1\n      dup2\n      add\n      0x40\n      mstore\n      dup1\n      swap4\n      swap3\n      swap2\n      swap1\n      dup2\n      dup2\n      mstore\n      0x20\n      add\n      dup4\n      dup4\n      0x20\n      mul\n        /* \"--CODEGEN--\":30:33   */\n      dup1\n        /* \"--CODEGEN--\":22:28   */\n      dup3\n        /* \"--CODEGEN--\":14:20   */\n      dup5\n        /* \"--CODEGEN--\":1:34   */\n      calldatacopy\n        /* \"--CODEGEN--\":99:100   */\n      0x00\n        /* \"--CODEGEN--\":93:96   */\n      dup2\n        /* \"--CODEGEN--\":85:91   */\n      dup5\n        /* \"--CODEGEN--\":81:97   */\n      add\n        /* \"--CODEGEN--\":74:101   */\n      mstore\n        /* \"--CODEGEN--\":137:141   */\n      0x1f\n        /* \"--CODEGEN--\":133:142   */\n      not\n        /* \"--CODEGEN--\":126:130   */\n      0x1f\n        /* \"--CODEGEN--\":121:124   */\n      dup3\n        /* \"--CODEGEN--\":117:131   */\n      add\n        /* \"--CODEGEN--\":113:143   */\n      and\n        /* \"--CODEGEN--\":106:143   */\n      swap1\n      pop\n        /* \"--CODEGEN--\":169:172   */\n      dup1\n        /* \"--CODEGEN--\":161:167   */\n      dup4\n        /* \"--CODEGEN--\":157:173   */\n      add\n        /* \"--CODEGEN--\":147:173   */\n      swap3\n      pop\n        /* \"Contracts/StoreTraffic.sol\":758:1038  function storeRoutes(... */\n      pop\n      pop\n      pop\n      pop\n      pop\n      pop\n      swap2\n      swap3\n      swap2\n      swap3\n      swap1\n      pop\n      pop\n      pop\n      tag_58\n      jump\t// in\n    tag_53:\n      stop\n        /* \"Contracts/StoreTraffic.sol\":5908:6077  function getPassengerEnd(bytes32 passengerId) public returns (bytes32 end) {... */\n    tag_10:\n      tag_59\n      0x04\n      dup1\n      calldatasize\n      sub\n        /* \"--CODEGEN--\":13:15   */\n      0x20\n        /* \"--CODEGEN--\":8:11   */\n      dup2\n        /* \"--CODEGEN--\":5:16   */\n      lt\n        /* \"--CODEGEN--\":2:4   */\n      iszero\n      tag_60\n      jumpi\n        /* \"--CODEGEN--\":29:30   */\n      0x00\n        /* \"--CODEGEN--\":26:27   */\n      dup1\n        /* \"--CODEGEN--\":19:31   */\n      revert\n        /* \"--CODEGEN--\":2:4   */\n    tag_60:\n        /* \"Contracts/StoreTraffic.sol\":5908:6077  function getPassengerEnd(bytes32 passengerId) public returns (bytes32 end) {... */\n      dup2\n      add\n      swap1\n      dup1\n      dup1\n      calldataload\n      swap1\n      0x20\n      add\n      swap1\n      swap3\n      swap2\n      swap1\n      pop\n      pop\n      pop\n      tag_61\n      jump\t// in\n    tag_59:\n      mload(0x40)\n      dup1\n      dup3\n      dup2\n      mstore\n      0x20\n      add\n      swap2\n      pop\n      pop\n      mload(0x40)\n      dup1\n      swap2\n      sub\n      swap1\n      return\n        /* \"Contracts/StoreTraffic.sol\":9206:10034  function getLonBlock(string memory geohash) public view returns (uint256) {... */\n    tag_11:\n      tag_62\n      0x04\n      dup1\n      calldatasize\n      sub\n        /* \"--CODEGEN--\":13:15   */\n      0x20\n        /* \"--CODEGEN--\":8:11   */\n      dup2\n        /* \"--CODEGEN--\":5:16   */\n      lt\n        /* \"--CODEGEN--\":2:4   */\n      iszero\n      tag_63\n      jumpi\n        /* \"--CODEGEN--\":29:30   */\n      0x00\n        /* \"--CODEGEN--\":26:27   */\n      dup1\n        /* \"--CODEGEN--\":19:31   */\n      revert\n        /* \"--CODEGEN--\":2:4   */\n    tag_63:\n        /* \"Contracts/StoreTraffic.sol\":9206:10034  function getLonBlock(string memory geohash) public view returns (uint256) {... */\n      dup2\n      add\n      swap1\n      dup1\n      dup1\n      calldataload\n      swap1\n      0x20\n      add\n      swap1\n        /* \"--CODEGEN--\":21:32   */\n      0x0100000000\n        /* \"--CODEGEN--\":8:19   */\n      dup2\n        /* \"--CODEGEN--\":5:33   */\n      gt\n        /* \"--CODEGEN--\":2:4   */\n      iszero\n      tag_64\n      jumpi\n        /* \"--CODEGEN--\":46:47   */\n      0x00\n        /* \"--CODEGEN--\":43:44   */\n      dup1\n        /* \"--CODEGEN--\":36:48   */\n      revert\n        /* \"--CODEGEN--\":2:4   */\n    tag_64:\n        /* \"Contracts/StoreTraffic.sol\":9206:10034  function getLonBlock(string memory geohash) public view returns (uint256) {... */\n      dup3\n      add\n        /* \"--CODEGEN--\":35:44   */\n      dup4\n        /* \"--CODEGEN--\":28:32   */\n      0x20\n        /* \"--CODEGEN--\":12:26   */\n      dup3\n        /* \"--CODEGEN--\":8:33   */\n      add\n        /* \"--CODEGEN--\":5:45   */\n      gt\n        /* \"--CODEGEN--\":2:4   */\n      iszero\n      tag_65\n      jumpi\n        /* \"--CODEGEN--\":58:59   */\n      0x00\n        /* \"--CODEGEN--\":55:56   */\n      dup1\n        /* \"--CODEGEN--\":48:60   */\n      revert\n        /* \"--CODEGEN--\":2:4   */\n    tag_65:\n        /* \"Contracts/StoreTraffic.sol\":9206:10034  function getLonBlock(string memory geohash) public view returns (uint256) {... */\n      dup1\n      calldataload\n      swap1\n      0x20\n      add\n      swap2\n        /* \"--CODEGEN--\":100:109   */\n      dup5\n        /* \"--CODEGEN--\":95:96   */\n      0x01\n        /* \"--CODEGEN--\":81:93   */\n      dup4\n        /* \"--CODEGEN--\":77:97   */\n      mul\n        /* \"--CODEGEN--\":67:75   */\n      dup5\n        /* \"--CODEGEN--\":63:98   */\n      add\n        /* \"--CODEGEN--\":60:110   */\n      gt\n        /* \"--CODEGEN--\":39:50   */\n      0x0100000000\n        /* \"--CODEGEN--\":25:37   */\n      dup4\n        /* \"--CODEGEN--\":22:51   */\n      gt\n        /* \"--CODEGEN--\":11:118   */\n      or\n        /* \"--CODEGEN--\":8:10   */\n      iszero\n      tag_66\n      jumpi\n        /* \"--CODEGEN--\":131:132   */\n      0x00\n        /* \"--CODEGEN--\":128:129   */\n      dup1\n        /* \"--CODEGEN--\":121:133   */\n      revert\n        /* \"--CODEGEN--\":8:10   */\n    tag_66:\n        /* \"Contracts/StoreTraffic.sol\":9206:10034  function getLonBlock(string memory geohash) public view returns (uint256) {... */\n      swap2\n      swap1\n      dup1\n      dup1\n      0x1f\n      add\n      0x20\n      dup1\n      swap2\n      div\n      mul\n      0x20\n      add\n      mload(0x40)\n      swap1\n      dup2\n      add\n      0x40\n      mstore\n      dup1\n      swap4\n      swap3\n      swap2\n      swap1\n      dup2\n      dup2\n      mstore\n      0x20\n      add\n      dup4\n      dup4\n        /* \"--CODEGEN--\":30:33   */\n      dup1\n        /* \"--CODEGEN--\":22:28   */\n      dup3\n        /* \"--CODEGEN--\":14:20   */\n      dup5\n        /* \"--CODEGEN--\":1:34   */\n      calldatacopy\n        /* \"--CODEGEN--\":99:100   */\n      0x00\n        /* \"--CODEGEN--\":93:96   */\n      dup2\n        /* \"--CODEGEN--\":85:91   */\n      dup5\n        /* \"--CODEGEN--\":81:97   */\n      add\n        /* \"--CODEGEN--\":74:101   */\n      mstore\n        /* \"--CODEGEN--\":137:141   */\n      0x1f\n        /* \"--CODEGEN--\":133:142   */\n      not\n        /* \"--CODEGEN--\":126:130   */\n      0x1f\n        /* \"--CODEGEN--\":121:124   */\n      dup3\n        /* \"--CODEGEN--\":117:131   */\n      add\n        /* \"--CODEGEN--\":113:143   */\n      and\n        /* \"--CODEGEN--\":106:143   */\n      swap1\n      pop\n        /* \"--CODEGEN--\":169:172   */\n      dup1\n        /* \"--CODEGEN--\":161:167   */\n      dup4\n        /* \"--CODEGEN--\":157:173   */\n      add\n        /* \"--CODEGEN--\":147:173   */\n      swap3\n      pop\n        /* \"Contracts/StoreTraffic.sol\":9206:10034  function getLonBlock(string memory geohash) public view returns (uint256) {... */\n      pop\n      pop\n      pop\n      pop\n      pop\n      pop\n      swap2\n      swap3\n      swap2\n      swap3\n      swap1\n      pop\n      pop\n      pop\n      tag_67\n      jump\t// in\n    tag_62:\n      mload(0x40)\n      dup1\n      dup3\n      dup2\n      mstore\n      0x20\n      add\n      swap2\n      pop\n      pop\n      mload(0x40)\n      dup1\n      swap2\n      sub\n      swap1\n      return\n        /* \"Contracts/StoreTraffic.sol\":1678:1983  function initVehicle(bytes32 vehicleId, bytes32 geohash) public {... */\n    tag_12:\n      tag_68\n      0x04\n      dup1\n      calldatasize\n      sub\n        /* \"--CODEGEN--\":13:15   */\n      0x40\n        /* \"--CODEGEN--\":8:11   */\n      dup2\n        /* \"--CODEGEN--\":5:16   */\n      lt\n        /* \"--CODEGEN--\":2:4   */\n      iszero\n      tag_69\n      jumpi\n        /* \"--CODEGEN--\":29:30   */\n      0x00\n        /* \"--CODEGEN--\":26:27   */\n      dup1\n        /* \"--CODEGEN--\":19:31   */\n      revert\n        /* \"--CODEGEN--\":2:4   */\n    tag_69:\n        /* \"Contracts/StoreTraffic.sol\":1678:1983  function initVehicle(bytes32 vehicleId, bytes32 geohash) public {... */\n      dup2\n      add\n      swap1\n      dup1\n      dup1\n      calldataload\n      swap1\n      0x20\n      add\n      swap1\n      swap3\n      swap2\n      swap1\n      dup1\n      calldataload\n      swap1\n      0x20\n      add\n      swap1\n      swap3\n      swap2\n      swap1\n      pop\n      pop\n      pop\n      tag_70\n      jump\t// in\n    tag_68:\n      stop\n        /* \"Contracts/StoreTraffic.sol\":1989:2202  function deleteVehicle(bytes32 vehicleId) public {... */\n    tag_13:\n      tag_71\n      0x04\n      dup1\n      calldatasize\n      sub\n        /* \"--CODEGEN--\":13:15   */\n      0x20\n        /* \"--CODEGEN--\":8:11   */\n      dup2\n        /* \"--CODEGEN--\":5:16   */\n      lt\n        /* \"--CODEGEN--\":2:4   */\n      iszero\n      tag_72\n      jumpi\n        /* \"--CODEGEN--\":29:30   */\n      0x00\n        /* \"--CODEGEN--\":26:27   */\n      dup1\n        /* \"--CODEGEN--\":19:31   */\n      revert\n        /* \"--CODEGEN--\":2:4   */\n    tag_72:\n        /* \"Contracts/StoreTraffic.sol\":1989:2202  function deleteVehicle(bytes32 vehicleId) public {... */\n      dup2\n      add\n      swap1\n      dup1\n      dup1\n      calldataload\n      swap1\n      0x20\n      add\n      swap1\n      swap3\n      swap2\n      swap1\n      pop\n      pop\n      pop\n      tag_73\n      jump\t// in\n    tag_71:\n      stop\n        /* \"Contracts/StoreTraffic.sol\":2346:3016  function getVehicle(... */\n    tag_14:\n      tag_74\n      0x04\n      dup1\n      calldatasize\n      sub\n        /* \"--CODEGEN--\":13:15   */\n      0x20\n        /* \"--CODEGEN--\":8:11   */\n      dup2\n        /* \"--CODEGEN--\":5:16   */\n      lt\n        /* \"--CODEGEN--\":2:4   */\n      iszero\n      tag_75\n      jumpi\n        /* \"--CODEGEN--\":29:30   */\n      0x00\n        /* \"--CODEGEN--\":26:27   */\n      dup1\n        /* \"--CODEGEN--\":19:31   */\n      revert\n        /* \"--CODEGEN--\":2:4   */\n    tag_75:\n        /* \"Contracts/StoreTraffic.sol\":2346:3016  function getVehicle(... */\n      dup2\n      add\n      swap1\n      dup1\n      dup1\n      calldataload\n      swap1\n      0x20\n      add\n      swap1\n      swap3\n      swap2\n      swap1\n      pop\n      pop\n      pop\n      tag_76\n      jump\t// in\n    tag_74:\n      mload(0x40)\n      dup1\n      dup4\n      dup2\n      mstore\n      0x20\n      add\n      dup3\n      dup2\n      mstore\n      0x20\n      add\n      swap3\n      pop\n      pop\n      pop\n      mload(0x40)\n      dup1\n      swap2\n      sub\n      swap1\n      return\n        /* \"Contracts/StoreTraffic.sol\":4976:5252  function initPassenger(bytes32 passengerId, bytes32 geohash) public {... */\n    tag_15:\n      tag_77\n      0x04\n      dup1\n      calldatasize\n      sub\n        /* \"--CODEGEN--\":13:15   */\n      0x40\n        /* \"--CODEGEN--\":8:11   */\n      dup2\n        /* \"--CODEGEN--\":5:16   */\n      lt\n        /* \"--CODEGEN--\":2:4   */\n      iszero\n      tag_78\n      jumpi\n        /* \"--CODEGEN--\":29:30   */\n      0x00\n        /* \"--CODEGEN--\":26:27   */\n      dup1\n        /* \"--CODEGEN--\":19:31   */\n      revert\n        /* \"--CODEGEN--\":2:4   */\n    tag_78:\n        /* \"Contracts/StoreTraffic.sol\":4976:5252  function initPassenger(bytes32 passengerId, bytes32 geohash) public {... */\n      dup2\n      add\n      swap1\n      dup1\n      dup1\n      calldataload\n      swap1\n      0x20\n      add\n      swap1\n      swap3\n      swap2\n      swap1\n      dup1\n      calldataload\n      swap1\n      0x20\n      add\n      swap1\n      swap3\n      swap2\n      swap1\n      pop\n      pop\n      pop\n      tag_79\n      jump\t// in\n    tag_77:\n      stop\n        /* \"Contracts/StoreTraffic.sol\":6111:7092  function manhattan(... */\n    tag_16:\n      tag_80\n      0x04\n      dup1\n      calldatasize\n      sub\n        /* \"--CODEGEN--\":13:15   */\n      0x40\n        /* \"--CODEGEN--\":8:11   */\n      dup2\n        /* \"--CODEGEN--\":5:16   */\n      lt\n        /* \"--CODEGEN--\":2:4   */\n      iszero\n      tag_81\n      jumpi\n        /* \"--CODEGEN--\":29:30   */\n      0x00\n        /* \"--CODEGEN--\":26:27   */\n      dup1\n        /* \"--CODEGEN--\":19:31   */\n      revert\n        /* \"--CODEGEN--\":2:4   */\n    tag_81:\n        /* \"Contracts/StoreTraffic.sol\":6111:7092  function manhattan(... */\n      dup2\n      add\n      swap1\n      dup1\n      dup1\n      calldataload\n      swap1\n      0x20\n      add\n      swap1\n      swap3\n      swap2\n      swap1\n      dup1\n      calldataload\n      swap1\n      0x20\n      add\n      swap1\n      swap3\n      swap2\n      swap1\n      pop\n      pop\n      pop\n      tag_82\n      jump\t// in\n    tag_80:\n      mload(0x40)\n      dup1\n      dup3\n      dup2\n      mstore\n      0x20\n      add\n      swap2\n      pop\n      pop\n      mload(0x40)\n      dup1\n      swap2\n      sub\n      swap1\n      return\n        /* \"Contracts/StoreTraffic.sol\":3762:3923  function getVehicleStatus(bytes32 vehicleId) public view returns (int32) {... */\n    tag_17:\n      tag_83\n      0x04\n      dup1\n      calldatasize\n      sub\n        /* \"--CODEGEN--\":13:15   */\n      0x20\n        /* \"--CODEGEN--\":8:11   */\n      dup2\n        /* \"--CODEGEN--\":5:16   */\n      lt\n        /* \"--CODEGEN--\":2:4   */\n      iszero\n      tag_84\n      jumpi\n        /* \"--CODEGEN--\":29:30   */\n      0x00\n        /* \"--CODEGEN--\":26:27   */\n      dup1\n        /* \"--CODEGEN--\":19:31   */\n      revert\n        /* \"--CODEGEN--\":2:4   */\n    tag_84:\n        /* \"Contracts/StoreTraffic.sol\":3762:3923  function getVehicleStatus(bytes32 vehicleId) public view returns (int32) {... */\n      dup2\n      add\n      swap1\n      dup1\n      dup1\n      calldataload\n      swap1\n      0x20\n      add\n      swap1\n      swap3\n      swap2\n      swap1\n      pop\n      pop\n      pop\n      tag_85\n      jump\t// in\n    tag_83:\n      mload(0x40)\n      dup1\n      dup3\n      0x03\n      signextend\n      0x03\n      signextend\n      dup2\n      mstore\n      0x20\n      add\n      swap2\n      pop\n      pop\n      mload(0x40)\n      dup1\n      swap2\n      sub\n      swap1\n      return\n        /* \"Contracts/StoreTraffic.sol\":8338:9165  function getLatBlock(string memory geohash) public view returns (uint256) {... */\n    tag_18:\n      tag_86\n      0x04\n      dup1\n      calldatasize\n      sub\n        /* \"--CODEGEN--\":13:15   */\n      0x20\n        /* \"--CODEGEN--\":8:11   */\n      dup2\n        /* \"--CODEGEN--\":5:16   */\n      lt\n        /* \"--CODEGEN--\":2:4   */\n      iszero\n      tag_87\n      jumpi\n        /* \"--CODEGEN--\":29:30   */\n      0x00\n        /* \"--CODEGEN--\":26:27   */\n      dup1\n        /* \"--CODEGEN--\":19:31   */\n      revert\n        /* \"--CODEGEN--\":2:4   */\n    tag_87:\n        /* \"Contracts/StoreTraffic.sol\":8338:9165  function getLatBlock(string memory geohash) public view returns (uint256) {... */\n      dup2\n      add\n      swap1\n      dup1\n      dup1\n      calldataload\n      swap1\n      0x20\n      add\n      swap1\n        /* \"--CODEGEN--\":21:32   */\n      0x0100000000\n        /* \"--CODEGEN--\":8:19   */\n      dup2\n        /* \"--CODEGEN--\":5:33   */\n      gt\n        /* \"--CODEGEN--\":2:4   */\n      iszero\n      tag_88\n      jumpi\n        /* \"--CODEGEN--\":46:47   */\n      0x00\n        /* \"--CODEGEN--\":43:44   */\n      dup1\n        /* \"--CODEGEN--\":36:48   */\n      revert\n        /* \"--CODEGEN--\":2:4   */\n    tag_88:\n        /* \"Contracts/StoreTraffic.sol\":8338:9165  function getLatBlock(string memory geohash) public view returns (uint256) {... */\n      dup3\n      add\n        /* \"--CODEGEN--\":35:44   */\n      dup4\n        /* \"--CODEGEN--\":28:32   */\n      0x20\n        /* \"--CODEGEN--\":12:26   */\n      dup3\n        /* \"--CODEGEN--\":8:33   */\n      add\n        /* \"--CODEGEN--\":5:45   */\n      gt\n        /* \"--CODEGEN--\":2:4   */\n      iszero\n      tag_89\n      jumpi\n        /* \"--CODEGEN--\":58:59   */\n      0x00\n        /* \"--CODEGEN--\":55:56   */\n      dup1\n        /* \"--CODEGEN--\":48:60   */\n      revert\n        /* \"--CODEGEN--\":2:4   */\n    tag_89:\n        /* \"Contracts/StoreTraffic.sol\":8338:9165  function getLatBlock(string memory geohash) public view returns (uint256) {... */\n      dup1\n      calldataload\n      swap1\n      0x20\n      add\n      swap2\n        /* \"--CODEGEN--\":100:109   */\n      dup5\n        /* \"--CODEGEN--\":95:96   */\n      0x01\n        /* \"--CODEGEN--\":81:93   */\n      dup4\n        /* \"--CODEGEN--\":77:97   */\n      mul\n        /* \"--CODEGEN--\":67:75   */\n      dup5\n        /* \"--CODEGEN--\":63:98   */\n      add\n        /* \"--CODEGEN--\":60:110   */\n      gt\n        /* \"--CODEGEN--\":39:50   */\n      0x0100000000\n        /* \"--CODEGEN--\":25:37   */\n      dup4\n        /* \"--CODEGEN--\":22:51   */\n      gt\n        /* \"--CODEGEN--\":11:118   */\n      or\n        /* \"--CODEGEN--\":8:10   */\n      iszero\n      tag_90\n      jumpi\n        /* \"--CODEGEN--\":131:132   */\n      0x00\n        /* \"--CODEGEN--\":128:129   */\n      dup1\n        /* \"--CODEGEN--\":121:133   */\n      revert\n        /* \"--CODEGEN--\":8:10   */\n    tag_90:\n        /* \"Contracts/StoreTraffic.sol\":8338:9165  function getLatBlock(string memory geohash) public view returns (uint256) {... */\n      swap2\n      swap1\n      dup1\n      dup1\n      0x1f\n      add\n      0x20\n      dup1\n      swap2\n      div\n      mul\n      0x20\n      add\n      mload(0x40)\n      swap1\n      dup2\n      add\n      0x40\n      mstore\n      dup1\n      swap4\n      swap3\n      swap2\n      swap1\n      dup2\n      dup2\n      mstore\n      0x20\n      add\n      dup4\n      dup4\n        /* \"--CODEGEN--\":30:33   */\n      dup1\n        /* \"--CODEGEN--\":22:28   */\n      dup3\n        /* \"--CODEGEN--\":14:20   */\n      dup5\n        /* \"--CODEGEN--\":1:34   */\n      calldatacopy\n        /* \"--CODEGEN--\":99:100   */\n      0x00\n        /* \"--CODEGEN--\":93:96   */\n      dup2\n        /* \"--CODEGEN--\":85:91   */\n      dup5\n        /* \"--CODEGEN--\":81:97   */\n      add\n        /* \"--CODEGEN--\":74:101   */\n      mstore\n        /* \"--CODEGEN--\":137:141   */\n      0x1f\n        /* \"--CODEGEN--\":133:142   */\n      not\n        /* \"--CODEGEN--\":126:130   */\n      0x1f\n        /* \"--CODEGEN--\":121:124   */\n      dup3\n        /* \"--CODEGEN--\":117:131   */\n      add\n        /* \"--CODEGEN--\":113:143   */\n      and\n        /* \"--CODEGEN--\":106:143   */\n      swap1\n      pop\n        /* \"--CODEGEN--\":169:172   */\n      dup1\n        /* \"--CODEGEN--\":161:167   */\n      dup4\n        /* \"--CODEGEN--\":157:173   */\n      add\n        /* \"--CODEGEN--\":147:173   */\n      swap3\n      pop\n        /* \"Contracts/StoreTraffic.sol\":8338:9165  function getLatBlock(string memory geohash) public view returns (uint256) {... */\n      pop\n      pop\n      pop\n      pop\n      pop\n      pop\n      swap2\n      swap3\n      swap2\n      swap3\n      swap1\n      pop\n      pop\n      pop\n      tag_91\n      jump\t// in\n    tag_86:\n      mload(0x40)\n      dup1\n      dup3\n      dup2\n      mstore\n      0x20\n      add\n      swap2\n      pop\n      pop\n      mload(0x40)\n      dup1\n      swap2\n      sub\n      swap1\n      return\n        /* \"Contracts/StoreTraffic.sol\":5258:5432  function setPassengerPosition(... */\n    tag_19:\n      tag_92\n      0x04\n      dup1\n      calldatasize\n      sub\n        /* \"--CODEGEN--\":13:15   */\n      0x40\n        /* \"--CODEGEN--\":8:11   */\n      dup2\n        /* \"--CODEGEN--\":5:16   */\n      lt\n        /* \"--CODEGEN--\":2:4   */\n      iszero\n      tag_93\n      jumpi\n        /* \"--CODEGEN--\":29:30   */\n      0x00\n        /* \"--CODEGEN--\":26:27   */\n      dup1\n        /* \"--CODEGEN--\":19:31   */\n      revert\n        /* \"--CODEGEN--\":2:4   */\n    tag_93:\n        /* \"Contracts/StoreTraffic.sol\":5258:5432  function setPassengerPosition(... */\n      dup2\n      add\n      swap1\n      dup1\n      dup1\n      calldataload\n      swap1\n      0x20\n      add\n      swap1\n      swap3\n      swap2\n      swap1\n      dup1\n      calldataload\n      swap1\n      0x20\n      add\n      swap1\n      swap3\n      swap2\n      swap1\n      pop\n      pop\n      pop\n      tag_94\n      jump\t// in\n    tag_92:\n      stop\n        /* \"Contracts/StoreTraffic.sol\":5445:5684  function setPassengerDemand(... */\n    tag_20:\n      tag_95\n      0x04\n      dup1\n      calldatasize\n      sub\n        /* \"--CODEGEN--\":13:15   */\n      0x60\n        /* \"--CODEGEN--\":8:11   */\n      dup2\n        /* \"--CODEGEN--\":5:16   */\n      lt\n        /* \"--CODEGEN--\":2:4   */\n      iszero\n      tag_96\n      jumpi\n        /* \"--CODEGEN--\":29:30   */\n      0x00\n        /* \"--CODEGEN--\":26:27   */\n      dup1\n        /* \"--CODEGEN--\":19:31   */\n      revert\n        /* \"--CODEGEN--\":2:4   */\n    tag_96:\n        /* \"Contracts/StoreTraffic.sol\":5445:5684  function setPassengerDemand(... */\n      dup2\n      add\n      swap1\n      dup1\n      dup1\n      calldataload\n      swap1\n      0x20\n      add\n      swap1\n      swap3\n      swap2\n      swap1\n      dup1\n      calldataload\n      swap1\n      0x20\n      add\n      swap1\n      swap3\n      swap2\n      swap1\n      dup1\n      calldataload\n      swap1\n      0x20\n      add\n      swap1\n      swap3\n      swap2\n      swap1\n      pop\n      pop\n      pop\n      tag_97\n      jump\t// in\n    tag_95:\n      stop\n        /* \"Contracts/StoreTraffic.sol\":146:233  function confirmPay(bytes32 vehicleId) public {... */\n    tag_21:\n      tag_98\n      0x04\n      dup1\n      calldatasize\n      sub\n        /* \"--CODEGEN--\":13:15   */\n      0x20\n        /* \"--CODEGEN--\":8:11   */\n      dup2\n        /* \"--CODEGEN--\":5:16   */\n      lt\n        /* \"--CODEGEN--\":2:4   */\n      iszero\n      tag_99\n      jumpi\n        /* \"--CODEGEN--\":29:30   */\n      0x00\n        /* \"--CODEGEN--\":26:27   */\n      dup1\n        /* \"--CODEGEN--\":19:31   */\n      revert\n        /* \"--CODEGEN--\":2:4   */\n    tag_99:\n        /* \"Contracts/StoreTraffic.sol\":146:233  function confirmPay(bytes32 vehicleId) public {... */\n      dup2\n      add\n      swap1\n      dup1\n      dup1\n      calldataload\n      swap1\n      0x20\n      add\n      swap1\n      swap3\n      swap2\n      swap1\n      pop\n      pop\n      pop\n      tag_100\n      jump\t// in\n    tag_98:\n      stop\n        /* \"Contracts/StoreTraffic.sol\":4453:4640  function setRejectVehicleStatus(... */\n    tag_22:\n      tag_101\n      0x04\n      dup1\n      calldatasize\n      sub\n        /* \"--CODEGEN--\":13:15   */\n      0x40\n        /* \"--CODEGEN--\":8:11   */\n      dup2\n        /* \"--CODEGEN--\":5:16   */\n      lt\n        /* \"--CODEGEN--\":2:4   */\n      iszero\n      tag_102\n      jumpi\n        /* \"--CODEGEN--\":29:30   */\n      0x00\n        /* \"--CODEGEN--\":26:27   */\n      dup1\n        /* \"--CODEGEN--\":19:31   */\n      revert\n        /* \"--CODEGEN--\":2:4   */\n    tag_102:\n        /* \"Contracts/StoreTraffic.sol\":4453:4640  function setRejectVehicleStatus(... */\n      dup2\n      add\n      swap1\n      dup1\n      dup1\n      calldataload\n      swap1\n      0x20\n      add\n      swap1\n      swap3\n      swap2\n      swap1\n      dup1\n      calldataload\n      swap1\n      0x20\n      add\n      swap1\n      swap3\n      swap2\n      swap1\n      pop\n      pop\n      pop\n      tag_103\n      jump\t// in\n    tag_101:\n      stop\n        /* \"Contracts/StoreTraffic.sol\":7171:7310  function changePrecision(uint256 newPrecision) public returns (uint256) {... */\n    tag_23:\n      tag_104\n      0x04\n      dup1\n      calldatasize\n      sub\n        /* \"--CODEGEN--\":13:15   */\n      0x20\n        /* \"--CODEGEN--\":8:11   */\n      dup2\n        /* \"--CODEGEN--\":5:16   */\n      lt\n        /* \"--CODEGEN--\":2:4   */\n      iszero\n      tag_105\n      jumpi\n        /* \"--CODEGEN--\":29:30   */\n      0x00\n        /* \"--CODEGEN--\":26:27   */\n      dup1\n        /* \"--CODEGEN--\":19:31   */\n      revert\n        /* \"--CODEGEN--\":2:4   */\n    tag_105:\n        /* \"Contracts/StoreTraffic.sol\":7171:7310  function changePrecision(uint256 newPrecision) public returns (uint256) {... */\n      dup2\n      add\n      swap1\n      dup1\n      dup1\n      calldataload\n      swap1\n      0x20\n      add\n      swap1\n      swap3\n      swap2\n      swap1\n      pop\n      pop\n      pop\n      tag_106\n      jump\t// in\n    tag_104:\n      mload(0x40)\n      dup1\n      dup3\n      dup2\n      mstore\n      0x20\n      add\n      swap2\n      pop\n      pop\n      mload(0x40)\n      dup1\n      swap2\n      sub\n      swap1\n      return\n        /* \"Contracts/StoreTraffic.sol\":3929:4218  function setVehicleStatus(... */\n    tag_24:\n      tag_107\n      0x04\n      dup1\n      calldatasize\n      sub\n        /* \"--CODEGEN--\":13:15   */\n      0x60\n        /* \"--CODEGEN--\":8:11   */\n      dup2\n        /* \"--CODEGEN--\":5:16   */\n      lt\n        /* \"--CODEGEN--\":2:4   */\n      iszero\n      tag_108\n      jumpi\n        /* \"--CODEGEN--\":29:30   */\n      0x00\n        /* \"--CODEGEN--\":26:27   */\n      dup1\n        /* \"--CODEGEN--\":19:31   */\n      revert\n        /* \"--CODEGEN--\":2:4   */\n    tag_108:\n        /* \"Contracts/StoreTraffic.sol\":3929:4218  function setVehicleStatus(... */\n      dup2\n      add\n      swap1\n      dup1\n      dup1\n      calldataload\n      swap1\n      0x20\n      add\n      swap1\n      swap3\n      swap2\n      swap1\n      dup1\n      calldataload\n      swap1\n      0x20\n      add\n      swap1\n      swap3\n      swap2\n      swap1\n      dup1\n      calldataload\n      swap1\n      0x20\n      add\n      swap1\n      swap3\n      swap2\n      swap1\n      pop\n      pop\n      pop\n      tag_109\n      jump\t// in\n    tag_107:\n      stop\n        /* \"Contracts/StoreTraffic.sol\":7316:8201  function sliceGeoHash(... */\n    tag_25:\n      tag_110\n      0x04\n      dup1\n      calldatasize\n      sub\n        /* \"--CODEGEN--\":13:15   */\n      0x40\n        /* \"--CODEGEN--\":8:11   */\n      dup2\n        /* \"--CODEGEN--\":5:16   */\n      lt\n        /* \"--CODEGEN--\":2:4   */\n      iszero\n      tag_111\n      jumpi\n        /* \"--CODEGEN--\":29:30   */\n      0x00\n        /* \"--CODEGEN--\":26:27   */\n      dup1\n        /* \"--CODEGEN--\":19:31   */\n      revert\n        /* \"--CODEGEN--\":2:4   */\n    tag_111:\n        /* \"Contracts/StoreTraffic.sol\":7316:8201  function sliceGeoHash(... */\n      dup2\n      add\n      swap1\n      dup1\n      dup1\n      calldataload\n      swap1\n      0x20\n      add\n      swap1\n      swap3\n      swap2\n      swap1\n      dup1\n      calldataload\n      swap1\n      0x20\n      add\n      swap1\n      swap3\n      swap2\n      swap1\n      pop\n      pop\n      pop\n      tag_112\n      jump\t// in\n    tag_110:\n      mload(0x40)\n      dup1\n      dup1\n      0x20\n      add\n      dup1\n      0x20\n      add\n      dup4\n      dup2\n      sub\n      dup4\n      mstore\n      dup6\n      dup2\n      dup2\n      mload\n      dup2\n      mstore\n      0x20\n      add\n      swap2\n      pop\n      dup1\n      mload\n      swap1\n      0x20\n      add\n      swap1\n      dup1\n      dup4\n      dup4\n        /* \"--CODEGEN--\":23:24   */\n      0x00\n        /* \"--CODEGEN--\":8:108   */\n    tag_113:\n        /* \"--CODEGEN--\":33:36   */\n      dup4\n        /* \"--CODEGEN--\":30:31   */\n      dup2\n        /* \"--CODEGEN--\":27:37   */\n      lt\n        /* \"--CODEGEN--\":8:108   */\n      iszero\n      tag_115\n      jumpi\n        /* \"--CODEGEN--\":99:100   */\n      dup1\n        /* \"--CODEGEN--\":94:97   */\n      dup3\n        /* \"--CODEGEN--\":90:101   */\n      add\n        /* \"--CODEGEN--\":84:102   */\n      mload\n        /* \"--CODEGEN--\":80:81   */\n      dup2\n        /* \"--CODEGEN--\":75:78   */\n      dup5\n        /* \"--CODEGEN--\":71:82   */\n      add\n        /* \"--CODEGEN--\":64:103   */\n      mstore\n        /* \"--CODEGEN--\":52:54   */\n      0x20\n        /* \"--CODEGEN--\":49:50   */\n      dup2\n        /* \"--CODEGEN--\":45:55   */\n      add\n        /* \"--CODEGEN--\":40:55   */\n      swap1\n      pop\n        /* \"--CODEGEN--\":8:108   */\n      jump(tag_113)\n    tag_115:\n        /* \"--CODEGEN--\":12:26   */\n      pop\n        /* \"Contracts/StoreTraffic.sol\":7316:8201  function sliceGeoHash(... */\n      pop\n      pop\n      pop\n      swap1\n      pop\n      swap1\n      dup2\n      add\n      swap1\n      0x1f\n      and\n      dup1\n      iszero\n      tag_116\n      jumpi\n      dup1\n      dup3\n      sub\n      dup1\n      mload\n      0x01\n      dup4\n      0x20\n      sub\n      0x0100\n      exp\n      sub\n      not\n      and\n      dup2\n      mstore\n      0x20\n      add\n      swap2\n      pop\n    tag_116:\n      pop\n      dup4\n      dup2\n      sub\n      dup3\n      mstore\n      dup5\n      dup2\n      dup2\n      mload\n      dup2\n      mstore\n      0x20\n      add\n      swap2\n      pop\n      dup1\n      mload\n      swap1\n      0x20\n      add\n      swap1\n      dup1\n      dup4\n      dup4\n        /* \"--CODEGEN--\":23:24   */\n      0x00\n        /* \"--CODEGEN--\":8:108   */\n    tag_117:\n        /* \"--CODEGEN--\":33:36   */\n      dup4\n        /* \"--CODEGEN--\":30:31   */\n      dup2\n        /* \"--CODEGEN--\":27:37   */\n      lt\n        /* \"--CODEGEN--\":8:108   */\n      iszero\n      tag_119\n      jumpi\n        /* \"--CODEGEN--\":99:100   */\n      dup1\n        /* \"--CODEGEN--\":94:97   */\n      dup3\n        /* \"--CODEGEN--\":90:101   */\n      add\n        /* \"--CODEGEN--\":84:102   */\n      mload\n        /* \"--CODEGEN--\":80:81   */\n      dup2\n        /* \"--CODEGEN--\":75:78   */\n      dup5\n        /* \"--CODEGEN--\":71:82   */\n      add\n        /* \"--CODEGEN--\":64:103   */\n      mstore\n        /* \"--CODEGEN--\":52:54   */\n      0x20\n        /* \"--CODEGEN--\":49:50   */\n      dup2\n        /* \"--CODEGEN--\":45:55   */\n      add\n        /* \"--CODEGEN--\":40:55   */\n      swap1\n      pop\n        /* \"--CODEGEN--\":8:108   */\n      jump(tag_117)\n    tag_119:\n        /* \"--CODEGEN--\":12:26   */\n      pop\n        /* \"Contracts/StoreTraffic.sol\":7316:8201  function sliceGeoHash(... */\n      pop\n      pop\n      pop\n      swap1\n      pop\n      swap1\n      dup2\n      add\n      swap1\n      0x1f\n      and\n      dup1\n      iszero\n      tag_120\n      jumpi\n      dup1\n      dup3\n      sub\n      dup1\n      mload\n      0x01\n      dup4\n      0x20\n      sub\n      0x0100\n      exp\n      sub\n      not\n      and\n      dup2\n      mstore\n      0x20\n      add\n      swap2\n      pop\n    tag_120:\n      pop\n      swap5\n      pop\n      pop\n      pop\n      pop\n      pop\n      mload(0x40)\n      dup1\n      swap2\n      sub\n      swap1\n      return\n        /* \"Contracts/StoreTraffic.sol\":1044:1253  function getRoutes(... */\n    tag_31:\n        /* \"Contracts/StoreTraffic.sol\":1117:1139  bytes32[] memory route */\n      0x60\n        /* \"Contracts/StoreTraffic.sol\":1141:1153  uint256 cost */\n      0x00\n        /* \"Contracts/StoreTraffic.sol\":1173:1179  routes */\n      dup1\n        /* \"Contracts/StoreTraffic.sol\":1173:1190  routes[vehicleId] */\n      0x00\n        /* \"Contracts/StoreTraffic.sol\":1180:1189  vehicleId */\n      dup5\n        /* \"Contracts/StoreTraffic.sol\":1173:1190  routes[vehicleId] */\n      dup2\n      mstore\n      0x20\n      add\n      swap1\n      dup2\n      mstore\n      0x20\n      add\n      0x00\n      keccak256\n        /* \"Contracts/StoreTraffic.sol\":1173:1202  routes[vehicleId].routeCoords */\n      0x00\n      add\n        /* \"Contracts/StoreTraffic.sol\":1165:1202  route = routes[vehicleId].routeCoords */\n      dup1\n      sload\n      dup1\n      0x20\n      mul\n      0x20\n      add\n      mload(0x40)\n      swap1\n      dup2\n      add\n      0x40\n      mstore\n      dup1\n      swap3\n      swap2\n      swap1\n      dup2\n      dup2\n      mstore\n      0x20\n      add\n      dup3\n      dup1\n      sload\n      dup1\n      iszero\n      tag_122\n      jumpi\n      0x20\n      mul\n      dup3\n      add\n      swap2\n      swap1\n      0x00\n      mstore\n      keccak256(0x00, 0x20)\n      swap1\n    tag_123:\n      dup2\n      sload\n      dup2\n      mstore\n      0x20\n      add\n      swap1\n      0x01\n      add\n      swap1\n      dup1\n      dup4\n      gt\n      tag_123\n      jumpi\n    tag_122:\n      pop\n      pop\n      pop\n      pop\n      pop\n      swap2\n      pop\n        /* \"Contracts/StoreTraffic.sol\":1219:1225  routes */\n      0x00\n        /* \"Contracts/StoreTraffic.sol\":1219:1236  routes[vehicleId] */\n      dup1\n        /* \"Contracts/StoreTraffic.sol\":1226:1235  vehicleId */\n      dup5\n        /* \"Contracts/StoreTraffic.sol\":1219:1236  routes[vehicleId] */\n      dup2\n      mstore\n      0x20\n      add\n      swap1\n      dup2\n      mstore\n      0x20\n      add\n      0x00\n      keccak256\n        /* \"Contracts/StoreTraffic.sol\":1219:1246  routes[vehicleId].routeCost */\n      0x01\n      add\n      sload\n        /* \"Contracts/StoreTraffic.sol\":1212:1246  cost = routes[vehicleId].routeCost */\n      swap1\n      pop\n        /* \"Contracts/StoreTraffic.sol\":1044:1253  function getRoutes(... */\n      swap2\n      pop\n      swap2\n      jump\t// out\n        /* \"Contracts/StoreTraffic.sol\":4224:4377  function setVehicleStatusEmpty(bytes32 vehicleId) public {... */\n    tag_37:\n        /* \"Contracts/StoreTraffic.sol\":4328:4329  1 */\n      0x01\n        /* \"Contracts/StoreTraffic.sol\":4298:4306  vehicles */\n      dup1\n        /* \"Contracts/StoreTraffic.sol\":4298:4317  vehicles[vehicleId] */\n      0x00\n        /* \"Contracts/StoreTraffic.sol\":4307:4316  vehicleId */\n      dup4\n        /* \"Contracts/StoreTraffic.sol\":4298:4317  vehicles[vehicleId] */\n      dup2\n      mstore\n      0x20\n      add\n      swap1\n      dup2\n      mstore\n      0x20\n      add\n      0x00\n      keccak256\n        /* \"Contracts/StoreTraffic.sol\":4298:4324  vehicles[vehicleId].status */\n      0x02\n      add\n      sload\n        /* \"Contracts/StoreTraffic.sol\":4298:4329  vehicles[vehicleId].status == 1 */\n      eq\n        /* \"Contracts/StoreTraffic.sol\":4291:4330  assert(vehicles[vehicleId].status == 1) */\n      tag_125\n      jumpi\n      invalid\n    tag_125:\n        /* \"Contracts/StoreTraffic.sol\":4369:4370  0 */\n      0x00\n        /* \"Contracts/StoreTraffic.sol\":4340:4348  vehicles */\n      0x01\n        /* \"Contracts/StoreTraffic.sol\":4340:4359  vehicles[vehicleId] */\n      0x00\n        /* \"Contracts/StoreTraffic.sol\":4349:4358  vehicleId */\n      dup4\n        /* \"Contracts/StoreTraffic.sol\":4340:4359  vehicles[vehicleId] */\n      dup2\n      mstore\n      0x20\n      add\n      swap1\n      dup2\n      mstore\n      0x20\n      add\n      0x00\n      keccak256\n        /* \"Contracts/StoreTraffic.sol\":4340:4366  vehicles[vehicleId].status */\n      0x02\n      add\n        /* \"Contracts/StoreTraffic.sol\":4340:4370  vehicles[vehicleId].status = 0 */\n      dup2\n      swap1\n      sstore\n      pop\n        /* \"Contracts/StoreTraffic.sol\":4224:4377  function setVehicleStatusEmpty(bytes32 vehicleId) public {... */\n      pop\n      jump\t// out\n        /* \"Contracts/StoreTraffic.sol\":5715:5874  function getPassengerPos(... */\n    tag_40:\n        /* \"Contracts/StoreTraffic.sol\":5796:5812  bytes32 position */\n      0x00\n        /* \"Contracts/StoreTraffic.sol\":5835:5845  passengers */\n      0x04\n        /* \"Contracts/StoreTraffic.sol\":5835:5858  passengers[passengerId] */\n      0x00\n        /* \"Contracts/StoreTraffic.sol\":5846:5857  passengerId */\n      dup4\n        /* \"Contracts/StoreTraffic.sol\":5835:5858  passengers[passengerId] */\n      dup2\n      mstore\n      0x20\n      add\n      swap1\n      dup2\n      mstore\n      0x20\n      add\n      0x00\n      keccak256\n        /* \"Contracts/StoreTraffic.sol\":5835:5867  passengers[passengerId].position */\n      0x01\n      add\n      sload\n        /* \"Contracts/StoreTraffic.sol\":5824:5867  position = passengers[passengerId].position */\n      swap1\n      pop\n        /* \"Contracts/StoreTraffic.sol\":5715:5874  function getPassengerPos(... */\n      swap2\n      swap1\n      pop\n      jump\t// out\n        /* \"Contracts/StoreTraffic.sol\":327:418  function confirmBoard(bytes32 vehicleId) public {... */\n    tag_43:\n        /* \"Contracts/StoreTraffic.sol\":390:411  boardEvent(vehicleId) */\n      0x3df08102c43128689c0922a6d6509c65890fb8abdefbb11892e7b3a76c681880\n        /* \"Contracts/StoreTraffic.sol\":401:410  vehicleId */\n      dup2\n        /* \"Contracts/StoreTraffic.sol\":390:411  boardEvent(vehicleId) */\n      mload(0x40)\n      dup1\n      dup3\n      dup2\n      mstore\n      0x20\n      add\n      swap2\n      pop\n      pop\n      mload(0x40)\n      dup1\n      swap2\n      sub\n      swap1\n      log1\n        /* \"Contracts/StoreTraffic.sol\":327:418  function confirmBoard(bytes32 vehicleId) public {... */\n      pop\n      jump\t// out\n        /* \"Contracts/StoreTraffic.sol\":3022:3756  function getVehicleByRegion(... */\n    tag_49:\n        /* \"Contracts/StoreTraffic.sol\":3152:3159  bytes32 */\n      0x00\n        /* \"Contracts/StoreTraffic.sol\":3161:3168  bytes32 */\n      dup1\n        /* \"Contracts/StoreTraffic.sol\":3180:3196  bytes32 position */\n      0x00\n        /* \"Contracts/StoreTraffic.sol\":3206:3219  uint256 index */\n      dup1\n        /* \"Contracts/StoreTraffic.sol\":3234:3243  uint256 i */\n      0x00\n        /* \"Contracts/StoreTraffic.sol\":3246:3247  0 */\n      dup1\n        /* \"Contracts/StoreTraffic.sol\":3234:3247  uint256 i = 0 */\n      swap1\n      pop\n        /* \"Contracts/StoreTraffic.sol\":3229:3700  for (uint256 i = 0; i < regionVehicles.length; i++) {... */\n    tag_129:\n        /* \"Contracts/StoreTraffic.sol\":3253:3267  regionVehicles */\n      dup6\n        /* \"Contracts/StoreTraffic.sol\":3253:3274  regionVehicles.length */\n      mload\n        /* \"Contracts/StoreTraffic.sol\":3249:3250  i */\n      dup2\n        /* \"Contracts/StoreTraffic.sol\":3249:3274  i < regionVehicles.length */\n      lt\n        /* \"Contracts/StoreTraffic.sol\":3229:3700  for (uint256 i = 0; i < regionVehicles.length; i++) {... */\n      iszero\n      tag_130\n      jumpi\n        /* \"Contracts/StoreTraffic.sol\":3442:3479  manhattan(passengerGeohash, position) */\n      tag_132\n        /* \"Contracts/StoreTraffic.sol\":3452:3468  passengerGeohash */\n      dup8\n        /* \"Contracts/StoreTraffic.sol\":3470:3478  position */\n      dup5\n        /* \"Contracts/StoreTraffic.sol\":3442:3451  manhattan */\n      tag_82\n        /* \"Contracts/StoreTraffic.sol\":3442:3479  manhattan(passengerGeohash, position) */\n      jump\t// in\n    tag_132:\n        /* \"Contracts/StoreTraffic.sol\":3316:3439  manhattan(... */\n      tag_133\n        /* \"Contracts/StoreTraffic.sol\":3347:3363  passengerGeohash */\n      dup9\n        /* \"Contracts/StoreTraffic.sol\":3385:3393  vehicles */\n      0x01\n        /* \"Contracts/StoreTraffic.sol\":3385:3412  vehicles[regionVehicles[i]] */\n      0x00\n        /* \"Contracts/StoreTraffic.sol\":3394:3408  regionVehicles */\n      dup11\n        /* \"Contracts/StoreTraffic.sol\":3409:3410  i */\n      dup7\n        /* \"Contracts/StoreTraffic.sol\":3394:3411  regionVehicles[i] */\n      dup2\n      mload\n      dup2\n      lt\n      tag_134\n      jumpi\n      invalid\n    tag_134:\n      0x20\n      mul\n      0x20\n      add\n      add\n      mload\n        /* \"Contracts/StoreTraffic.sol\":3385:3412  vehicles[regionVehicles[i]] */\n      dup2\n      mstore\n      0x20\n      add\n      swap1\n      dup2\n      mstore\n      0x20\n      add\n      0x00\n      keccak256\n        /* \"Contracts/StoreTraffic.sol\":3385:3421  vehicles[regionVehicles[i]].position */\n      0x01\n      add\n      sload\n        /* \"Contracts/StoreTraffic.sol\":3316:3325  manhattan */\n      tag_82\n        /* \"Contracts/StoreTraffic.sol\":3316:3439  manhattan(... */\n      jump\t// in\n    tag_133:\n        /* \"Contracts/StoreTraffic.sol\":3316:3479  manhattan(... */\n      lt\n        /* \"Contracts/StoreTraffic.sol\":3295:3690  if (... */\n      iszero\n      tag_135\n      jumpi\n        /* \"Contracts/StoreTraffic.sol\":3554:3555  0 */\n      0x00\n        /* \"Contracts/StoreTraffic.sol\":3516:3524  vehicles */\n      0x01\n        /* \"Contracts/StoreTraffic.sol\":3516:3543  vehicles[regionVehicles[i]] */\n      0x00\n        /* \"Contracts/StoreTraffic.sol\":3525:3539  regionVehicles */\n      dup9\n        /* \"Contracts/StoreTraffic.sol\":3540:3541  i */\n      dup5\n        /* \"Contracts/StoreTraffic.sol\":3525:3542  regionVehicles[i] */\n      dup2\n      mload\n      dup2\n      lt\n      tag_136\n      jumpi\n      invalid\n    tag_136:\n      0x20\n      mul\n      0x20\n      add\n      add\n      mload\n        /* \"Contracts/StoreTraffic.sol\":3516:3543  vehicles[regionVehicles[i]] */\n      dup2\n      mstore\n      0x20\n      add\n      swap1\n      dup2\n      mstore\n      0x20\n      add\n      0x00\n      keccak256\n        /* \"Contracts/StoreTraffic.sol\":3516:3550  vehicles[regionVehicles[i]].status */\n      0x02\n      add\n      sload\n        /* \"Contracts/StoreTraffic.sol\":3516:3555  vehicles[regionVehicles[i]].status == 0 */\n      eq\n        /* \"Contracts/StoreTraffic.sol\":3512:3676  if (vehicles[regionVehicles[i]].status == 0) {... */\n      iszero\n      tag_137\n      jumpi\n        /* \"Contracts/StoreTraffic.sol\":3590:3598  vehicles */\n      0x01\n        /* \"Contracts/StoreTraffic.sol\":3590:3617  vehicles[regionVehicles[i]] */\n      0x00\n        /* \"Contracts/StoreTraffic.sol\":3599:3613  regionVehicles */\n      dup8\n        /* \"Contracts/StoreTraffic.sol\":3614:3615  i */\n      dup4\n        /* \"Contracts/StoreTraffic.sol\":3599:3616  regionVehicles[i] */\n      dup2\n      mload\n      dup2\n      lt\n      tag_138\n      jumpi\n      invalid\n    tag_138:\n      0x20\n      mul\n      0x20\n      add\n      add\n      mload\n        /* \"Contracts/StoreTraffic.sol\":3590:3617  vehicles[regionVehicles[i]] */\n      dup2\n      mstore\n      0x20\n      add\n      swap1\n      dup2\n      mstore\n      0x20\n      add\n      0x00\n      keccak256\n        /* \"Contracts/StoreTraffic.sol\":3590:3626  vehicles[regionVehicles[i]].position */\n      0x01\n      add\n      sload\n        /* \"Contracts/StoreTraffic.sol\":3579:3626  position = vehicles[regionVehicles[i]].position */\n      swap3\n      pop\n        /* \"Contracts/StoreTraffic.sol\":3656:3657  i */\n      dup1\n        /* \"Contracts/StoreTraffic.sol\":3648:3657  index = i */\n      swap2\n      pop\n        /* \"Contracts/StoreTraffic.sol\":3512:3676  if (vehicles[regionVehicles[i]].status == 0) {... */\n    tag_137:\n        /* \"Contracts/StoreTraffic.sol\":3295:3690  if (... */\n    tag_135:\n        /* \"Contracts/StoreTraffic.sol\":3276:3279  i++ */\n      dup1\n      dup1\n      0x01\n      add\n      swap2\n      pop\n      pop\n        /* \"Contracts/StoreTraffic.sol\":3229:3700  for (uint256 i = 0; i < regionVehicles.length; i++) {... */\n      jump(tag_129)\n    tag_130:\n      pop\n        /* \"Contracts/StoreTraffic.sol\":3717:3725  position */\n      dup2\n        /* \"Contracts/StoreTraffic.sol\":3727:3741  regionVehicles */\n      dup6\n        /* \"Contracts/StoreTraffic.sol\":3742:3747  index */\n      dup3\n        /* \"Contracts/StoreTraffic.sol\":3727:3748  regionVehicles[index] */\n      dup2\n      mload\n      dup2\n      lt\n      tag_139\n      jumpi\n      invalid\n    tag_139:\n      0x20\n      mul\n      0x20\n      add\n      add\n      mload\n        /* \"Contracts/StoreTraffic.sol\":3709:3749  return (position, regionVehicles[index]) */\n      swap4\n      pop\n      swap4\n      pop\n      pop\n      pop\n        /* \"Contracts/StoreTraffic.sol\":3022:3756  function getVehicleByRegion(... */\n      swap3\n      pop\n      swap3\n      swap1\n      pop\n      jump\t// out\n        /* \"Contracts/StoreTraffic.sol\":2208:2340  function setVehicle(bytes32 vehicleId, bytes32 vehicleGeohash) public {... */\n    tag_52:\n        /* \"Contracts/StoreTraffic.sol\":2319:2333  vehicleGeohash */\n      dup1\n        /* \"Contracts/StoreTraffic.sol\":2288:2296  vehicles */\n      0x01\n        /* \"Contracts/StoreTraffic.sol\":2288:2307  vehicles[vehicleId] */\n      0x00\n        /* \"Contracts/StoreTraffic.sol\":2297:2306  vehicleId */\n      dup5\n        /* \"Contracts/StoreTraffic.sol\":2288:2307  vehicles[vehicleId] */\n      dup2\n      mstore\n      0x20\n      add\n      swap1\n      dup2\n      mstore\n      0x20\n      add\n      0x00\n      keccak256\n        /* \"Contracts/StoreTraffic.sol\":2288:2316  vehicles[vehicleId].position */\n      0x01\n      add\n        /* \"Contracts/StoreTraffic.sol\":2288:2333  vehicles[vehicleId].position = vehicleGeohash */\n      dup2\n      swap1\n      sstore\n      pop\n        /* \"Contracts/StoreTraffic.sol\":2208:2340  function setVehicle(bytes32 vehicleId, bytes32 vehicleGeohash) public {... */\n      pop\n      pop\n      jump\t// out\n        /* \"Contracts/StoreTraffic.sol\":758:1038  function storeRoutes(... */\n    tag_58:\n        /* \"Contracts/StoreTraffic.sol\":944:949  route */\n      dup1\n        /* \"Contracts/StoreTraffic.sol\":912:918  routes */\n      0x00\n        /* \"Contracts/StoreTraffic.sol\":912:929  routes[vehicleId] */\n      dup1\n        /* \"Contracts/StoreTraffic.sol\":919:928  vehicleId */\n      dup6\n        /* \"Contracts/StoreTraffic.sol\":912:929  routes[vehicleId] */\n      dup2\n      mstore\n      0x20\n      add\n      swap1\n      dup2\n      mstore\n      0x20\n      add\n      0x00\n      keccak256\n        /* \"Contracts/StoreTraffic.sol\":912:941  routes[vehicleId].routeCoords */\n      0x00\n      add\n        /* \"Contracts/StoreTraffic.sol\":912:949  routes[vehicleId].routeCoords = route */\n      swap1\n      dup1\n      mload\n      swap1\n      0x20\n      add\n      swap1\n      tag_142\n      swap3\n      swap2\n      swap1\n      tag_143\n      jump\t// in\n    tag_142:\n      pop\n        /* \"Contracts/StoreTraffic.sol\":989:993  cost */\n      dup4\n        /* \"Contracts/StoreTraffic.sol\":959:965  routes */\n      0x00\n        /* \"Contracts/StoreTraffic.sol\":959:976  routes[vehicleId] */\n      dup1\n        /* \"Contracts/StoreTraffic.sol\":966:975  vehicleId */\n      dup6\n        /* \"Contracts/StoreTraffic.sol\":959:976  routes[vehicleId] */\n      dup2\n      mstore\n      0x20\n      add\n      swap1\n      dup2\n      mstore\n      0x20\n      add\n      0x00\n      keccak256\n        /* \"Contracts/StoreTraffic.sol\":959:986  routes[vehicleId].routeCost */\n      0x01\n      add\n        /* \"Contracts/StoreTraffic.sol\":959:993  routes[vehicleId].routeCost = cost */\n      dup2\n      swap1\n      sstore\n      pop\n        /* \"Contracts/StoreTraffic.sol\":1008:1031  routeEvent(passengerId) */\n      0x9d5989c6dfe7087cf87bc915a07bc23b94c2bbcabdcc61e78249ee5e678fcac8\n        /* \"Contracts/StoreTraffic.sol\":1019:1030  passengerId */\n      dup3\n        /* \"Contracts/StoreTraffic.sol\":1008:1031  routeEvent(passengerId) */\n      mload(0x40)\n      dup1\n      dup3\n      dup2\n      mstore\n      0x20\n      add\n      swap2\n      pop\n      pop\n      mload(0x40)\n      dup1\n      swap2\n      sub\n      swap1\n      log1\n        /* \"Contracts/StoreTraffic.sol\":758:1038  function storeRoutes(... */\n      pop\n      pop\n      pop\n      pop\n      jump\t// out\n        /* \"Contracts/StoreTraffic.sol\":5908:6077  function getPassengerEnd(bytes32 passengerId) public returns (bytes32 end) {... */\n    tag_61:\n        /* \"Contracts/StoreTraffic.sol\":5970:5981  bytes32 end */\n      0x00\n        /* \"Contracts/StoreTraffic.sol\":5999:6009  passengers */\n      0x04\n        /* \"Contracts/StoreTraffic.sol\":5999:6022  passengers[passengerId] */\n      0x00\n        /* \"Contracts/StoreTraffic.sol\":6010:6021  passengerId */\n      dup4\n        /* \"Contracts/StoreTraffic.sol\":5999:6022  passengers[passengerId] */\n      dup2\n      mstore\n      0x20\n      add\n      swap1\n      dup2\n      mstore\n      0x20\n      add\n      0x00\n      keccak256\n        /* \"Contracts/StoreTraffic.sol\":5999:6026  passengers[passengerId].end */\n      0x03\n      add\n      sload\n        /* \"Contracts/StoreTraffic.sol\":5993:6026  end = passengers[passengerId].end */\n      swap1\n      pop\n        /* \"Contracts/StoreTraffic.sol\":6069:6070  1 */\n      0x01\n        /* \"Contracts/StoreTraffic.sol\":6036:6046  passengers */\n      0x04\n        /* \"Contracts/StoreTraffic.sol\":6036:6059  passengers[passengerId] */\n      0x00\n        /* \"Contracts/StoreTraffic.sol\":6047:6058  passengerId */\n      dup5\n        /* \"Contracts/StoreTraffic.sol\":6036:6059  passengers[passengerId] */\n      dup2\n      mstore\n      0x20\n      add\n      swap1\n      dup2\n      mstore\n      0x20\n      add\n      0x00\n      keccak256\n        /* \"Contracts/StoreTraffic.sol\":6036:6066  passengers[passengerId].status */\n      0x04\n      add\n        /* \"Contracts/StoreTraffic.sol\":6036:6070  passengers[passengerId].status = 1 */\n      dup2\n      swap1\n      sstore\n      pop\n        /* \"Contracts/StoreTraffic.sol\":5908:6077  function getPassengerEnd(bytes32 passengerId) public returns (bytes32 end) {... */\n      swap2\n      swap1\n      pop\n      jump\t// out\n        /* \"Contracts/StoreTraffic.sol\":9206:10034  function getLonBlock(string memory geohash) public view returns (uint256) {... */\n    tag_67:\n        /* \"Contracts/StoreTraffic.sol\":9271:9278  uint256 */\n      0x00\n        /* \"Contracts/StoreTraffic.sol\":9314:9323  bool even */\n      dup1\n        /* \"Contracts/StoreTraffic.sol\":9326:9330  true */\n      0x01\n        /* \"Contracts/StoreTraffic.sol\":9314:9330  bool even = true */\n      swap1\n      pop\n        /* \"Contracts/StoreTraffic.sol\":9340:9351  uint256 lon */\n      0x00\n        /* \"Contracts/StoreTraffic.sol\":9354:9355  0 */\n      dup1\n        /* \"Contracts/StoreTraffic.sol\":9340:9355  uint256 lon = 0 */\n      swap1\n      pop\n        /* \"Contracts/StoreTraffic.sol\":9370:9379  uint256 i */\n      0x00\n        /* \"Contracts/StoreTraffic.sol\":9382:9383  0 */\n      dup1\n        /* \"Contracts/StoreTraffic.sol\":9370:9383  uint256 i = 0 */\n      swap1\n      pop\n        /* \"Contracts/StoreTraffic.sol\":9365:10008  for (uint256 i = 0; i < bytes(geohash).length; i++) {... */\n    tag_146:\n        /* \"Contracts/StoreTraffic.sol\":9395:9402  geohash */\n      dup5\n        /* \"Contracts/StoreTraffic.sol\":9389:9410  bytes(geohash).length */\n      mload\n        /* \"Contracts/StoreTraffic.sol\":9385:9386  i */\n      dup2\n        /* \"Contracts/StoreTraffic.sol\":9385:9410  i < bytes(geohash).length */\n      lt\n        /* \"Contracts/StoreTraffic.sol\":9365:10008  for (uint256 i = 0; i < bytes(geohash).length; i++) {... */\n      iszero\n      tag_147\n      jumpi\n        /* \"Contracts/StoreTraffic.sol\":9431:9439  bytes1 c */\n      0x00\n        /* \"Contracts/StoreTraffic.sol\":9448:9455  geohash */\n      dup6\n        /* \"Contracts/StoreTraffic.sol\":9457:9458  i */\n      dup3\n        /* \"Contracts/StoreTraffic.sol\":9442:9459  bytes(geohash)[i] */\n      dup2\n      mload\n      dup2\n      lt\n      tag_149\n      jumpi\n      invalid\n    tag_149:\n      0x20\n      add\n      add\n      mload\n      0xf8\n      shr\n      0xf8\n      shl\n        /* \"Contracts/StoreTraffic.sol\":9431:9459  bytes1 c = bytes(geohash)[i] */\n      swap1\n      pop\n        /* \"Contracts/StoreTraffic.sol\":9473:9483  uint256 cd */\n      0x00\n        /* \"Contracts/StoreTraffic.sol\":9502:9511  uint256 j */\n      dup1\n        /* \"Contracts/StoreTraffic.sol\":9514:9515  0 */\n      0x00\n        /* \"Contracts/StoreTraffic.sol\":9502:9515  uint256 j = 0 */\n      swap1\n      pop\n        /* \"Contracts/StoreTraffic.sol\":9497:9681  for (uint256 j = 0; j < bytes(Base32).length; j++) {... */\n    tag_150:\n        /* \"Contracts/StoreTraffic.sol\":9527:9533  Base32 */\n      0x09\n        /* \"Contracts/StoreTraffic.sol\":9521:9541  bytes(Base32).length */\n      dup1\n      sload\n      0x01\n      dup2\n      0x01\n      and\n      iszero\n      0x0100\n      mul\n      sub\n      and\n      0x02\n      swap1\n      div\n      swap1\n      pop\n        /* \"Contracts/StoreTraffic.sol\":9517:9518  j */\n      dup2\n        /* \"Contracts/StoreTraffic.sol\":9517:9541  j < bytes(Base32).length */\n      lt\n        /* \"Contracts/StoreTraffic.sol\":9497:9681  for (uint256 j = 0; j < bytes(Base32).length; j++) {... */\n      iszero\n      tag_151\n      jumpi\n        /* \"Contracts/StoreTraffic.sol\":9590:9591  c */\n      dup3\n        /* \"Contracts/StoreTraffic.sol\":9570:9591  bytes(Base32)[j] == c */\n      not(0xffffffffffffffffffffffffffffffffffffffffffffffffffffffffffffff)\n      and\n        /* \"Contracts/StoreTraffic.sol\":9576:9582  Base32 */\n      0x09\n        /* \"Contracts/StoreTraffic.sol\":9584:9585  j */\n      dup3\n        /* \"Contracts/StoreTraffic.sol\":9570:9586  bytes(Base32)[j] */\n      dup2\n      sload\n      0x01\n      dup2\n      0x01\n      and\n      iszero\n      0x0100\n      mul\n      sub\n      and\n      0x02\n      swap1\n      div\n      dup2\n      lt\n      tag_153\n      jumpi\n      invalid\n    tag_153:\n      dup2\n      sload\n      0x01\n      and\n      iszero\n      tag_154\n      jumpi\n      swap1\n      0x00\n      mstore\n      keccak256(0x00, 0x20)\n      swap1\n      0x20\n      swap2\n      dup3\n      dup3\n      div\n      add\n      swap2\n      swap1\n      mod\n    tag_154:\n      swap1\n      sload\n      swap1\n      byte\n      0x0100000000000000000000000000000000000000000000000000000000000000\n      mul\n        /* \"Contracts/StoreTraffic.sol\":9570:9591  bytes(Base32)[j] == c */\n      not(0xffffffffffffffffffffffffffffffffffffffffffffffffffffffffffffff)\n      and\n      eq\n        /* \"Contracts/StoreTraffic.sol\":9566:9667  if (bytes(Base32)[j] == c) {... */\n      iszero\n      tag_155\n      jumpi\n        /* \"Contracts/StoreTraffic.sol\":9620:9621  j */\n      dup1\n        /* \"Contracts/StoreTraffic.sol\":9615:9621  cd = j */\n      swap2\n      pop\n        /* \"Contracts/StoreTraffic.sol\":9643:9648  break */\n      jump(tag_151)\n        /* \"Contracts/StoreTraffic.sol\":9566:9667  if (bytes(Base32)[j] == c) {... */\n    tag_155:\n        /* \"Contracts/StoreTraffic.sol\":9543:9546  j++ */\n      dup1\n      dup1\n      0x01\n      add\n      swap2\n      pop\n      pop\n        /* \"Contracts/StoreTraffic.sol\":9497:9681  for (uint256 j = 0; j < bytes(Base32).length; j++) {... */\n      jump(tag_150)\n    tag_151:\n      pop\n        /* \"Contracts/StoreTraffic.sol\":9699:9708  uint256 j */\n      0x00\n        /* \"Contracts/StoreTraffic.sol\":9711:9712  0 */\n      dup1\n        /* \"Contracts/StoreTraffic.sol\":9699:9712  uint256 j = 0 */\n      swap1\n      pop\n        /* \"Contracts/StoreTraffic.sol\":9694:9998  for (uint256 j = 0; j < 5; j++) {... */\n    tag_156:\n        /* \"Contracts/StoreTraffic.sol\":9718:9719  5 */\n      0x05\n        /* \"Contracts/StoreTraffic.sol\":9714:9715  j */\n      dup2\n        /* \"Contracts/StoreTraffic.sol\":9714:9719  j < 5 */\n      lt\n        /* \"Contracts/StoreTraffic.sol\":9694:9998  for (uint256 j = 0; j < 5; j++) {... */\n      iszero\n      tag_157\n      jumpi\n        /* \"Contracts/StoreTraffic.sol\":9744:9756  uint256 mask */\n      0x00\n        /* \"Contracts/StoreTraffic.sol\":9759:9763  Bits */\n      0x08\n        /* \"Contracts/StoreTraffic.sol\":9764:9765  j */\n      dup3\n        /* \"Contracts/StoreTraffic.sol\":9759:9766  Bits[j] */\n      dup2\n      sload\n      dup2\n      lt\n      tag_159\n      jumpi\n      invalid\n    tag_159:\n      swap1\n      0x00\n      mstore\n      keccak256(0x00, 0x20)\n      add\n      sload\n        /* \"Contracts/StoreTraffic.sol\":9744:9766  uint256 mask = Bits[j] */\n      swap1\n      pop\n        /* \"Contracts/StoreTraffic.sol\":9789:9793  even */\n      dup7\n        /* \"Contracts/StoreTraffic.sol\":9784:9954  if (!even) {... */\n      tag_161\n      jumpi\n        /* \"Contracts/StoreTraffic.sol\":9829:9830  2 */\n      0x02\n        /* \"Contracts/StoreTraffic.sol\":9823:9826  lon */\n      dup7\n        /* \"Contracts/StoreTraffic.sol\":9823:9830  lon * 2 */\n      mul\n        /* \"Contracts/StoreTraffic.sol\":9817:9830  lon = lon * 2 */\n      swap6\n      pop\n        /* \"Contracts/StoreTraffic.sol\":9871:9872  0 */\n      0x00\n        /* \"Contracts/StoreTraffic.sol\":9862:9866  mask */\n      dup2\n        /* \"Contracts/StoreTraffic.sol\":9857:9859  cd */\n      dup5\n        /* \"Contracts/StoreTraffic.sol\":9857:9866  cd & mask */\n      and\n        /* \"Contracts/StoreTraffic.sol\":9856:9872  (cd & mask) != 0 */\n      eq\n        /* \"Contracts/StoreTraffic.sol\":9852:9936  if ((cd & mask) != 0) {... */\n      tag_162\n      jumpi\n        /* \"Contracts/StoreTraffic.sol\":9912:9913  1 */\n      0x01\n        /* \"Contracts/StoreTraffic.sol\":9906:9909  lon */\n      dup7\n        /* \"Contracts/StoreTraffic.sol\":9906:9913  lon + 1 */\n      add\n        /* \"Contracts/StoreTraffic.sol\":9900:9913  lon = lon + 1 */\n      swap6\n      pop\n        /* \"Contracts/StoreTraffic.sol\":9852:9936  if ((cd & mask) != 0) {... */\n    tag_162:\n        /* \"Contracts/StoreTraffic.sol\":9784:9954  if (!even) {... */\n    tag_161:\n        /* \"Contracts/StoreTraffic.sol\":9979:9983  even */\n      dup7\n        /* \"Contracts/StoreTraffic.sol\":9978:9983  !even */\n      iszero\n        /* \"Contracts/StoreTraffic.sol\":9971:9983  even = !even */\n      swap7\n      pop\n        /* \"Contracts/StoreTraffic.sol\":9694:9998  for (uint256 j = 0; j < 5; j++) {... */\n      pop\n        /* \"Contracts/StoreTraffic.sol\":9721:9724  j++ */\n      dup1\n      dup1\n      0x01\n      add\n      swap2\n      pop\n      pop\n        /* \"Contracts/StoreTraffic.sol\":9694:9998  for (uint256 j = 0; j < 5; j++) {... */\n      jump(tag_156)\n    tag_157:\n      pop\n        /* \"Contracts/StoreTraffic.sol\":9365:10008  for (uint256 i = 0; i < bytes(geohash).length; i++) {... */\n      pop\n      pop\n        /* \"Contracts/StoreTraffic.sol\":9412:9415  i++ */\n      dup1\n      dup1\n      0x01\n      add\n      swap2\n      pop\n      pop\n        /* \"Contracts/StoreTraffic.sol\":9365:10008  for (uint256 i = 0; i < bytes(geohash).length; i++) {... */\n      jump(tag_146)\n    tag_147:\n      pop\n        /* \"Contracts/StoreTraffic.sol\":10024:10027  lon */\n      dup1\n        /* \"Contracts/StoreTraffic.sol\":10017:10027  return lon */\n      swap3\n      pop\n      pop\n      pop\n        /* \"Contracts/StoreTraffic.sol\":9206:10034  function getLonBlock(string memory geohash) public view returns (uint256) {... */\n      swap2\n      swap1\n      pop\n      jump\t// out\n        /* \"Contracts/StoreTraffic.sol\":1678:1983  function initVehicle(bytes32 vehicleId, bytes32 geohash) public {... */\n    tag_70:\n        /* \"Contracts/StoreTraffic.sol\":1784:1793  vehicleId */\n      dup2\n        /* \"Contracts/StoreTraffic.sol\":1752:1760  vehicles */\n      0x01\n        /* \"Contracts/StoreTraffic.sol\":1752:1771  vehicles[vehicleId] */\n      0x00\n        /* \"Contracts/StoreTraffic.sol\":1761:1770  vehicleId */\n      dup5\n        /* \"Contracts/StoreTraffic.sol\":1752:1771  vehicles[vehicleId] */\n      dup2\n      mstore\n      0x20\n      add\n      swap1\n      dup2\n      mstore\n      0x20\n      add\n      0x00\n      keccak256\n        /* \"Contracts/StoreTraffic.sol\":1752:1781  vehicles[vehicleId].vehicleId */\n      0x00\n      add\n        /* \"Contracts/StoreTraffic.sol\":1752:1793  vehicles[vehicleId].vehicleId = vehicleId */\n      dup2\n      swap1\n      sstore\n      pop\n        /* \"Contracts/StoreTraffic.sol\":1834:1841  geohash */\n      dup1\n        /* \"Contracts/StoreTraffic.sol\":1803:1811  vehicles */\n      0x01\n        /* \"Contracts/StoreTraffic.sol\":1803:1822  vehicles[vehicleId] */\n      0x00\n        /* \"Contracts/StoreTraffic.sol\":1812:1821  vehicleId */\n      dup5\n        /* \"Contracts/StoreTraffic.sol\":1803:1822  vehicles[vehicleId] */\n      dup2\n      mstore\n      0x20\n      add\n      swap1\n      dup2\n      mstore\n      0x20\n      add\n      0x00\n      keccak256\n        /* \"Contracts/StoreTraffic.sol\":1803:1831  vehicles[vehicleId].position */\n      0x01\n      add\n        /* \"Contracts/StoreTraffic.sol\":1803:1841  vehicles[vehicleId].position = geohash */\n      dup2\n      swap1\n      sstore\n      pop\n        /* \"Contracts/StoreTraffic.sol\":1880:1881  0 */\n      0x00\n        /* \"Contracts/StoreTraffic.sol\":1851:1859  vehicles */\n      0x01\n        /* \"Contracts/StoreTraffic.sol\":1851:1870  vehicles[vehicleId] */\n      0x00\n        /* \"Contracts/StoreTraffic.sol\":1860:1869  vehicleId */\n      dup5\n        /* \"Contracts/StoreTraffic.sol\":1851:1870  vehicles[vehicleId] */\n      dup2\n      mstore\n      0x20\n      add\n      swap1\n      dup2\n      mstore\n      0x20\n      add\n      0x00\n      keccak256\n        /* \"Contracts/StoreTraffic.sol\":1851:1877  vehicles[vehicleId].status */\n      0x02\n      add\n        /* \"Contracts/StoreTraffic.sol\":1851:1881  vehicles[vehicleId].status = 0 */\n      dup2\n      swap1\n      sstore\n      pop\n        /* \"Contracts/StoreTraffic.sol\":1922:1931  vehicleId */\n      dup2\n        /* \"Contracts/StoreTraffic.sol\":1891:1903  vehiclesList */\n      0x02\n        /* \"Contracts/StoreTraffic.sol\":1891:1919  vehiclesList[vehiclesLength] */\n      0x00\n        /* \"Contracts/StoreTraffic.sol\":1904:1918  vehiclesLength */\n      sload(0x03)\n        /* \"Contracts/StoreTraffic.sol\":1891:1919  vehiclesList[vehiclesLength] */\n      dup2\n      mstore\n      0x20\n      add\n      swap1\n      dup2\n      mstore\n      0x20\n      add\n      0x00\n      keccak256\n        /* \"Contracts/StoreTraffic.sol\":1891:1931  vehiclesList[vehiclesLength] = vehicleId */\n      dup2\n      swap1\n      sstore\n      pop\n        /* \"Contracts/StoreTraffic.sol\":1975:1976  1 */\n      0x01\n        /* \"Contracts/StoreTraffic.sol\":1958:1972  vehiclesLength */\n      sload(0x03)\n        /* \"Contracts/StoreTraffic.sol\":1958:1976  vehiclesLength + 1 */\n      add\n        /* \"Contracts/StoreTraffic.sol\":1941:1955  vehiclesLength */\n      0x03\n        /* \"Contracts/StoreTraffic.sol\":1941:1976  vehiclesLength = vehiclesLength + 1 */\n      dup2\n      swap1\n      sstore\n      pop\n        /* \"Contracts/StoreTraffic.sol\":1678:1983  function initVehicle(bytes32 vehicleId, bytes32 geohash) public {... */\n      pop\n      pop\n      jump\t// out\n        /* \"Contracts/StoreTraffic.sol\":1989:2202  function deleteVehicle(bytes32 vehicleId) public {... */\n    tag_73:\n        /* \"Contracts/StoreTraffic.sol\":2065:2073  vehicles */\n      0x01\n        /* \"Contracts/StoreTraffic.sol\":2065:2084  vehicles[vehicleId] */\n      0x00\n        /* \"Contracts/StoreTraffic.sol\":2074:2083  vehicleId */\n      dup3\n        /* \"Contracts/StoreTraffic.sol\":2065:2084  vehicles[vehicleId] */\n      dup2\n      mstore\n      0x20\n      add\n      swap1\n      dup2\n      mstore\n      0x20\n      add\n      0x00\n      keccak256\n        /* \"Contracts/StoreTraffic.sol\":2065:2094  vehicles[vehicleId].vehicleId */\n      0x00\n      add\n      sload\n        /* \"Contracts/StoreTraffic.sol\":2052:2061  vehicleId */\n      dup2\n        /* \"Contracts/StoreTraffic.sol\":2052:2094  vehicleId == vehicles[vehicleId].vehicleId */\n      eq\n        /* \"Contracts/StoreTraffic.sol\":2048:2196  if (vehicleId == vehicles[vehicleId].vehicleId) {... */\n      iszero\n      tag_165\n      jumpi\n        /* \"Contracts/StoreTraffic.sol\":2117:2125  vehicles */\n      0x01\n        /* \"Contracts/StoreTraffic.sol\":2117:2136  vehicles[vehicleId] */\n      0x00\n        /* \"Contracts/StoreTraffic.sol\":2126:2135  vehicleId */\n      dup3\n        /* \"Contracts/StoreTraffic.sol\":2117:2136  vehicles[vehicleId] */\n      dup2\n      mstore\n      0x20\n      add\n      swap1\n      dup2\n      mstore\n      0x20\n      add\n      0x00\n      keccak256\n      0x00\n        /* \"Contracts/StoreTraffic.sol\":2110:2136  delete vehicles[vehicleId] */\n      dup1\n      dup3\n      add\n      0x00\n      swap1\n      sstore\n      0x01\n      dup3\n      add\n      0x00\n      swap1\n      sstore\n      0x02\n      dup3\n      add\n      0x00\n      swap1\n      sstore\n      pop\n      pop\n        /* \"Contracts/StoreTraffic.sol\":2184:2185  1 */\n      0x01\n        /* \"Contracts/StoreTraffic.sol\":2167:2181  vehiclesLength */\n      sload(0x03)\n        /* \"Contracts/StoreTraffic.sol\":2167:2185  vehiclesLength - 1 */\n      sub\n        /* \"Contracts/StoreTraffic.sol\":2150:2164  vehiclesLength */\n      0x03\n        /* \"Contracts/StoreTraffic.sol\":2150:2185  vehiclesLength = vehiclesLength - 1 */\n      dup2\n      swap1\n      sstore\n      pop\n        /* \"Contracts/StoreTraffic.sol\":2048:2196  if (vehicleId == vehicles[vehicleId].vehicleId) {... */\n    tag_165:\n        /* \"Contracts/StoreTraffic.sol\":1989:2202  function deleteVehicle(bytes32 vehicleId) public {... */\n      pop\n      jump\t// out\n        /* \"Contracts/StoreTraffic.sol\":2346:3016  function getVehicle(... */\n    tag_76:\n        /* \"Contracts/StoreTraffic.sol\":2427:2434  bytes32 */\n      0x00\n        /* \"Contracts/StoreTraffic.sol\":2436:2443  bytes32 */\n      dup1\n        /* \"Contracts/StoreTraffic.sol\":2455:2471  bytes32 position */\n      0x00\n        /* \"Contracts/StoreTraffic.sol\":2481:2494  uint256 index */\n      dup1\n        /* \"Contracts/StoreTraffic.sol\":2509:2518  uint256 i */\n      0x00\n        /* \"Contracts/StoreTraffic.sol\":2521:2522  0 */\n      dup1\n        /* \"Contracts/StoreTraffic.sol\":2509:2522  uint256 i = 0 */\n      swap1\n      pop\n        /* \"Contracts/StoreTraffic.sol\":2504:2962  for (uint256 i = 0; i < vehiclesLength; i++) {... */\n    tag_167:\n        /* \"Contracts/StoreTraffic.sol\":2528:2542  vehiclesLength */\n      sload(0x03)\n        /* \"Contracts/StoreTraffic.sol\":2524:2525  i */\n      dup2\n        /* \"Contracts/StoreTraffic.sol\":2524:2542  i < vehiclesLength */\n      lt\n        /* \"Contracts/StoreTraffic.sol\":2504:2962  for (uint256 i = 0; i < vehiclesLength; i++) {... */\n      iszero\n      tag_168\n      jumpi\n        /* \"Contracts/StoreTraffic.sol\":2708:2745  manhattan(passengerGeohash, position) */\n      tag_170\n        /* \"Contracts/StoreTraffic.sol\":2718:2734  passengerGeohash */\n      dup7\n        /* \"Contracts/StoreTraffic.sol\":2736:2744  position */\n      dup5\n        /* \"Contracts/StoreTraffic.sol\":2708:2717  manhattan */\n      tag_82\n        /* \"Contracts/StoreTraffic.sol\":2708:2745  manhattan(passengerGeohash, position) */\n      jump\t// in\n    tag_170:\n        /* \"Contracts/StoreTraffic.sol\":2584:2705  manhattan(... */\n      tag_171\n        /* \"Contracts/StoreTraffic.sol\":2615:2631  passengerGeohash */\n      dup8\n        /* \"Contracts/StoreTraffic.sol\":2653:2661  vehicles */\n      0x01\n        /* \"Contracts/StoreTraffic.sol\":2653:2678  vehicles[vehiclesList[i]] */\n      0x00\n        /* \"Contracts/StoreTraffic.sol\":2662:2674  vehiclesList */\n      0x02\n        /* \"Contracts/StoreTraffic.sol\":2662:2677  vehiclesList[i] */\n      0x00\n        /* \"Contracts/StoreTraffic.sol\":2675:2676  i */\n      dup8\n        /* \"Contracts/StoreTraffic.sol\":2662:2677  vehiclesList[i] */\n      dup2\n      mstore\n      0x20\n      add\n      swap1\n      dup2\n      mstore\n      0x20\n      add\n      0x00\n      keccak256\n      sload\n        /* \"Contracts/StoreTraffic.sol\":2653:2678  vehicles[vehiclesList[i]] */\n      dup2\n      mstore\n      0x20\n      add\n      swap1\n      dup2\n      mstore\n      0x20\n      add\n      0x00\n      keccak256\n        /* \"Contracts/StoreTraffic.sol\":2653:2687  vehicles[vehiclesList[i]].position */\n      0x01\n      add\n      sload\n        /* \"Contracts/StoreTraffic.sol\":2584:2593  manhattan */\n      tag_82\n        /* \"Contracts/StoreTraffic.sol\":2584:2705  manhattan(... */\n      jump\t// in\n    tag_171:\n        /* \"Contracts/StoreTraffic.sol\":2584:2745  manhattan(... */\n      lt\n        /* \"Contracts/StoreTraffic.sol\":2563:2952  if (... */\n      iszero\n      tag_172\n      jumpi\n        /* \"Contracts/StoreTraffic.sol\":2818:2819  0 */\n      0x00\n        /* \"Contracts/StoreTraffic.sol\":2782:2790  vehicles */\n      0x01\n        /* \"Contracts/StoreTraffic.sol\":2782:2807  vehicles[vehiclesList[i]] */\n      0x00\n        /* \"Contracts/StoreTraffic.sol\":2791:2803  vehiclesList */\n      0x02\n        /* \"Contracts/StoreTraffic.sol\":2791:2806  vehiclesList[i] */\n      0x00\n        /* \"Contracts/StoreTraffic.sol\":2804:2805  i */\n      dup6\n        /* \"Contracts/StoreTraffic.sol\":2791:2806  vehiclesList[i] */\n      dup2\n      mstore\n      0x20\n      add\n      swap1\n      dup2\n      mstore\n      0x20\n      add\n      0x00\n      keccak256\n      sload\n        /* \"Contracts/StoreTraffic.sol\":2782:2807  vehicles[vehiclesList[i]] */\n      dup2\n      mstore\n      0x20\n      add\n      swap1\n      dup2\n      mstore\n      0x20\n      add\n      0x00\n      keccak256\n        /* \"Contracts/StoreTraffic.sol\":2782:2814  vehicles[vehiclesList[i]].status */\n      0x02\n      add\n      sload\n        /* \"Contracts/StoreTraffic.sol\":2782:2819  vehicles[vehiclesList[i]].status == 0 */\n      eq\n        /* \"Contracts/StoreTraffic.sol\":2778:2938  if (vehicles[vehiclesList[i]].status == 0) {... */\n      iszero\n      tag_173\n      jumpi\n        /* \"Contracts/StoreTraffic.sol\":2854:2862  vehicles */\n      0x01\n        /* \"Contracts/StoreTraffic.sol\":2854:2879  vehicles[vehiclesList[i]] */\n      0x00\n        /* \"Contracts/StoreTraffic.sol\":2863:2875  vehiclesList */\n      0x02\n        /* \"Contracts/StoreTraffic.sol\":2863:2878  vehiclesList[i] */\n      0x00\n        /* \"Contracts/StoreTraffic.sol\":2876:2877  i */\n      dup5\n        /* \"Contracts/StoreTraffic.sol\":2863:2878  vehiclesList[i] */\n      dup2\n      mstore\n      0x20\n      add\n      swap1\n      dup2\n      mstore\n      0x20\n      add\n      0x00\n      keccak256\n      sload\n        /* \"Contracts/StoreTraffic.sol\":2854:2879  vehicles[vehiclesList[i]] */\n      dup2\n      mstore\n      0x20\n      add\n      swap1\n      dup2\n      mstore\n      0x20\n      add\n      0x00\n      keccak256\n        /* \"Contracts/StoreTraffic.sol\":2854:2888  vehicles[vehiclesList[i]].position */\n      0x01\n      add\n      sload\n        /* \"Contracts/StoreTraffic.sol\":2843:2888  position = vehicles[vehiclesList[i]].position */\n      swap3\n      pop\n        /* \"Contracts/StoreTraffic.sol\":2918:2919  i */\n      dup1\n        /* \"Contracts/StoreTraffic.sol\":2910:2919  index = i */\n      swap2\n      pop\n        /* \"Contracts/StoreTraffic.sol\":2778:2938  if (vehicles[vehiclesList[i]].status == 0) {... */\n    tag_173:\n        /* \"Contracts/StoreTraffic.sol\":2563:2952  if (... */\n    tag_172:\n        /* \"Contracts/StoreTraffic.sol\":2544:2547  i++ */\n      dup1\n      dup1\n      0x01\n      add\n      swap2\n      pop\n      pop\n        /* \"Contracts/StoreTraffic.sol\":2504:2962  for (uint256 i = 0; i < vehiclesLength; i++) {... */\n      jump(tag_167)\n    tag_168:\n      pop\n        /* \"Contracts/StoreTraffic.sol\":2979:2987  position */\n      dup2\n        /* \"Contracts/StoreTraffic.sol\":2989:3001  vehiclesList */\n      0x02\n        /* \"Contracts/StoreTraffic.sol\":2989:3008  vehiclesList[index] */\n      0x00\n        /* \"Contracts/StoreTraffic.sol\":3002:3007  index */\n      dup4\n        /* \"Contracts/StoreTraffic.sol\":2989:3008  vehiclesList[index] */\n      dup2\n      mstore\n      0x20\n      add\n      swap1\n      dup2\n      mstore\n      0x20\n      add\n      0x00\n      keccak256\n      sload\n        /* \"Contracts/StoreTraffic.sol\":2971:3009  return (position, vehiclesList[index]) */\n      swap4\n      pop\n      swap4\n      pop\n      pop\n      pop\n        /* \"Contracts/StoreTraffic.sol\":2346:3016  function getVehicle(... */\n      swap2\n      pop\n      swap2\n      jump\t// out\n        /* \"Contracts/StoreTraffic.sol\":4976:5252  function initPassenger(bytes32 passengerId, bytes32 geohash) public {... */\n    tag_79:\n        /* \"Contracts/StoreTraffic.sol\":5089:5096  geohash */\n      dup1\n        /* \"Contracts/StoreTraffic.sol\":5054:5064  passengers */\n      0x04\n        /* \"Contracts/StoreTraffic.sol\":5054:5077  passengers[passengerId] */\n      0x00\n        /* \"Contracts/StoreTraffic.sol\":5065:5076  passengerId */\n      dup5\n        /* \"Contracts/StoreTraffic.sol\":5054:5077  passengers[passengerId] */\n      dup2\n      mstore\n      0x20\n      add\n      swap1\n      dup2\n      mstore\n      0x20\n      add\n      0x00\n      keccak256\n        /* \"Contracts/StoreTraffic.sol\":5054:5086  passengers[passengerId].position */\n      0x01\n      add\n        /* \"Contracts/StoreTraffic.sol\":5054:5096  passengers[passengerId].position = geohash */\n      dup2\n      swap1\n      sstore\n      pop\n        /* \"Contracts/StoreTraffic.sol\":5139:5140  0 */\n      0x00\n        /* \"Contracts/StoreTraffic.sol\":5106:5116  passengers */\n      0x04\n        /* \"Contracts/StoreTraffic.sol\":5106:5129  passengers[passengerId] */\n      0x00\n        /* \"Contracts/StoreTraffic.sol\":5117:5128  passengerId */\n      dup5\n        /* \"Contracts/StoreTraffic.sol\":5106:5129  passengers[passengerId] */\n      dup2\n      mstore\n      0x20\n      add\n      swap1\n      dup2\n      mstore\n      0x20\n      add\n      0x00\n      keccak256\n        /* \"Contracts/StoreTraffic.sol\":5106:5136  passengers[passengerId].status */\n      0x04\n      add\n        /* \"Contracts/StoreTraffic.sol\":5106:5140  passengers[passengerId].status = 0 */\n      dup2\n      swap1\n      sstore\n      pop\n        /* \"Contracts/StoreTraffic.sol\":5185:5196  passengerId */\n      dup2\n        /* \"Contracts/StoreTraffic.sol\":5150:5164  passengersList */\n      0x05\n        /* \"Contracts/StoreTraffic.sol\":5150:5182  passengersList[passengersLength] */\n      0x00\n        /* \"Contracts/StoreTraffic.sol\":5165:5181  passengersLength */\n      sload(0x06)\n        /* \"Contracts/StoreTraffic.sol\":5150:5182  passengersList[passengersLength] */\n      dup2\n      mstore\n      0x20\n      add\n      swap1\n      dup2\n      mstore\n      0x20\n      add\n      0x00\n      keccak256\n        /* \"Contracts/StoreTraffic.sol\":5150:5196  passengersList[passengersLength] = passengerId */\n      dup2\n      swap1\n      sstore\n      pop\n        /* \"Contracts/StoreTraffic.sol\":5244:5245  1 */\n      0x01\n        /* \"Contracts/StoreTraffic.sol\":5225:5241  passengersLength */\n      sload(0x06)\n        /* \"Contracts/StoreTraffic.sol\":5225:5245  passengersLength + 1 */\n      add\n        /* \"Contracts/StoreTraffic.sol\":5206:5222  passengersLength */\n      0x06\n        /* \"Contracts/StoreTraffic.sol\":5206:5245  passengersLength = passengersLength + 1 */\n      dup2\n      swap1\n      sstore\n      pop\n        /* \"Contracts/StoreTraffic.sol\":4976:5252  function initPassenger(bytes32 passengerId, bytes32 geohash) public {... */\n      pop\n      pop\n      jump\t// out\n        /* \"Contracts/StoreTraffic.sol\":6111:7092  function manhattan(... */\n    tag_82:\n        /* \"Contracts/StoreTraffic.sol\":6214:6221  uint256 */\n      0x00\n        /* \"Contracts/StoreTraffic.sol\":6252:6262  endGeohash */\n      dup2\n        /* \"Contracts/StoreTraffic.sol\":6237:6248  nextGeohash */\n      dup4\n        /* \"Contracts/StoreTraffic.sol\":6237:6262  nextGeohash == endGeohash */\n      eq\n        /* \"Contracts/StoreTraffic.sol\":6233:6297  if (nextGeohash == endGeohash) {... */\n      iszero\n      tag_176\n      jumpi\n        /* \"Contracts/StoreTraffic.sol\":6285:6286  0 */\n      0x00\n        /* \"Contracts/StoreTraffic.sol\":6278:6286  return 0 */\n      swap1\n      pop\n      jump(tag_175)\n        /* \"Contracts/StoreTraffic.sol\":6233:6297  if (nextGeohash == endGeohash) {... */\n    tag_176:\n        /* \"Contracts/StoreTraffic.sol\":6396:6419  string memory shortNext */\n      0x60\n        /* \"Contracts/StoreTraffic.sol\":6429:6451  string memory shortEnd */\n      dup1\n        /* \"Contracts/StoreTraffic.sol\":6486:6523  sliceGeoHash(nextGeohash, endGeohash) */\n      tag_177\n        /* \"Contracts/StoreTraffic.sol\":6499:6510  nextGeohash */\n      dup6\n        /* \"Contracts/StoreTraffic.sol\":6512:6522  endGeohash */\n      dup6\n        /* \"Contracts/StoreTraffic.sol\":6486:6498  sliceGeoHash */\n      tag_112\n        /* \"Contracts/StoreTraffic.sol\":6486:6523  sliceGeoHash(nextGeohash, endGeohash) */\n      jump\t// in\n    tag_177:\n        /* \"Contracts/StoreTraffic.sol\":6462:6523  (shortNext, shortEnd) = sliceGeoHash(nextGeohash, endGeohash) */\n      dup1\n      swap3\n      pop\n      dup2\n      swap4\n      pop\n      pop\n      pop\n        /* \"Contracts/StoreTraffic.sol\":6534:6549  uint256 dislat1 */\n      0x00\n        /* \"Contracts/StoreTraffic.sol\":6552:6574  getLatBlock(shortNext) */\n      tag_178\n        /* \"Contracts/StoreTraffic.sol\":6564:6573  shortNext */\n      dup4\n        /* \"Contracts/StoreTraffic.sol\":6552:6563  getLatBlock */\n      tag_91\n        /* \"Contracts/StoreTraffic.sol\":6552:6574  getLatBlock(shortNext) */\n      jump\t// in\n    tag_178:\n        /* \"Contracts/StoreTraffic.sol\":6534:6574  uint256 dislat1 = getLatBlock(shortNext) */\n      swap1\n      pop\n        /* \"Contracts/StoreTraffic.sol\":6584:6599  uint256 dislat2 */\n      0x00\n        /* \"Contracts/StoreTraffic.sol\":6602:6623  getLatBlock(shortEnd) */\n      tag_179\n        /* \"Contracts/StoreTraffic.sol\":6614:6622  shortEnd */\n      dup4\n        /* \"Contracts/StoreTraffic.sol\":6602:6613  getLatBlock */\n      tag_91\n        /* \"Contracts/StoreTraffic.sol\":6602:6623  getLatBlock(shortEnd) */\n      jump\t// in\n    tag_179:\n        /* \"Contracts/StoreTraffic.sol\":6584:6623  uint256 dislat2 = getLatBlock(shortEnd) */\n      swap1\n      pop\n        /* \"Contracts/StoreTraffic.sol\":6633:6648  uint256 dislon1 */\n      0x00\n        /* \"Contracts/StoreTraffic.sol\":6651:6673  getLonBlock(shortNext) */\n      tag_180\n        /* \"Contracts/StoreTraffic.sol\":6663:6672  shortNext */\n      dup6\n        /* \"Contracts/StoreTraffic.sol\":6651:6662  getLonBlock */\n      tag_67\n        /* \"Contracts/StoreTraffic.sol\":6651:6673  getLonBlock(shortNext) */\n      jump\t// in\n    tag_180:\n        /* \"Contracts/StoreTraffic.sol\":6633:6673  uint256 dislon1 = getLonBlock(shortNext) */\n      swap1\n      pop\n        /* \"Contracts/StoreTraffic.sol\":6683:6698  uint256 dislon2 */\n      0x00\n        /* \"Contracts/StoreTraffic.sol\":6701:6722  getLonBlock(shortEnd) */\n      tag_181\n        /* \"Contracts/StoreTraffic.sol\":6713:6721  shortEnd */\n      dup6\n        /* \"Contracts/StoreTraffic.sol\":6701:6712  getLonBlock */\n      tag_67\n        /* \"Contracts/StoreTraffic.sol\":6701:6722  getLonBlock(shortEnd) */\n      jump\t// in\n    tag_181:\n        /* \"Contracts/StoreTraffic.sol\":6683:6722  uint256 dislon2 = getLonBlock(shortEnd) */\n      swap1\n      pop\n        /* \"Contracts/StoreTraffic.sol\":6733:6747  uint256 dislat */\n      0x00\n        /* \"Contracts/StoreTraffic.sol\":6757:6771  uint256 dislon */\n      dup1\n        /* \"Contracts/StoreTraffic.sol\":6795:6802  dislat1 */\n      dup6\n        /* \"Contracts/StoreTraffic.sol\":6785:6792  dislat2 */\n      dup6\n        /* \"Contracts/StoreTraffic.sol\":6785:6802  dislat2 > dislat1 */\n      gt\n        /* \"Contracts/StoreTraffic.sol\":6781:6912  if (dislat2 > dislat1) {... */\n      iszero\n      tag_182\n      jumpi\n        /* \"Contracts/StoreTraffic.sol\":6837:6844  dislat1 */\n      dup6\n        /* \"Contracts/StoreTraffic.sol\":6827:6834  dislat2 */\n      dup6\n        /* \"Contracts/StoreTraffic.sol\":6827:6844  dislat2 - dislat1 */\n      sub\n        /* \"Contracts/StoreTraffic.sol\":6818:6844  dislat = dislat2 - dislat1 */\n      swap2\n      pop\n        /* \"Contracts/StoreTraffic.sol\":6781:6912  if (dislat2 > dislat1) {... */\n      jump(tag_183)\n    tag_182:\n        /* \"Contracts/StoreTraffic.sol\":6894:6901  dislat2 */\n      dup5\n        /* \"Contracts/StoreTraffic.sol\":6884:6891  dislat1 */\n      dup7\n        /* \"Contracts/StoreTraffic.sol\":6884:6901  dislat1 - dislat2 */\n      sub\n        /* \"Contracts/StoreTraffic.sol\":6875:6901  dislat = dislat1 - dislat2 */\n      swap2\n      pop\n        /* \"Contracts/StoreTraffic.sol\":6781:6912  if (dislat2 > dislat1) {... */\n    tag_183:\n        /* \"Contracts/StoreTraffic.sol\":6935:6942  dislon1 */\n      dup4\n        /* \"Contracts/StoreTraffic.sol\":6925:6932  dislon2 */\n      dup4\n        /* \"Contracts/StoreTraffic.sol\":6925:6942  dislon2 > dislon1 */\n      gt\n        /* \"Contracts/StoreTraffic.sol\":6921:7052  if (dislon2 > dislon1) {... */\n      iszero\n      tag_184\n      jumpi\n        /* \"Contracts/StoreTraffic.sol\":6977:6984  dislon1 */\n      dup4\n        /* \"Contracts/StoreTraffic.sol\":6967:6974  dislon2 */\n      dup4\n        /* \"Contracts/StoreTraffic.sol\":6967:6984  dislon2 - dislon1 */\n      sub\n        /* \"Contracts/StoreTraffic.sol\":6958:6984  dislon = dislon2 - dislon1 */\n      swap1\n      pop\n        /* \"Contracts/StoreTraffic.sol\":6921:7052  if (dislon2 > dislon1) {... */\n      jump(tag_185)\n    tag_184:\n        /* \"Contracts/StoreTraffic.sol\":7034:7041  dislon2 */\n      dup3\n        /* \"Contracts/StoreTraffic.sol\":7024:7031  dislon1 */\n      dup5\n        /* \"Contracts/StoreTraffic.sol\":7024:7041  dislon1 - dislon2 */\n      sub\n        /* \"Contracts/StoreTraffic.sol\":7015:7041  dislon = dislon1 - dislon2 */\n      swap1\n      pop\n        /* \"Contracts/StoreTraffic.sol\":6921:7052  if (dislon2 > dislon1) {... */\n    tag_185:\n        /* \"Contracts/StoreTraffic.sol\":7078:7084  dislon */\n      dup1\n        /* \"Contracts/StoreTraffic.sol\":7069:7075  dislat */\n      dup3\n        /* \"Contracts/StoreTraffic.sol\":7069:7084  dislat + dislon */\n      add\n        /* \"Contracts/StoreTraffic.sol\":7061:7085  return (dislat + dislon) */\n      swap9\n      pop\n      pop\n      pop\n      pop\n      pop\n      pop\n      pop\n      pop\n      pop\n        /* \"Contracts/StoreTraffic.sol\":6111:7092  function manhattan(... */\n    tag_175:\n      swap3\n      swap2\n      pop\n      pop\n      jump\t// out\n        /* \"Contracts/StoreTraffic.sol\":3762:3923  function getVehicleStatus(bytes32 vehicleId) public view returns (int32) {... */\n    tag_85:\n        /* \"Contracts/StoreTraffic.sol\":3828:3833  int32 */\n      0x00\n        /* \"Contracts/StoreTraffic.sol\":3845:3857  int32 status */\n      dup1\n        /* \"Contracts/StoreTraffic.sol\":3866:3874  vehicles */\n      0x01\n        /* \"Contracts/StoreTraffic.sol\":3866:3885  vehicles[vehicleId] */\n      0x00\n        /* \"Contracts/StoreTraffic.sol\":3875:3884  vehicleId */\n      dup5\n        /* \"Contracts/StoreTraffic.sol\":3866:3885  vehicles[vehicleId] */\n      dup2\n      mstore\n      0x20\n      add\n      swap1\n      dup2\n      mstore\n      0x20\n      add\n      0x00\n      keccak256\n        /* \"Contracts/StoreTraffic.sol\":3866:3892  vehicles[vehicleId].status */\n      0x02\n      add\n      sload\n        /* \"Contracts/StoreTraffic.sol\":3845:3893  int32 status = int32(vehicles[vehicleId].status) */\n      swap1\n      pop\n        /* \"Contracts/StoreTraffic.sol\":3910:3916  status */\n      dup1\n        /* \"Contracts/StoreTraffic.sol\":3903:3916  return status */\n      swap2\n      pop\n      pop\n        /* \"Contracts/StoreTraffic.sol\":3762:3923  function getVehicleStatus(bytes32 vehicleId) public view returns (int32) {... */\n      swap2\n      swap1\n      pop\n      jump\t// out\n        /* \"Contracts/StoreTraffic.sol\":8338:9165  function getLatBlock(string memory geohash) public view returns (uint256) {... */\n    tag_91:\n        /* \"Contracts/StoreTraffic.sol\":8403:8410  uint256 */\n      0x00\n        /* \"Contracts/StoreTraffic.sol\":8446:8455  bool even */\n      dup1\n        /* \"Contracts/StoreTraffic.sol\":8458:8462  true */\n      0x01\n        /* \"Contracts/StoreTraffic.sol\":8446:8462  bool even = true */\n      swap1\n      pop\n        /* \"Contracts/StoreTraffic.sol\":8472:8483  uint256 lat */\n      0x00\n        /* \"Contracts/StoreTraffic.sol\":8486:8487  0 */\n      dup1\n        /* \"Contracts/StoreTraffic.sol\":8472:8487  uint256 lat = 0 */\n      swap1\n      pop\n        /* \"Contracts/StoreTraffic.sol\":8502:8511  uint256 i */\n      0x00\n        /* \"Contracts/StoreTraffic.sol\":8514:8515  0 */\n      dup1\n        /* \"Contracts/StoreTraffic.sol\":8502:8515  uint256 i = 0 */\n      swap1\n      pop\n        /* \"Contracts/StoreTraffic.sol\":8497:9139  for (uint256 i = 0; i < bytes(geohash).length; i++) {... */\n    tag_188:\n        /* \"Contracts/StoreTraffic.sol\":8527:8534  geohash */\n      dup5\n        /* \"Contracts/StoreTraffic.sol\":8521:8542  bytes(geohash).length */\n      mload\n        /* \"Contracts/StoreTraffic.sol\":8517:8518  i */\n      dup2\n        /* \"Contracts/StoreTraffic.sol\":8517:8542  i < bytes(geohash).length */\n      lt\n        /* \"Contracts/StoreTraffic.sol\":8497:9139  for (uint256 i = 0; i < bytes(geohash).length; i++) {... */\n      iszero\n      tag_189\n      jumpi\n        /* \"Contracts/StoreTraffic.sol\":8563:8571  bytes1 c */\n      0x00\n        /* \"Contracts/StoreTraffic.sol\":8580:8587  geohash */\n      dup6\n        /* \"Contracts/StoreTraffic.sol\":8589:8590  i */\n      dup3\n        /* \"Contracts/StoreTraffic.sol\":8574:8591  bytes(geohash)[i] */\n      dup2\n      mload\n      dup2\n      lt\n      tag_191\n      jumpi\n      invalid\n    tag_191:\n      0x20\n      add\n      add\n      mload\n      0xf8\n      shr\n      0xf8\n      shl\n        /* \"Contracts/StoreTraffic.sol\":8563:8591  bytes1 c = bytes(geohash)[i] */\n      swap1\n      pop\n        /* \"Contracts/StoreTraffic.sol\":8605:8615  uint256 cd */\n      0x00\n        /* \"Contracts/StoreTraffic.sol\":8634:8643  uint256 j */\n      dup1\n        /* \"Contracts/StoreTraffic.sol\":8646:8647  0 */\n      0x00\n        /* \"Contracts/StoreTraffic.sol\":8634:8647  uint256 j = 0 */\n      swap1\n      pop\n        /* \"Contracts/StoreTraffic.sol\":8629:8813  for (uint256 j = 0; j < bytes(Base32).length; j++) {... */\n    tag_192:\n        /* \"Contracts/StoreTraffic.sol\":8659:8665  Base32 */\n      0x09\n        /* \"Contracts/StoreTraffic.sol\":8653:8673  bytes(Base32).length */\n      dup1\n      sload\n      0x01\n      dup2\n      0x01\n      and\n      iszero\n      0x0100\n      mul\n      sub\n      and\n      0x02\n      swap1\n      div\n      swap1\n      pop\n        /* \"Contracts/StoreTraffic.sol\":8649:8650  j */\n      dup2\n        /* \"Contracts/StoreTraffic.sol\":8649:8673  j < bytes(Base32).length */\n      lt\n        /* \"Contracts/StoreTraffic.sol\":8629:8813  for (uint256 j = 0; j < bytes(Base32).length; j++) {... */\n      iszero\n      tag_193\n      jumpi\n        /* \"Contracts/StoreTraffic.sol\":8722:8723  c */\n      dup3\n        /* \"Contracts/StoreTraffic.sol\":8702:8723  bytes(Base32)[j] == c */\n      not(0xffffffffffffffffffffffffffffffffffffffffffffffffffffffffffffff)\n      and\n        /* \"Contracts/StoreTraffic.sol\":8708:8714  Base32 */\n      0x09\n        /* \"Contracts/StoreTraffic.sol\":8716:8717  j */\n      dup3\n        /* \"Contracts/StoreTraffic.sol\":8702:8718  bytes(Base32)[j] */\n      dup2\n      sload\n      0x01\n      dup2\n      0x01\n      and\n      iszero\n      0x0100\n      mul\n      sub\n      and\n      0x02\n      swap1\n      div\n      dup2\n      lt\n      tag_195\n      jumpi\n      invalid\n    tag_195:\n      dup2\n      sload\n      0x01\n      and\n      iszero\n      tag_196\n      jumpi\n      swap1\n      0x00\n      mstore\n      keccak256(0x00, 0x20)\n      swap1\n      0x20\n      swap2\n      dup3\n      dup3\n      div\n      add\n      swap2\n      swap1\n      mod\n    tag_196:\n      swap1\n      sload\n      swap1\n      byte\n      0x0100000000000000000000000000000000000000000000000000000000000000\n      mul\n        /* \"Contracts/StoreTraffic.sol\":8702:8723  bytes(Base32)[j] == c */\n      not(0xffffffffffffffffffffffffffffffffffffffffffffffffffffffffffffff)\n      and\n      eq\n        /* \"Contracts/StoreTraffic.sol\":8698:8799  if (bytes(Base32)[j] == c) {... */\n      iszero\n      tag_197\n      jumpi\n        /* \"Contracts/StoreTraffic.sol\":8752:8753  j */\n      dup1\n        /* \"Contracts/StoreTraffic.sol\":8747:8753  cd = j */\n      swap2\n      pop\n        /* \"Contracts/StoreTraffic.sol\":8775:8780  break */\n      jump(tag_193)\n        /* \"Contracts/StoreTraffic.sol\":8698:8799  if (bytes(Base32)[j] == c) {... */\n    tag_197:\n        /* \"Contracts/StoreTraffic.sol\":8675:8678  j++ */\n      dup1\n      dup1\n      0x01\n      add\n      swap2\n      pop\n      pop\n        /* \"Contracts/StoreTraffic.sol\":8629:8813  for (uint256 j = 0; j < bytes(Base32).length; j++) {... */\n      jump(tag_192)\n    tag_193:\n      pop\n        /* \"Contracts/StoreTraffic.sol\":8831:8840  uint256 j */\n      0x00\n        /* \"Contracts/StoreTraffic.sol\":8843:8844  0 */\n      dup1\n        /* \"Contracts/StoreTraffic.sol\":8831:8844  uint256 j = 0 */\n      swap1\n      pop\n        /* \"Contracts/StoreTraffic.sol\":8826:9129  for (uint256 j = 0; j < 5; j++) {... */\n    tag_198:\n        /* \"Contracts/StoreTraffic.sol\":8850:8851  5 */\n      0x05\n        /* \"Contracts/StoreTraffic.sol\":8846:8847  j */\n      dup2\n        /* \"Contracts/StoreTraffic.sol\":8846:8851  j < 5 */\n      lt\n        /* \"Contracts/StoreTraffic.sol\":8826:9129  for (uint256 j = 0; j < 5; j++) {... */\n      iszero\n      tag_199\n      jumpi\n        /* \"Contracts/StoreTraffic.sol\":8876:8888  uint256 mask */\n      0x00\n        /* \"Contracts/StoreTraffic.sol\":8891:8895  Bits */\n      0x08\n        /* \"Contracts/StoreTraffic.sol\":8896:8897  j */\n      dup3\n        /* \"Contracts/StoreTraffic.sol\":8891:8898  Bits[j] */\n      dup2\n      sload\n      dup2\n      lt\n      tag_201\n      jumpi\n      invalid\n    tag_201:\n      swap1\n      0x00\n      mstore\n      keccak256(0x00, 0x20)\n      add\n      sload\n        /* \"Contracts/StoreTraffic.sol\":8876:8898  uint256 mask = Bits[j] */\n      swap1\n      pop\n        /* \"Contracts/StoreTraffic.sol\":8920:8924  even */\n      dup7\n        /* \"Contracts/StoreTraffic.sol\":8916:9085  if (even) {... */\n      iszero\n      tag_203\n      jumpi\n        /* \"Contracts/StoreTraffic.sol\":8960:8961  2 */\n      0x02\n        /* \"Contracts/StoreTraffic.sol\":8954:8957  lat */\n      dup7\n        /* \"Contracts/StoreTraffic.sol\":8954:8961  lat * 2 */\n      mul\n        /* \"Contracts/StoreTraffic.sol\":8948:8961  lat = lat * 2 */\n      swap6\n      pop\n        /* \"Contracts/StoreTraffic.sol\":9002:9003  0 */\n      0x00\n        /* \"Contracts/StoreTraffic.sol\":8993:8997  mask */\n      dup2\n        /* \"Contracts/StoreTraffic.sol\":8988:8990  cd */\n      dup5\n        /* \"Contracts/StoreTraffic.sol\":8988:8997  cd & mask */\n      and\n        /* \"Contracts/StoreTraffic.sol\":8987:9003  (cd & mask) != 0 */\n      eq\n        /* \"Contracts/StoreTraffic.sol\":8983:9067  if ((cd & mask) != 0) {... */\n      tag_204\n      jumpi\n        /* \"Contracts/StoreTraffic.sol\":9043:9044  1 */\n      0x01\n        /* \"Contracts/StoreTraffic.sol\":9037:9040  lat */\n      dup7\n        /* \"Contracts/StoreTraffic.sol\":9037:9044  lat + 1 */\n      add\n        /* \"Contracts/StoreTraffic.sol\":9031:9044  lat = lat + 1 */\n      swap6\n      pop\n        /* \"Contracts/StoreTraffic.sol\":8983:9067  if ((cd & mask) != 0) {... */\n    tag_204:\n        /* \"Contracts/StoreTraffic.sol\":8916:9085  if (even) {... */\n    tag_203:\n        /* \"Contracts/StoreTraffic.sol\":9110:9114  even */\n      dup7\n        /* \"Contracts/StoreTraffic.sol\":9109:9114  !even */\n      iszero\n        /* \"Contracts/StoreTraffic.sol\":9102:9114  even = !even */\n      swap7\n      pop\n        /* \"Contracts/StoreTraffic.sol\":8826:9129  for (uint256 j = 0; j < 5; j++) {... */\n      pop\n        /* \"Contracts/StoreTraffic.sol\":8853:8856  j++ */\n      dup1\n      dup1\n      0x01\n      add\n      swap2\n      pop\n      pop\n        /* \"Contracts/StoreTraffic.sol\":8826:9129  for (uint256 j = 0; j < 5; j++) {... */\n      jump(tag_198)\n    tag_199:\n      pop\n        /* \"Contracts/StoreTraffic.sol\":8497:9139  for (uint256 i = 0; i < bytes(geohash).length; i++) {... */\n      pop\n      pop\n        /* \"Contracts/StoreTraffic.sol\":8544:8547  i++ */\n      dup1\n      dup1\n      0x01\n      add\n      swap2\n      pop\n      pop\n        /* \"Contracts/StoreTraffic.sol\":8497:9139  for (uint256 i = 0; i < bytes(geohash).length; i++) {... */\n      jump(tag_188)\n    tag_189:\n      pop\n        /* \"Contracts/StoreTraffic.sol\":9155:9158  lat */\n      dup1\n        /* \"Contracts/StoreTraffic.sol\":9148:9158  return lat */\n      swap3\n      pop\n      pop\n      pop\n        /* \"Contracts/StoreTraffic.sol\":8338:9165  function getLatBlock(string memory geohash) public view returns (uint256) {... */\n      swap2\n      swap1\n      pop\n      jump\t// out\n        /* \"Contracts/StoreTraffic.sol\":5258:5432  function setPassengerPosition(... */\n    tag_94:\n        /* \"Contracts/StoreTraffic.sol\":5409:5425  passengerGeohash */\n      dup1\n        /* \"Contracts/StoreTraffic.sol\":5374:5384  passengers */\n      0x04\n        /* \"Contracts/StoreTraffic.sol\":5374:5397  passengers[passengerId] */\n      0x00\n        /* \"Contracts/StoreTraffic.sol\":5385:5396  passengerId */\n      dup5\n        /* \"Contracts/StoreTraffic.sol\":5374:5397  passengers[passengerId] */\n      dup2\n      mstore\n      0x20\n      add\n      swap1\n      dup2\n      mstore\n      0x20\n      add\n      0x00\n      keccak256\n        /* \"Contracts/StoreTraffic.sol\":5374:5406  passengers[passengerId].position */\n      0x01\n      add\n        /* \"Contracts/StoreTraffic.sol\":5374:5425  passengers[passengerId].position = passengerGeohash */\n      dup2\n      swap1\n      sstore\n      pop\n        /* \"Contracts/StoreTraffic.sol\":5258:5432  function setPassengerPosition(... */\n      pop\n      pop\n      jump\t// out\n        /* \"Contracts/StoreTraffic.sol\":5445:5684  function setPassengerDemand(... */\n    tag_97:\n        /* \"Contracts/StoreTraffic.sol\":5615:5627  startGeohash */\n      dup2\n        /* \"Contracts/StoreTraffic.sol\":5583:5593  passengers */\n      0x04\n        /* \"Contracts/StoreTraffic.sol\":5583:5606  passengers[passengerId] */\n      0x00\n        /* \"Contracts/StoreTraffic.sol\":5594:5605  passengerId */\n      dup6\n        /* \"Contracts/StoreTraffic.sol\":5583:5606  passengers[passengerId] */\n      dup2\n      mstore\n      0x20\n      add\n      swap1\n      dup2\n      mstore\n      0x20\n      add\n      0x00\n      keccak256\n        /* \"Contracts/StoreTraffic.sol\":5583:5612  passengers[passengerId].start */\n      0x02\n      add\n        /* \"Contracts/StoreTraffic.sol\":5583:5627  passengers[passengerId].start = startGeohash */\n      dup2\n      swap1\n      sstore\n      pop\n        /* \"Contracts/StoreTraffic.sol\":5667:5677  endGeohash */\n      dup1\n        /* \"Contracts/StoreTraffic.sol\":5637:5647  passengers */\n      0x04\n        /* \"Contracts/StoreTraffic.sol\":5637:5660  passengers[passengerId] */\n      0x00\n        /* \"Contracts/StoreTraffic.sol\":5648:5659  passengerId */\n      dup6\n        /* \"Contracts/StoreTraffic.sol\":5637:5660  passengers[passengerId] */\n      dup2\n      mstore\n      0x20\n      add\n      swap1\n      dup2\n      mstore\n      0x20\n      add\n      0x00\n      keccak256\n        /* \"Contracts/StoreTraffic.sol\":5637:5664  passengers[passengerId].end */\n      0x03\n      add\n        /* \"Contracts/StoreTraffic.sol\":5637:5677  passengers[passengerId].end = endGeohash */\n      dup2\n      swap1\n      sstore\n      pop\n        /* \"Contracts/StoreTraffic.sol\":5445:5684  function setPassengerDemand(... */\n      pop\n      pop\n      pop\n      jump\t// out\n        /* \"Contracts/StoreTraffic.sol\":146:233  function confirmPay(bytes32 vehicleId) public {... */\n    tag_100:\n        /* \"Contracts/StoreTraffic.sol\":207:226  payEvent(vehicleId) */\n      0x2df740085e71317ac451dce57ca685ff2946f6b1be05b2add35114a5e1e63126\n        /* \"Contracts/StoreTraffic.sol\":216:225  vehicleId */\n      dup2\n        /* \"Contracts/StoreTraffic.sol\":207:226  payEvent(vehicleId) */\n      mload(0x40)\n      dup1\n      dup3\n      dup2\n      mstore\n      0x20\n      add\n      swap2\n      pop\n      pop\n      mload(0x40)\n      dup1\n      swap2\n      sub\n      swap1\n      log1\n        /* \"Contracts/StoreTraffic.sol\":146:233  function confirmPay(bytes32 vehicleId) public {... */\n      pop\n      jump\t// out\n        /* \"Contracts/StoreTraffic.sol\":4453:4640  function setRejectVehicleStatus(... */\n    tag_103:\n        /* \"Contracts/StoreTraffic.sol\":4593:4594  0 */\n      0x00\n        /* \"Contracts/StoreTraffic.sol\":4564:4572  vehicles */\n      0x01\n        /* \"Contracts/StoreTraffic.sol\":4564:4583  vehicles[vehicleId] */\n      0x00\n        /* \"Contracts/StoreTraffic.sol\":4573:4582  vehicleId */\n      dup5\n        /* \"Contracts/StoreTraffic.sol\":4564:4583  vehicles[vehicleId] */\n      dup2\n      mstore\n      0x20\n      add\n      swap1\n      dup2\n      mstore\n      0x20\n      add\n      0x00\n      keccak256\n        /* \"Contracts/StoreTraffic.sol\":4564:4590  vehicles[vehicleId].status */\n      0x02\n      add\n        /* \"Contracts/StoreTraffic.sol\":4564:4594  vehicles[vehicleId].status = 0 */\n      dup2\n      swap1\n      sstore\n      pop\n        /* \"Contracts/StoreTraffic.sol\":4609:4633  rejectEvent(passengerId) */\n      0xd80dcda4b9270200beb859c5af63a5992ab12a6a531137d47b3804e62ef81db7\n        /* \"Contracts/StoreTraffic.sol\":4621:4632  passengerId */\n      dup2\n        /* \"Contracts/StoreTraffic.sol\":4609:4633  rejectEvent(passengerId) */\n      mload(0x40)\n      dup1\n      dup3\n      dup2\n      mstore\n      0x20\n      add\n      swap2\n      pop\n      pop\n      mload(0x40)\n      dup1\n      swap2\n      sub\n      swap1\n      log1\n        /* \"Contracts/StoreTraffic.sol\":4453:4640  function setRejectVehicleStatus(... */\n      pop\n      pop\n      jump\t// out\n        /* \"Contracts/StoreTraffic.sol\":7171:7310  function changePrecision(uint256 newPrecision) public returns (uint256) {... */\n    tag_106:\n        /* \"Contracts/StoreTraffic.sol\":7234:7241  uint256 */\n      0x00\n        /* \"Contracts/StoreTraffic.sol\":7265:7277  newPrecision */\n      dup2\n        /* \"Contracts/StoreTraffic.sol\":7253:7262  PRECISION */\n      0x07\n        /* \"Contracts/StoreTraffic.sol\":7253:7277  PRECISION = newPrecision */\n      dup2\n      swap1\n      sstore\n      pop\n        /* \"Contracts/StoreTraffic.sol\":7294:7303  PRECISION */\n      sload(0x07)\n        /* \"Contracts/StoreTraffic.sol\":7287:7303  return PRECISION */\n      swap1\n      pop\n        /* \"Contracts/StoreTraffic.sol\":7171:7310  function changePrecision(uint256 newPrecision) public returns (uint256) {... */\n      swap2\n      swap1\n      pop\n      jump\t// out\n        /* \"Contracts/StoreTraffic.sol\":3929:4218  function setVehicleStatus(... */\n    tag_109:\n        /* \"Contracts/StoreTraffic.sol\":4105:4106  0 */\n      0x00\n        /* \"Contracts/StoreTraffic.sol\":4075:4083  vehicles */\n      0x01\n        /* \"Contracts/StoreTraffic.sol\":4075:4094  vehicles[vehicleId] */\n      0x00\n        /* \"Contracts/StoreTraffic.sol\":4084:4093  vehicleId */\n      dup6\n        /* \"Contracts/StoreTraffic.sol\":4075:4094  vehicles[vehicleId] */\n      dup2\n      mstore\n      0x20\n      add\n      swap1\n      dup2\n      mstore\n      0x20\n      add\n      0x00\n      keccak256\n        /* \"Contracts/StoreTraffic.sol\":4075:4101  vehicles[vehicleId].status */\n      0x02\n      add\n      sload\n        /* \"Contracts/StoreTraffic.sol\":4075:4106  vehicles[vehicleId].status == 0 */\n      eq\n        /* \"Contracts/StoreTraffic.sol\":4068:4107  assert(vehicles[vehicleId].status == 0) */\n      tag_211\n      jumpi\n      invalid\n    tag_211:\n        /* \"Contracts/StoreTraffic.sol\":4122:4171  Myevent(vehicleId, passengerId, passengerGeohash) */\n      0xa495e9fee02ccf4d2800ca5b3ddfce556daf13b6f9b479eebbc64019ca11042c\n        /* \"Contracts/StoreTraffic.sol\":4130:4139  vehicleId */\n      dup4\n        /* \"Contracts/StoreTraffic.sol\":4141:4152  passengerId */\n      dup4\n        /* \"Contracts/StoreTraffic.sol\":4154:4170  passengerGeohash */\n      dup4\n        /* \"Contracts/StoreTraffic.sol\":4122:4171  Myevent(vehicleId, passengerId, passengerGeohash) */\n      mload(0x40)\n      dup1\n      dup5\n      dup2\n      mstore\n      0x20\n      add\n      dup4\n      dup2\n      mstore\n      0x20\n      add\n      dup3\n      dup2\n      mstore\n      0x20\n      add\n      swap4\n      pop\n      pop\n      pop\n      pop\n      mload(0x40)\n      dup1\n      swap2\n      sub\n      swap1\n      log1\n        /* \"Contracts/StoreTraffic.sol\":4210:4211  1 */\n      0x01\n        /* \"Contracts/StoreTraffic.sol\":4181:4189  vehicles */\n      dup1\n        /* \"Contracts/StoreTraffic.sol\":4181:4200  vehicles[vehicleId] */\n      0x00\n        /* \"Contracts/StoreTraffic.sol\":4190:4199  vehicleId */\n      dup6\n        /* \"Contracts/StoreTraffic.sol\":4181:4200  vehicles[vehicleId] */\n      dup2\n      mstore\n      0x20\n      add\n      swap1\n      dup2\n      mstore\n      0x20\n      add\n      0x00\n      keccak256\n        /* \"Contracts/StoreTraffic.sol\":4181:4207  vehicles[vehicleId].status */\n      0x02\n      add\n        /* \"Contracts/StoreTraffic.sol\":4181:4211  vehicles[vehicleId].status = 1 */\n      dup2\n      swap1\n      sstore\n      pop\n        /* \"Contracts/StoreTraffic.sol\":3929:4218  function setVehicleStatus(... */\n      pop\n      pop\n      pop\n      jump\t// out\n        /* \"Contracts/StoreTraffic.sol\":7316:8201  function sliceGeoHash(... */\n    tag_112:\n        /* \"Contracts/StoreTraffic.sol\":7417:7430  string memory */\n      0x60\n        /* \"Contracts/StoreTraffic.sol\":7432:7445  string memory */\n      dup1\n        /* \"Contracts/StoreTraffic.sol\":7457:7469  bytes32 geo1 */\n      0x00\n        /* \"Contracts/StoreTraffic.sol\":7472:7480  geohash1 */\n      dup5\n        /* \"Contracts/StoreTraffic.sol\":7457:7480  bytes32 geo1 = geohash1 */\n      swap1\n      pop\n        /* \"Contracts/StoreTraffic.sol\":7490:7502  bytes32 geo2 */\n      0x00\n        /* \"Contracts/StoreTraffic.sol\":7505:7513  geohash2 */\n      dup5\n        /* \"Contracts/StoreTraffic.sol\":7490:7513  bytes32 geo2 = geohash2 */\n      swap1\n      pop\n        /* \"Contracts/StoreTraffic.sol\":7523:7534  uint256 len */\n      0x00\n        /* \"Contracts/StoreTraffic.sol\":7537:7548  geo1.length */\n      0x20\n        /* \"Contracts/StoreTraffic.sol\":7523:7548  uint256 len = geo1.length */\n      0xff\n      and\n      swap1\n      pop\n        /* \"Contracts/StoreTraffic.sol\":7598:7611  uint256 index */\n      0x00\n        /* \"Contracts/StoreTraffic.sol\":7656:7667  uint256 dif */\n      dup1\n        /* \"Contracts/StoreTraffic.sol\":7670:7671  0 */\n      0x00\n        /* \"Contracts/StoreTraffic.sol\":7656:7671  uint256 dif = 0 */\n      swap1\n      pop\n        /* \"Contracts/StoreTraffic.sol\":7694:7695  0 */\n      0x00\n        /* \"Contracts/StoreTraffic.sol\":7686:7695  index = 0 */\n      swap2\n      pop\n        /* \"Contracts/StoreTraffic.sol\":7681:7813  for (index = 0; index < len; index++) {... */\n    tag_213:\n        /* \"Contracts/StoreTraffic.sol\":7705:7708  len */\n      dup3\n        /* \"Contracts/StoreTraffic.sol\":7697:7702  index */\n      dup3\n        /* \"Contracts/StoreTraffic.sol\":7697:7708  index < len */\n      lt\n        /* \"Contracts/StoreTraffic.sol\":7681:7813  for (index = 0; index < len; index++) {... */\n      iszero\n      tag_214\n      jumpi\n        /* \"Contracts/StoreTraffic.sol\":7752:7756  geo2 */\n      dup4\n        /* \"Contracts/StoreTraffic.sol\":7757:7762  index */\n      dup3\n        /* \"Contracts/StoreTraffic.sol\":7752:7763  geo2[index] */\n      0x20\n      dup2\n      lt\n      tag_216\n      jumpi\n      invalid\n    tag_216:\n      byte\n      0xf8\n      shl\n        /* \"Contracts/StoreTraffic.sol\":7737:7763  geo1[index] != geo2[index] */\n      not(0xffffffffffffffffffffffffffffffffffffffffffffffffffffffffffffff)\n      and\n        /* \"Contracts/StoreTraffic.sol\":7737:7741  geo1 */\n      dup6\n        /* \"Contracts/StoreTraffic.sol\":7742:7747  index */\n      dup4\n        /* \"Contracts/StoreTraffic.sol\":7737:7748  geo1[index] */\n      0x20\n      dup2\n      lt\n      tag_217\n      jumpi\n      invalid\n    tag_217:\n      byte\n      0xf8\n      shl\n        /* \"Contracts/StoreTraffic.sol\":7737:7763  geo1[index] != geo2[index] */\n      not(0xffffffffffffffffffffffffffffffffffffffffffffffffffffffffffffff)\n      and\n      eq\n        /* \"Contracts/StoreTraffic.sol\":7733:7803  if (geo1[index] != geo2[index]) {... */\n      tag_218\n      jumpi\n        /* \"Contracts/StoreTraffic.sol\":7783:7788  break */\n      jump(tag_214)\n        /* \"Contracts/StoreTraffic.sol\":7733:7803  if (geo1[index] != geo2[index]) {... */\n    tag_218:\n        /* \"Contracts/StoreTraffic.sol\":7710:7717  index++ */\n      dup2\n      dup1\n      0x01\n      add\n      swap3\n      pop\n      pop\n        /* \"Contracts/StoreTraffic.sol\":7681:7813  for (index = 0; index < len; index++) {... */\n      jump(tag_213)\n    tag_214:\n        /* \"Contracts/StoreTraffic.sol\":7840:7845  index */\n      dup2\n        /* \"Contracts/StoreTraffic.sol\":7828:7837  PRECISION */\n      sload(0x07)\n        /* \"Contracts/StoreTraffic.sol\":7828:7845  PRECISION - index */\n      sub\n        /* \"Contracts/StoreTraffic.sol\":7822:7845  dif = PRECISION - index */\n      swap1\n      pop\n        /* \"Contracts/StoreTraffic.sol\":7855:7869  uint256 index2 */\n      0x00\n        /* \"Contracts/StoreTraffic.sol\":7872:7873  0 */\n      dup1\n        /* \"Contracts/StoreTraffic.sol\":7855:7873  uint256 index2 = 0 */\n      swap1\n      pop\n        /* \"Contracts/StoreTraffic.sol\":7883:7905  bytes memory shortGeo1 */\n      0x60\n        /* \"Contracts/StoreTraffic.sol\":7918:7921  dif */\n      dup3\n        /* \"Contracts/StoreTraffic.sol\":7908:7922  new bytes(dif) */\n      mload(0x40)\n      swap1\n      dup1\n      dup3\n      mstore\n      dup1\n      0x1f\n      add\n      not(0x1f)\n      and\n      0x20\n      add\n      dup3\n      add\n      0x40\n      mstore\n      dup1\n      iszero\n      tag_219\n      jumpi\n      dup2\n      0x20\n      add\n        /* \"--CODEGEN--\":29:30   */\n      0x01\n        /* \"--CODEGEN--\":21:27   */\n      dup3\n        /* \"--CODEGEN--\":17:31   */\n      mul\n        /* \"--CODEGEN--\":116:120   */\n      dup1\n        /* \"--CODEGEN--\":104:114   */\n      codesize\n        /* \"--CODEGEN--\":96:102   */\n      dup4\n        /* \"--CODEGEN--\":87:121   */\n      codecopy\n        /* \"--CODEGEN--\":147:151   */\n      dup1\n        /* \"--CODEGEN--\":139:145   */\n      dup3\n        /* \"--CODEGEN--\":135:152   */\n      add\n        /* \"--CODEGEN--\":125:152   */\n      swap2\n      pop\n        /* \"--CODEGEN--\":0:156   */\n      pop\n        /* \"Contracts/StoreTraffic.sol\":7908:7922  new bytes(dif) */\n      swap1\n      pop\n    tag_219:\n      pop\n        /* \"Contracts/StoreTraffic.sol\":7883:7922  bytes memory shortGeo1 = new bytes(dif) */\n      swap1\n      pop\n        /* \"Contracts/StoreTraffic.sol\":7932:7954  bytes memory shortGeo2 */\n      0x60\n        /* \"Contracts/StoreTraffic.sol\":7967:7970  dif */\n      dup4\n        /* \"Contracts/StoreTraffic.sol\":7957:7971  new bytes(dif) */\n      mload(0x40)\n      swap1\n      dup1\n      dup3\n      mstore\n      dup1\n      0x1f\n      add\n      not(0x1f)\n      and\n      0x20\n      add\n      dup3\n      add\n      0x40\n      mstore\n      dup1\n      iszero\n      tag_220\n      jumpi\n      dup2\n      0x20\n      add\n        /* \"--CODEGEN--\":29:30   */\n      0x01\n        /* \"--CODEGEN--\":21:27   */\n      dup3\n        /* \"--CODEGEN--\":17:31   */\n      mul\n        /* \"--CODEGEN--\":116:120   */\n      dup1\n        /* \"--CODEGEN--\":104:114   */\n      codesize\n        /* \"--CODEGEN--\":96:102   */\n      dup4\n        /* \"--CODEGEN--\":87:121   */\n      codecopy\n        /* \"--CODEGEN--\":147:151   */\n      dup1\n        /* \"--CODEGEN--\":139:145   */\n      dup3\n        /* \"--CODEGEN--\":135:152   */\n      add\n        /* \"--CODEGEN--\":125:152   */\n      swap2\n      pop\n        /* \"--CODEGEN--\":0:156   */\n      pop\n        /* \"Contracts/StoreTraffic.sol\":7957:7971  new bytes(dif) */\n      swap1\n      pop\n    tag_220:\n      pop\n        /* \"Contracts/StoreTraffic.sol\":7932:7971  bytes memory shortGeo2 = new bytes(dif) */\n      swap1\n      pop\n        /* \"Contracts/StoreTraffic.sol\":7986:7995  uint256 j */\n      0x00\n        /* \"Contracts/StoreTraffic.sol\":7998:8003  index */\n      dup6\n        /* \"Contracts/StoreTraffic.sol\":7986:8003  uint256 j = index */\n      swap1\n      pop\n        /* \"Contracts/StoreTraffic.sol\":7981:8140  for (uint256 j = index; j < PRECISION; j++) {... */\n    tag_221:\n        /* \"Contracts/StoreTraffic.sol\":8009:8018  PRECISION */\n      sload(0x07)\n        /* \"Contracts/StoreTraffic.sol\":8005:8006  j */\n      dup2\n        /* \"Contracts/StoreTraffic.sol\":8005:8018  j < PRECISION */\n      lt\n        /* \"Contracts/StoreTraffic.sol\":7981:8140  for (uint256 j = index; j < PRECISION; j++) {... */\n      iszero\n      tag_222\n      jumpi\n        /* \"Contracts/StoreTraffic.sol\":8059:8063  geo1 */\n      dup9\n        /* \"Contracts/StoreTraffic.sol\":8064:8065  j */\n      dup2\n        /* \"Contracts/StoreTraffic.sol\":8059:8066  geo1[j] */\n      0x20\n      dup2\n      lt\n      tag_224\n      jumpi\n      invalid\n    tag_224:\n      byte\n      0xf8\n      shl\n        /* \"Contracts/StoreTraffic.sol\":8039:8048  shortGeo1 */\n      dup4\n        /* \"Contracts/StoreTraffic.sol\":8049:8055  index2 */\n      dup6\n        /* \"Contracts/StoreTraffic.sol\":8039:8056  shortGeo1[index2] */\n      dup2\n      mload\n      dup2\n      lt\n      tag_225\n      jumpi\n      invalid\n    tag_225:\n      0x20\n      add\n      add\n        /* \"Contracts/StoreTraffic.sol\":8039:8066  shortGeo1[index2] = geo1[j] */\n      swap1\n      not(0xffffffffffffffffffffffffffffffffffffffffffffffffffffffffffffff)\n      and\n      swap1\n      dup2\n      0x00\n      byte\n      swap1\n      mstore8\n      pop\n        /* \"Contracts/StoreTraffic.sol\":8100:8104  geo2 */\n      dup8\n        /* \"Contracts/StoreTraffic.sol\":8105:8106  j */\n      dup2\n        /* \"Contracts/StoreTraffic.sol\":8100:8107  geo2[j] */\n      0x20\n      dup2\n      lt\n      tag_226\n      jumpi\n      invalid\n    tag_226:\n      byte\n      0xf8\n      shl\n        /* \"Contracts/StoreTraffic.sol\":8080:8089  shortGeo2 */\n      dup3\n        /* \"Contracts/StoreTraffic.sol\":8090:8096  index2 */\n      dup6\n        /* \"Contracts/StoreTraffic.sol\":8080:8097  shortGeo2[index2] */\n      dup2\n      mload\n      dup2\n      lt\n      tag_227\n      jumpi\n      invalid\n    tag_227:\n      0x20\n      add\n      add\n        /* \"Contracts/StoreTraffic.sol\":8080:8107  shortGeo2[index2] = geo2[j] */\n      swap1\n      not(0xffffffffffffffffffffffffffffffffffffffffffffffffffffffffffffff)\n      and\n      swap1\n      dup2\n      0x00\n      byte\n      swap1\n      mstore8\n      pop\n        /* \"Contracts/StoreTraffic.sol\":8121:8129  index2++ */\n      dup4\n      dup1\n      0x01\n      add\n      swap5\n      pop\n      pop\n        /* \"Contracts/StoreTraffic.sol\":8020:8023  j++ */\n      dup1\n      dup1\n      0x01\n      add\n      swap2\n      pop\n      pop\n        /* \"Contracts/StoreTraffic.sol\":7981:8140  for (uint256 j = index; j < PRECISION; j++) {... */\n      jump(tag_221)\n    tag_222:\n      pop\n        /* \"Contracts/StoreTraffic.sol\":8164:8173  shortGeo1 */\n      dup2\n        /* \"Contracts/StoreTraffic.sol\":8183:8192  shortGeo2 */\n      dup2\n        /* \"Contracts/StoreTraffic.sol\":8149:8194  return (string(shortGeo1), string(shortGeo2)) */\n      swap10\n      pop\n      swap10\n      pop\n      pop\n      pop\n      pop\n      pop\n      pop\n      pop\n      pop\n      pop\n        /* \"Contracts/StoreTraffic.sol\":7316:8201  function sliceGeoHash(... */\n      swap3\n      pop\n      swap3\n      swap1\n      pop\n      jump\t// out\n        /* \"Contracts/StoreTraffic.sol\":26:10036  contract StoreTraffic {... */\n    tag_143:\n      dup3\n      dup1\n      sload\n      dup3\n      dup3\n      sstore\n      swap1\n      0x00\n      mstore\n      keccak256(0x00, 0x20)\n      swap1\n      dup2\n      add\n      swap3\n      dup3\n      iszero\n      tag_228\n      jumpi\n      swap2\n      0x20\n      mul\n      dup3\n      add\n    tag_229:\n      dup3\n      dup2\n      gt\n      iszero\n      tag_230\n      jumpi\n      dup3\n      mload\n      dup3\n      sstore\n      swap2\n      0x20\n      add\n      swap2\n      swap1\n      0x01\n      add\n      swap1\n      jump(tag_229)\n    tag_230:\n    tag_228:\n      pop\n      swap1\n      pop\n      tag_231\n      swap2\n      swap1\n      tag_232\n      jump\t// in\n    tag_231:\n      pop\n      swap1\n      jump\t// out\n    tag_232:\n      tag_233\n      swap2\n      swap1\n    tag_234:\n      dup1\n      dup3\n      gt\n      iszero\n      tag_235\n      jumpi\n      0x00\n      dup2\n      0x00\n      swap1\n      sstore\n      pop\n      0x01\n      add\n      jump(tag_234)\n    tag_235:\n      pop\n      swap1\n      jump\n    tag_233:\n      swap1\n      jump\t// out\n\n    auxdata: 0xa265627a7a72315820d14bfdc474a1f279e8d76aa5bafd51a2c3fe7dc686251c458524640f9a592d5a64736f6c63430005110032\n}\n",
				"bytecode": {
					"linkReferences": {},
					"object": "60806040526000600355600060065560086007556040518060a00160405280601060ff168152602001600860ff168152602001600460ff168152602001600260ff168152602001600160ff16815250600890600562000060929190620000c3565b506040518060400160405280602081526020017f30313233343536373839626364656667686a6b6d6e707172737475767778797a81525060099080519060200190620000ae9291906200011a565b50348015620000bc57600080fd5b50620001c9565b82805482825590600052602060002090810192821562000107579160200282015b8281111562000106578251829060ff16905591602001919060010190620000e4565b5b509050620001169190620001a1565b5090565b828054600181600116156101000203166002900490600052602060002090601f016020900481019282601f106200015d57805160ff19168380011785556200018e565b828001600101855582156200018e579182015b828111156200018d57825182559160200191906001019062000170565b5b5090506200019d9190620001a1565b5090565b620001c691905b80821115620001c2576000816000905550600101620001a8565b5090565b90565b61175b80620001d96000396000f3fe608060405234801561001057600080fd5b506004361061014d5760003560e01c8063501df3f1116100c3578063bf5b1f9b1161007c578063bf5b1f9b146107f8578063c7e63d021461083a578063cf23e7a614610868578063d35a1d0d146108a0578063e464bbd5146108e2578063fdcd80aa146109245761014d565b8063501df3f1146105dc5780635265da351461062557806353f065fd1461065d57806356f90ed4146106a957806368ba6df9146106f1578063964c10a1146107c05761014d565b80632e708dcd116101155780632e708dcd146103575780633d2e10b41461038f5780633f81eee41461046557806344cf2cd7146104a75780634a620efc146105765780634ce00aa9146105ae5761014d565b8063075b8b1d1461015257806308389071146101dc578063118129f41461020a578063135d15cd1461024c578063184968ea1461027a575b600080fd5b61017e6004803603602081101561016857600080fd5b8101908080359060200190929190505050610a41565b6040518080602001838152602001828103825284818151815260200191508051906020019060200280838360005b838110156101c75780820151818401526020810190506101ac565b50505050905001935050505060405180910390f35b610208600480360360208110156101f257600080fd5b8101908080359060200190929190505050610ac8565b005b6102366004803603602081101561022057600080fd5b8101908080359060200190929190505050610b06565b6040518082815260200191505060405180910390f35b6102786004803603602081101561026257600080fd5b8101908080359060200190929190505050610b26565b005b61033a6004803603604081101561029057600080fd5b8101908080359060200190929190803590602001906401000000008111156102b757600080fd5b8201836020820111156102c957600080fd5b803590602001918460208302840111640100000000831117156102eb57600080fd5b919080806020026020016040519081016040528093929190818152602001838360200280828437600081840152601f19601f820116905080830192505050505050509192919290505050610b60565b604051808381526020018281526020019250505060405180910390f35b61038d6004803603604081101561036d57600080fd5b810190808035906020019092919080359060200190929190505050610c4b565b005b610463600480360360808110156103a557600080fd5b81019080803590602001909291908035906020019092919080359060200190929190803590602001906401000000008111156103e057600080fd5b8201836020820111156103f257600080fd5b8035906020019184602083028401116401000000008311171561041457600080fd5b919080806020026020016040519081016040528093929190818152602001838360200280828437600081840152601f19601f820116905080830192505050505050509192919290505050610c6a565b005b6104916004803603602081101561047b57600080fd5b8101908080359060200190929190505050610ceb565b6040518082815260200191505060405180910390f35b610560600480360360208110156104bd57600080fd5b81019080803590602001906401000000008111156104da57600080fd5b8201836020820111156104ec57600080fd5b8035906020019184600183028401116401000000008311171561050e57600080fd5b91908080601f016020809104026020016040519081016040528093929190818152602001838380828437600081840152601f19601f820116905080830192505050505050509192919290505050610d27565b6040518082815260200191505060405180910390f35b6105ac6004803603604081101561058c57600080fd5b810190808035906020019092919080359060200190929190505050610ebc565b005b6105da600480360360208110156105c457600080fd5b8101908080359060200190929190505050610f38565b005b610608600480360360208110156105f257600080fd5b8101908080359060200190929190505050610f94565b604051808381526020018281526020019250505060405180910390f35b61065b6004803603604081101561063b57600080fd5b81019080803590602001909291908035906020019092919050505061107e565b005b6106936004803603604081101561067357600080fd5b8101908080359060200190929190803590602001909291905050506110df565b6040518082815260200191505060405180910390f35b6106d5600480360360208110156106bf57600080fd5b8101908080359060200190929190505050611182565b604051808260030b60030b815260200191505060405180910390f35b6107aa6004803603602081101561070757600080fd5b810190808035906020019064010000000081111561072457600080fd5b82018360208201111561073657600080fd5b8035906020019184600183028401116401000000008311171561075857600080fd5b91908080601f016020809104026020016040519081016040528093929190818152602001838380828437600081840152601f19601f8201169050808301925050505050505091929192905050506111a7565b6040518082815260200191505060405180910390f35b6107f6600480360360408110156107d657600080fd5b81019080803590602001909291908035906020019092919050505061133d565b005b6108386004803603606081101561080e57600080fd5b8101908080359060200190929190803590602001909291908035906020019092919050505061135c565b005b6108666004803603602081101561085057600080fd5b8101908080359060200190929190505050611397565b005b61089e6004803603604081101561087e57600080fd5b8101908080359060200190929190803590602001909291905050506113d1565b005b6108cc600480360360208110156108b657600080fd5b8101908080359060200190929190505050611428565b6040518082815260200191505060405180910390f35b610922600480360360608110156108f857600080fd5b8101908080359060200190929190803590602001909291908035906020019092919050505061143b565b005b61095a6004803603604081101561093a57600080fd5b8101908080359060200190929190803590602001909291905050506114c2565b604051808060200180602001838103835285818151815260200191508051906020019080838360005b8381101561099e578082015181840152602081019050610983565b50505050905090810190601f1680156109cb5780820380516001836020036101000a031916815260200191505b50838103825284818151815260200191508051906020019080838360005b83811015610a045780820151818401526020810190506109e9565b50505050905090810190601f168015610a315780820380516001836020036101000a031916815260200191505b5094505050505060405180910390f35b60606000806000848152602001908152602001600020600001805480602002602001604051908101604052809291908181526020018280548015610aa457602002820191906000526020600020905b815481526020019060010190808311610a90575b50505050509150600080848152602001908152602001600020600101549050915091565b60018060008381526020019081526020016000206002015414610ae757fe5b6000600160008381526020019081526020016000206002018190555050565b600060046000838152602001908152602001600020600101549050919050565b7f3df08102c43128689c0922a6d6509c65890fb8abdefbb11892e7b3a76c681880816040518082815260200191505060405180910390a150565b60008060008060008090505b8551811015610c2857610b7f87846110df565b610bb288600160008a8681518110610b9357fe5b60200260200101518152602001908152602001600020600101546110df565b1015610c1b57600060016000888481518110610bca57fe5b60200260200101518152602001908152602001600020600201541415610c1a5760016000878381518110610bfa57fe5b602002602001015181526020019081526020016000206001015492508091505b5b8080600101915050610b6c565b5081858281518110610c3657fe5b60200260200101519350935050509250929050565b8060016000848152602001908152602001600020600101819055505050565b806000808581526020019081526020016000206000019080519060200190610c939291906116b4565b5083600080858152602001908152602001600020600101819055507f9d5989c6dfe7087cf87bc915a07bc23b94c2bbcabdcc61e78249ee5e678fcac8826040518082815260200191505060405180910390a150505050565b60006004600083815260200190815260200160002060030154905060016004600084815260200190815260200160002060040181905550919050565b60008060019050600080905060008090505b8451811015610eb1576000858281518110610d5057fe5b602001015160f81c60f81b9050600080600090505b6009805460018160011615610100020316600290049050811015610e4657827effffffffffffffffffffffffffffffffffffffffffffffffffffffffffffff1916600982815460018160011615610100020316600290048110610dc457fe5b815460011615610de35790600052602060002090602091828204019190065b9054901a7f0100000000000000000000000000000000000000000000000000000000000000027effffffffffffffffffffffffffffffffffffffffffffffffffffffffffffff19161415610e3957809150610e46565b8080600101915050610d65565b5060008090505b6005811015610ea157600060088281548110610e6557fe5b9060005260206000200154905086610e8f57600286029550600081841614610e8e576001860195505b5b86159650508080600101915050610e4d565b5050508080600101915050610d39565b508092505050919050565b8160016000848152602001908152602001600020600001819055508060016000848152602001908152602001600020600101819055506000600160008481526020019081526020016000206002018190555081600260006003548152602001908152602001600020819055506001600354016003819055505050565b6001600082815260200190815260200160002060000154811415610f9157600160008281526020019081526020016000206000808201600090556001820160009055600282016000905550506001600354036003819055505b50565b60008060008060008090505b60035481101561105d57610fb486846110df565b610fe7876001600060026000878152602001908152602001600020548152602001908152602001600020600101546110df565b1015611050576000600160006002600085815260200190815260200160002054815260200190815260200160002060020154141561104f5760016000600260008481526020019081526020016000205481526020019081526020016000206001015492508091505b5b8080600101915050610fa0565b50816002600083815260200190815260200160002054935093505050915091565b8060046000848152602001908152602001600020600101819055506000600460008481526020019081526020016000206004018190555081600560006006548152602001908152602001600020819055506001600654016006819055505050565b6000818314156110f2576000905061117c565b6060806110ff85856114c2565b80925081935050506000611112836111a7565b9050600061111f836111a7565b9050600061112c85610d27565b9050600061113985610d27565b905060008085851115611150578585039150611156565b84860391505b8383111561116857838303905061116e565b82840390505b808201985050505050505050505b92915050565b6000806001600084815260200190815260200160002060020154905080915050919050565b60008060019050600080905060008090505b84518110156113325760008582815181106111d057fe5b602001015160f81c60f81b9050600080600090505b60098054600181600116156101000203166002900490508110156112c657827effffffffffffffffffffffffffffffffffffffffffffffffffffffffffffff191660098281546001816001161561010002031660029004811061124457fe5b8154600116156112635790600052602060002090602091828204019190065b9054901a7f0100000000000000000000000000000000000000000000000000000000000000027effffffffffffffffffffffffffffffffffffffffffffffffffffffffffffff191614156112b9578091506112c6565b80806001019150506111e5565b5060008090505b6005811015611322576000600882815481106112e557fe5b9060005260206000200154905086156113105760028602955060008184161461130f576001860195505b5b861596505080806001019150506112cd565b50505080806001019150506111b9565b508092505050919050565b8060046000848152602001908152602001600020600101819055505050565b816004600085815260200190815260200160002060020181905550806004600085815260200190815260200160002060030181905550505050565b7f2df740085e71317ac451dce57ca685ff2946f6b1be05b2add35114a5e1e63126816040518082815260200191505060405180910390a150565b600060016000848152602001908152602001600020600201819055507fd80dcda4b9270200beb859c5af63a5992ab12a6a531137d47b3804e62ef81db7816040518082815260200191505060405180910390a15050565b6000816007819055506007549050919050565b600060016000858152602001908152602001600020600201541461145b57fe5b7fa495e9fee02ccf4d2800ca5b3ddfce556daf13b6f9b479eebbc64019ca11042c83838360405180848152602001838152602001828152602001935050505060405180910390a1600180600085815260200190815260200160002060020181905550505050565b606080600084905060008490506000602060ff16905060008060009050600091505b82821015611567578382602081106114f857fe5b1a60f81b7effffffffffffffffffffffffffffffffffffffffffffffffffffffffffffff191685836020811061152a57fe5b1a60f81b7effffffffffffffffffffffffffffffffffffffffffffffffffffffffffffff19161461155a57611567565b81806001019250506114e4565b8160075403905060008090506060826040519080825280601f01601f1916602001820160405280156115a85781602001600182028038833980820191505090505b5090506060836040519080825280601f01601f1916602001820160405280156115e05781602001600182028038833980820191505090505b50905060008590505b60075481101561169e578881602081106115ff57fe5b1a60f81b83858151811061160f57fe5b60200101907effffffffffffffffffffffffffffffffffffffffffffffffffffffffffffff1916908160001a90535087816020811061164a57fe5b1a60f81b82858151811061165a57fe5b60200101907effffffffffffffffffffffffffffffffffffffffffffffffffffffffffffff1916908160001a905350838060010194505080806001019150506115e9565b5081819950995050505050505050509250929050565b8280548282559060005260206000209081019282156116f0579160200282015b828111156116ef5782518255916020019190600101906116d4565b5b5090506116fd9190611701565b5090565b61172391905b8082111561171f576000816000905550600101611707565b5090565b9056fea265627a7a72315820d14bfdc474a1f279e8d76aa5bafd51a2c3fe7dc686251c458524640f9a592d5a64736f6c63430005110032",
					"opcodes": "PUSH1 0x80 PUSH1 0x40 MSTORE PUSH1 0x0 PUSH1 0x3 SSTORE PUSH1 0x0 PUSH1 0x6 SSTORE PUSH1 0x8 PUSH1 0x7 SSTORE PUSH1 0x40 MLOAD DUP1 PUSH1 0xA0 ADD PUSH1 0x40 MSTORE DUP1 PUSH1 0x10 PUSH1 0xFF AND DUP2 MSTORE PUSH1 0x20 ADD PUSH1 0x8 PUSH1 0xFF AND DUP2 MSTORE PUSH1 0x20 ADD PUSH1 0x4 PUSH1 0xFF AND DUP2 MSTORE PUSH1 0x20 ADD PUSH1 0x2 PUSH1 0xFF AND DUP2 MSTORE PUSH1 0x20 ADD PUSH1 0x1 PUSH1 0xFF AND DUP2 MSTORE POP PUSH1 0x8 SWAP1 PUSH1 0x5 PUSH3 0x60 SWAP3 SWAP2 SWAP1 PUSH3 0xC3 JUMP JUMPDEST POP PUSH1 0x40 MLOAD DUP1 PUSH1 0x40 ADD PUSH1 0x40 MSTORE DUP1 PUSH1 0x20 DUP2 MSTORE PUSH1 0x20 ADD PUSH32 0x30313233343536373839626364656667686A6B6D6E707172737475767778797A DUP2 MSTORE POP PUSH1 0x9 SWAP1 DUP1 MLOAD SWAP1 PUSH1 0x20 ADD SWAP1 PUSH3 0xAE SWAP3 SWAP2 SWAP1 PUSH3 0x11A JUMP JUMPDEST POP CALLVALUE DUP1 ISZERO PUSH3 0xBC JUMPI PUSH1 0x0 DUP1 REVERT JUMPDEST POP PUSH3 0x1C9 JUMP JUMPDEST DUP3 DUP1 SLOAD DUP3 DUP3 SSTORE SWAP1 PUSH1 0x0 MSTORE PUSH1 0x20 PUSH1 0x0 KECCAK256 SWAP1 DUP2 ADD SWAP3 DUP3 ISZERO PUSH3 0x107 JUMPI SWAP2 PUSH1 0x20 MUL DUP3 ADD JUMPDEST DUP3 DUP2 GT ISZERO PUSH3 0x106 JUMPI DUP3 MLOAD DUP3 SWAP1 PUSH1 0xFF AND SWAP1 SSTORE SWAP2 PUSH1 0x20 ADD SWAP2 SWAP1 PUSH1 0x1 ADD SWAP1 PUSH3 0xE4 JUMP JUMPDEST JUMPDEST POP SWAP1 POP PUSH3 0x116 SWAP2 SWAP1 PUSH3 0x1A1 JUMP JUMPDEST POP SWAP1 JUMP JUMPDEST DUP3 DUP1 SLOAD PUSH1 0x1 DUP2 PUSH1 0x1 AND ISZERO PUSH2 0x100 MUL SUB AND PUSH1 0x2 SWAP1 DIV SWAP1 PUSH1 0x0 MSTORE PUSH1 0x20 PUSH1 0x0 KECCAK256 SWAP1 PUSH1 0x1F ADD PUSH1 0x20 SWAP1 DIV DUP2 ADD SWAP3 DUP3 PUSH1 0x1F LT PUSH3 0x15D JUMPI DUP1 MLOAD PUSH1 0xFF NOT AND DUP4 DUP1 ADD OR DUP6 SSTORE PUSH3 0x18E JUMP JUMPDEST DUP3 DUP1 ADD PUSH1 0x1 ADD DUP6 SSTORE DUP3 ISZERO PUSH3 0x18E JUMPI SWAP2 DUP3 ADD JUMPDEST DUP3 DUP2 GT ISZERO PUSH3 0x18D JUMPI DUP3 MLOAD DUP3 SSTORE SWAP2 PUSH1 0x20 ADD SWAP2 SWAP1 PUSH1 0x1 ADD SWAP1 PUSH3 0x170 JUMP JUMPDEST JUMPDEST POP SWAP1 POP PUSH3 0x19D SWAP2 SWAP1 PUSH3 0x1A1 JUMP JUMPDEST POP SWAP1 JUMP JUMPDEST PUSH3 0x1C6 SWAP2 SWAP1 JUMPDEST DUP1 DUP3 GT ISZERO PUSH3 0x1C2 JUMPI PUSH1 0x0 DUP2 PUSH1 0x0 SWAP1 SSTORE POP PUSH1 0x1 ADD PUSH3 0x1A8 JUMP JUMPDEST POP SWAP1 JUMP JUMPDEST SWAP1 JUMP JUMPDEST PUSH2 0x175B DUP1 PUSH3 0x1D9 PUSH1 0x0 CODECOPY PUSH1 0x0 RETURN INVALID PUSH1 0x80 PUSH1 0x40 MSTORE CALLVALUE DUP1 ISZERO PUSH2 0x10 JUMPI PUSH1 0x0 DUP1 REVERT JUMPDEST POP PUSH1 0x4 CALLDATASIZE LT PUSH2 0x14D JUMPI PUSH1 0x0 CALLDATALOAD PUSH1 0xE0 SHR DUP1 PUSH4 0x501DF3F1 GT PUSH2 0xC3 JUMPI DUP1 PUSH4 0xBF5B1F9B GT PUSH2 0x7C JUMPI DUP1 PUSH4 0xBF5B1F9B EQ PUSH2 0x7F8 JUMPI DUP1 PUSH4 0xC7E63D02 EQ PUSH2 0x83A JUMPI DUP1 PUSH4 0xCF23E7A6 EQ PUSH2 0x868 JUMPI DUP1 PUSH4 0xD35A1D0D EQ PUSH2 0x8A0 JUMPI DUP1 PUSH4 0xE464BBD5 EQ PUSH2 0x8E2 JUMPI DUP1 PUSH4 0xFDCD80AA EQ PUSH2 0x924 JUMPI PUSH2 0x14D JUMP JUMPDEST DUP1 PUSH4 0x501DF3F1 EQ PUSH2 0x5DC JUMPI DUP1 PUSH4 0x5265DA35 EQ PUSH2 0x625 JUMPI DUP1 PUSH4 0x53F065FD EQ PUSH2 0x65D JUMPI DUP1 PUSH4 0x56F90ED4 EQ PUSH2 0x6A9 JUMPI DUP1 PUSH4 0x68BA6DF9 EQ PUSH2 0x6F1 JUMPI DUP1 PUSH4 0x964C10A1 EQ PUSH2 0x7C0 JUMPI PUSH2 0x14D JUMP JUMPDEST DUP1 PUSH4 0x2E708DCD GT PUSH2 0x115 JUMPI DUP1 PUSH4 0x2E708DCD EQ PUSH2 0x357 JUMPI DUP1 PUSH4 0x3D2E10B4 EQ PUSH2 0x38F JUMPI DUP1 PUSH4 0x3F81EEE4 EQ PUSH2 0x465 JUMPI DUP1 PUSH4 0x44CF2CD7 EQ PUSH2 0x4A7 JUMPI DUP1 PUSH4 0x4A620EFC EQ PUSH2 0x576 JUMPI DUP1 PUSH4 0x4CE00AA9 EQ PUSH2 0x5AE JUMPI PUSH2 0x14D JUMP JUMPDEST DUP1 PUSH4 0x75B8B1D EQ PUSH2 0x152 JUMPI DUP1 PUSH4 0x8389071 EQ PUSH2 0x1DC JUMPI DUP1 PUSH4 0x118129F4 EQ PUSH2 0x20A JUMPI DUP1 PUSH4 0x135D15CD EQ PUSH2 0x24C JUMPI DUP1 PUSH4 0x184968EA EQ PUSH2 0x27A JUMPI JUMPDEST PUSH1 0x0 DUP1 REVERT JUMPDEST PUSH2 0x17E PUSH1 0x4 DUP1 CALLDATASIZE SUB PUSH1 0x20 DUP2 LT ISZERO PUSH2 0x168 JUMPI PUSH1 0x0 DUP1 REVERT JUMPDEST DUP2 ADD SWAP1 DUP1 DUP1 CALLDATALOAD SWAP1 PUSH1 0x20 ADD SWAP1 SWAP3 SWAP2 SWAP1 POP POP POP PUSH2 0xA41 JUMP JUMPDEST PUSH1 0x40 MLOAD DUP1 DUP1 PUSH1 0x20 ADD DUP4 DUP2 MSTORE PUSH1 0x20 ADD DUP3 DUP2 SUB DUP3 MSTORE DUP5 DUP2 DUP2 MLOAD DUP2 MSTORE PUSH1 0x20 ADD SWAP2 POP DUP1 MLOAD SWAP1 PUSH1 0x20 ADD SWAP1 PUSH1 0x20 MUL DUP1 DUP4 DUP4 PUSH1 0x0 JUMPDEST DUP4 DUP2 LT ISZERO PUSH2 0x1C7 JUMPI DUP1 DUP3 ADD MLOAD DUP2 DUP5 ADD MSTORE PUSH1 0x20 DUP2 ADD SWAP1 POP PUSH2 0x1AC JUMP JUMPDEST POP POP POP POP SWAP1 POP ADD SWAP4 POP POP POP POP PUSH1 0x40 MLOAD DUP1 SWAP2 SUB SWAP1 RETURN JUMPDEST PUSH2 0x208 PUSH1 0x4 DUP1 CALLDATASIZE SUB PUSH1 0x20 DUP2 LT ISZERO PUSH2 0x1F2 JUMPI PUSH1 0x0 DUP1 REVERT JUMPDEST DUP2 ADD SWAP1 DUP1 DUP1 CALLDATALOAD SWAP1 PUSH1 0x20 ADD SWAP1 SWAP3 SWAP2 SWAP1 POP POP POP PUSH2 0xAC8 JUMP JUMPDEST STOP JUMPDEST PUSH2 0x236 PUSH1 0x4 DUP1 CALLDATASIZE SUB PUSH1 0x20 DUP2 LT ISZERO PUSH2 0x220 JUMPI PUSH1 0x0 DUP1 REVERT JUMPDEST DUP2 ADD SWAP1 DUP1 DUP1 CALLDATALOAD SWAP1 PUSH1 0x20 ADD SWAP1 SWAP3 SWAP2 SWAP1 POP POP POP PUSH2 0xB06 JUMP JUMPDEST PUSH1 0x40 MLOAD DUP1 DUP3 DUP2 MSTORE PUSH1 0x20 ADD SWAP2 POP POP PUSH1 0x40 MLOAD DUP1 SWAP2 SUB SWAP1 RETURN JUMPDEST PUSH2 0x278 PUSH1 0x4 DUP1 CALLDATASIZE SUB PUSH1 0x20 DUP2 LT ISZERO PUSH2 0x262 JUMPI PUSH1 0x0 DUP1 REVERT JUMPDEST DUP2 ADD SWAP1 DUP1 DUP1 CALLDATALOAD SWAP1 PUSH1 0x20 ADD SWAP1 SWAP3 SWAP2 SWAP1 POP POP POP PUSH2 0xB26 JUMP JUMPDEST STOP JUMPDEST PUSH2 0x33A PUSH1 0x4 DUP1 CALLDATASIZE SUB PUSH1 0x40 DUP2 LT ISZERO PUSH2 0x290 JUMPI PUSH1 0x0 DUP1 REVERT JUMPDEST DUP2 ADD SWAP1 DUP1 DUP1 CALLDATALOAD SWAP1 PUSH1 0x20 ADD SWAP1 SWAP3 SWAP2 SWAP1 DUP1 CALLDATALOAD SWAP1 PUSH1 0x20 ADD SWAP1 PUSH5 0x100000000 DUP2 GT ISZERO PUSH2 0x2B7 JUMPI PUSH1 0x0 DUP1 REVERT JUMPDEST DUP3 ADD DUP4 PUSH1 0x20 DUP3 ADD GT ISZERO PUSH2 0x2C9 JUMPI PUSH1 0x0 DUP1 REVERT JUMPDEST DUP1 CALLDATALOAD SWAP1 PUSH1 0x20 ADD SWAP2 DUP5 PUSH1 0x20 DUP4 MUL DUP5 ADD GT PUSH5 0x100000000 DUP4 GT OR ISZERO PUSH2 0x2EB JUMPI PUSH1 0x0 DUP1 REVERT JUMPDEST SWAP2 SWAP1 DUP1 DUP1 PUSH1 0x20 MUL PUSH1 0x20 ADD PUSH1 0x40 MLOAD SWAP1 DUP2 ADD PUSH1 0x40 MSTORE DUP1 SWAP4 SWAP3 SWAP2 SWAP1 DUP2 DUP2 MSTORE PUSH1 0x20 ADD DUP4 DUP4 PUSH1 0x20 MUL DUP1 DUP3 DUP5 CALLDATACOPY PUSH1 0x0 DUP2 DUP5 ADD MSTORE PUSH1 0x1F NOT PUSH1 0x1F DUP3 ADD AND SWAP1 POP DUP1 DUP4 ADD SWAP3 POP POP POP POP POP POP POP SWAP2 SWAP3 SWAP2 SWAP3 SWAP1 POP POP POP PUSH2 0xB60 JUMP JUMPDEST PUSH1 0x40 MLOAD DUP1 DUP4 DUP2 MSTORE PUSH1 0x20 ADD DUP3 DUP2 MSTORE PUSH1 0x20 ADD SWAP3 POP POP POP PUSH1 0x40 MLOAD DUP1 SWAP2 SUB SWAP1 RETURN JUMPDEST PUSH2 0x38D PUSH1 0x4 DUP1 CALLDATASIZE SUB PUSH1 0x40 DUP2 LT ISZERO PUSH2 0x36D JUMPI PUSH1 0x0 DUP1 REVERT JUMPDEST DUP2 ADD SWAP1 DUP1 DUP1 CALLDATALOAD SWAP1 PUSH1 0x20 ADD SWAP1 SWAP3 SWAP2 SWAP1 DUP1 CALLDATALOAD SWAP1 PUSH1 0x20 ADD SWAP1 SWAP3 SWAP2 SWAP1 POP POP POP PUSH2 0xC4B JUMP JUMPDEST STOP JUMPDEST PUSH2 0x463 PUSH1 0x4 DUP1 CALLDATASIZE SUB PUSH1 0x80 DUP2 LT ISZERO PUSH2 0x3A5 JUMPI PUSH1 0x0 DUP1 REVERT JUMPDEST DUP2 ADD SWAP1 DUP1 DUP1 CALLDATALOAD SWAP1 PUSH1 0x20 ADD SWAP1 SWAP3 SWAP2 SWAP1 DUP1 CALLDATALOAD SWAP1 PUSH1 0x20 ADD SWAP1 SWAP3 SWAP2 SWAP1 DUP1 CALLDATALOAD SWAP1 PUSH1 0x20 ADD SWAP1 SWAP3 SWAP2 SWAP1 DUP1 CALLDATALOAD SWAP1 PUSH1 0x20 ADD SWAP1 PUSH5 0x100000000 DUP2 GT ISZERO PUSH2 0x3E0 JUMPI PUSH1 0x0 DUP1 REVERT JUMPDEST DUP3 ADD DUP4 PUSH1 0x20 DUP3 ADD GT ISZERO PUSH2 0x3F2 JUMPI PUSH1 0x0 DUP1 REVERT JUMPDEST DUP1 CALLDATALOAD SWAP1 PUSH1 0x20 ADD SWAP2 DUP5 PUSH1 0x20 DUP4 MUL DUP5 ADD GT PUSH5 0x100000000 DUP4 GT OR ISZERO PUSH2 0x414 JUMPI PUSH1 0x0 DUP1 REVERT JUMPDEST SWAP2 SWAP1 DUP1 DUP1 PUSH1 0x20 MUL PUSH1 0x20 ADD PUSH1 0x40 MLOAD SWAP1 DUP2 ADD PUSH1 0x40 MSTORE DUP1 SWAP4 SWAP3 SWAP2 SWAP1 DUP2 DUP2 MSTORE PUSH1 0x20 ADD DUP4 DUP4 PUSH1 0x20 MUL DUP1 DUP3 DUP5 CALLDATACOPY PUSH1 0x0 DUP2 DUP5 ADD MSTORE PUSH1 0x1F NOT PUSH1 0x1F DUP3 ADD AND SWAP1 POP DUP1 DUP4 ADD SWAP3 POP POP POP POP POP POP POP SWAP2 SWAP3 SWAP2 SWAP3 SWAP1 POP POP POP PUSH2 0xC6A JUMP JUMPDEST STOP JUMPDEST PUSH2 0x491 PUSH1 0x4 DUP1 CALLDATASIZE SUB PUSH1 0x20 DUP2 LT ISZERO PUSH2 0x47B JUMPI PUSH1 0x0 DUP1 REVERT JUMPDEST DUP2 ADD SWAP1 DUP1 DUP1 CALLDATALOAD SWAP1 PUSH1 0x20 ADD SWAP1 SWAP3 SWAP2 SWAP1 POP POP POP PUSH2 0xCEB JUMP JUMPDEST PUSH1 0x40 MLOAD DUP1 DUP3 DUP2 MSTORE PUSH1 0x20 ADD SWAP2 POP POP PUSH1 0x40 MLOAD DUP1 SWAP2 SUB SWAP1 RETURN JUMPDEST PUSH2 0x560 PUSH1 0x4 DUP1 CALLDATASIZE SUB PUSH1 0x20 DUP2 LT ISZERO PUSH2 0x4BD JUMPI PUSH1 0x0 DUP1 REVERT JUMPDEST DUP2 ADD SWAP1 DUP1 DUP1 CALLDATALOAD SWAP1 PUSH1 0x20 ADD SWAP1 PUSH5 0x100000000 DUP2 GT ISZERO PUSH2 0x4DA JUMPI PUSH1 0x0 DUP1 REVERT JUMPDEST DUP3 ADD DUP4 PUSH1 0x20 DUP3 ADD GT ISZERO PUSH2 0x4EC JUMPI PUSH1 0x0 DUP1 REVERT JUMPDEST DUP1 CALLDATALOAD SWAP1 PUSH1 0x20 ADD SWAP2 DUP5 PUSH1 0x1 DUP4 MUL DUP5 ADD GT PUSH5 0x100000000 DUP4 GT OR ISZERO PUSH2 0x50E JUMPI PUSH1 0x0 DUP1 REVERT JUMPDEST SWAP2 SWAP1 DUP1 DUP1 PUSH1 0x1F ADD PUSH1 0x20 DUP1 SWAP2 DIV MUL PUSH1 0x20 ADD PUSH1 0x40 MLOAD SWAP1 DUP2 ADD PUSH1 0x40 MSTORE DUP1 SWAP4 SWAP3 SWAP2 SWAP1 DUP2 DUP2 MSTORE PUSH1 0x20 ADD DUP4 DUP4 DUP1 DUP3 DUP5 CALLDATACOPY PUSH1 0x0 DUP2 DUP5 ADD MSTORE PUSH1 0x1F NOT PUSH1 0x1F DUP3 ADD AND SWAP1 POP DUP1 DUP4 ADD SWAP3 POP POP POP POP POP POP POP SWAP2 SWAP3 SWAP2 SWAP3 SWAP1 POP POP POP PUSH2 0xD27 JUMP JUMPDEST PUSH1 0x40 MLOAD DUP1 DUP3 DUP2 MSTORE PUSH1 0x20 ADD SWAP2 POP POP PUSH1 0x40 MLOAD DUP1 SWAP2 SUB SWAP1 RETURN JUMPDEST PUSH2 0x5AC PUSH1 0x4 DUP1 CALLDATASIZE SUB PUSH1 0x40 DUP2 LT ISZERO PUSH2 0x58C JUMPI PUSH1 0x0 DUP1 REVERT JUMPDEST DUP2 ADD SWAP1 DUP1 DUP1 CALLDATALOAD SWAP1 PUSH1 0x20 ADD SWAP1 SWAP3 SWAP2 SWAP1 DUP1 CALLDATALOAD SWAP1 PUSH1 0x20 ADD SWAP1 SWAP3 SWAP2 SWAP1 POP POP POP PUSH2 0xEBC JUMP JUMPDEST STOP JUMPDEST PUSH2 0x5DA PUSH1 0x4 DUP1 CALLDATASIZE SUB PUSH1 0x20 DUP2 LT ISZERO PUSH2 0x5C4 JUMPI PUSH1 0x0 DUP1 REVERT JUMPDEST DUP2 ADD SWAP1 DUP1 DUP1 CALLDATALOAD SWAP1 PUSH1 0x20 ADD SWAP1 SWAP3 SWAP2 SWAP1 POP POP POP PUSH2 0xF38 JUMP JUMPDEST STOP JUMPDEST PUSH2 0x608 PUSH1 0x4 DUP1 CALLDATASIZE SUB PUSH1 0x20 DUP2 LT ISZERO PUSH2 0x5F2 JUMPI PUSH1 0x0 DUP1 REVERT JUMPDEST DUP2 ADD SWAP1 DUP1 DUP1 CALLDATALOAD SWAP1 PUSH1 0x20 ADD SWAP1 SWAP3 SWAP2 SWAP1 POP POP POP PUSH2 0xF94 JUMP JUMPDEST PUSH1 0x40 MLOAD DUP1 DUP4 DUP2 MSTORE PUSH1 0x20 ADD DUP3 DUP2 MSTORE PUSH1 0x20 ADD SWAP3 POP POP POP PUSH1 0x40 MLOAD DUP1 SWAP2 SUB SWAP1 RETURN JUMPDEST PUSH2 0x65B PUSH1 0x4 DUP1 CALLDATASIZE SUB PUSH1 0x40 DUP2 LT ISZERO PUSH2 0x63B JUMPI PUSH1 0x0 DUP1 REVERT JUMPDEST DUP2 ADD SWAP1 DUP1 DUP1 CALLDATALOAD SWAP1 PUSH1 0x20 ADD SWAP1 SWAP3 SWAP2 SWAP1 DUP1 CALLDATALOAD SWAP1 PUSH1 0x20 ADD SWAP1 SWAP3 SWAP2 SWAP1 POP POP POP PUSH2 0x107E JUMP JUMPDEST STOP JUMPDEST PUSH2 0x693 PUSH1 0x4 DUP1 CALLDATASIZE SUB PUSH1 0x40 DUP2 LT ISZERO PUSH2 0x673 JUMPI PUSH1 0x0 DUP1 REVERT JUMPDEST DUP2 ADD SWAP1 DUP1 DUP1 CALLDATALOAD SWAP1 PUSH1 0x20 ADD SWAP1 SWAP3 SWAP2 SWAP1 DUP1 CALLDATALOAD SWAP1 PUSH1 0x20 ADD SWAP1 SWAP3 SWAP2 SWAP1 POP POP POP PUSH2 0x10DF JUMP JUMPDEST PUSH1 0x40 MLOAD DUP1 DUP3 DUP2 MSTORE PUSH1 0x20 ADD SWAP2 POP POP PUSH1 0x40 MLOAD DUP1 SWAP2 SUB SWAP1 RETURN JUMPDEST PUSH2 0x6D5 PUSH1 0x4 DUP1 CALLDATASIZE SUB PUSH1 0x20 DUP2 LT ISZERO PUSH2 0x6BF JUMPI PUSH1 0x0 DUP1 REVERT JUMPDEST DUP2 ADD SWAP1 DUP1 DUP1 CALLDATALOAD SWAP1 PUSH1 0x20 ADD SWAP1 SWAP3 SWAP2 SWAP1 POP POP POP PUSH2 0x1182 JUMP JUMPDEST PUSH1 0x40 MLOAD DUP1 DUP3 PUSH1 0x3 SIGNEXTEND PUSH1 0x3 SIGNEXTEND DUP2 MSTORE PUSH1 0x20 ADD SWAP2 POP POP PUSH1 0x40 MLOAD DUP1 SWAP2 SUB SWAP1 RETURN JUMPDEST PUSH2 0x7AA PUSH1 0x4 DUP1 CALLDATASIZE SUB PUSH1 0x20 DUP2 LT ISZERO PUSH2 0x707 JUMPI PUSH1 0x0 DUP1 REVERT JUMPDEST DUP2 ADD SWAP1 DUP1 DUP1 CALLDATALOAD SWAP1 PUSH1 0x20 ADD SWAP1 PUSH5 0x100000000 DUP2 GT ISZERO PUSH2 0x724 JUMPI PUSH1 0x0 DUP1 REVERT JUMPDEST DUP3 ADD DUP4 PUSH1 0x20 DUP3 ADD GT ISZERO PUSH2 0x736 JUMPI PUSH1 0x0 DUP1 REVERT JUMPDEST DUP1 CALLDATALOAD SWAP1 PUSH1 0x20 ADD SWAP2 DUP5 PUSH1 0x1 DUP4 MUL DUP5 ADD GT PUSH5 0x100000000 DUP4 GT OR ISZERO PUSH2 0x758 JUMPI PUSH1 0x0 DUP1 REVERT JUMPDEST SWAP2 SWAP1 DUP1 DUP1 PUSH1 0x1F ADD PUSH1 0x20 DUP1 SWAP2 DIV MUL PUSH1 0x20 ADD PUSH1 0x40 MLOAD SWAP1 DUP2 ADD PUSH1 0x40 MSTORE DUP1 SWAP4 SWAP3 SWAP2 SWAP1 DUP2 DUP2 MSTORE PUSH1 0x20 ADD DUP4 DUP4 DUP1 DUP3 DUP5 CALLDATACOPY PUSH1 0x0 DUP2 DUP5 ADD MSTORE PUSH1 0x1F NOT PUSH1 0x1F DUP3 ADD AND SWAP1 POP DUP1 DUP4 ADD SWAP3 POP POP POP POP POP POP POP SWAP2 SWAP3 SWAP2 SWAP3 SWAP1 POP POP POP PUSH2 0x11A7 JUMP JUMPDEST PUSH1 0x40 MLOAD DUP1 DUP3 DUP2 MSTORE PUSH1 0x20 ADD SWAP2 POP POP PUSH1 0x40 MLOAD DUP1 SWAP2 SUB SWAP1 RETURN JUMPDEST PUSH2 0x7F6 PUSH1 0x4 DUP1 CALLDATASIZE SUB PUSH1 0x40 DUP2 LT ISZERO PUSH2 0x7D6 JUMPI PUSH1 0x0 DUP1 REVERT JUMPDEST DUP2 ADD SWAP1 DUP1 DUP1 CALLDATALOAD SWAP1 PUSH1 0x20 ADD SWAP1 SWAP3 SWAP2 SWAP1 DUP1 CALLDATALOAD SWAP1 PUSH1 0x20 ADD SWAP1 SWAP3 SWAP2 SWAP1 POP POP POP PUSH2 0x133D JUMP JUMPDEST STOP JUMPDEST PUSH2 0x838 PUSH1 0x4 DUP1 CALLDATASIZE SUB PUSH1 0x60 DUP2 LT ISZERO PUSH2 0x80E JUMPI PUSH1 0x0 DUP1 REVERT JUMPDEST DUP2 ADD SWAP1 DUP1 DUP1 CALLDATALOAD SWAP1 PUSH1 0x20 ADD SWAP1 SWAP3 SWAP2 SWAP1 DUP1 CALLDATALOAD SWAP1 PUSH1 0x20 ADD SWAP1 SWAP3 SWAP2 SWAP1 DUP1 CALLDATALOAD SWAP1 PUSH1 0x20 ADD SWAP1 SWAP3 SWAP2 SWAP1 POP POP POP PUSH2 0x135C JUMP JUMPDEST STOP JUMPDEST PUSH2 0x866 PUSH1 0x4 DUP1 CALLDATASIZE SUB PUSH1 0x20 DUP2 LT ISZERO PUSH2 0x850 JUMPI PUSH1 0x0 DUP1 REVERT JUMPDEST DUP2 ADD SWAP1 DUP1 DUP1 CALLDATALOAD SWAP1 PUSH1 0x20 ADD SWAP1 SWAP3 SWAP2 SWAP1 POP POP POP PUSH2 0x1397 JUMP JUMPDEST STOP JUMPDEST PUSH2 0x89E PUSH1 0x4 DUP1 CALLDATASIZE SUB PUSH1 0x40 DUP2 LT ISZERO PUSH2 0x87E JUMPI PUSH1 0x0 DUP1 REVERT JUMPDEST DUP2 ADD SWAP1 DUP1 DUP1 CALLDATALOAD SWAP1 PUSH1 0x20 ADD SWAP1 SWAP3 SWAP2 SWAP1 DUP1 CALLDATALOAD SWAP1 PUSH1 0x20 ADD SWAP1 SWAP3 SWAP2 SWAP1 POP POP POP PUSH2 0x13D1 JUMP JUMPDEST STOP JUMPDEST PUSH2 0x8CC PUSH1 0x4 DUP1 CALLDATASIZE SUB PUSH1 0x20 DUP2 LT ISZERO PUSH2 0x8B6 JUMPI PUSH1 0x0 DUP1 REVERT JUMPDEST DUP2 ADD SWAP1 DUP1 DUP1 CALLDATALOAD SWAP1 PUSH1 0x20 ADD SWAP1 SWAP3 SWAP2 SWAP1 POP POP POP PUSH2 0x1428 JUMP JUMPDEST PUSH1 0x40 MLOAD DUP1 DUP3 DUP2 MSTORE PUSH1 0x20 ADD SWAP2 POP POP PUSH1 0x40 MLOAD DUP1 SWAP2 SUB SWAP1 RETURN JUMPDEST PUSH2 0x922 PUSH1 0x4 DUP1 CALLDATASIZE SUB PUSH1 0x60 DUP2 LT ISZERO PUSH2 0x8F8 JUMPI PUSH1 0x0 DUP1 REVERT JUMPDEST DUP2 ADD SWAP1 DUP1 DUP1 CALLDATALOAD SWAP1 PUSH1 0x20 ADD SWAP1 SWAP3 SWAP2 SWAP1 DUP1 CALLDATALOAD SWAP1 PUSH1 0x20 ADD SWAP1 SWAP3 SWAP2 SWAP1 DUP1 CALLDATALOAD SWAP1 PUSH1 0x20 ADD SWAP1 SWAP3 SWAP2 SWAP1 POP POP POP PUSH2 0x143B JUMP JUMPDEST STOP JUMPDEST PUSH2 0x95A PUSH1 0x4 DUP1 CALLDATASIZE SUB PUSH1 0x40 DUP2 LT ISZERO PUSH2 0x93A JUMPI PUSH1 0x0 DUP1 REVERT JUMPDEST DUP2 ADD SWAP1 DUP1 DUP1 CALLDATALOAD SWAP1 PUSH1 0x20 ADD SWAP1 SWAP3 SWAP2 SWAP1 DUP1 CALLDATALOAD SWAP1 PUSH1 0x20 ADD SWAP1 SWAP3 SWAP2 SWAP1 POP POP POP PUSH2 0x14C2 JUMP JUMPDEST PUSH1 0x40 MLOAD DUP1 DUP1 PUSH1 0x20 ADD DUP1 PUSH1 0x20 ADD DUP4 DUP2 SUB DUP4 MSTORE DUP6 DUP2 DUP2 MLOAD DUP2 MSTORE PUSH1 0x20 ADD SWAP2 POP DUP1 MLOAD SWAP1 PUSH1 0x20 ADD SWAP1 DUP1 DUP4 DUP4 PUSH1 0x0 JUMPDEST DUP4 DUP2 LT ISZERO PUSH2 0x99E JUMPI DUP1 DUP3 ADD MLOAD DUP2 DUP5 ADD MSTORE PUSH1 0x20 DUP2 ADD SWAP1 POP PUSH2 0x983 JUMP JUMPDEST POP POP POP POP SWAP1 POP SWAP1 DUP2 ADD SWAP1 PUSH1 0x1F AND DUP1 ISZERO PUSH2 0x9CB JUMPI DUP1 DUP3 SUB DUP1 MLOAD PUSH1 0x1 DUP4 PUSH1 0x20 SUB PUSH2 0x100 EXP SUB NOT AND DUP2 MSTORE PUSH1 0x20 ADD SWAP2 POP JUMPDEST POP DUP4 DUP2 SUB DUP3 MSTORE DUP5 DUP2 DUP2 MLOAD DUP2 MSTORE PUSH1 0x20 ADD SWAP2 POP DUP1 MLOAD SWAP1 PUSH1 0x20 ADD SWAP1 DUP1 DUP4 DUP4 PUSH1 0x0 JUMPDEST DUP4 DUP2 LT ISZERO PUSH2 0xA04 JUMPI DUP1 DUP3 ADD MLOAD DUP2 DUP5 ADD MSTORE PUSH1 0x20 DUP2 ADD SWAP1 POP PUSH2 0x9E9 JUMP JUMPDEST POP POP POP POP SWAP1 POP SWAP1 DUP2 ADD SWAP1 PUSH1 0x1F AND DUP1 ISZERO PUSH2 0xA31 JUMPI DUP1 DUP3 SUB DUP1 MLOAD PUSH1 0x1 DUP4 PUSH1 0x20 SUB PUSH2 0x100 EXP SUB NOT AND DUP2 MSTORE PUSH1 0x20 ADD SWAP2 POP JUMPDEST POP SWAP5 POP POP POP POP POP PUSH1 0x40 MLOAD DUP1 SWAP2 SUB SWAP1 RETURN JUMPDEST PUSH1 0x60 PUSH1 0x0 DUP1 PUSH1 0x0 DUP5 DUP2 MSTORE PUSH1 0x20 ADD SWAP1 DUP2 MSTORE PUSH1 0x20 ADD PUSH1 0x0 KECCAK256 PUSH1 0x0 ADD DUP1 SLOAD DUP1 PUSH1 0x20 MUL PUSH1 0x20 ADD PUSH1 0x40 MLOAD SWAP1 DUP2 ADD PUSH1 0x40 MSTORE DUP1 SWAP3 SWAP2 SWAP1 DUP2 DUP2 MSTORE PUSH1 0x20 ADD DUP3 DUP1 SLOAD DUP1 ISZERO PUSH2 0xAA4 JUMPI PUSH1 0x20 MUL DUP3 ADD SWAP2 SWAP1 PUSH1 0x0 MSTORE PUSH1 0x20 PUSH1 0x0 KECCAK256 SWAP1 JUMPDEST DUP2 SLOAD DUP2 MSTORE PUSH1 0x20 ADD SWAP1 PUSH1 0x1 ADD SWAP1 DUP1 DUP4 GT PUSH2 0xA90 JUMPI JUMPDEST POP POP POP POP POP SWAP2 POP PUSH1 0x0 DUP1 DUP5 DUP2 MSTORE PUSH1 0x20 ADD SWAP1 DUP2 MSTORE PUSH1 0x20 ADD PUSH1 0x0 KECCAK256 PUSH1 0x1 ADD SLOAD SWAP1 POP SWAP2 POP SWAP2 JUMP JUMPDEST PUSH1 0x1 DUP1 PUSH1 0x0 DUP4 DUP2 MSTORE PUSH1 0x20 ADD SWAP1 DUP2 MSTORE PUSH1 0x20 ADD PUSH1 0x0 KECCAK256 PUSH1 0x2 ADD SLOAD EQ PUSH2 0xAE7 JUMPI INVALID JUMPDEST PUSH1 0x0 PUSH1 0x1 PUSH1 0x0 DUP4 DUP2 MSTORE PUSH1 0x20 ADD SWAP1 DUP2 MSTORE PUSH1 0x20 ADD PUSH1 0x0 KECCAK256 PUSH1 0x2 ADD DUP2 SWAP1 SSTORE POP POP JUMP JUMPDEST PUSH1 0x0 PUSH1 0x4 PUSH1 0x0 DUP4 DUP2 MSTORE PUSH1 0x20 ADD SWAP1 DUP2 MSTORE PUSH1 0x20 ADD PUSH1 0x0 KECCAK256 PUSH1 0x1 ADD SLOAD SWAP1 POP SWAP2 SWAP1 POP JUMP JUMPDEST PUSH32 0x3DF08102C43128689C0922A6D6509C65890FB8ABDEFBB11892E7B3A76C681880 DUP2 PUSH1 0x40 MLOAD DUP1 DUP3 DUP2 MSTORE PUSH1 0x20 ADD SWAP2 POP POP PUSH1 0x40 MLOAD DUP1 SWAP2 SUB SWAP1 LOG1 POP JUMP JUMPDEST PUSH1 0x0 DUP1 PUSH1 0x0 DUP1 PUSH1 0x0 DUP1 SWAP1 POP JUMPDEST DUP6 MLOAD DUP2 LT ISZERO PUSH2 0xC28 JUMPI PUSH2 0xB7F DUP8 DUP5 PUSH2 0x10DF JUMP JUMPDEST PUSH2 0xBB2 DUP9 PUSH1 0x1 PUSH1 0x0 DUP11 DUP7 DUP2 MLOAD DUP2 LT PUSH2 0xB93 JUMPI INVALID JUMPDEST PUSH1 0x20 MUL PUSH1 0x20 ADD ADD MLOAD DUP2 MSTORE PUSH1 0x20 ADD SWAP1 DUP2 MSTORE PUSH1 0x20 ADD PUSH1 0x0 KECCAK256 PUSH1 0x1 ADD SLOAD PUSH2 0x10DF JUMP JUMPDEST LT ISZERO PUSH2 0xC1B JUMPI PUSH1 0x0 PUSH1 0x1 PUSH1 0x0 DUP9 DUP5 DUP2 MLOAD DUP2 LT PUSH2 0xBCA JUMPI INVALID JUMPDEST PUSH1 0x20 MUL PUSH1 0x20 ADD ADD MLOAD DUP2 MSTORE PUSH1 0x20 ADD SWAP1 DUP2 MSTORE PUSH1 0x20 ADD PUSH1 0x0 KECCAK256 PUSH1 0x2 ADD SLOAD EQ ISZERO PUSH2 0xC1A JUMPI PUSH1 0x1 PUSH1 0x0 DUP8 DUP4 DUP2 MLOAD DUP2 LT PUSH2 0xBFA JUMPI INVALID JUMPDEST PUSH1 0x20 MUL PUSH1 0x20 ADD ADD MLOAD DUP2 MSTORE PUSH1 0x20 ADD SWAP1 DUP2 MSTORE PUSH1 0x20 ADD PUSH1 0x0 KECCAK256 PUSH1 0x1 ADD SLOAD SWAP3 POP DUP1 SWAP2 POP JUMPDEST JUMPDEST DUP1 DUP1 PUSH1 0x1 ADD SWAP2 POP POP PUSH2 0xB6C JUMP JUMPDEST POP DUP2 DUP6 DUP3 DUP2 MLOAD DUP2 LT PUSH2 0xC36 JUMPI INVALID JUMPDEST PUSH1 0x20 MUL PUSH1 0x20 ADD ADD MLOAD SWAP4 POP SWAP4 POP POP POP SWAP3 POP SWAP3 SWAP1 POP JUMP JUMPDEST DUP1 PUSH1 0x1 PUSH1 0x0 DUP5 DUP2 MSTORE PUSH1 0x20 ADD SWAP1 DUP2 MSTORE PUSH1 0x20 ADD PUSH1 0x0 KECCAK256 PUSH1 0x1 ADD DUP2 SWAP1 SSTORE POP POP POP JUMP JUMPDEST DUP1 PUSH1 0x0 DUP1 DUP6 DUP2 MSTORE PUSH1 0x20 ADD SWAP1 DUP2 MSTORE PUSH1 0x20 ADD PUSH1 0x0 KECCAK256 PUSH1 0x0 ADD SWAP1 DUP1 MLOAD SWAP1 PUSH1 0x20 ADD SWAP1 PUSH2 0xC93 SWAP3 SWAP2 SWAP1 PUSH2 0x16B4 JUMP JUMPDEST POP DUP4 PUSH1 0x0 DUP1 DUP6 DUP2 MSTORE PUSH1 0x20 ADD SWAP1 DUP2 MSTORE PUSH1 0x20 ADD PUSH1 0x0 KECCAK256 PUSH1 0x1 ADD DUP2 SWAP1 SSTORE POP PUSH32 0x9D5989C6DFE7087CF87BC915A07BC23B94C2BBCABDCC61E78249EE5E678FCAC8 DUP3 PUSH1 0x40 MLOAD DUP1 DUP3 DUP2 MSTORE PUSH1 0x20 ADD SWAP2 POP POP PUSH1 0x40 MLOAD DUP1 SWAP2 SUB SWAP1 LOG1 POP POP POP POP JUMP JUMPDEST PUSH1 0x0 PUSH1 0x4 PUSH1 0x0 DUP4 DUP2 MSTORE PUSH1 0x20 ADD SWAP1 DUP2 MSTORE PUSH1 0x20 ADD PUSH1 0x0 KECCAK256 PUSH1 0x3 ADD SLOAD SWAP1 POP PUSH1 0x1 PUSH1 0x4 PUSH1 0x0 DUP5 DUP2 MSTORE PUSH1 0x20 ADD SWAP1 DUP2 MSTORE PUSH1 0x20 ADD PUSH1 0x0 KECCAK256 PUSH1 0x4 ADD DUP2 SWAP1 SSTORE POP SWAP2 SWAP1 POP JUMP JUMPDEST PUSH1 0x0 DUP1 PUSH1 0x1 SWAP1 POP PUSH1 0x0 DUP1 SWAP1 POP PUSH1 0x0 DUP1 SWAP1 POP JUMPDEST DUP5 MLOAD DUP2 LT ISZERO PUSH2 0xEB1 JUMPI PUSH1 0x0 DUP6 DUP3 DUP2 MLOAD DUP2 LT PUSH2 0xD50 JUMPI INVALID JUMPDEST PUSH1 0x20 ADD ADD MLOAD PUSH1 0xF8 SHR PUSH1 0xF8 SHL SWAP1 POP PUSH1 0x0 DUP1 PUSH1 0x0 SWAP1 POP JUMPDEST PUSH1 0x9 DUP1 SLOAD PUSH1 0x1 DUP2 PUSH1 0x1 AND ISZERO PUSH2 0x100 MUL SUB AND PUSH1 0x2 SWAP1 DIV SWAP1 POP DUP2 LT ISZERO PUSH2 0xE46 JUMPI DUP3 PUSH31 0xFFFFFFFFFFFFFFFFFFFFFFFFFFFFFFFFFFFFFFFFFFFFFFFFFFFFFFFFFFFFFF NOT AND PUSH1 0x9 DUP3 DUP2 SLOAD PUSH1 0x1 DUP2 PUSH1 0x1 AND ISZERO PUSH2 0x100 MUL SUB AND PUSH1 0x2 SWAP1 DIV DUP2 LT PUSH2 0xDC4 JUMPI INVALID JUMPDEST DUP2 SLOAD PUSH1 0x1 AND ISZERO PUSH2 0xDE3 JUMPI SWAP1 PUSH1 0x0 MSTORE PUSH1 0x20 PUSH1 0x0 KECCAK256 SWAP1 PUSH1 0x20 SWAP2 DUP3 DUP3 DIV ADD SWAP2 SWAP1 MOD JUMPDEST SWAP1 SLOAD SWAP1 BYTE PUSH32 0x100000000000000000000000000000000000000000000000000000000000000 MUL PUSH31 0xFFFFFFFFFFFFFFFFFFFFFFFFFFFFFFFFFFFFFFFFFFFFFFFFFFFFFFFFFFFFFF NOT AND EQ ISZERO PUSH2 0xE39 JUMPI DUP1 SWAP2 POP PUSH2 0xE46 JUMP JUMPDEST DUP1 DUP1 PUSH1 0x1 ADD SWAP2 POP POP PUSH2 0xD65 JUMP JUMPDEST POP PUSH1 0x0 DUP1 SWAP1 POP JUMPDEST PUSH1 0x5 DUP2 LT ISZERO PUSH2 0xEA1 JUMPI PUSH1 0x0 PUSH1 0x8 DUP3 DUP2 SLOAD DUP2 LT PUSH2 0xE65 JUMPI INVALID JUMPDEST SWAP1 PUSH1 0x0 MSTORE PUSH1 0x20 PUSH1 0x0 KECCAK256 ADD SLOAD SWAP1 POP DUP7 PUSH2 0xE8F JUMPI PUSH1 0x2 DUP7 MUL SWAP6 POP PUSH1 0x0 DUP2 DUP5 AND EQ PUSH2 0xE8E JUMPI PUSH1 0x1 DUP7 ADD SWAP6 POP JUMPDEST JUMPDEST DUP7 ISZERO SWAP7 POP POP DUP1 DUP1 PUSH1 0x1 ADD SWAP2 POP POP PUSH2 0xE4D JUMP JUMPDEST POP POP POP DUP1 DUP1 PUSH1 0x1 ADD SWAP2 POP POP PUSH2 0xD39 JUMP JUMPDEST POP DUP1 SWAP3 POP POP POP SWAP2 SWAP1 POP JUMP JUMPDEST DUP2 PUSH1 0x1 PUSH1 0x0 DUP5 DUP2 MSTORE PUSH1 0x20 ADD SWAP1 DUP2 MSTORE PUSH1 0x20 ADD PUSH1 0x0 KECCAK256 PUSH1 0x0 ADD DUP2 SWAP1 SSTORE POP DUP1 PUSH1 0x1 PUSH1 0x0 DUP5 DUP2 MSTORE PUSH1 0x20 ADD SWAP1 DUP2 MSTORE PUSH1 0x20 ADD PUSH1 0x0 KECCAK256 PUSH1 0x1 ADD DUP2 SWAP1 SSTORE POP PUSH1 0x0 PUSH1 0x1 PUSH1 0x0 DUP5 DUP2 MSTORE PUSH1 0x20 ADD SWAP1 DUP2 MSTORE PUSH1 0x20 ADD PUSH1 0x0 KECCAK256 PUSH1 0x2 ADD DUP2 SWAP1 SSTORE POP DUP2 PUSH1 0x2 PUSH1 0x0 PUSH1 0x3 SLOAD DUP2 MSTORE PUSH1 0x20 ADD SWAP1 DUP2 MSTORE PUSH1 0x20 ADD PUSH1 0x0 KECCAK256 DUP2 SWAP1 SSTORE POP PUSH1 0x1 PUSH1 0x3 SLOAD ADD PUSH1 0x3 DUP2 SWAP1 SSTORE POP POP POP JUMP JUMPDEST PUSH1 0x1 PUSH1 0x0 DUP3 DUP2 MSTORE PUSH1 0x20 ADD SWAP1 DUP2 MSTORE PUSH1 0x20 ADD PUSH1 0x0 KECCAK256 PUSH1 0x0 ADD SLOAD DUP2 EQ ISZERO PUSH2 0xF91 JUMPI PUSH1 0x1 PUSH1 0x0 DUP3 DUP2 MSTORE PUSH1 0x20 ADD SWAP1 DUP2 MSTORE PUSH1 0x20 ADD PUSH1 0x0 KECCAK256 PUSH1 0x0 DUP1 DUP3 ADD PUSH1 0x0 SWAP1 SSTORE PUSH1 0x1 DUP3 ADD PUSH1 0x0 SWAP1 SSTORE PUSH1 0x2 DUP3 ADD PUSH1 0x0 SWAP1 SSTORE POP POP PUSH1 0x1 PUSH1 0x3 SLOAD SUB PUSH1 0x3 DUP2 SWAP1 SSTORE POP JUMPDEST POP JUMP JUMPDEST PUSH1 0x0 DUP1 PUSH1 0x0 DUP1 PUSH1 0x0 DUP1 SWAP1 POP JUMPDEST PUSH1 0x3 SLOAD DUP2 LT ISZERO PUSH2 0x105D JUMPI PUSH2 0xFB4 DUP7 DUP5 PUSH2 0x10DF JUMP JUMPDEST PUSH2 0xFE7 DUP8 PUSH1 0x1 PUSH1 0x0 PUSH1 0x2 PUSH1 0x0 DUP8 DUP2 MSTORE PUSH1 0x20 ADD SWAP1 DUP2 MSTORE PUSH1 0x20 ADD PUSH1 0x0 KECCAK256 SLOAD DUP2 MSTORE PUSH1 0x20 ADD SWAP1 DUP2 MSTORE PUSH1 0x20 ADD PUSH1 0x0 KECCAK256 PUSH1 0x1 ADD SLOAD PUSH2 0x10DF JUMP JUMPDEST LT ISZERO PUSH2 0x1050 JUMPI PUSH1 0x0 PUSH1 0x1 PUSH1 0x0 PUSH1 0x2 PUSH1 0x0 DUP6 DUP2 MSTORE PUSH1 0x20 ADD SWAP1 DUP2 MSTORE PUSH1 0x20 ADD PUSH1 0x0 KECCAK256 SLOAD DUP2 MSTORE PUSH1 0x20 ADD SWAP1 DUP2 MSTORE PUSH1 0x20 ADD PUSH1 0x0 KECCAK256 PUSH1 0x2 ADD SLOAD EQ ISZERO PUSH2 0x104F JUMPI PUSH1 0x1 PUSH1 0x0 PUSH1 0x2 PUSH1 0x0 DUP5 DUP2 MSTORE PUSH1 0x20 ADD SWAP1 DUP2 MSTORE PUSH1 0x20 ADD PUSH1 0x0 KECCAK256 SLOAD DUP2 MSTORE PUSH1 0x20 ADD SWAP1 DUP2 MSTORE PUSH1 0x20 ADD PUSH1 0x0 KECCAK256 PUSH1 0x1 ADD SLOAD SWAP3 POP DUP1 SWAP2 POP JUMPDEST JUMPDEST DUP1 DUP1 PUSH1 0x1 ADD SWAP2 POP POP PUSH2 0xFA0 JUMP JUMPDEST POP DUP2 PUSH1 0x2 PUSH1 0x0 DUP4 DUP2 MSTORE PUSH1 0x20 ADD SWAP1 DUP2 MSTORE PUSH1 0x20 ADD PUSH1 0x0 KECCAK256 SLOAD SWAP4 POP SWAP4 POP POP POP SWAP2 POP SWAP2 JUMP JUMPDEST DUP1 PUSH1 0x4 PUSH1 0x0 DUP5 DUP2 MSTORE PUSH1 0x20 ADD SWAP1 DUP2 MSTORE PUSH1 0x20 ADD PUSH1 0x0 KECCAK256 PUSH1 0x1 ADD DUP2 SWAP1 SSTORE POP PUSH1 0x0 PUSH1 0x4 PUSH1 0x0 DUP5 DUP2 MSTORE PUSH1 0x20 ADD SWAP1 DUP2 MSTORE PUSH1 0x20 ADD PUSH1 0x0 KECCAK256 PUSH1 0x4 ADD DUP2 SWAP1 SSTORE POP DUP2 PUSH1 0x5 PUSH1 0x0 PUSH1 0x6 SLOAD DUP2 MSTORE PUSH1 0x20 ADD SWAP1 DUP2 MSTORE PUSH1 0x20 ADD PUSH1 0x0 KECCAK256 DUP2 SWAP1 SSTORE POP PUSH1 0x1 PUSH1 0x6 SLOAD ADD PUSH1 0x6 DUP2 SWAP1 SSTORE POP POP POP JUMP JUMPDEST PUSH1 0x0 DUP2 DUP4 EQ ISZERO PUSH2 0x10F2 JUMPI PUSH1 0x0 SWAP1 POP PUSH2 0x117C JUMP JUMPDEST PUSH1 0x60 DUP1 PUSH2 0x10FF DUP6 DUP6 PUSH2 0x14C2 JUMP JUMPDEST DUP1 SWAP3 POP DUP2 SWAP4 POP POP POP PUSH1 0x0 PUSH2 0x1112 DUP4 PUSH2 0x11A7 JUMP JUMPDEST SWAP1 POP PUSH1 0x0 PUSH2 0x111F DUP4 PUSH2 0x11A7 JUMP JUMPDEST SWAP1 POP PUSH1 0x0 PUSH2 0x112C DUP6 PUSH2 0xD27 JUMP JUMPDEST SWAP1 POP PUSH1 0x0 PUSH2 0x1139 DUP6 PUSH2 0xD27 JUMP JUMPDEST SWAP1 POP PUSH1 0x0 DUP1 DUP6 DUP6 GT ISZERO PUSH2 0x1150 JUMPI DUP6 DUP6 SUB SWAP2 POP PUSH2 0x1156 JUMP JUMPDEST DUP5 DUP7 SUB SWAP2 POP JUMPDEST DUP4 DUP4 GT ISZERO PUSH2 0x1168 JUMPI DUP4 DUP4 SUB SWAP1 POP PUSH2 0x116E JUMP JUMPDEST DUP3 DUP5 SUB SWAP1 POP JUMPDEST DUP1 DUP3 ADD SWAP9 POP POP POP POP POP POP POP POP POP JUMPDEST SWAP3 SWAP2 POP POP JUMP JUMPDEST PUSH1 0x0 DUP1 PUSH1 0x1 PUSH1 0x0 DUP5 DUP2 MSTORE PUSH1 0x20 ADD SWAP1 DUP2 MSTORE PUSH1 0x20 ADD PUSH1 0x0 KECCAK256 PUSH1 0x2 ADD SLOAD SWAP1 POP DUP1 SWAP2 POP POP SWAP2 SWAP1 POP JUMP JUMPDEST PUSH1 0x0 DUP1 PUSH1 0x1 SWAP1 POP PUSH1 0x0 DUP1 SWAP1 POP PUSH1 0x0 DUP1 SWAP1 POP JUMPDEST DUP5 MLOAD DUP2 LT ISZERO PUSH2 0x1332 JUMPI PUSH1 0x0 DUP6 DUP3 DUP2 MLOAD DUP2 LT PUSH2 0x11D0 JUMPI INVALID JUMPDEST PUSH1 0x20 ADD ADD MLOAD PUSH1 0xF8 SHR PUSH1 0xF8 SHL SWAP1 POP PUSH1 0x0 DUP1 PUSH1 0x0 SWAP1 POP JUMPDEST PUSH1 0x9 DUP1 SLOAD PUSH1 0x1 DUP2 PUSH1 0x1 AND ISZERO PUSH2 0x100 MUL SUB AND PUSH1 0x2 SWAP1 DIV SWAP1 POP DUP2 LT ISZERO PUSH2 0x12C6 JUMPI DUP3 PUSH31 0xFFFFFFFFFFFFFFFFFFFFFFFFFFFFFFFFFFFFFFFFFFFFFFFFFFFFFFFFFFFFFF NOT AND PUSH1 0x9 DUP3 DUP2 SLOAD PUSH1 0x1 DUP2 PUSH1 0x1 AND ISZERO PUSH2 0x100 MUL SUB AND PUSH1 0x2 SWAP1 DIV DUP2 LT PUSH2 0x1244 JUMPI INVALID JUMPDEST DUP2 SLOAD PUSH1 0x1 AND ISZERO PUSH2 0x1263 JUMPI SWAP1 PUSH1 0x0 MSTORE PUSH1 0x20 PUSH1 0x0 KECCAK256 SWAP1 PUSH1 0x20 SWAP2 DUP3 DUP3 DIV ADD SWAP2 SWAP1 MOD JUMPDEST SWAP1 SLOAD SWAP1 BYTE PUSH32 0x100000000000000000000000000000000000000000000000000000000000000 MUL PUSH31 0xFFFFFFFFFFFFFFFFFFFFFFFFFFFFFFFFFFFFFFFFFFFFFFFFFFFFFFFFFFFFFF NOT AND EQ ISZERO PUSH2 0x12B9 JUMPI DUP1 SWAP2 POP PUSH2 0x12C6 JUMP JUMPDEST DUP1 DUP1 PUSH1 0x1 ADD SWAP2 POP POP PUSH2 0x11E5 JUMP JUMPDEST POP PUSH1 0x0 DUP1 SWAP1 POP JUMPDEST PUSH1 0x5 DUP2 LT ISZERO PUSH2 0x1322 JUMPI PUSH1 0x0 PUSH1 0x8 DUP3 DUP2 SLOAD DUP2 LT PUSH2 0x12E5 JUMPI INVALID JUMPDEST SWAP1 PUSH1 0x0 MSTORE PUSH1 0x20 PUSH1 0x0 KECCAK256 ADD SLOAD SWAP1 POP DUP7 ISZERO PUSH2 0x1310 JUMPI PUSH1 0x2 DUP7 MUL SWAP6 POP PUSH1 0x0 DUP2 DUP5 AND EQ PUSH2 0x130F JUMPI PUSH1 0x1 DUP7 ADD SWAP6 POP JUMPDEST JUMPDEST DUP7 ISZERO SWAP7 POP POP DUP1 DUP1 PUSH1 0x1 ADD SWAP2 POP POP PUSH2 0x12CD JUMP JUMPDEST POP POP POP DUP1 DUP1 PUSH1 0x1 ADD SWAP2 POP POP PUSH2 0x11B9 JUMP JUMPDEST POP DUP1 SWAP3 POP POP POP SWAP2 SWAP1 POP JUMP JUMPDEST DUP1 PUSH1 0x4 PUSH1 0x0 DUP5 DUP2 MSTORE PUSH1 0x20 ADD SWAP1 DUP2 MSTORE PUSH1 0x20 ADD PUSH1 0x0 KECCAK256 PUSH1 0x1 ADD DUP2 SWAP1 SSTORE POP POP POP JUMP JUMPDEST DUP2 PUSH1 0x4 PUSH1 0x0 DUP6 DUP2 MSTORE PUSH1 0x20 ADD SWAP1 DUP2 MSTORE PUSH1 0x20 ADD PUSH1 0x0 KECCAK256 PUSH1 0x2 ADD DUP2 SWAP1 SSTORE POP DUP1 PUSH1 0x4 PUSH1 0x0 DUP6 DUP2 MSTORE PUSH1 0x20 ADD SWAP1 DUP2 MSTORE PUSH1 0x20 ADD PUSH1 0x0 KECCAK256 PUSH1 0x3 ADD DUP2 SWAP1 SSTORE POP POP POP POP JUMP JUMPDEST PUSH32 0x2DF740085E71317AC451DCE57CA685FF2946F6B1BE05B2ADD35114A5E1E63126 DUP2 PUSH1 0x40 MLOAD DUP1 DUP3 DUP2 MSTORE PUSH1 0x20 ADD SWAP2 POP POP PUSH1 0x40 MLOAD DUP1 SWAP2 SUB SWAP1 LOG1 POP JUMP JUMPDEST PUSH1 0x0 PUSH1 0x1 PUSH1 0x0 DUP5 DUP2 MSTORE PUSH1 0x20 ADD SWAP1 DUP2 MSTORE PUSH1 0x20 ADD PUSH1 0x0 KECCAK256 PUSH1 0x2 ADD DUP2 SWAP1 SSTORE POP PUSH32 0xD80DCDA4B9270200BEB859C5AF63A5992AB12A6A531137D47B3804E62EF81DB7 DUP2 PUSH1 0x40 MLOAD DUP1 DUP3 DUP2 MSTORE PUSH1 0x20 ADD SWAP2 POP POP PUSH1 0x40 MLOAD DUP1 SWAP2 SUB SWAP1 LOG1 POP POP JUMP JUMPDEST PUSH1 0x0 DUP2 PUSH1 0x7 DUP2 SWAP1 SSTORE POP PUSH1 0x7 SLOAD SWAP1 POP SWAP2 SWAP1 POP JUMP JUMPDEST PUSH1 0x0 PUSH1 0x1 PUSH1 0x0 DUP6 DUP2 MSTORE PUSH1 0x20 ADD SWAP1 DUP2 MSTORE PUSH1 0x20 ADD PUSH1 0x0 KECCAK256 PUSH1 0x2 ADD SLOAD EQ PUSH2 0x145B JUMPI INVALID JUMPDEST PUSH32 0xA495E9FEE02CCF4D2800CA5B3DDFCE556DAF13B6F9B479EEBBC64019CA11042C DUP4 DUP4 DUP4 PUSH1 0x40 MLOAD DUP1 DUP5 DUP2 MSTORE PUSH1 0x20 ADD DUP4 DUP2 MSTORE PUSH1 0x20 ADD DUP3 DUP2 MSTORE PUSH1 0x20 ADD SWAP4 POP POP POP POP PUSH1 0x40 MLOAD DUP1 SWAP2 SUB SWAP1 LOG1 PUSH1 0x1 DUP1 PUSH1 0x0 DUP6 DUP2 MSTORE PUSH1 0x20 ADD SWAP1 DUP2 MSTORE PUSH1 0x20 ADD PUSH1 0x0 KECCAK256 PUSH1 0x2 ADD DUP2 SWAP1 SSTORE POP POP POP POP JUMP JUMPDEST PUSH1 0x60 DUP1 PUSH1 0x0 DUP5 SWAP1 POP PUSH1 0x0 DUP5 SWAP1 POP PUSH1 0x0 PUSH1 0x20 PUSH1 0xFF AND SWAP1 POP PUSH1 0x0 DUP1 PUSH1 0x0 SWAP1 POP PUSH1 0x0 SWAP2 POP JUMPDEST DUP3 DUP3 LT ISZERO PUSH2 0x1567 JUMPI DUP4 DUP3 PUSH1 0x20 DUP2 LT PUSH2 0x14F8 JUMPI INVALID JUMPDEST BYTE PUSH1 0xF8 SHL PUSH31 0xFFFFFFFFFFFFFFFFFFFFFFFFFFFFFFFFFFFFFFFFFFFFFFFFFFFFFFFFFFFFFF NOT AND DUP6 DUP4 PUSH1 0x20 DUP2 LT PUSH2 0x152A JUMPI INVALID JUMPDEST BYTE PUSH1 0xF8 SHL PUSH31 0xFFFFFFFFFFFFFFFFFFFFFFFFFFFFFFFFFFFFFFFFFFFFFFFFFFFFFFFFFFFFFF NOT AND EQ PUSH2 0x155A JUMPI PUSH2 0x1567 JUMP JUMPDEST DUP2 DUP1 PUSH1 0x1 ADD SWAP3 POP POP PUSH2 0x14E4 JUMP JUMPDEST DUP2 PUSH1 0x7 SLOAD SUB SWAP1 POP PUSH1 0x0 DUP1 SWAP1 POP PUSH1 0x60 DUP3 PUSH1 0x40 MLOAD SWAP1 DUP1 DUP3 MSTORE DUP1 PUSH1 0x1F ADD PUSH1 0x1F NOT AND PUSH1 0x20 ADD DUP3 ADD PUSH1 0x40 MSTORE DUP1 ISZERO PUSH2 0x15A8 JUMPI DUP2 PUSH1 0x20 ADD PUSH1 0x1 DUP3 MUL DUP1 CODESIZE DUP4 CODECOPY DUP1 DUP3 ADD SWAP2 POP POP SWAP1 POP JUMPDEST POP SWAP1 POP PUSH1 0x60 DUP4 PUSH1 0x40 MLOAD SWAP1 DUP1 DUP3 MSTORE DUP1 PUSH1 0x1F ADD PUSH1 0x1F NOT AND PUSH1 0x20 ADD DUP3 ADD PUSH1 0x40 MSTORE DUP1 ISZERO PUSH2 0x15E0 JUMPI DUP2 PUSH1 0x20 ADD PUSH1 0x1 DUP3 MUL DUP1 CODESIZE DUP4 CODECOPY DUP1 DUP3 ADD SWAP2 POP POP SWAP1 POP JUMPDEST POP SWAP1 POP PUSH1 0x0 DUP6 SWAP1 POP JUMPDEST PUSH1 0x7 SLOAD DUP2 LT ISZERO PUSH2 0x169E JUMPI DUP9 DUP2 PUSH1 0x20 DUP2 LT PUSH2 0x15FF JUMPI INVALID JUMPDEST BYTE PUSH1 0xF8 SHL DUP4 DUP6 DUP2 MLOAD DUP2 LT PUSH2 0x160F JUMPI INVALID JUMPDEST PUSH1 0x20 ADD ADD SWAP1 PUSH31 0xFFFFFFFFFFFFFFFFFFFFFFFFFFFFFFFFFFFFFFFFFFFFFFFFFFFFFFFFFFFFFF NOT AND SWAP1 DUP2 PUSH1 0x0 BYTE SWAP1 MSTORE8 POP DUP8 DUP2 PUSH1 0x20 DUP2 LT PUSH2 0x164A JUMPI INVALID JUMPDEST BYTE PUSH1 0xF8 SHL DUP3 DUP6 DUP2 MLOAD DUP2 LT PUSH2 0x165A JUMPI INVALID JUMPDEST PUSH1 0x20 ADD ADD SWAP1 PUSH31 0xFFFFFFFFFFFFFFFFFFFFFFFFFFFFFFFFFFFFFFFFFFFFFFFFFFFFFFFFFFFFFF NOT AND SWAP1 DUP2 PUSH1 0x0 BYTE SWAP1 MSTORE8 POP DUP4 DUP1 PUSH1 0x1 ADD SWAP5 POP POP DUP1 DUP1 PUSH1 0x1 ADD SWAP2 POP POP PUSH2 0x15E9 JUMP JUMPDEST POP DUP2 DUP2 SWAP10 POP SWAP10 POP POP POP POP POP POP POP POP POP SWAP3 POP SWAP3 SWAP1 POP JUMP JUMPDEST DUP3 DUP1 SLOAD DUP3 DUP3 SSTORE SWAP1 PUSH1 0x0 MSTORE PUSH1 0x20 PUSH1 0x0 KECCAK256 SWAP1 DUP2 ADD SWAP3 DUP3 ISZERO PUSH2 0x16F0 JUMPI SWAP2 PUSH1 0x20 MUL DUP3 ADD JUMPDEST DUP3 DUP2 GT ISZERO PUSH2 0x16EF JUMPI DUP3 MLOAD DUP3 SSTORE SWAP2 PUSH1 0x20 ADD SWAP2 SWAP1 PUSH1 0x1 ADD SWAP1 PUSH2 0x16D4 JUMP JUMPDEST JUMPDEST POP SWAP1 POP PUSH2 0x16FD SWAP2 SWAP1 PUSH2 0x1701 JUMP JUMPDEST POP SWAP1 JUMP JUMPDEST PUSH2 0x1723 SWAP2 SWAP1 JUMPDEST DUP1 DUP3 GT ISZERO PUSH2 0x171F JUMPI PUSH1 0x0 DUP2 PUSH1 0x0 SWAP1 SSTORE POP PUSH1 0x1 ADD PUSH2 0x1707 JUMP JUMPDEST POP SWAP1 JUMP JUMPDEST SWAP1 JUMP INVALID LOG2 PUSH6 0x627A7A723158 KECCAK256 0xD1 0x4B REVERT 0xC4 PUSH21 0xA1F279E8D76AA5BAFD51A2C3FE7DC686251C458524 PUSH5 0xF9A592D5A PUSH5 0x736F6C6343 STOP SDIV GT STOP ORIGIN "
				},
				"gasEstimates": {
					"creation": {
						"codeDepositCost": "1195800",
						"executionCost": "infinite",
						"totalCost": "infinite"
					},
					"external": {
						"changePrecision(uint256)": "21202",
						"confirmBoard(bytes32)": "1385",
						"confirmPay(bytes32)": "1339",
						"deleteVehicle(bytes32)": "37224",
						"getLatBlock(string)": "infinite",
						"getLonBlock(string)": "infinite",
						"getPassengerEnd(bytes32)": "21349",
						"getPassengerPos(bytes32)": "1252",
						"getRoutes(bytes32)": "infinite",
						"getVehicle(bytes32)": "infinite",
						"getVehicleByRegion(bytes32,bytes32[])": "infinite",
						"getVehicleStatus(bytes32)": "1302",
						"initPassenger(bytes32,bytes32)": "67210",
						"initVehicle(bytes32,bytes32)": "87374",
						"manhattan(bytes32,bytes32)": "infinite",
						"setPassengerDemand(bytes32,bytes32,bytes32)": "40504",
						"setPassengerPosition(bytes32,bytes32)": "20488",
						"setRejectVehicleStatus(bytes32,bytes32)": "6488",
						"setVehicle(bytes32,bytes32)": "20378",
						"setVehicleStatus(bytes32,bytes32,bytes32)": "23026",
						"setVehicleStatusEmpty(bytes32)": "6279",
						"sliceGeoHash(bytes32,bytes32)": "infinite",
						"storeRoutes(uint256,bytes32,bytes32,bytes32[])": "infinite"
					}
				},
				"methodIdentifiers": {
					"changePrecision(uint256)": "d35a1d0d",
					"confirmBoard(bytes32)": "135d15cd",
					"confirmPay(bytes32)": "c7e63d02",
					"deleteVehicle(bytes32)": "4ce00aa9",
					"getLatBlock(string)": "68ba6df9",
					"getLonBlock(string)": "44cf2cd7",
					"getPassengerEnd(bytes32)": "3f81eee4",
					"getPassengerPos(bytes32)": "118129f4",
					"getRoutes(bytes32)": "075b8b1d",
					"getVehicle(bytes32)": "501df3f1",
					"getVehicleByRegion(bytes32,bytes32[])": "184968ea",
					"getVehicleStatus(bytes32)": "56f90ed4",
					"initPassenger(bytes32,bytes32)": "5265da35",
					"initVehicle(bytes32,bytes32)": "4a620efc",
					"manhattan(bytes32,bytes32)": "53f065fd",
					"setPassengerDemand(bytes32,bytes32,bytes32)": "bf5b1f9b",
					"setPassengerPosition(bytes32,bytes32)": "964c10a1",
					"setRejectVehicleStatus(bytes32,bytes32)": "cf23e7a6",
					"setVehicle(bytes32,bytes32)": "2e708dcd",
					"setVehicleStatus(bytes32,bytes32,bytes32)": "e464bbd5",
					"setVehicleStatusEmpty(bytes32)": "08389071",
					"sliceGeoHash(bytes32,bytes32)": "fdcd80aa",
					"storeRoutes(uint256,bytes32,bytes32,bytes32[])": "3d2e10b4"
				}
			},
			"storageLayout": {
				"storage": [
					{
						"astId": 39,
						"contract": "Contracts/StoreTraffic.sol:StoreTraffic",
						"label": "routes",
						"offset": 0,
						"slot": "0",
						"type": "t_mapping(t_bytes32,t_struct(oneRoute)35_storage)"
					},
					{
						"astId": 110,
						"contract": "Contracts/StoreTraffic.sol:StoreTraffic",
						"label": "vehicles",
						"offset": 0,
						"slot": "1",
						"type": "t_mapping(t_bytes32,t_struct(vehicle)106_storage)"
					},
					{
						"astId": 114,
						"contract": "Contracts/StoreTraffic.sol:StoreTraffic",
						"label": "vehiclesList",
						"offset": 0,
						"slot": "2",
						"type": "t_mapping(t_uint256,t_bytes32)"
					},
					{
						"astId": 117,
						"contract": "Contracts/StoreTraffic.sol:StoreTraffic",
						"label": "vehiclesLength",
						"offset": 0,
						"slot": "3",
						"type": "t_uint256"
					},
					{
						"astId": 467,
						"contract": "Contracts/StoreTraffic.sol:StoreTraffic",
						"label": "passengers",
						"offset": 0,
						"slot": "4",
						"type": "t_mapping(t_bytes32,t_struct(passenger)463_storage)"
					},
					{
						"astId": 471,
						"contract": "Contracts/StoreTraffic.sol:StoreTraffic",
						"label": "passengersList",
						"offset": 0,
						"slot": "5",
						"type": "t_mapping(t_uint256,t_bytes32)"
					},
					{
						"astId": 474,
						"contract": "Contracts/StoreTraffic.sol:StoreTraffic",
						"label": "passengersLength",
						"offset": 0,
						"slot": "6",
						"type": "t_uint256"
					},
					{
						"astId": 690,
						"contract": "Contracts/StoreTraffic.sol:StoreTraffic",
						"label": "PRECISION",
						"offset": 0,
						"slot": "7",
						"type": "t_uint256"
					},
					{
						"astId": 830,
						"contract": "Contracts/StoreTraffic.sol:StoreTraffic",
						"label": "Bits",
						"offset": 0,
						"slot": "8",
						"type": "t_array(t_uint256)dyn_storage"
					},
					{
						"astId": 833,
						"contract": "Contracts/StoreTraffic.sol:StoreTraffic",
						"label": "Base32",
						"offset": 0,
						"slot": "9",
						"type": "t_string_storage"
					}
				],
				"types": {
					"t_array(t_bytes32)dyn_storage": {
						"base": "t_bytes32",
						"encoding": "dynamic_array",
						"label": "bytes32[]",
						"numberOfBytes": "32"
					},
					"t_array(t_uint256)dyn_storage": {
						"base": "t_uint256",
						"encoding": "dynamic_array",
						"label": "uint256[]",
						"numberOfBytes": "32"
					},
					"t_bytes32": {
						"encoding": "inplace",
						"label": "bytes32",
						"numberOfBytes": "32"
					},
					"t_mapping(t_bytes32,t_struct(oneRoute)35_storage)": {
						"encoding": "mapping",
						"key": "t_bytes32",
						"label": "mapping(bytes32 => struct StoreTraffic.oneRoute)",
						"numberOfBytes": "32",
						"value": "t_struct(oneRoute)35_storage"
					},
					"t_mapping(t_bytes32,t_struct(passenger)463_storage)": {
						"encoding": "mapping",
						"key": "t_bytes32",
						"label": "mapping(bytes32 => struct StoreTraffic.passenger)",
						"numberOfBytes": "32",
						"value": "t_struct(passenger)463_storage"
					},
					"t_mapping(t_bytes32,t_struct(vehicle)106_storage)": {
						"encoding": "mapping",
						"key": "t_bytes32",
						"label": "mapping(bytes32 => struct StoreTraffic.vehicle)",
						"numberOfBytes": "32",
						"value": "t_struct(vehicle)106_storage"
					},
					"t_mapping(t_uint256,t_bytes32)": {
						"encoding": "mapping",
						"key": "t_uint256",
						"label": "mapping(uint256 => bytes32)",
						"numberOfBytes": "32",
						"value": "t_bytes32"
					},
					"t_string_storage": {
						"encoding": "bytes",
						"label": "string",
						"numberOfBytes": "32"
					},
					"t_struct(oneRoute)35_storage": {
						"encoding": "inplace",
						"label": "struct StoreTraffic.oneRoute",
						"members": [
							{
								"astId": 32,
								"contract": "Contracts/StoreTraffic.sol:StoreTraffic",
								"label": "routeCoords",
								"offset": 0,
								"slot": "0",
								"type": "t_array(t_bytes32)dyn_storage"
							},
							{
								"astId": 34,
								"contract": "Contracts/StoreTraffic.sol:StoreTraffic",
								"label": "routeCost",
								"offset": 0,
								"slot": "1",
								"type": "t_uint256"
							}
						],
						"numberOfBytes": "64"
					},
					"t_struct(passenger)463_storage": {
						"encoding": "inplace",
						"label": "struct StoreTraffic.passenger",
						"members": [
							{
								"astId": 454,
								"contract": "Contracts/StoreTraffic.sol:StoreTraffic",
								"label": "passengerId",
								"offset": 0,
								"slot": "0",
								"type": "t_bytes32"
							},
							{
								"astId": 456,
								"contract": "Contracts/StoreTraffic.sol:StoreTraffic",
								"label": "position",
								"offset": 0,
								"slot": "1",
								"type": "t_bytes32"
							},
							{
								"astId": 458,
								"contract": "Contracts/StoreTraffic.sol:StoreTraffic",
								"label": "start",
								"offset": 0,
								"slot": "2",
								"type": "t_bytes32"
							},
							{
								"astId": 460,
								"contract": "Contracts/StoreTraffic.sol:StoreTraffic",
								"label": "end",
								"offset": 0,
								"slot": "3",
								"type": "t_bytes32"
							},
							{
								"astId": 462,
								"contract": "Contracts/StoreTraffic.sol:StoreTraffic",
								"label": "status",
								"offset": 0,
								"slot": "4",
								"type": "t_uint256"
							}
						],
						"numberOfBytes": "160"
					},
					"t_struct(vehicle)106_storage": {
						"encoding": "inplace",
						"label": "struct StoreTraffic.vehicle",
						"members": [
							{
								"astId": 101,
								"contract": "Contracts/StoreTraffic.sol:StoreTraffic",
								"label": "vehicleId",
								"offset": 0,
								"slot": "0",
								"type": "t_bytes32"
							},
							{
								"astId": 103,
								"contract": "Contracts/StoreTraffic.sol:StoreTraffic",
								"label": "position",
								"offset": 0,
								"slot": "1",
								"type": "t_bytes32"
							},
							{
								"astId": 105,
								"contract": "Contracts/StoreTraffic.sol:StoreTraffic",
								"label": "status",
								"offset": 0,
								"slot": "2",
								"type": "t_uint256"
							}
						],
						"numberOfBytes": "96"
					},
					"t_uint256": {
						"encoding": "inplace",
						"label": "uint256",
						"numberOfBytes": "32"
					}
				}
			},
			"userdoc": {
				"methods": {}
			}
		}
	}
}