{
	"data": {
		"bytecode": {
			"linkReferences": {},
			"object": "608060405260016003556008600a556040518060a00160405280601060ff168152602001600860ff168152602001600460ff168152602001600260ff168152602001600160ff16815250600b9060056200005b929190620000be565b506040518060400160405280602081526020017f30313233343536373839626364656667686a6b6d6e707172737475767778797a815250600c9080519060200190620000a992919062000115565b50348015620000b757600080fd5b50620001c4565b82805482825590600052602060002090810192821562000102579160200282015b8281111562000101578251829060ff16905591602001919060010190620000df565b5b5090506200011191906200019c565b5090565b828054600181600116156101000203166002900490600052602060002090601f016020900481019282601f106200015857805160ff191683800117855562000189565b8280016001018555821562000189579182015b82811115620001885782518255916020019190600101906200016b565b5b5090506200019891906200019c565b5090565b620001c191905b80821115620001bd576000816000905550600101620001a3565b5090565b90565b61229280620001d46000396000f3fe608060405234801561001057600080fd5b50600436106100f55760003560e01c8063bc6331da11610097578063d35a1d0d11610066578063d35a1d0d14610750578063f90e5ca914610792578063fdcd80aa146107ca578063fe6dcdba146108e7576100f5565b8063bc6331da146105f6578063cbf3b01e14610638578063cd3d71961461067a578063d1cf2408146106bc576100f5565b806353f065fd116100d357806353f065fd146103a457806368ba6df9146103f05780637f6d50c9146104bf578063957908d1146105ec576100f5565b806313372041146100fa5780633fb805821461013257806344cf2cd7146102d5575b600080fd5b6101306004803603604081101561011057600080fd5b810190808035906020019092919080359060200190929190505050610905565b005b61015e6004803603602081101561014857600080fd5b8101908080359060200190929190505050610aae565b60405180806020018060200180602001806020018060200186810386528b818151815260200191508051906020019060200280838360005b838110156101b1578082015181840152602081019050610196565b5050505090500186810385528a818151815260200191508051906020019060200280838360005b838110156101f35780820151818401526020810190506101d8565b50505050905001868103845289818151815260200191508051906020019060200280838360005b8381101561023557808201518184015260208101905061021a565b50505050905001868103835288818151815260200191508051906020019060200280838360005b8381101561027757808201518184015260208101905061025c565b50505050905001868103825287818151815260200191508051906020019060200280838360005b838110156102b957808201518184015260208101905061029e565b505050509050019a505050505050505050505060405180910390f35b61038e600480360360208110156102eb57600080fd5b810190808035906020019064010000000081111561030857600080fd5b82018360208201111561031a57600080fd5b8035906020019184600183028401116401000000008311171561033c57600080fd5b91908080601f016020809104026020016040519081016040528093929190818152602001838380828437600081840152601f19601f820116905080830192505050505050509192919290505050610f51565b6040518082815260200191505060405180910390f35b6103da600480360360408110156103ba57600080fd5b8101908080359060200190929190803590602001909291905050506110e6565b6040518082815260200191505060405180910390f35b6104a96004803603602081101561040657600080fd5b810190808035906020019064010000000081111561042357600080fd5b82018360208201111561043557600080fd5b8035906020019184600183028401116401000000008311171561045757600080fd5b91908080601f016020809104026020016040519081016040528093929190818152602001838380828437600081840152601f19601f820116905080830192505050505050509192919290505050611189565b6040518082815260200191505060405180910390f35b6105ea60048036036101608110156104d657600080fd5b8101908080359060200190929190803560030b9060200190929190803560030b9060200190929190803560030b9060200190929190803560030b90602001909291908035151590602001909291908035151590602001909291908035906020019092919080359060200190929190803590602001909291908035906020019064010000000081111561056757600080fd5b82018360208201111561057957600080fd5b8035906020019184602083028401116401000000008311171561059b57600080fd5b919080806020026020016040519081016040528093929190818152602001838360200280828437600081840152601f19601f82011690508083019250505050505050919291929050505061131f565b005b6105f46117f7565b005b6106226004803603602081101561060c57600080fd5b8101908080359060200190929190505050611a4f565b6040518082815260200191505060405180910390f35b6106646004803603602081101561064e57600080fd5b8101908080359060200190929190505050611a6d565b6040518082815260200191505060405180910390f35b6106a66004803603602081101561069057600080fd5b8101908080359060200190929190505050611a8b565b6040518082815260200191505060405180910390f35b6106f2600480360360408110156106d257600080fd5b810190808035906020019092919080359060200190929190505050611a9e565b6040518080602001838152602001828103825284818151815260200191508051906020019060200280838360005b8381101561073b578082015181840152602081019050610720565b50505050905001935050505060405180910390f35b61077c6004803603602081101561076657600080fd5b8101908080359060200190929190505050611fc6565b6040518082815260200191505060405180910390f35b6107c8600480360360408110156107a857600080fd5b810190808035906020019092919080359060200190929190505050611fd9565b005b610800600480360360408110156107e057600080fd5b810190808035906020019092919080359060200190929190505050612033565b604051808060200180602001838103835285818151815260200191508051906020019080838360005b83811015610844578082015181840152602081019050610829565b50505050905090810190601f1680156108715780820380516001836020036101000a031916815260200191505b50838103825284818151815260200191508051906020019080838360005b838110156108aa57808201518184015260208101905061088f565b50505050905090810190601f1680156108d75780820380516001836020036101000a031916815260200191505b5094505050505060405180910390f35b6108ef612225565b6040518082815260200191505060405180910390f35b6000600d60000180549050141561094a57600d60000160009080600181540180825580915050906001820390600052602060002001600090919260001b909190915055505b600d60000182908060018154018082558091505090600182039060005260206000200160009091929091909150555080600d60010160008481526020019081526020016000208190555060006001600d600001805490500390505b600181118015610a1e5750600d6001016000600d60000183815481106109c757fe5b9060005260206000200154815260200190815260200160002054600d6001016000600d600001600285816109f757fe5b0481548110610a0257fe5b9060005260206000200154815260200190815260200160002054115b15610aa95782600d60000160028381610a3357fe5b0481548110610a3e57fe5b9060005260206000200154600d60000160028481610a5857fe5b0481548110610a6357fe5b906000526020600020016000600d6000018581548110610a7f57fe5b90600052602060002001600084919050558391905055505060028181610aa157fe5b0490506109a5565b505050565b60608060608060606000600160008881526020019081526020016000206000015490506000809050600080831115610f455782600702604051908082528060200260200182016040528015610b125781602001602082028038833980820191505090505b50975082604051908082528060200260200182016040528015610b445781602001602082028038833980820191505090505b50965082604051908082528060200260200182016040528015610b765781602001602082028038833980820191505090505b50955082604051908082528060200260200182016040528015610ba85781602001602082028038833980820191505090505b50945060008091505b83821015610e3657600160008b81526020019081526020016000206001016000838152602001908152602001600020549050600080600083815260200190815260200160002090506000600784029050828b8281518110610c0e57fe5b602002602001019060030b908160030b815250508160000160009054906101000a900460030b8b6001830181518110610c4357fe5b602002602001019060030b908160030b815250508160000160049054906101000a900460030b8b6002830181518110610c7857fe5b602002602001019060030b908160030b815250508160030160009054906101000a900460030b8b6003830181518110610cad57fe5b602002602001019060030b908160030b815250508160030160049054906101000a900460030b8b6004830181518110610ce257fe5b602002602001019060030b908160030b815250508160000160089054906101000a900460ff1615610d375760018b6005830181518110610d1e57fe5b602002602001019060030b908160030b81525050610d5d565b60008b6005830181518110610d4857fe5b602002602001019060030b908160030b815250505b8160000160099054906101000a900460ff1615610d9e5760018b6006830181518110610d8557fe5b602002602001019060030b908160030b81525050610dc4565b60008b6006830181518110610daf57fe5b602002602001019060030b908160030b815250505b81600501546001860101945081600201548a8581518110610de157fe5b6020026020010181815250508160010154898581518110610dfe57fe5b6020026020010181815250508160040154888581518110610e1b57fe5b60200260200101818152505050508180600101925050610bb1565b82604051908082528060200260200182016040528015610e655781602001602082028038833980820191505090505b5094506000809050600092505b84831015610f4257600160008c8152602001908152602001600020600101600084815260200190815260200160002054915060008060008481526020019081526020016000209050806005015460001b878380600101945081518110610ed457fe5b60200260200101818152505060008090505b8160050154811015610f335781600601600082815260200190815260200160002054888480600101955081518110610f1a57fe5b6020026020010181815250508080600101915050610ee6565b50508280600101935050610e72565b50505b50505091939590929450565b60008060019050600080905060008090505b84518110156110db576000858281518110610f7a57fe5b602001015160f81c60f81b9050600080600090505b600c80546001816001161561010002031660029004905081101561107057827effffffffffffffffffffffffffffffffffffffffffffffffffffffffffffff1916600c82815460018160011615610100020316600290048110610fee57fe5b81546001161561100d5790600052602060002090602091828204019190065b9054901a7f0100000000000000000000000000000000000000000000000000000000000000027effffffffffffffffffffffffffffffffffffffffffffffffffffffffffffff1916141561106357809150611070565b8080600101915050610f8f565b5060008090505b60058110156110cb576000600b828154811061108f57fe5b90600052602060002001549050866110b9576002860295506000818416146110b8576001860195505b5b86159650508080600101915050611077565b5050508080600101915050610f63565b508092505050919050565b6000818314156110f95760009050611183565b6060806111068585612033565b8092508193505050600061111983611189565b9050600061112683611189565b9050600061113385610f51565b9050600061114085610f51565b90506000808585111561115757858503915061115d565b84860391505b8383111561116f578383039050611175565b82840390505b808201985050505050505050505b92915050565b60008060019050600080905060008090505b84518110156113145760008582815181106111b257fe5b602001015160f81c60f81b9050600080600090505b600c8054600181600116156101000203166002900490508110156112a857827effffffffffffffffffffffffffffffffffffffffffffffffffffffffffffff1916600c8281546001816001161561010002031660029004811061122657fe5b8154600116156112455790600052602060002090602091828204019190065b9054901a7f0100000000000000000000000000000000000000000000000000000000000000027effffffffffffffffffffffffffffffffffffffffffffffffffffffffffffff1916141561129b578091506112a8565b80806001019150506111c7565b5060008090505b6005811015611304576000600b82815481106112c757fe5b9060005260206000200154905086156112f2576002860295506000818416146112f1576001860195505b5b861596505080806001019150506112af565b505050808060010191505061119b565b508092505050919050565b896000808d815260200190815260200160002060000160006101000a81548163ffffffff021916908360030b63ffffffff160217905550886000808d815260200190815260200160002060000160046101000a81548163ffffffff021916908360030b63ffffffff160217905550876000808d815260200190815260200160002060030160006101000a81548163ffffffff021916908360030b63ffffffff160217905550866000808d815260200190815260200160002060030160046101000a81548163ffffffff021916908360030b63ffffffff160217905550856000808d815260200190815260200160002060000160086101000a81548160ff021916908315150217905550846000808d815260200190815260200160002060000160096101000a81548160ff021916908315150217905550836000808d815260200190815260200160002060010181905550826000808d815260200190815260200160002060020181905550816000808d815260200190815260200160002060040181905550806000815181106114b057fe5b602002602001015160026000836000815181106114c957fe5b60200260200101518152602001908152602001600020600101600060026000856000815181106114f557fe5b60200260200101518152602001908152602001600020600001548152602001908152602001600020600001819055508060018251038151811061153457fe5b6020026020010151600260008360008151811061154d57fe5b602002602001015181526020019081526020016000206001016000600260008560008151811061157957fe5b60200260200101518152602001908152602001600020600001548152602001908152602001600020600101819055508660026000836000815181106115ba57fe5b60200260200101518152602001908152602001600020600101600060026000856000815181106115e657fe5b6020026020010151815260200190815260200160002060000154815260200190815260200160002060020160006101000a81548163ffffffff021916908360030b63ffffffff16021790555088600260008360008151811061164457fe5b602002602001015181526020019081526020016000206001016000600260008560008151811061167057fe5b6020026020010151815260200190815260200160002060000154815260200190815260200160002060020160046101000a81548163ffffffff021916908360030b63ffffffff1602179055508a60026000836000815181106116ce57fe5b60200260200101518152602001908152602001600020600101600060026000856000815181106116fa57fe5b60200260200101518152602001908152602001600020600001600081548092919060010191905055815260200190815260200160002060020160086101000a81548163ffffffff021916908360030b63ffffffff16021790555060008060008d815260200190815260200160002060050154905060008090505b82518110156117ce5782818151811061178957fe5b60200260200101516000808f81526020019081526020016000206006016000848060010195508152602001908152602001600020819055508080600101915050611774565b50806000808e815260200190815260200160002060050181905550505050505050505050505050565b6001600d600001805490501161180c57600080fd5b6001600d600001805490501161182157600080fd5b600061182b612225565b9050600d6000016001600d60000180549050038154811061184857fe5b9060005260206000200154600d60000160018154811061186457fe5b9060005260206000200181905550600d60000180548061188057fe5b600190038181906000526020600020016000905590556000600190505b600d60000180549050600282021015611a31576000600282029050600d6000018054905060018201101561194057600d6001016000600d60000160018401815481106118e557fe5b9060005260206000200154815260200190815260200160002054600d6001016000600d600001848154811061191657fe5b9060005260206000200154815260200190815260200160002054111561193f5780806001019150505b5b600d6001016000600d600001838154811061195757fe5b9060005260206000200154815260200190815260200160002054600d6001016000600d600001858154811061198857fe5b906000526020600020015481526020019081526020016000205410156119ae5750611a31565b600d60000181815481106119be57fe5b9060005260206000200154600d60000183815481106119d957fe5b9060005260206000200154600d60000184815481106119f457fe5b906000526020600020016000600d6000018581548110611a1057fe5b9060005260206000200160008491905055839190505550508091505061189d565b600d6001016000838152602001908152602001600020600090555050565b60026020528060005260406000206000915090508060000154905081565b60016020528060005260406000206000915090508060000154905081565b6000816003819055506003549050919050565b60606000611aad846000610905565b6000600760020160008681526020019081526020016000208190555083600760010160006007600001548152602001908152602001600020819055506007600001600081548092919060010191905055506000805b6001600d600001805490501115611fbd57611b1b612225565b9150611b256117f7565b600060026000848152602001908152602001600020905085831415611d1157600760020160008481526020019081526020016000205493506000869050600460000154604051908082528060200260200182016040528015611b965781602001602082028038833980820191505090505b50955060008090505b888214611be55781878281518110611bb357fe5b602002602001018181525050600460020160008381526020019081526020016000205491508080600101915050611b9f565b88878281518110611bf257fe5b60200260200101818152505060008090505b600460000154811015611c685760046002016000600460010160008481526020019081526020016000205481526020019081526020016000206000905560046001016000828152602001908152602001600020600090558080600101915050611c04565b50600060046000018190555060008090505b600760000154811015611cde5760076002016000600760010160008481526020019081526020016000205481526020019081526020016000206000905560076001016000828152602001908152602001600020600090558080600101915050611c7a565b5060006007600001819055505b6001600d600001805490501115611d0957611d046117f7565b611ceb565b505050611fbd565b60008090505b8160000154811015611fb657600060026000868152602001908152602001600020600101600083815260200190815260200160002060020160049054906101000a900460030b60030b6007600201600087815260200190815260200160002054019050600060076002016000856001016000868152602001908152602001600020600101548152602001908152602001600020541480611de45750600760020160008460010160008581526020019081526020016000206001015481526020019081526020016000205481105b15611fa857600060076002016000856001016000868152602001908152602001600020600101548152602001908152602001600020541415611e6e5782600101600083815260200190815260200160002060010154600760010160006007600001548152602001908152602001600020819055506007600001600081548092919060010191905055505b806007600201600085600101600086815260200190815260200160002060010154815260200190815260200160002081905550611ec383600101600084815260200190815260200160002060010154896110e6565b6003548202019350611eed8360010160008481526020019081526020016000206001015485610905565b6000801b60046002016000856001016000868152602001908152602001600020600101548152602001908152602001600020541415611f745782600101600083815260200190815260200160002060010154600460010160006004600001548152602001908152602001600020819055506004600001600081548092919060010191905055505b8460046002016000856001016000868152602001908152602001600020600101548152602001908152602001600020819055505b508080600101915050611d17565b5050611b02565b50509250929050565b600081600a81905550600a549050919050565b60006001600084815260200190815260200160002060000160008154809291906001019190505590508160016000858152602001908152602001600020600101600083815260200190815260200160002081905550505050565b606080600084905060008490506000602060ff16905060008060009050600091505b828210156120d85783826020811061206957fe5b1a60f81b7effffffffffffffffffffffffffffffffffffffffffffffffffffffffffffff191685836020811061209b57fe5b1a60f81b7effffffffffffffffffffffffffffffffffffffffffffffffffffffffffffff1916146120cb576120d8565b8180600101925050612055565b81600a5403905060008090506060826040519080825280601f01601f1916602001820160405280156121195781602001600182028038833980820191505090505b5090506060836040519080825280601f01601f1916602001820160405280156121515781602001600182028038833980820191505090505b50905060008590505b600a5481101561220f5788816020811061217057fe5b1a60f81b83858151811061218057fe5b60200101907effffffffffffffffffffffffffffffffffffffffffffffffffffffffffffff1916908160001a9053508781602081106121bb57fe5b1a60f81b8285815181106121cb57fe5b60200101907effffffffffffffffffffffffffffffffffffffffffffffffffffffffffffff1916908160001a9053508380600101945050808060010191505061215a565b5081819950995050505050505050509250929050565b60006001600d600001805490501161223c57600080fd5b600d60000160018154811061224d57fe5b906000526020600020015490509056fea265627a7a72315820212bd588df077e96181e57da836af8261b32fa49eb4e92cdef53377ec7f2e3d464736f6c63430005110032",
			"opcodes": "PUSH1 0x80 PUSH1 0x40 MSTORE PUSH1 0x1 PUSH1 0x3 SSTORE PUSH1 0x8 PUSH1 0xA SSTORE PUSH1 0x40 MLOAD DUP1 PUSH1 0xA0 ADD PUSH1 0x40 MSTORE DUP1 PUSH1 0x10 PUSH1 0xFF AND DUP2 MSTORE PUSH1 0x20 ADD PUSH1 0x8 PUSH1 0xFF AND DUP2 MSTORE PUSH1 0x20 ADD PUSH1 0x4 PUSH1 0xFF AND DUP2 MSTORE PUSH1 0x20 ADD PUSH1 0x2 PUSH1 0xFF AND DUP2 MSTORE PUSH1 0x20 ADD PUSH1 0x1 PUSH1 0xFF AND DUP2 MSTORE POP PUSH1 0xB SWAP1 PUSH1 0x5 PUSH3 0x5B SWAP3 SWAP2 SWAP1 PUSH3 0xBE JUMP JUMPDEST POP PUSH1 0x40 MLOAD DUP1 PUSH1 0x40 ADD PUSH1 0x40 MSTORE DUP1 PUSH1 0x20 DUP2 MSTORE PUSH1 0x20 ADD PUSH32 0x30313233343536373839626364656667686A6B6D6E707172737475767778797A DUP2 MSTORE POP PUSH1 0xC SWAP1 DUP1 MLOAD SWAP1 PUSH1 0x20 ADD SWAP1 PUSH3 0xA9 SWAP3 SWAP2 SWAP1 PUSH3 0x115 JUMP JUMPDEST POP CALLVALUE DUP1 ISZERO PUSH3 0xB7 JUMPI PUSH1 0x0 DUP1 REVERT JUMPDEST POP PUSH3 0x1C4 JUMP JUMPDEST DUP3 DUP1 SLOAD DUP3 DUP3 SSTORE SWAP1 PUSH1 0x0 MSTORE PUSH1 0x20 PUSH1 0x0 KECCAK256 SWAP1 DUP2 ADD SWAP3 DUP3 ISZERO PUSH3 0x102 JUMPI SWAP2 PUSH1 0x20 MUL DUP3 ADD JUMPDEST DUP3 DUP2 GT ISZERO PUSH3 0x101 JUMPI DUP3 MLOAD DUP3 SWAP1 PUSH1 0xFF AND SWAP1 SSTORE SWAP2 PUSH1 0x20 ADD SWAP2 SWAP1 PUSH1 0x1 ADD SWAP1 PUSH3 0xDF JUMP JUMPDEST JUMPDEST POP SWAP1 POP PUSH3 0x111 SWAP2 SWAP1 PUSH3 0x19C JUMP JUMPDEST POP SWAP1 JUMP JUMPDEST DUP3 DUP1 SLOAD PUSH1 0x1 DUP2 PUSH1 0x1 AND ISZERO PUSH2 0x100 MUL SUB AND PUSH1 0x2 SWAP1 DIV SWAP1 PUSH1 0x0 MSTORE PUSH1 0x20 PUSH1 0x0 KECCAK256 SWAP1 PUSH1 0x1F ADD PUSH1 0x20 SWAP1 DIV DUP2 ADD SWAP3 DUP3 PUSH1 0x1F LT PUSH3 0x158 JUMPI DUP1 MLOAD PUSH1 0xFF NOT AND DUP4 DUP1 ADD OR DUP6 SSTORE PUSH3 0x189 JUMP JUMPDEST DUP3 DUP1 ADD PUSH1 0x1 ADD DUP6 SSTORE DUP3 ISZERO PUSH3 0x189 JUMPI SWAP2 DUP3 ADD JUMPDEST DUP3 DUP2 GT ISZERO PUSH3 0x188 JUMPI DUP3 MLOAD DUP3 SSTORE SWAP2 PUSH1 0x20 ADD SWAP2 SWAP1 PUSH1 0x1 ADD SWAP1 PUSH3 0x16B JUMP JUMPDEST JUMPDEST POP SWAP1 POP PUSH3 0x198 SWAP2 SWAP1 PUSH3 0x19C JUMP JUMPDEST POP SWAP1 JUMP JUMPDEST PUSH3 0x1C1 SWAP2 SWAP1 JUMPDEST DUP1 DUP3 GT ISZERO PUSH3 0x1BD JUMPI PUSH1 0x0 DUP2 PUSH1 0x0 SWAP1 SSTORE POP PUSH1 0x1 ADD PUSH3 0x1A3 JUMP JUMPDEST POP SWAP1 JUMP JUMPDEST SWAP1 JUMP JUMPDEST PUSH2 0x2292 DUP1 PUSH3 0x1D4 PUSH1 0x0 CODECOPY PUSH1 0x0 RETURN INVALID PUSH1 0x80 PUSH1 0x40 MSTORE CALLVALUE DUP1 ISZERO PUSH2 0x10 JUMPI PUSH1 0x0 DUP1 REVERT JUMPDEST POP PUSH1 0x4 CALLDATASIZE LT PUSH2 0xF5 JUMPI PUSH1 0x0 CALLDATALOAD PUSH1 0xE0 SHR DUP1 PUSH4 0xBC6331DA GT PUSH2 0x97 JUMPI DUP1 PUSH4 0xD35A1D0D GT PUSH2 0x66 JUMPI DUP1 PUSH4 0xD35A1D0D EQ PUSH2 0x750 JUMPI DUP1 PUSH4 0xF90E5CA9 EQ PUSH2 0x792 JUMPI DUP1 PUSH4 0xFDCD80AA EQ PUSH2 0x7CA JUMPI DUP1 PUSH4 0xFE6DCDBA EQ PUSH2 0x8E7 JUMPI PUSH2 0xF5 JUMP JUMPDEST DUP1 PUSH4 0xBC6331DA EQ PUSH2 0x5F6 JUMPI DUP1 PUSH4 0xCBF3B01E EQ PUSH2 0x638 JUMPI DUP1 PUSH4 0xCD3D7196 EQ PUSH2 0x67A JUMPI DUP1 PUSH4 0xD1CF2408 EQ PUSH2 0x6BC JUMPI PUSH2 0xF5 JUMP JUMPDEST DUP1 PUSH4 0x53F065FD GT PUSH2 0xD3 JUMPI DUP1 PUSH4 0x53F065FD EQ PUSH2 0x3A4 JUMPI DUP1 PUSH4 0x68BA6DF9 EQ PUSH2 0x3F0 JUMPI DUP1 PUSH4 0x7F6D50C9 EQ PUSH2 0x4BF JUMPI DUP1 PUSH4 0x957908D1 EQ PUSH2 0x5EC JUMPI PUSH2 0xF5 JUMP JUMPDEST DUP1 PUSH4 0x13372041 EQ PUSH2 0xFA JUMPI DUP1 PUSH4 0x3FB80582 EQ PUSH2 0x132 JUMPI DUP1 PUSH4 0x44CF2CD7 EQ PUSH2 0x2D5 JUMPI JUMPDEST PUSH1 0x0 DUP1 REVERT JUMPDEST PUSH2 0x130 PUSH1 0x4 DUP1 CALLDATASIZE SUB PUSH1 0x40 DUP2 LT ISZERO PUSH2 0x110 JUMPI PUSH1 0x0 DUP1 REVERT JUMPDEST DUP2 ADD SWAP1 DUP1 DUP1 CALLDATALOAD SWAP1 PUSH1 0x20 ADD SWAP1 SWAP3 SWAP2 SWAP1 DUP1 CALLDATALOAD SWAP1 PUSH1 0x20 ADD SWAP1 SWAP3 SWAP2 SWAP1 POP POP POP PUSH2 0x905 JUMP JUMPDEST STOP JUMPDEST PUSH2 0x15E PUSH1 0x4 DUP1 CALLDATASIZE SUB PUSH1 0x20 DUP2 LT ISZERO PUSH2 0x148 JUMPI PUSH1 0x0 DUP1 REVERT JUMPDEST DUP2 ADD SWAP1 DUP1 DUP1 CALLDATALOAD SWAP1 PUSH1 0x20 ADD SWAP1 SWAP3 SWAP2 SWAP1 POP POP POP PUSH2 0xAAE JUMP JUMPDEST PUSH1 0x40 MLOAD DUP1 DUP1 PUSH1 0x20 ADD DUP1 PUSH1 0x20 ADD DUP1 PUSH1 0x20 ADD DUP1 PUSH1 0x20 ADD DUP1 PUSH1 0x20 ADD DUP7 DUP2 SUB DUP7 MSTORE DUP12 DUP2 DUP2 MLOAD DUP2 MSTORE PUSH1 0x20 ADD SWAP2 POP DUP1 MLOAD SWAP1 PUSH1 0x20 ADD SWAP1 PUSH1 0x20 MUL DUP1 DUP4 DUP4 PUSH1 0x0 JUMPDEST DUP4 DUP2 LT ISZERO PUSH2 0x1B1 JUMPI DUP1 DUP3 ADD MLOAD DUP2 DUP5 ADD MSTORE PUSH1 0x20 DUP2 ADD SWAP1 POP PUSH2 0x196 JUMP JUMPDEST POP POP POP POP SWAP1 POP ADD DUP7 DUP2 SUB DUP6 MSTORE DUP11 DUP2 DUP2 MLOAD DUP2 MSTORE PUSH1 0x20 ADD SWAP2 POP DUP1 MLOAD SWAP1 PUSH1 0x20 ADD SWAP1 PUSH1 0x20 MUL DUP1 DUP4 DUP4 PUSH1 0x0 JUMPDEST DUP4 DUP2 LT ISZERO PUSH2 0x1F3 JUMPI DUP1 DUP3 ADD MLOAD DUP2 DUP5 ADD MSTORE PUSH1 0x20 DUP2 ADD SWAP1 POP PUSH2 0x1D8 JUMP JUMPDEST POP POP POP POP SWAP1 POP ADD DUP7 DUP2 SUB DUP5 MSTORE DUP10 DUP2 DUP2 MLOAD DUP2 MSTORE PUSH1 0x20 ADD SWAP2 POP DUP1 MLOAD SWAP1 PUSH1 0x20 ADD SWAP1 PUSH1 0x20 MUL DUP1 DUP4 DUP4 PUSH1 0x0 JUMPDEST DUP4 DUP2 LT ISZERO PUSH2 0x235 JUMPI DUP1 DUP3 ADD MLOAD DUP2 DUP5 ADD MSTORE PUSH1 0x20 DUP2 ADD SWAP1 POP PUSH2 0x21A JUMP JUMPDEST POP POP POP POP SWAP1 POP ADD DUP7 DUP2 SUB DUP4 MSTORE DUP9 DUP2 DUP2 MLOAD DUP2 MSTORE PUSH1 0x20 ADD SWAP2 POP DUP1 MLOAD SWAP1 PUSH1 0x20 ADD SWAP1 PUSH1 0x20 MUL DUP1 DUP4 DUP4 PUSH1 0x0 JUMPDEST DUP4 DUP2 LT ISZERO PUSH2 0x277 JUMPI DUP1 DUP3 ADD MLOAD DUP2 DUP5 ADD MSTORE PUSH1 0x20 DUP2 ADD SWAP1 POP PUSH2 0x25C JUMP JUMPDEST POP POP POP POP SWAP1 POP ADD DUP7 DUP2 SUB DUP3 MSTORE DUP8 DUP2 DUP2 MLOAD DUP2 MSTORE PUSH1 0x20 ADD SWAP2 POP DUP1 MLOAD SWAP1 PUSH1 0x20 ADD SWAP1 PUSH1 0x20 MUL DUP1 DUP4 DUP4 PUSH1 0x0 JUMPDEST DUP4 DUP2 LT ISZERO PUSH2 0x2B9 JUMPI DUP1 DUP3 ADD MLOAD DUP2 DUP5 ADD MSTORE PUSH1 0x20 DUP2 ADD SWAP1 POP PUSH2 0x29E JUMP JUMPDEST POP POP POP POP SWAP1 POP ADD SWAP11 POP POP POP POP POP POP POP POP POP POP POP PUSH1 0x40 MLOAD DUP1 SWAP2 SUB SWAP1 RETURN JUMPDEST PUSH2 0x38E PUSH1 0x4 DUP1 CALLDATASIZE SUB PUSH1 0x20 DUP2 LT ISZERO PUSH2 0x2EB JUMPI PUSH1 0x0 DUP1 REVERT JUMPDEST DUP2 ADD SWAP1 DUP1 DUP1 CALLDATALOAD SWAP1 PUSH1 0x20 ADD SWAP1 PUSH5 0x100000000 DUP2 GT ISZERO PUSH2 0x308 JUMPI PUSH1 0x0 DUP1 REVERT JUMPDEST DUP3 ADD DUP4 PUSH1 0x20 DUP3 ADD GT ISZERO PUSH2 0x31A JUMPI PUSH1 0x0 DUP1 REVERT JUMPDEST DUP1 CALLDATALOAD SWAP1 PUSH1 0x20 ADD SWAP2 DUP5 PUSH1 0x1 DUP4 MUL DUP5 ADD GT PUSH5 0x100000000 DUP4 GT OR ISZERO PUSH2 0x33C JUMPI PUSH1 0x0 DUP1 REVERT JUMPDEST SWAP2 SWAP1 DUP1 DUP1 PUSH1 0x1F ADD PUSH1 0x20 DUP1 SWAP2 DIV MUL PUSH1 0x20 ADD PUSH1 0x40 MLOAD SWAP1 DUP2 ADD PUSH1 0x40 MSTORE DUP1 SWAP4 SWAP3 SWAP2 SWAP1 DUP2 DUP2 MSTORE PUSH1 0x20 ADD DUP4 DUP4 DUP1 DUP3 DUP5 CALLDATACOPY PUSH1 0x0 DUP2 DUP5 ADD MSTORE PUSH1 0x1F NOT PUSH1 0x1F DUP3 ADD AND SWAP1 POP DUP1 DUP4 ADD SWAP3 POP POP POP POP POP POP POP SWAP2 SWAP3 SWAP2 SWAP3 SWAP1 POP POP POP PUSH2 0xF51 JUMP JUMPDEST PUSH1 0x40 MLOAD DUP1 DUP3 DUP2 MSTORE PUSH1 0x20 ADD SWAP2 POP POP PUSH1 0x40 MLOAD DUP1 SWAP2 SUB SWAP1 RETURN JUMPDEST PUSH2 0x3DA PUSH1 0x4 DUP1 CALLDATASIZE SUB PUSH1 0x40 DUP2 LT ISZERO PUSH2 0x3BA JUMPI PUSH1 0x0 DUP1 REVERT JUMPDEST DUP2 ADD SWAP1 DUP1 DUP1 CALLDATALOAD SWAP1 PUSH1 0x20 ADD SWAP1 SWAP3 SWAP2 SWAP1 DUP1 CALLDATALOAD SWAP1 PUSH1 0x20 ADD SWAP1 SWAP3 SWAP2 SWAP1 POP POP POP PUSH2 0x10E6 JUMP JUMPDEST PUSH1 0x40 MLOAD DUP1 DUP3 DUP2 MSTORE PUSH1 0x20 ADD SWAP2 POP POP PUSH1 0x40 MLOAD DUP1 SWAP2 SUB SWAP1 RETURN JUMPDEST PUSH2 0x4A9 PUSH1 0x4 DUP1 CALLDATASIZE SUB PUSH1 0x20 DUP2 LT ISZERO PUSH2 0x406 JUMPI PUSH1 0x0 DUP1 REVERT JUMPDEST DUP2 ADD SWAP1 DUP1 DUP1 CALLDATALOAD SWAP1 PUSH1 0x20 ADD SWAP1 PUSH5 0x100000000 DUP2 GT ISZERO PUSH2 0x423 JUMPI PUSH1 0x0 DUP1 REVERT JUMPDEST DUP3 ADD DUP4 PUSH1 0x20 DUP3 ADD GT ISZERO PUSH2 0x435 JUMPI PUSH1 0x0 DUP1 REVERT JUMPDEST DUP1 CALLDATALOAD SWAP1 PUSH1 0x20 ADD SWAP2 DUP5 PUSH1 0x1 DUP4 MUL DUP5 ADD GT PUSH5 0x100000000 DUP4 GT OR ISZERO PUSH2 0x457 JUMPI PUSH1 0x0 DUP1 REVERT JUMPDEST SWAP2 SWAP1 DUP1 DUP1 PUSH1 0x1F ADD PUSH1 0x20 DUP1 SWAP2 DIV MUL PUSH1 0x20 ADD PUSH1 0x40 MLOAD SWAP1 DUP2 ADD PUSH1 0x40 MSTORE DUP1 SWAP4 SWAP3 SWAP2 SWAP1 DUP2 DUP2 MSTORE PUSH1 0x20 ADD DUP4 DUP4 DUP1 DUP3 DUP5 CALLDATACOPY PUSH1 0x0 DUP2 DUP5 ADD MSTORE PUSH1 0x1F NOT PUSH1 0x1F DUP3 ADD AND SWAP1 POP DUP1 DUP4 ADD SWAP3 POP POP POP POP POP POP POP SWAP2 SWAP3 SWAP2 SWAP3 SWAP1 POP POP POP PUSH2 0x1189 JUMP JUMPDEST PUSH1 0x40 MLOAD DUP1 DUP3 DUP2 MSTORE PUSH1 0x20 ADD SWAP2 POP POP PUSH1 0x40 MLOAD DUP1 SWAP2 SUB SWAP1 RETURN JUMPDEST PUSH2 0x5EA PUSH1 0x4 DUP1 CALLDATASIZE SUB PUSH2 0x160 DUP2 LT ISZERO PUSH2 0x4D6 JUMPI PUSH1 0x0 DUP1 REVERT JUMPDEST DUP2 ADD SWAP1 DUP1 DUP1 CALLDATALOAD SWAP1 PUSH1 0x20 ADD SWAP1 SWAP3 SWAP2 SWAP1 DUP1 CALLDATALOAD PUSH1 0x3 SIGNEXTEND SWAP1 PUSH1 0x20 ADD SWAP1 SWAP3 SWAP2 SWAP1 DUP1 CALLDATALOAD PUSH1 0x3 SIGNEXTEND SWAP1 PUSH1 0x20 ADD SWAP1 SWAP3 SWAP2 SWAP1 DUP1 CALLDATALOAD PUSH1 0x3 SIGNEXTEND SWAP1 PUSH1 0x20 ADD SWAP1 SWAP3 SWAP2 SWAP1 DUP1 CALLDATALOAD PUSH1 0x3 SIGNEXTEND SWAP1 PUSH1 0x20 ADD SWAP1 SWAP3 SWAP2 SWAP1 DUP1 CALLDATALOAD ISZERO ISZERO SWAP1 PUSH1 0x20 ADD SWAP1 SWAP3 SWAP2 SWAP1 DUP1 CALLDATALOAD ISZERO ISZERO SWAP1 PUSH1 0x20 ADD SWAP1 SWAP3 SWAP2 SWAP1 DUP1 CALLDATALOAD SWAP1 PUSH1 0x20 ADD SWAP1 SWAP3 SWAP2 SWAP1 DUP1 CALLDATALOAD SWAP1 PUSH1 0x20 ADD SWAP1 SWAP3 SWAP2 SWAP1 DUP1 CALLDATALOAD SWAP1 PUSH1 0x20 ADD SWAP1 SWAP3 SWAP2 SWAP1 DUP1 CALLDATALOAD SWAP1 PUSH1 0x20 ADD SWAP1 PUSH5 0x100000000 DUP2 GT ISZERO PUSH2 0x567 JUMPI PUSH1 0x0 DUP1 REVERT JUMPDEST DUP3 ADD DUP4 PUSH1 0x20 DUP3 ADD GT ISZERO PUSH2 0x579 JUMPI PUSH1 0x0 DUP1 REVERT JUMPDEST DUP1 CALLDATALOAD SWAP1 PUSH1 0x20 ADD SWAP2 DUP5 PUSH1 0x20 DUP4 MUL DUP5 ADD GT PUSH5 0x100000000 DUP4 GT OR ISZERO PUSH2 0x59B JUMPI PUSH1 0x0 DUP1 REVERT JUMPDEST SWAP2 SWAP1 DUP1 DUP1 PUSH1 0x20 MUL PUSH1 0x20 ADD PUSH1 0x40 MLOAD SWAP1 DUP2 ADD PUSH1 0x40 MSTORE DUP1 SWAP4 SWAP3 SWAP2 SWAP1 DUP2 DUP2 MSTORE PUSH1 0x20 ADD DUP4 DUP4 PUSH1 0x20 MUL DUP1 DUP3 DUP5 CALLDATACOPY PUSH1 0x0 DUP2 DUP5 ADD MSTORE PUSH1 0x1F NOT PUSH1 0x1F DUP3 ADD AND SWAP1 POP DUP1 DUP4 ADD SWAP3 POP POP POP POP POP POP POP SWAP2 SWAP3 SWAP2 SWAP3 SWAP1 POP POP POP PUSH2 0x131F JUMP JUMPDEST STOP JUMPDEST PUSH2 0x5F4 PUSH2 0x17F7 JUMP JUMPDEST STOP JUMPDEST PUSH2 0x622 PUSH1 0x4 DUP1 CALLDATASIZE SUB PUSH1 0x20 DUP2 LT ISZERO PUSH2 0x60C JUMPI PUSH1 0x0 DUP1 REVERT JUMPDEST DUP2 ADD SWAP1 DUP1 DUP1 CALLDATALOAD SWAP1 PUSH1 0x20 ADD SWAP1 SWAP3 SWAP2 SWAP1 POP POP POP PUSH2 0x1A4F JUMP JUMPDEST PUSH1 0x40 MLOAD DUP1 DUP3 DUP2 MSTORE PUSH1 0x20 ADD SWAP2 POP POP PUSH1 0x40 MLOAD DUP1 SWAP2 SUB SWAP1 RETURN JUMPDEST PUSH2 0x664 PUSH1 0x4 DUP1 CALLDATASIZE SUB PUSH1 0x20 DUP2 LT ISZERO PUSH2 0x64E JUMPI PUSH1 0x0 DUP1 REVERT JUMPDEST DUP2 ADD SWAP1 DUP1 DUP1 CALLDATALOAD SWAP1 PUSH1 0x20 ADD SWAP1 SWAP3 SWAP2 SWAP1 POP POP POP PUSH2 0x1A6D JUMP JUMPDEST PUSH1 0x40 MLOAD DUP1 DUP3 DUP2 MSTORE PUSH1 0x20 ADD SWAP2 POP POP PUSH1 0x40 MLOAD DUP1 SWAP2 SUB SWAP1 RETURN JUMPDEST PUSH2 0x6A6 PUSH1 0x4 DUP1 CALLDATASIZE SUB PUSH1 0x20 DUP2 LT ISZERO PUSH2 0x690 JUMPI PUSH1 0x0 DUP1 REVERT JUMPDEST DUP2 ADD SWAP1 DUP1 DUP1 CALLDATALOAD SWAP1 PUSH1 0x20 ADD SWAP1 SWAP3 SWAP2 SWAP1 POP POP POP PUSH2 0x1A8B JUMP JUMPDEST PUSH1 0x40 MLOAD DUP1 DUP3 DUP2 MSTORE PUSH1 0x20 ADD SWAP2 POP POP PUSH1 0x40 MLOAD DUP1 SWAP2 SUB SWAP1 RETURN JUMPDEST PUSH2 0x6F2 PUSH1 0x4 DUP1 CALLDATASIZE SUB PUSH1 0x40 DUP2 LT ISZERO PUSH2 0x6D2 JUMPI PUSH1 0x0 DUP1 REVERT JUMPDEST DUP2 ADD SWAP1 DUP1 DUP1 CALLDATALOAD SWAP1 PUSH1 0x20 ADD SWAP1 SWAP3 SWAP2 SWAP1 DUP1 CALLDATALOAD SWAP1 PUSH1 0x20 ADD SWAP1 SWAP3 SWAP2 SWAP1 POP POP POP PUSH2 0x1A9E JUMP JUMPDEST PUSH1 0x40 MLOAD DUP1 DUP1 PUSH1 0x20 ADD DUP4 DUP2 MSTORE PUSH1 0x20 ADD DUP3 DUP2 SUB DUP3 MSTORE DUP5 DUP2 DUP2 MLOAD DUP2 MSTORE PUSH1 0x20 ADD SWAP2 POP DUP1 MLOAD SWAP1 PUSH1 0x20 ADD SWAP1 PUSH1 0x20 MUL DUP1 DUP4 DUP4 PUSH1 0x0 JUMPDEST DUP4 DUP2 LT ISZERO PUSH2 0x73B JUMPI DUP1 DUP3 ADD MLOAD DUP2 DUP5 ADD MSTORE PUSH1 0x20 DUP2 ADD SWAP1 POP PUSH2 0x720 JUMP JUMPDEST POP POP POP POP SWAP1 POP ADD SWAP4 POP POP POP POP PUSH1 0x40 MLOAD DUP1 SWAP2 SUB SWAP1 RETURN JUMPDEST PUSH2 0x77C PUSH1 0x4 DUP1 CALLDATASIZE SUB PUSH1 0x20 DUP2 LT ISZERO PUSH2 0x766 JUMPI PUSH1 0x0 DUP1 REVERT JUMPDEST DUP2 ADD SWAP1 DUP1 DUP1 CALLDATALOAD SWAP1 PUSH1 0x20 ADD SWAP1 SWAP3 SWAP2 SWAP1 POP POP POP PUSH2 0x1FC6 JUMP JUMPDEST PUSH1 0x40 MLOAD DUP1 DUP3 DUP2 MSTORE PUSH1 0x20 ADD SWAP2 POP POP PUSH1 0x40 MLOAD DUP1 SWAP2 SUB SWAP1 RETURN JUMPDEST PUSH2 0x7C8 PUSH1 0x4 DUP1 CALLDATASIZE SUB PUSH1 0x40 DUP2 LT ISZERO PUSH2 0x7A8 JUMPI PUSH1 0x0 DUP1 REVERT JUMPDEST DUP2 ADD SWAP1 DUP1 DUP1 CALLDATALOAD SWAP1 PUSH1 0x20 ADD SWAP1 SWAP3 SWAP2 SWAP1 DUP1 CALLDATALOAD SWAP1 PUSH1 0x20 ADD SWAP1 SWAP3 SWAP2 SWAP1 POP POP POP PUSH2 0x1FD9 JUMP JUMPDEST STOP JUMPDEST PUSH2 0x800 PUSH1 0x4 DUP1 CALLDATASIZE SUB PUSH1 0x40 DUP2 LT ISZERO PUSH2 0x7E0 JUMPI PUSH1 0x0 DUP1 REVERT JUMPDEST DUP2 ADD SWAP1 DUP1 DUP1 CALLDATALOAD SWAP1 PUSH1 0x20 ADD SWAP1 SWAP3 SWAP2 SWAP1 DUP1 CALLDATALOAD SWAP1 PUSH1 0x20 ADD SWAP1 SWAP3 SWAP2 SWAP1 POP POP POP PUSH2 0x2033 JUMP JUMPDEST PUSH1 0x40 MLOAD DUP1 DUP1 PUSH1 0x20 ADD DUP1 PUSH1 0x20 ADD DUP4 DUP2 SUB DUP4 MSTORE DUP6 DUP2 DUP2 MLOAD DUP2 MSTORE PUSH1 0x20 ADD SWAP2 POP DUP1 MLOAD SWAP1 PUSH1 0x20 ADD SWAP1 DUP1 DUP4 DUP4 PUSH1 0x0 JUMPDEST DUP4 DUP2 LT ISZERO PUSH2 0x844 JUMPI DUP1 DUP3 ADD MLOAD DUP2 DUP5 ADD MSTORE PUSH1 0x20 DUP2 ADD SWAP1 POP PUSH2 0x829 JUMP JUMPDEST POP POP POP POP SWAP1 POP SWAP1 DUP2 ADD SWAP1 PUSH1 0x1F AND DUP1 ISZERO PUSH2 0x871 JUMPI DUP1 DUP3 SUB DUP1 MLOAD PUSH1 0x1 DUP4 PUSH1 0x20 SUB PUSH2 0x100 EXP SUB NOT AND DUP2 MSTORE PUSH1 0x20 ADD SWAP2 POP JUMPDEST POP DUP4 DUP2 SUB DUP3 MSTORE DUP5 DUP2 DUP2 MLOAD DUP2 MSTORE PUSH1 0x20 ADD SWAP2 POP DUP1 MLOAD SWAP1 PUSH1 0x20 ADD SWAP1 DUP1 DUP4 DUP4 PUSH1 0x0 JUMPDEST DUP4 DUP2 LT ISZERO PUSH2 0x8AA JUMPI DUP1 DUP3 ADD MLOAD DUP2 DUP5 ADD MSTORE PUSH1 0x20 DUP2 ADD SWAP1 POP PUSH2 0x88F JUMP JUMPDEST POP POP POP POP SWAP1 POP SWAP1 DUP2 ADD SWAP1 PUSH1 0x1F AND DUP1 ISZERO PUSH2 0x8D7 JUMPI DUP1 DUP3 SUB DUP1 MLOAD PUSH1 0x1 DUP4 PUSH1 0x20 SUB PUSH2 0x100 EXP SUB NOT AND DUP2 MSTORE PUSH1 0x20 ADD SWAP2 POP JUMPDEST POP SWAP5 POP POP POP POP POP PUSH1 0x40 MLOAD DUP1 SWAP2 SUB SWAP1 RETURN JUMPDEST PUSH2 0x8EF PUSH2 0x2225 JUMP JUMPDEST PUSH1 0x40 MLOAD DUP1 DUP3 DUP2 MSTORE PUSH1 0x20 ADD SWAP2 POP POP PUSH1 0x40 MLOAD DUP1 SWAP2 SUB SWAP1 RETURN JUMPDEST PUSH1 0x0 PUSH1 0xD PUSH1 0x0 ADD DUP1 SLOAD SWAP1 POP EQ ISZERO PUSH2 0x94A JUMPI PUSH1 0xD PUSH1 0x0 ADD PUSH1 0x0 SWAP1 DUP1 PUSH1 0x1 DUP2 SLOAD ADD DUP1 DUP3 SSTORE DUP1 SWAP2 POP POP SWAP1 PUSH1 0x1 DUP3 SUB SWAP1 PUSH1 0x0 MSTORE PUSH1 0x20 PUSH1 0x0 KECCAK256 ADD PUSH1 0x0 SWAP1 SWAP2 SWAP3 PUSH1 0x0 SHL SWAP1 SWAP2 SWAP1 SWAP2 POP SSTORE POP JUMPDEST PUSH1 0xD PUSH1 0x0 ADD DUP3 SWAP1 DUP1 PUSH1 0x1 DUP2 SLOAD ADD DUP1 DUP3 SSTORE DUP1 SWAP2 POP POP SWAP1 PUSH1 0x1 DUP3 SUB SWAP1 PUSH1 0x0 MSTORE PUSH1 0x20 PUSH1 0x0 KECCAK256 ADD PUSH1 0x0 SWAP1 SWAP2 SWAP3 SWAP1 SWAP2 SWAP1 SWAP2 POP SSTORE POP DUP1 PUSH1 0xD PUSH1 0x1 ADD PUSH1 0x0 DUP5 DUP2 MSTORE PUSH1 0x20 ADD SWAP1 DUP2 MSTORE PUSH1 0x20 ADD PUSH1 0x0 KECCAK256 DUP2 SWAP1 SSTORE POP PUSH1 0x0 PUSH1 0x1 PUSH1 0xD PUSH1 0x0 ADD DUP1 SLOAD SWAP1 POP SUB SWAP1 POP JUMPDEST PUSH1 0x1 DUP2 GT DUP1 ISZERO PUSH2 0xA1E JUMPI POP PUSH1 0xD PUSH1 0x1 ADD PUSH1 0x0 PUSH1 0xD PUSH1 0x0 ADD DUP4 DUP2 SLOAD DUP2 LT PUSH2 0x9C7 JUMPI INVALID JUMPDEST SWAP1 PUSH1 0x0 MSTORE PUSH1 0x20 PUSH1 0x0 KECCAK256 ADD SLOAD DUP2 MSTORE PUSH1 0x20 ADD SWAP1 DUP2 MSTORE PUSH1 0x20 ADD PUSH1 0x0 KECCAK256 SLOAD PUSH1 0xD PUSH1 0x1 ADD PUSH1 0x0 PUSH1 0xD PUSH1 0x0 ADD PUSH1 0x2 DUP6 DUP2 PUSH2 0x9F7 JUMPI INVALID JUMPDEST DIV DUP2 SLOAD DUP2 LT PUSH2 0xA02 JUMPI INVALID JUMPDEST SWAP1 PUSH1 0x0 MSTORE PUSH1 0x20 PUSH1 0x0 KECCAK256 ADD SLOAD DUP2 MSTORE PUSH1 0x20 ADD SWAP1 DUP2 MSTORE PUSH1 0x20 ADD PUSH1 0x0 KECCAK256 SLOAD GT JUMPDEST ISZERO PUSH2 0xAA9 JUMPI DUP3 PUSH1 0xD PUSH1 0x0 ADD PUSH1 0x2 DUP4 DUP2 PUSH2 0xA33 JUMPI INVALID JUMPDEST DIV DUP2 SLOAD DUP2 LT PUSH2 0xA3E JUMPI INVALID JUMPDEST SWAP1 PUSH1 0x0 MSTORE PUSH1 0x20 PUSH1 0x0 KECCAK256 ADD SLOAD PUSH1 0xD PUSH1 0x0 ADD PUSH1 0x2 DUP5 DUP2 PUSH2 0xA58 JUMPI INVALID JUMPDEST DIV DUP2 SLOAD DUP2 LT PUSH2 0xA63 JUMPI INVALID JUMPDEST SWAP1 PUSH1 0x0 MSTORE PUSH1 0x20 PUSH1 0x0 KECCAK256 ADD PUSH1 0x0 PUSH1 0xD PUSH1 0x0 ADD DUP6 DUP2 SLOAD DUP2 LT PUSH2 0xA7F JUMPI INVALID JUMPDEST SWAP1 PUSH1 0x0 MSTORE PUSH1 0x20 PUSH1 0x0 KECCAK256 ADD PUSH1 0x0 DUP5 SWAP2 SWAP1 POP SSTORE DUP4 SWAP2 SWAP1 POP SSTORE POP POP PUSH1 0x2 DUP2 DUP2 PUSH2 0xAA1 JUMPI INVALID JUMPDEST DIV SWAP1 POP PUSH2 0x9A5 JUMP JUMPDEST POP POP POP JUMP JUMPDEST PUSH1 0x60 DUP1 PUSH1 0x60 DUP1 PUSH1 0x60 PUSH1 0x0 PUSH1 0x1 PUSH1 0x0 DUP9 DUP2 MSTORE PUSH1 0x20 ADD SWAP1 DUP2 MSTORE PUSH1 0x20 ADD PUSH1 0x0 KECCAK256 PUSH1 0x0 ADD SLOAD SWAP1 POP PUSH1 0x0 DUP1 SWAP1 POP PUSH1 0x0 DUP1 DUP4 GT ISZERO PUSH2 0xF45 JUMPI DUP3 PUSH1 0x7 MUL PUSH1 0x40 MLOAD SWAP1 DUP1 DUP3 MSTORE DUP1 PUSH1 0x20 MUL PUSH1 0x20 ADD DUP3 ADD PUSH1 0x40 MSTORE DUP1 ISZERO PUSH2 0xB12 JUMPI DUP2 PUSH1 0x20 ADD PUSH1 0x20 DUP3 MUL DUP1 CODESIZE DUP4 CODECOPY DUP1 DUP3 ADD SWAP2 POP POP SWAP1 POP JUMPDEST POP SWAP8 POP DUP3 PUSH1 0x40 MLOAD SWAP1 DUP1 DUP3 MSTORE DUP1 PUSH1 0x20 MUL PUSH1 0x20 ADD DUP3 ADD PUSH1 0x40 MSTORE DUP1 ISZERO PUSH2 0xB44 JUMPI DUP2 PUSH1 0x20 ADD PUSH1 0x20 DUP3 MUL DUP1 CODESIZE DUP4 CODECOPY DUP1 DUP3 ADD SWAP2 POP POP SWAP1 POP JUMPDEST POP SWAP7 POP DUP3 PUSH1 0x40 MLOAD SWAP1 DUP1 DUP3 MSTORE DUP1 PUSH1 0x20 MUL PUSH1 0x20 ADD DUP3 ADD PUSH1 0x40 MSTORE DUP1 ISZERO PUSH2 0xB76 JUMPI DUP2 PUSH1 0x20 ADD PUSH1 0x20 DUP3 MUL DUP1 CODESIZE DUP4 CODECOPY DUP1 DUP3 ADD SWAP2 POP POP SWAP1 POP JUMPDEST POP SWAP6 POP DUP3 PUSH1 0x40 MLOAD SWAP1 DUP1 DUP3 MSTORE DUP1 PUSH1 0x20 MUL PUSH1 0x20 ADD DUP3 ADD PUSH1 0x40 MSTORE DUP1 ISZERO PUSH2 0xBA8 JUMPI DUP2 PUSH1 0x20 ADD PUSH1 0x20 DUP3 MUL DUP1 CODESIZE DUP4 CODECOPY DUP1 DUP3 ADD SWAP2 POP POP SWAP1 POP JUMPDEST POP SWAP5 POP PUSH1 0x0 DUP1 SWAP2 POP JUMPDEST DUP4 DUP3 LT ISZERO PUSH2 0xE36 JUMPI PUSH1 0x1 PUSH1 0x0 DUP12 DUP2 MSTORE PUSH1 0x20 ADD SWAP1 DUP2 MSTORE PUSH1 0x20 ADD PUSH1 0x0 KECCAK256 PUSH1 0x1 ADD PUSH1 0x0 DUP4 DUP2 MSTORE PUSH1 0x20 ADD SWAP1 DUP2 MSTORE PUSH1 0x20 ADD PUSH1 0x0 KECCAK256 SLOAD SWAP1 POP PUSH1 0x0 DUP1 PUSH1 0x0 DUP4 DUP2 MSTORE PUSH1 0x20 ADD SWAP1 DUP2 MSTORE PUSH1 0x20 ADD PUSH1 0x0 KECCAK256 SWAP1 POP PUSH1 0x0 PUSH1 0x7 DUP5 MUL SWAP1 POP DUP3 DUP12 DUP3 DUP2 MLOAD DUP2 LT PUSH2 0xC0E JUMPI INVALID JUMPDEST PUSH1 0x20 MUL PUSH1 0x20 ADD ADD SWAP1 PUSH1 0x3 SIGNEXTEND SWAP1 DUP2 PUSH1 0x3 SIGNEXTEND DUP2 MSTORE POP POP DUP2 PUSH1 0x0 ADD PUSH1 0x0 SWAP1 SLOAD SWAP1 PUSH2 0x100 EXP SWAP1 DIV PUSH1 0x3 SIGNEXTEND DUP12 PUSH1 0x1 DUP4 ADD DUP2 MLOAD DUP2 LT PUSH2 0xC43 JUMPI INVALID JUMPDEST PUSH1 0x20 MUL PUSH1 0x20 ADD ADD SWAP1 PUSH1 0x3 SIGNEXTEND SWAP1 DUP2 PUSH1 0x3 SIGNEXTEND DUP2 MSTORE POP POP DUP2 PUSH1 0x0 ADD PUSH1 0x4 SWAP1 SLOAD SWAP1 PUSH2 0x100 EXP SWAP1 DIV PUSH1 0x3 SIGNEXTEND DUP12 PUSH1 0x2 DUP4 ADD DUP2 MLOAD DUP2 LT PUSH2 0xC78 JUMPI INVALID JUMPDEST PUSH1 0x20 MUL PUSH1 0x20 ADD ADD SWAP1 PUSH1 0x3 SIGNEXTEND SWAP1 DUP2 PUSH1 0x3 SIGNEXTEND DUP2 MSTORE POP POP DUP2 PUSH1 0x3 ADD PUSH1 0x0 SWAP1 SLOAD SWAP1 PUSH2 0x100 EXP SWAP1 DIV PUSH1 0x3 SIGNEXTEND DUP12 PUSH1 0x3 DUP4 ADD DUP2 MLOAD DUP2 LT PUSH2 0xCAD JUMPI INVALID JUMPDEST PUSH1 0x20 MUL PUSH1 0x20 ADD ADD SWAP1 PUSH1 0x3 SIGNEXTEND SWAP1 DUP2 PUSH1 0x3 SIGNEXTEND DUP2 MSTORE POP POP DUP2 PUSH1 0x3 ADD PUSH1 0x4 SWAP1 SLOAD SWAP1 PUSH2 0x100 EXP SWAP1 DIV PUSH1 0x3 SIGNEXTEND DUP12 PUSH1 0x4 DUP4 ADD DUP2 MLOAD DUP2 LT PUSH2 0xCE2 JUMPI INVALID JUMPDEST PUSH1 0x20 MUL PUSH1 0x20 ADD ADD SWAP1 PUSH1 0x3 SIGNEXTEND SWAP1 DUP2 PUSH1 0x3 SIGNEXTEND DUP2 MSTORE POP POP DUP2 PUSH1 0x0 ADD PUSH1 0x8 SWAP1 SLOAD SWAP1 PUSH2 0x100 EXP SWAP1 DIV PUSH1 0xFF AND ISZERO PUSH2 0xD37 JUMPI PUSH1 0x1 DUP12 PUSH1 0x5 DUP4 ADD DUP2 MLOAD DUP2 LT PUSH2 0xD1E JUMPI INVALID JUMPDEST PUSH1 0x20 MUL PUSH1 0x20 ADD ADD SWAP1 PUSH1 0x3 SIGNEXTEND SWAP1 DUP2 PUSH1 0x3 SIGNEXTEND DUP2 MSTORE POP POP PUSH2 0xD5D JUMP JUMPDEST PUSH1 0x0 DUP12 PUSH1 0x5 DUP4 ADD DUP2 MLOAD DUP2 LT PUSH2 0xD48 JUMPI INVALID JUMPDEST PUSH1 0x20 MUL PUSH1 0x20 ADD ADD SWAP1 PUSH1 0x3 SIGNEXTEND SWAP1 DUP2 PUSH1 0x3 SIGNEXTEND DUP2 MSTORE POP POP JUMPDEST DUP2 PUSH1 0x0 ADD PUSH1 0x9 SWAP1 SLOAD SWAP1 PUSH2 0x100 EXP SWAP1 DIV PUSH1 0xFF AND ISZERO PUSH2 0xD9E JUMPI PUSH1 0x1 DUP12 PUSH1 0x6 DUP4 ADD DUP2 MLOAD DUP2 LT PUSH2 0xD85 JUMPI INVALID JUMPDEST PUSH1 0x20 MUL PUSH1 0x20 ADD ADD SWAP1 PUSH1 0x3 SIGNEXTEND SWAP1 DUP2 PUSH1 0x3 SIGNEXTEND DUP2 MSTORE POP POP PUSH2 0xDC4 JUMP JUMPDEST PUSH1 0x0 DUP12 PUSH1 0x6 DUP4 ADD DUP2 MLOAD DUP2 LT PUSH2 0xDAF JUMPI INVALID JUMPDEST PUSH1 0x20 MUL PUSH1 0x20 ADD ADD SWAP1 PUSH1 0x3 SIGNEXTEND SWAP1 DUP2 PUSH1 0x3 SIGNEXTEND DUP2 MSTORE POP POP JUMPDEST DUP2 PUSH1 0x5 ADD SLOAD PUSH1 0x1 DUP7 ADD ADD SWAP5 POP DUP2 PUSH1 0x2 ADD SLOAD DUP11 DUP6 DUP2 MLOAD DUP2 LT PUSH2 0xDE1 JUMPI INVALID JUMPDEST PUSH1 0x20 MUL PUSH1 0x20 ADD ADD DUP2 DUP2 MSTORE POP POP DUP2 PUSH1 0x1 ADD SLOAD DUP10 DUP6 DUP2 MLOAD DUP2 LT PUSH2 0xDFE JUMPI INVALID JUMPDEST PUSH1 0x20 MUL PUSH1 0x20 ADD ADD DUP2 DUP2 MSTORE POP POP DUP2 PUSH1 0x4 ADD SLOAD DUP9 DUP6 DUP2 MLOAD DUP2 LT PUSH2 0xE1B JUMPI INVALID JUMPDEST PUSH1 0x20 MUL PUSH1 0x20 ADD ADD DUP2 DUP2 MSTORE POP POP POP POP DUP2 DUP1 PUSH1 0x1 ADD SWAP3 POP POP PUSH2 0xBB1 JUMP JUMPDEST DUP3 PUSH1 0x40 MLOAD SWAP1 DUP1 DUP3 MSTORE DUP1 PUSH1 0x20 MUL PUSH1 0x20 ADD DUP3 ADD PUSH1 0x40 MSTORE DUP1 ISZERO PUSH2 0xE65 JUMPI DUP2 PUSH1 0x20 ADD PUSH1 0x20 DUP3 MUL DUP1 CODESIZE DUP4 CODECOPY DUP1 DUP3 ADD SWAP2 POP POP SWAP1 POP JUMPDEST POP SWAP5 POP PUSH1 0x0 DUP1 SWAP1 POP PUSH1 0x0 SWAP3 POP JUMPDEST DUP5 DUP4 LT ISZERO PUSH2 0xF42 JUMPI PUSH1 0x1 PUSH1 0x0 DUP13 DUP2 MSTORE PUSH1 0x20 ADD SWAP1 DUP2 MSTORE PUSH1 0x20 ADD PUSH1 0x0 KECCAK256 PUSH1 0x1 ADD PUSH1 0x0 DUP5 DUP2 MSTORE PUSH1 0x20 ADD SWAP1 DUP2 MSTORE PUSH1 0x20 ADD PUSH1 0x0 KECCAK256 SLOAD SWAP2 POP PUSH1 0x0 DUP1 PUSH1 0x0 DUP5 DUP2 MSTORE PUSH1 0x20 ADD SWAP1 DUP2 MSTORE PUSH1 0x20 ADD PUSH1 0x0 KECCAK256 SWAP1 POP DUP1 PUSH1 0x5 ADD SLOAD PUSH1 0x0 SHL DUP8 DUP4 DUP1 PUSH1 0x1 ADD SWAP5 POP DUP2 MLOAD DUP2 LT PUSH2 0xED4 JUMPI INVALID JUMPDEST PUSH1 0x20 MUL PUSH1 0x20 ADD ADD DUP2 DUP2 MSTORE POP POP PUSH1 0x0 DUP1 SWAP1 POP JUMPDEST DUP2 PUSH1 0x5 ADD SLOAD DUP2 LT ISZERO PUSH2 0xF33 JUMPI DUP2 PUSH1 0x6 ADD PUSH1 0x0 DUP3 DUP2 MSTORE PUSH1 0x20 ADD SWAP1 DUP2 MSTORE PUSH1 0x20 ADD PUSH1 0x0 KECCAK256 SLOAD DUP9 DUP5 DUP1 PUSH1 0x1 ADD SWAP6 POP DUP2 MLOAD DUP2 LT PUSH2 0xF1A JUMPI INVALID JUMPDEST PUSH1 0x20 MUL PUSH1 0x20 ADD ADD DUP2 DUP2 MSTORE POP POP DUP1 DUP1 PUSH1 0x1 ADD SWAP2 POP POP PUSH2 0xEE6 JUMP JUMPDEST POP POP DUP3 DUP1 PUSH1 0x1 ADD SWAP4 POP POP PUSH2 0xE72 JUMP JUMPDEST POP POP JUMPDEST POP POP POP SWAP2 SWAP4 SWAP6 SWAP1 SWAP3 SWAP5 POP JUMP JUMPDEST PUSH1 0x0 DUP1 PUSH1 0x1 SWAP1 POP PUSH1 0x0 DUP1 SWAP1 POP PUSH1 0x0 DUP1 SWAP1 POP JUMPDEST DUP5 MLOAD DUP2 LT ISZERO PUSH2 0x10DB JUMPI PUSH1 0x0 DUP6 DUP3 DUP2 MLOAD DUP2 LT PUSH2 0xF7A JUMPI INVALID JUMPDEST PUSH1 0x20 ADD ADD MLOAD PUSH1 0xF8 SHR PUSH1 0xF8 SHL SWAP1 POP PUSH1 0x0 DUP1 PUSH1 0x0 SWAP1 POP JUMPDEST PUSH1 0xC DUP1 SLOAD PUSH1 0x1 DUP2 PUSH1 0x1 AND ISZERO PUSH2 0x100 MUL SUB AND PUSH1 0x2 SWAP1 DIV SWAP1 POP DUP2 LT ISZERO PUSH2 0x1070 JUMPI DUP3 PUSH31 0xFFFFFFFFFFFFFFFFFFFFFFFFFFFFFFFFFFFFFFFFFFFFFFFFFFFFFFFFFFFFFF NOT AND PUSH1 0xC DUP3 DUP2 SLOAD PUSH1 0x1 DUP2 PUSH1 0x1 AND ISZERO PUSH2 0x100 MUL SUB AND PUSH1 0x2 SWAP1 DIV DUP2 LT PUSH2 0xFEE JUMPI INVALID JUMPDEST DUP2 SLOAD PUSH1 0x1 AND ISZERO PUSH2 0x100D JUMPI SWAP1 PUSH1 0x0 MSTORE PUSH1 0x20 PUSH1 0x0 KECCAK256 SWAP1 PUSH1 0x20 SWAP2 DUP3 DUP3 DIV ADD SWAP2 SWAP1 MOD JUMPDEST SWAP1 SLOAD SWAP1 BYTE PUSH32 0x100000000000000000000000000000000000000000000000000000000000000 MUL PUSH31 0xFFFFFFFFFFFFFFFFFFFFFFFFFFFFFFFFFFFFFFFFFFFFFFFFFFFFFFFFFFFFFF NOT AND EQ ISZERO PUSH2 0x1063 JUMPI DUP1 SWAP2 POP PUSH2 0x1070 JUMP JUMPDEST DUP1 DUP1 PUSH1 0x1 ADD SWAP2 POP POP PUSH2 0xF8F JUMP JUMPDEST POP PUSH1 0x0 DUP1 SWAP1 POP JUMPDEST PUSH1 0x5 DUP2 LT ISZERO PUSH2 0x10CB JUMPI PUSH1 0x0 PUSH1 0xB DUP3 DUP2 SLOAD DUP2 LT PUSH2 0x108F JUMPI INVALID JUMPDEST SWAP1 PUSH1 0x0 MSTORE PUSH1 0x20 PUSH1 0x0 KECCAK256 ADD SLOAD SWAP1 POP DUP7 PUSH2 0x10B9 JUMPI PUSH1 0x2 DUP7 MUL SWAP6 POP PUSH1 0x0 DUP2 DUP5 AND EQ PUSH2 0x10B8 JUMPI PUSH1 0x1 DUP7 ADD SWAP6 POP JUMPDEST JUMPDEST DUP7 ISZERO SWAP7 POP POP DUP1 DUP1 PUSH1 0x1 ADD SWAP2 POP POP PUSH2 0x1077 JUMP JUMPDEST POP POP POP DUP1 DUP1 PUSH1 0x1 ADD SWAP2 POP POP PUSH2 0xF63 JUMP JUMPDEST POP DUP1 SWAP3 POP POP POP SWAP2 SWAP1 POP JUMP JUMPDEST PUSH1 0x0 DUP2 DUP4 EQ ISZERO PUSH2 0x10F9 JUMPI PUSH1 0x0 SWAP1 POP PUSH2 0x1183 JUMP JUMPDEST PUSH1 0x60 DUP1 PUSH2 0x1106 DUP6 DUP6 PUSH2 0x2033 JUMP JUMPDEST DUP1 SWAP3 POP DUP2 SWAP4 POP POP POP PUSH1 0x0 PUSH2 0x1119 DUP4 PUSH2 0x1189 JUMP JUMPDEST SWAP1 POP PUSH1 0x0 PUSH2 0x1126 DUP4 PUSH2 0x1189 JUMP JUMPDEST SWAP1 POP PUSH1 0x0 PUSH2 0x1133 DUP6 PUSH2 0xF51 JUMP JUMPDEST SWAP1 POP PUSH1 0x0 PUSH2 0x1140 DUP6 PUSH2 0xF51 JUMP JUMPDEST SWAP1 POP PUSH1 0x0 DUP1 DUP6 DUP6 GT ISZERO PUSH2 0x1157 JUMPI DUP6 DUP6 SUB SWAP2 POP PUSH2 0x115D JUMP JUMPDEST DUP5 DUP7 SUB SWAP2 POP JUMPDEST DUP4 DUP4 GT ISZERO PUSH2 0x116F JUMPI DUP4 DUP4 SUB SWAP1 POP PUSH2 0x1175 JUMP JUMPDEST DUP3 DUP5 SUB SWAP1 POP JUMPDEST DUP1 DUP3 ADD SWAP9 POP POP POP POP POP POP POP POP POP JUMPDEST SWAP3 SWAP2 POP POP JUMP JUMPDEST PUSH1 0x0 DUP1 PUSH1 0x1 SWAP1 POP PUSH1 0x0 DUP1 SWAP1 POP PUSH1 0x0 DUP1 SWAP1 POP JUMPDEST DUP5 MLOAD DUP2 LT ISZERO PUSH2 0x1314 JUMPI PUSH1 0x0 DUP6 DUP3 DUP2 MLOAD DUP2 LT PUSH2 0x11B2 JUMPI INVALID JUMPDEST PUSH1 0x20 ADD ADD MLOAD PUSH1 0xF8 SHR PUSH1 0xF8 SHL SWAP1 POP PUSH1 0x0 DUP1 PUSH1 0x0 SWAP1 POP JUMPDEST PUSH1 0xC DUP1 SLOAD PUSH1 0x1 DUP2 PUSH1 0x1 AND ISZERO PUSH2 0x100 MUL SUB AND PUSH1 0x2 SWAP1 DIV SWAP1 POP DUP2 LT ISZERO PUSH2 0x12A8 JUMPI DUP3 PUSH31 0xFFFFFFFFFFFFFFFFFFFFFFFFFFFFFFFFFFFFFFFFFFFFFFFFFFFFFFFFFFFFFF NOT AND PUSH1 0xC DUP3 DUP2 SLOAD PUSH1 0x1 DUP2 PUSH1 0x1 AND ISZERO PUSH2 0x100 MUL SUB AND PUSH1 0x2 SWAP1 DIV DUP2 LT PUSH2 0x1226 JUMPI INVALID JUMPDEST DUP2 SLOAD PUSH1 0x1 AND ISZERO PUSH2 0x1245 JUMPI SWAP1 PUSH1 0x0 MSTORE PUSH1 0x20 PUSH1 0x0 KECCAK256 SWAP1 PUSH1 0x20 SWAP2 DUP3 DUP3 DIV ADD SWAP2 SWAP1 MOD JUMPDEST SWAP1 SLOAD SWAP1 BYTE PUSH32 0x100000000000000000000000000000000000000000000000000000000000000 MUL PUSH31 0xFFFFFFFFFFFFFFFFFFFFFFFFFFFFFFFFFFFFFFFFFFFFFFFFFFFFFFFFFFFFFF NOT AND EQ ISZERO PUSH2 0x129B JUMPI DUP1 SWAP2 POP PUSH2 0x12A8 JUMP JUMPDEST DUP1 DUP1 PUSH1 0x1 ADD SWAP2 POP POP PUSH2 0x11C7 JUMP JUMPDEST POP PUSH1 0x0 DUP1 SWAP1 POP JUMPDEST PUSH1 0x5 DUP2 LT ISZERO PUSH2 0x1304 JUMPI PUSH1 0x0 PUSH1 0xB DUP3 DUP2 SLOAD DUP2 LT PUSH2 0x12C7 JUMPI INVALID JUMPDEST SWAP1 PUSH1 0x0 MSTORE PUSH1 0x20 PUSH1 0x0 KECCAK256 ADD SLOAD SWAP1 POP DUP7 ISZERO PUSH2 0x12F2 JUMPI PUSH1 0x2 DUP7 MUL SWAP6 POP PUSH1 0x0 DUP2 DUP5 AND EQ PUSH2 0x12F1 JUMPI PUSH1 0x1 DUP7 ADD SWAP6 POP JUMPDEST JUMPDEST DUP7 ISZERO SWAP7 POP POP DUP1 DUP1 PUSH1 0x1 ADD SWAP2 POP POP PUSH2 0x12AF JUMP JUMPDEST POP POP POP DUP1 DUP1 PUSH1 0x1 ADD SWAP2 POP POP PUSH2 0x119B JUMP JUMPDEST POP DUP1 SWAP3 POP POP POP SWAP2 SWAP1 POP JUMP JUMPDEST DUP10 PUSH1 0x0 DUP1 DUP14 DUP2 MSTORE PUSH1 0x20 ADD SWAP1 DUP2 MSTORE PUSH1 0x20 ADD PUSH1 0x0 KECCAK256 PUSH1 0x0 ADD PUSH1 0x0 PUSH2 0x100 EXP DUP2 SLOAD DUP2 PUSH4 0xFFFFFFFF MUL NOT AND SWAP1 DUP4 PUSH1 0x3 SIGNEXTEND PUSH4 0xFFFFFFFF AND MUL OR SWAP1 SSTORE POP DUP9 PUSH1 0x0 DUP1 DUP14 DUP2 MSTORE PUSH1 0x20 ADD SWAP1 DUP2 MSTORE PUSH1 0x20 ADD PUSH1 0x0 KECCAK256 PUSH1 0x0 ADD PUSH1 0x4 PUSH2 0x100 EXP DUP2 SLOAD DUP2 PUSH4 0xFFFFFFFF MUL NOT AND SWAP1 DUP4 PUSH1 0x3 SIGNEXTEND PUSH4 0xFFFFFFFF AND MUL OR SWAP1 SSTORE POP DUP8 PUSH1 0x0 DUP1 DUP14 DUP2 MSTORE PUSH1 0x20 ADD SWAP1 DUP2 MSTORE PUSH1 0x20 ADD PUSH1 0x0 KECCAK256 PUSH1 0x3 ADD PUSH1 0x0 PUSH2 0x100 EXP DUP2 SLOAD DUP2 PUSH4 0xFFFFFFFF MUL NOT AND SWAP1 DUP4 PUSH1 0x3 SIGNEXTEND PUSH4 0xFFFFFFFF AND MUL OR SWAP1 SSTORE POP DUP7 PUSH1 0x0 DUP1 DUP14 DUP2 MSTORE PUSH1 0x20 ADD SWAP1 DUP2 MSTORE PUSH1 0x20 ADD PUSH1 0x0 KECCAK256 PUSH1 0x3 ADD PUSH1 0x4 PUSH2 0x100 EXP DUP2 SLOAD DUP2 PUSH4 0xFFFFFFFF MUL NOT AND SWAP1 DUP4 PUSH1 0x3 SIGNEXTEND PUSH4 0xFFFFFFFF AND MUL OR SWAP1 SSTORE POP DUP6 PUSH1 0x0 DUP1 DUP14 DUP2 MSTORE PUSH1 0x20 ADD SWAP1 DUP2 MSTORE PUSH1 0x20 ADD PUSH1 0x0 KECCAK256 PUSH1 0x0 ADD PUSH1 0x8 PUSH2 0x100 EXP DUP2 SLOAD DUP2 PUSH1 0xFF MUL NOT AND SWAP1 DUP4 ISZERO ISZERO MUL OR SWAP1 SSTORE POP DUP5 PUSH1 0x0 DUP1 DUP14 DUP2 MSTORE PUSH1 0x20 ADD SWAP1 DUP2 MSTORE PUSH1 0x20 ADD PUSH1 0x0 KECCAK256 PUSH1 0x0 ADD PUSH1 0x9 PUSH2 0x100 EXP DUP2 SLOAD DUP2 PUSH1 0xFF MUL NOT AND SWAP1 DUP4 ISZERO ISZERO MUL OR SWAP1 SSTORE POP DUP4 PUSH1 0x0 DUP1 DUP14 DUP2 MSTORE PUSH1 0x20 ADD SWAP1 DUP2 MSTORE PUSH1 0x20 ADD PUSH1 0x0 KECCAK256 PUSH1 0x1 ADD DUP2 SWAP1 SSTORE POP DUP3 PUSH1 0x0 DUP1 DUP14 DUP2 MSTORE PUSH1 0x20 ADD SWAP1 DUP2 MSTORE PUSH1 0x20 ADD PUSH1 0x0 KECCAK256 PUSH1 0x2 ADD DUP2 SWAP1 SSTORE POP DUP2 PUSH1 0x0 DUP1 DUP14 DUP2 MSTORE PUSH1 0x20 ADD SWAP1 DUP2 MSTORE PUSH1 0x20 ADD PUSH1 0x0 KECCAK256 PUSH1 0x4 ADD DUP2 SWAP1 SSTORE POP DUP1 PUSH1 0x0 DUP2 MLOAD DUP2 LT PUSH2 0x14B0 JUMPI INVALID JUMPDEST PUSH1 0x20 MUL PUSH1 0x20 ADD ADD MLOAD PUSH1 0x2 PUSH1 0x0 DUP4 PUSH1 0x0 DUP2 MLOAD DUP2 LT PUSH2 0x14C9 JUMPI INVALID JUMPDEST PUSH1 0x20 MUL PUSH1 0x20 ADD ADD MLOAD DUP2 MSTORE PUSH1 0x20 ADD SWAP1 DUP2 MSTORE PUSH1 0x20 ADD PUSH1 0x0 KECCAK256 PUSH1 0x1 ADD PUSH1 0x0 PUSH1 0x2 PUSH1 0x0 DUP6 PUSH1 0x0 DUP2 MLOAD DUP2 LT PUSH2 0x14F5 JUMPI INVALID JUMPDEST PUSH1 0x20 MUL PUSH1 0x20 ADD ADD MLOAD DUP2 MSTORE PUSH1 0x20 ADD SWAP1 DUP2 MSTORE PUSH1 0x20 ADD PUSH1 0x0 KECCAK256 PUSH1 0x0 ADD SLOAD DUP2 MSTORE PUSH1 0x20 ADD SWAP1 DUP2 MSTORE PUSH1 0x20 ADD PUSH1 0x0 KECCAK256 PUSH1 0x0 ADD DUP2 SWAP1 SSTORE POP DUP1 PUSH1 0x1 DUP3 MLOAD SUB DUP2 MLOAD DUP2 LT PUSH2 0x1534 JUMPI INVALID JUMPDEST PUSH1 0x20 MUL PUSH1 0x20 ADD ADD MLOAD PUSH1 0x2 PUSH1 0x0 DUP4 PUSH1 0x0 DUP2 MLOAD DUP2 LT PUSH2 0x154D JUMPI INVALID JUMPDEST PUSH1 0x20 MUL PUSH1 0x20 ADD ADD MLOAD DUP2 MSTORE PUSH1 0x20 ADD SWAP1 DUP2 MSTORE PUSH1 0x20 ADD PUSH1 0x0 KECCAK256 PUSH1 0x1 ADD PUSH1 0x0 PUSH1 0x2 PUSH1 0x0 DUP6 PUSH1 0x0 DUP2 MLOAD DUP2 LT PUSH2 0x1579 JUMPI INVALID JUMPDEST PUSH1 0x20 MUL PUSH1 0x20 ADD ADD MLOAD DUP2 MSTORE PUSH1 0x20 ADD SWAP1 DUP2 MSTORE PUSH1 0x20 ADD PUSH1 0x0 KECCAK256 PUSH1 0x0 ADD SLOAD DUP2 MSTORE PUSH1 0x20 ADD SWAP1 DUP2 MSTORE PUSH1 0x20 ADD PUSH1 0x0 KECCAK256 PUSH1 0x1 ADD DUP2 SWAP1 SSTORE POP DUP7 PUSH1 0x2 PUSH1 0x0 DUP4 PUSH1 0x0 DUP2 MLOAD DUP2 LT PUSH2 0x15BA JUMPI INVALID JUMPDEST PUSH1 0x20 MUL PUSH1 0x20 ADD ADD MLOAD DUP2 MSTORE PUSH1 0x20 ADD SWAP1 DUP2 MSTORE PUSH1 0x20 ADD PUSH1 0x0 KECCAK256 PUSH1 0x1 ADD PUSH1 0x0 PUSH1 0x2 PUSH1 0x0 DUP6 PUSH1 0x0 DUP2 MLOAD DUP2 LT PUSH2 0x15E6 JUMPI INVALID JUMPDEST PUSH1 0x20 MUL PUSH1 0x20 ADD ADD MLOAD DUP2 MSTORE PUSH1 0x20 ADD SWAP1 DUP2 MSTORE PUSH1 0x20 ADD PUSH1 0x0 KECCAK256 PUSH1 0x0 ADD SLOAD DUP2 MSTORE PUSH1 0x20 ADD SWAP1 DUP2 MSTORE PUSH1 0x20 ADD PUSH1 0x0 KECCAK256 PUSH1 0x2 ADD PUSH1 0x0 PUSH2 0x100 EXP DUP2 SLOAD DUP2 PUSH4 0xFFFFFFFF MUL NOT AND SWAP1 DUP4 PUSH1 0x3 SIGNEXTEND PUSH4 0xFFFFFFFF AND MUL OR SWAP1 SSTORE POP DUP9 PUSH1 0x2 PUSH1 0x0 DUP4 PUSH1 0x0 DUP2 MLOAD DUP2 LT PUSH2 0x1644 JUMPI INVALID JUMPDEST PUSH1 0x20 MUL PUSH1 0x20 ADD ADD MLOAD DUP2 MSTORE PUSH1 0x20 ADD SWAP1 DUP2 MSTORE PUSH1 0x20 ADD PUSH1 0x0 KECCAK256 PUSH1 0x1 ADD PUSH1 0x0 PUSH1 0x2 PUSH1 0x0 DUP6 PUSH1 0x0 DUP2 MLOAD DUP2 LT PUSH2 0x1670 JUMPI INVALID JUMPDEST PUSH1 0x20 MUL PUSH1 0x20 ADD ADD MLOAD DUP2 MSTORE PUSH1 0x20 ADD SWAP1 DUP2 MSTORE PUSH1 0x20 ADD PUSH1 0x0 KECCAK256 PUSH1 0x0 ADD SLOAD DUP2 MSTORE PUSH1 0x20 ADD SWAP1 DUP2 MSTORE PUSH1 0x20 ADD PUSH1 0x0 KECCAK256 PUSH1 0x2 ADD PUSH1 0x4 PUSH2 0x100 EXP DUP2 SLOAD DUP2 PUSH4 0xFFFFFFFF MUL NOT AND SWAP1 DUP4 PUSH1 0x3 SIGNEXTEND PUSH4 0xFFFFFFFF AND MUL OR SWAP1 SSTORE POP DUP11 PUSH1 0x2 PUSH1 0x0 DUP4 PUSH1 0x0 DUP2 MLOAD DUP2 LT PUSH2 0x16CE JUMPI INVALID JUMPDEST PUSH1 0x20 MUL PUSH1 0x20 ADD ADD MLOAD DUP2 MSTORE PUSH1 0x20 ADD SWAP1 DUP2 MSTORE PUSH1 0x20 ADD PUSH1 0x0 KECCAK256 PUSH1 0x1 ADD PUSH1 0x0 PUSH1 0x2 PUSH1 0x0 DUP6 PUSH1 0x0 DUP2 MLOAD DUP2 LT PUSH2 0x16FA JUMPI INVALID JUMPDEST PUSH1 0x20 MUL PUSH1 0x20 ADD ADD MLOAD DUP2 MSTORE PUSH1 0x20 ADD SWAP1 DUP2 MSTORE PUSH1 0x20 ADD PUSH1 0x0 KECCAK256 PUSH1 0x0 ADD PUSH1 0x0 DUP2 SLOAD DUP1 SWAP3 SWAP2 SWAP1 PUSH1 0x1 ADD SWAP2 SWAP1 POP SSTORE DUP2 MSTORE PUSH1 0x20 ADD SWAP1 DUP2 MSTORE PUSH1 0x20 ADD PUSH1 0x0 KECCAK256 PUSH1 0x2 ADD PUSH1 0x8 PUSH2 0x100 EXP DUP2 SLOAD DUP2 PUSH4 0xFFFFFFFF MUL NOT AND SWAP1 DUP4 PUSH1 0x3 SIGNEXTEND PUSH4 0xFFFFFFFF AND MUL OR SWAP1 SSTORE POP PUSH1 0x0 DUP1 PUSH1 0x0 DUP14 DUP2 MSTORE PUSH1 0x20 ADD SWAP1 DUP2 MSTORE PUSH1 0x20 ADD PUSH1 0x0 KECCAK256 PUSH1 0x5 ADD SLOAD SWAP1 POP PUSH1 0x0 DUP1 SWAP1 POP JUMPDEST DUP3 MLOAD DUP2 LT ISZERO PUSH2 0x17CE JUMPI DUP3 DUP2 DUP2 MLOAD DUP2 LT PUSH2 0x1789 JUMPI INVALID JUMPDEST PUSH1 0x20 MUL PUSH1 0x20 ADD ADD MLOAD PUSH1 0x0 DUP1 DUP16 DUP2 MSTORE PUSH1 0x20 ADD SWAP1 DUP2 MSTORE PUSH1 0x20 ADD PUSH1 0x0 KECCAK256 PUSH1 0x6 ADD PUSH1 0x0 DUP5 DUP1 PUSH1 0x1 ADD SWAP6 POP DUP2 MSTORE PUSH1 0x20 ADD SWAP1 DUP2 MSTORE PUSH1 0x20 ADD PUSH1 0x0 KECCAK256 DUP2 SWAP1 SSTORE POP DUP1 DUP1 PUSH1 0x1 ADD SWAP2 POP POP PUSH2 0x1774 JUMP JUMPDEST POP DUP1 PUSH1 0x0 DUP1 DUP15 DUP2 MSTORE PUSH1 0x20 ADD SWAP1 DUP2 MSTORE PUSH1 0x20 ADD PUSH1 0x0 KECCAK256 PUSH1 0x5 ADD DUP2 SWAP1 SSTORE POP POP POP POP POP POP POP POP POP POP POP POP POP JUMP JUMPDEST PUSH1 0x1 PUSH1 0xD PUSH1 0x0 ADD DUP1 SLOAD SWAP1 POP GT PUSH2 0x180C JUMPI PUSH1 0x0 DUP1 REVERT JUMPDEST PUSH1 0x1 PUSH1 0xD PUSH1 0x0 ADD DUP1 SLOAD SWAP1 POP GT PUSH2 0x1821 JUMPI PUSH1 0x0 DUP1 REVERT JUMPDEST PUSH1 0x0 PUSH2 0x182B PUSH2 0x2225 JUMP JUMPDEST SWAP1 POP PUSH1 0xD PUSH1 0x0 ADD PUSH1 0x1 PUSH1 0xD PUSH1 0x0 ADD DUP1 SLOAD SWAP1 POP SUB DUP2 SLOAD DUP2 LT PUSH2 0x1848 JUMPI INVALID JUMPDEST SWAP1 PUSH1 0x0 MSTORE PUSH1 0x20 PUSH1 0x0 KECCAK256 ADD SLOAD PUSH1 0xD PUSH1 0x0 ADD PUSH1 0x1 DUP2 SLOAD DUP2 LT PUSH2 0x1864 JUMPI INVALID JUMPDEST SWAP1 PUSH1 0x0 MSTORE PUSH1 0x20 PUSH1 0x0 KECCAK256 ADD DUP2 SWAP1 SSTORE POP PUSH1 0xD PUSH1 0x0 ADD DUP1 SLOAD DUP1 PUSH2 0x1880 JUMPI INVALID JUMPDEST PUSH1 0x1 SWAP1 SUB DUP2 DUP2 SWAP1 PUSH1 0x0 MSTORE PUSH1 0x20 PUSH1 0x0 KECCAK256 ADD PUSH1 0x0 SWAP1 SSTORE SWAP1 SSTORE PUSH1 0x0 PUSH1 0x1 SWAP1 POP JUMPDEST PUSH1 0xD PUSH1 0x0 ADD DUP1 SLOAD SWAP1 POP PUSH1 0x2 DUP3 MUL LT ISZERO PUSH2 0x1A31 JUMPI PUSH1 0x0 PUSH1 0x2 DUP3 MUL SWAP1 POP PUSH1 0xD PUSH1 0x0 ADD DUP1 SLOAD SWAP1 POP PUSH1 0x1 DUP3 ADD LT ISZERO PUSH2 0x1940 JUMPI PUSH1 0xD PUSH1 0x1 ADD PUSH1 0x0 PUSH1 0xD PUSH1 0x0 ADD PUSH1 0x1 DUP5 ADD DUP2 SLOAD DUP2 LT PUSH2 0x18E5 JUMPI INVALID JUMPDEST SWAP1 PUSH1 0x0 MSTORE PUSH1 0x20 PUSH1 0x0 KECCAK256 ADD SLOAD DUP2 MSTORE PUSH1 0x20 ADD SWAP1 DUP2 MSTORE PUSH1 0x20 ADD PUSH1 0x0 KECCAK256 SLOAD PUSH1 0xD PUSH1 0x1 ADD PUSH1 0x0 PUSH1 0xD PUSH1 0x0 ADD DUP5 DUP2 SLOAD DUP2 LT PUSH2 0x1916 JUMPI INVALID JUMPDEST SWAP1 PUSH1 0x0 MSTORE PUSH1 0x20 PUSH1 0x0 KECCAK256 ADD SLOAD DUP2 MSTORE PUSH1 0x20 ADD SWAP1 DUP2 MSTORE PUSH1 0x20 ADD PUSH1 0x0 KECCAK256 SLOAD GT ISZERO PUSH2 0x193F JUMPI DUP1 DUP1 PUSH1 0x1 ADD SWAP2 POP POP JUMPDEST JUMPDEST PUSH1 0xD PUSH1 0x1 ADD PUSH1 0x0 PUSH1 0xD PUSH1 0x0 ADD DUP4 DUP2 SLOAD DUP2 LT PUSH2 0x1957 JUMPI INVALID JUMPDEST SWAP1 PUSH1 0x0 MSTORE PUSH1 0x20 PUSH1 0x0 KECCAK256 ADD SLOAD DUP2 MSTORE PUSH1 0x20 ADD SWAP1 DUP2 MSTORE PUSH1 0x20 ADD PUSH1 0x0 KECCAK256 SLOAD PUSH1 0xD PUSH1 0x1 ADD PUSH1 0x0 PUSH1 0xD PUSH1 0x0 ADD DUP6 DUP2 SLOAD DUP2 LT PUSH2 0x1988 JUMPI INVALID JUMPDEST SWAP1 PUSH1 0x0 MSTORE PUSH1 0x20 PUSH1 0x0 KECCAK256 ADD SLOAD DUP2 MSTORE PUSH1 0x20 ADD SWAP1 DUP2 MSTORE PUSH1 0x20 ADD PUSH1 0x0 KECCAK256 SLOAD LT ISZERO PUSH2 0x19AE JUMPI POP PUSH2 0x1A31 JUMP JUMPDEST PUSH1 0xD PUSH1 0x0 ADD DUP2 DUP2 SLOAD DUP2 LT PUSH2 0x19BE JUMPI INVALID JUMPDEST SWAP1 PUSH1 0x0 MSTORE PUSH1 0x20 PUSH1 0x0 KECCAK256 ADD SLOAD PUSH1 0xD PUSH1 0x0 ADD DUP4 DUP2 SLOAD DUP2 LT PUSH2 0x19D9 JUMPI INVALID JUMPDEST SWAP1 PUSH1 0x0 MSTORE PUSH1 0x20 PUSH1 0x0 KECCAK256 ADD SLOAD PUSH1 0xD PUSH1 0x0 ADD DUP5 DUP2 SLOAD DUP2 LT PUSH2 0x19F4 JUMPI INVALID JUMPDEST SWAP1 PUSH1 0x0 MSTORE PUSH1 0x20 PUSH1 0x0 KECCAK256 ADD PUSH1 0x0 PUSH1 0xD PUSH1 0x0 ADD DUP6 DUP2 SLOAD DUP2 LT PUSH2 0x1A10 JUMPI INVALID JUMPDEST SWAP1 PUSH1 0x0 MSTORE PUSH1 0x20 PUSH1 0x0 KECCAK256 ADD PUSH1 0x0 DUP5 SWAP2 SWAP1 POP SSTORE DUP4 SWAP2 SWAP1 POP SSTORE POP POP DUP1 SWAP2 POP POP PUSH2 0x189D JUMP JUMPDEST PUSH1 0xD PUSH1 0x1 ADD PUSH1 0x0 DUP4 DUP2 MSTORE PUSH1 0x20 ADD SWAP1 DUP2 MSTORE PUSH1 0x20 ADD PUSH1 0x0 KECCAK256 PUSH1 0x0 SWAP1 SSTORE POP POP JUMP JUMPDEST PUSH1 0x2 PUSH1 0x20 MSTORE DUP1 PUSH1 0x0 MSTORE PUSH1 0x40 PUSH1 0x0 KECCAK256 PUSH1 0x0 SWAP2 POP SWAP1 POP DUP1 PUSH1 0x0 ADD SLOAD SWAP1 POP DUP2 JUMP JUMPDEST PUSH1 0x1 PUSH1 0x20 MSTORE DUP1 PUSH1 0x0 MSTORE PUSH1 0x40 PUSH1 0x0 KECCAK256 PUSH1 0x0 SWAP2 POP SWAP1 POP DUP1 PUSH1 0x0 ADD SLOAD SWAP1 POP DUP2 JUMP JUMPDEST PUSH1 0x0 DUP2 PUSH1 0x3 DUP2 SWAP1 SSTORE POP PUSH1 0x3 SLOAD SWAP1 POP SWAP2 SWAP1 POP JUMP JUMPDEST PUSH1 0x60 PUSH1 0x0 PUSH2 0x1AAD DUP5 PUSH1 0x0 PUSH2 0x905 JUMP JUMPDEST PUSH1 0x0 PUSH1 0x7 PUSH1 0x2 ADD PUSH1 0x0 DUP7 DUP2 MSTORE PUSH1 0x20 ADD SWAP1 DUP2 MSTORE PUSH1 0x20 ADD PUSH1 0x0 KECCAK256 DUP2 SWAP1 SSTORE POP DUP4 PUSH1 0x7 PUSH1 0x1 ADD PUSH1 0x0 PUSH1 0x7 PUSH1 0x0 ADD SLOAD DUP2 MSTORE PUSH1 0x20 ADD SWAP1 DUP2 MSTORE PUSH1 0x20 ADD PUSH1 0x0 KECCAK256 DUP2 SWAP1 SSTORE POP PUSH1 0x7 PUSH1 0x0 ADD PUSH1 0x0 DUP2 SLOAD DUP1 SWAP3 SWAP2 SWAP1 PUSH1 0x1 ADD SWAP2 SWAP1 POP SSTORE POP PUSH1 0x0 DUP1 JUMPDEST PUSH1 0x1 PUSH1 0xD PUSH1 0x0 ADD DUP1 SLOAD SWAP1 POP GT ISZERO PUSH2 0x1FBD JUMPI PUSH2 0x1B1B PUSH2 0x2225 JUMP JUMPDEST SWAP2 POP PUSH2 0x1B25 PUSH2 0x17F7 JUMP JUMPDEST PUSH1 0x0 PUSH1 0x2 PUSH1 0x0 DUP5 DUP2 MSTORE PUSH1 0x20 ADD SWAP1 DUP2 MSTORE PUSH1 0x20 ADD PUSH1 0x0 KECCAK256 SWAP1 POP DUP6 DUP4 EQ ISZERO PUSH2 0x1D11 JUMPI PUSH1 0x7 PUSH1 0x2 ADD PUSH1 0x0 DUP5 DUP2 MSTORE PUSH1 0x20 ADD SWAP1 DUP2 MSTORE PUSH1 0x20 ADD PUSH1 0x0 KECCAK256 SLOAD SWAP4 POP PUSH1 0x0 DUP7 SWAP1 POP PUSH1 0x4 PUSH1 0x0 ADD SLOAD PUSH1 0x40 MLOAD SWAP1 DUP1 DUP3 MSTORE DUP1 PUSH1 0x20 MUL PUSH1 0x20 ADD DUP3 ADD PUSH1 0x40 MSTORE DUP1 ISZERO PUSH2 0x1B96 JUMPI DUP2 PUSH1 0x20 ADD PUSH1 0x20 DUP3 MUL DUP1 CODESIZE DUP4 CODECOPY DUP1 DUP3 ADD SWAP2 POP POP SWAP1 POP JUMPDEST POP SWAP6 POP PUSH1 0x0 DUP1 SWAP1 POP JUMPDEST DUP9 DUP3 EQ PUSH2 0x1BE5 JUMPI DUP2 DUP8 DUP3 DUP2 MLOAD DUP2 LT PUSH2 0x1BB3 JUMPI INVALID JUMPDEST PUSH1 0x20 MUL PUSH1 0x20 ADD ADD DUP2 DUP2 MSTORE POP POP PUSH1 0x4 PUSH1 0x2 ADD PUSH1 0x0 DUP4 DUP2 MSTORE PUSH1 0x20 ADD SWAP1 DUP2 MSTORE PUSH1 0x20 ADD PUSH1 0x0 KECCAK256 SLOAD SWAP2 POP DUP1 DUP1 PUSH1 0x1 ADD SWAP2 POP POP PUSH2 0x1B9F JUMP JUMPDEST DUP9 DUP8 DUP3 DUP2 MLOAD DUP2 LT PUSH2 0x1BF2 JUMPI INVALID JUMPDEST PUSH1 0x20 MUL PUSH1 0x20 ADD ADD DUP2 DUP2 MSTORE POP POP PUSH1 0x0 DUP1 SWAP1 POP JUMPDEST PUSH1 0x4 PUSH1 0x0 ADD SLOAD DUP2 LT ISZERO PUSH2 0x1C68 JUMPI PUSH1 0x4 PUSH1 0x2 ADD PUSH1 0x0 PUSH1 0x4 PUSH1 0x1 ADD PUSH1 0x0 DUP5 DUP2 MSTORE PUSH1 0x20 ADD SWAP1 DUP2 MSTORE PUSH1 0x20 ADD PUSH1 0x0 KECCAK256 SLOAD DUP2 MSTORE PUSH1 0x20 ADD SWAP1 DUP2 MSTORE PUSH1 0x20 ADD PUSH1 0x0 KECCAK256 PUSH1 0x0 SWAP1 SSTORE PUSH1 0x4 PUSH1 0x1 ADD PUSH1 0x0 DUP3 DUP2 MSTORE PUSH1 0x20 ADD SWAP1 DUP2 MSTORE PUSH1 0x20 ADD PUSH1 0x0 KECCAK256 PUSH1 0x0 SWAP1 SSTORE DUP1 DUP1 PUSH1 0x1 ADD SWAP2 POP POP PUSH2 0x1C04 JUMP JUMPDEST POP PUSH1 0x0 PUSH1 0x4 PUSH1 0x0 ADD DUP2 SWAP1 SSTORE POP PUSH1 0x0 DUP1 SWAP1 POP JUMPDEST PUSH1 0x7 PUSH1 0x0 ADD SLOAD DUP2 LT ISZERO PUSH2 0x1CDE JUMPI PUSH1 0x7 PUSH1 0x2 ADD PUSH1 0x0 PUSH1 0x7 PUSH1 0x1 ADD PUSH1 0x0 DUP5 DUP2 MSTORE PUSH1 0x20 ADD SWAP1 DUP2 MSTORE PUSH1 0x20 ADD PUSH1 0x0 KECCAK256 SLOAD DUP2 MSTORE PUSH1 0x20 ADD SWAP1 DUP2 MSTORE PUSH1 0x20 ADD PUSH1 0x0 KECCAK256 PUSH1 0x0 SWAP1 SSTORE PUSH1 0x7 PUSH1 0x1 ADD PUSH1 0x0 DUP3 DUP2 MSTORE PUSH1 0x20 ADD SWAP1 DUP2 MSTORE PUSH1 0x20 ADD PUSH1 0x0 KECCAK256 PUSH1 0x0 SWAP1 SSTORE DUP1 DUP1 PUSH1 0x1 ADD SWAP2 POP POP PUSH2 0x1C7A JUMP JUMPDEST POP PUSH1 0x0 PUSH1 0x7 PUSH1 0x0 ADD DUP2 SWAP1 SSTORE POP JUMPDEST PUSH1 0x1 PUSH1 0xD PUSH1 0x0 ADD DUP1 SLOAD SWAP1 POP GT ISZERO PUSH2 0x1D09 JUMPI PUSH2 0x1D04 PUSH2 0x17F7 JUMP JUMPDEST PUSH2 0x1CEB JUMP JUMPDEST POP POP POP PUSH2 0x1FBD JUMP JUMPDEST PUSH1 0x0 DUP1 SWAP1 POP JUMPDEST DUP2 PUSH1 0x0 ADD SLOAD DUP2 LT ISZERO PUSH2 0x1FB6 JUMPI PUSH1 0x0 PUSH1 0x2 PUSH1 0x0 DUP7 DUP2 MSTORE PUSH1 0x20 ADD SWAP1 DUP2 MSTORE PUSH1 0x20 ADD PUSH1 0x0 KECCAK256 PUSH1 0x1 ADD PUSH1 0x0 DUP4 DUP2 MSTORE PUSH1 0x20 ADD SWAP1 DUP2 MSTORE PUSH1 0x20 ADD PUSH1 0x0 KECCAK256 PUSH1 0x2 ADD PUSH1 0x4 SWAP1 SLOAD SWAP1 PUSH2 0x100 EXP SWAP1 DIV PUSH1 0x3 SIGNEXTEND PUSH1 0x3 SIGNEXTEND PUSH1 0x7 PUSH1 0x2 ADD PUSH1 0x0 DUP8 DUP2 MSTORE PUSH1 0x20 ADD SWAP1 DUP2 MSTORE PUSH1 0x20 ADD PUSH1 0x0 KECCAK256 SLOAD ADD SWAP1 POP PUSH1 0x0 PUSH1 0x7 PUSH1 0x2 ADD PUSH1 0x0 DUP6 PUSH1 0x1 ADD PUSH1 0x0 DUP7 DUP2 MSTORE PUSH1 0x20 ADD SWAP1 DUP2 MSTORE PUSH1 0x20 ADD PUSH1 0x0 KECCAK256 PUSH1 0x1 ADD SLOAD DUP2 MSTORE PUSH1 0x20 ADD SWAP1 DUP2 MSTORE PUSH1 0x20 ADD PUSH1 0x0 KECCAK256 SLOAD EQ DUP1 PUSH2 0x1DE4 JUMPI POP PUSH1 0x7 PUSH1 0x2 ADD PUSH1 0x0 DUP5 PUSH1 0x1 ADD PUSH1 0x0 DUP6 DUP2 MSTORE PUSH1 0x20 ADD SWAP1 DUP2 MSTORE PUSH1 0x20 ADD PUSH1 0x0 KECCAK256 PUSH1 0x1 ADD SLOAD DUP2 MSTORE PUSH1 0x20 ADD SWAP1 DUP2 MSTORE PUSH1 0x20 ADD PUSH1 0x0 KECCAK256 SLOAD DUP2 LT JUMPDEST ISZERO PUSH2 0x1FA8 JUMPI PUSH1 0x0 PUSH1 0x7 PUSH1 0x2 ADD PUSH1 0x0 DUP6 PUSH1 0x1 ADD PUSH1 0x0 DUP7 DUP2 MSTORE PUSH1 0x20 ADD SWAP1 DUP2 MSTORE PUSH1 0x20 ADD PUSH1 0x0 KECCAK256 PUSH1 0x1 ADD SLOAD DUP2 MSTORE PUSH1 0x20 ADD SWAP1 DUP2 MSTORE PUSH1 0x20 ADD PUSH1 0x0 KECCAK256 SLOAD EQ ISZERO PUSH2 0x1E6E JUMPI DUP3 PUSH1 0x1 ADD PUSH1 0x0 DUP4 DUP2 MSTORE PUSH1 0x20 ADD SWAP1 DUP2 MSTORE PUSH1 0x20 ADD PUSH1 0x0 KECCAK256 PUSH1 0x1 ADD SLOAD PUSH1 0x7 PUSH1 0x1 ADD PUSH1 0x0 PUSH1 0x7 PUSH1 0x0 ADD SLOAD DUP2 MSTORE PUSH1 0x20 ADD SWAP1 DUP2 MSTORE PUSH1 0x20 ADD PUSH1 0x0 KECCAK256 DUP2 SWAP1 SSTORE POP PUSH1 0x7 PUSH1 0x0 ADD PUSH1 0x0 DUP2 SLOAD DUP1 SWAP3 SWAP2 SWAP1 PUSH1 0x1 ADD SWAP2 SWAP1 POP SSTORE POP JUMPDEST DUP1 PUSH1 0x7 PUSH1 0x2 ADD PUSH1 0x0 DUP6 PUSH1 0x1 ADD PUSH1 0x0 DUP7 DUP2 MSTORE PUSH1 0x20 ADD SWAP1 DUP2 MSTORE PUSH1 0x20 ADD PUSH1 0x0 KECCAK256 PUSH1 0x1 ADD SLOAD DUP2 MSTORE PUSH1 0x20 ADD SWAP1 DUP2 MSTORE PUSH1 0x20 ADD PUSH1 0x0 KECCAK256 DUP2 SWAP1 SSTORE POP PUSH2 0x1EC3 DUP4 PUSH1 0x1 ADD PUSH1 0x0 DUP5 DUP2 MSTORE PUSH1 0x20 ADD SWAP1 DUP2 MSTORE PUSH1 0x20 ADD PUSH1 0x0 KECCAK256 PUSH1 0x1 ADD SLOAD DUP10 PUSH2 0x10E6 JUMP JUMPDEST PUSH1 0x3 SLOAD DUP3 MUL ADD SWAP4 POP PUSH2 0x1EED DUP4 PUSH1 0x1 ADD PUSH1 0x0 DUP5 DUP2 MSTORE PUSH1 0x20 ADD SWAP1 DUP2 MSTORE PUSH1 0x20 ADD PUSH1 0x0 KECCAK256 PUSH1 0x1 ADD SLOAD DUP6 PUSH2 0x905 JUMP JUMPDEST PUSH1 0x0 DUP1 SHL PUSH1 0x4 PUSH1 0x2 ADD PUSH1 0x0 DUP6 PUSH1 0x1 ADD PUSH1 0x0 DUP7 DUP2 MSTORE PUSH1 0x20 ADD SWAP1 DUP2 MSTORE PUSH1 0x20 ADD PUSH1 0x0 KECCAK256 PUSH1 0x1 ADD SLOAD DUP2 MSTORE PUSH1 0x20 ADD SWAP1 DUP2 MSTORE PUSH1 0x20 ADD PUSH1 0x0 KECCAK256 SLOAD EQ ISZERO PUSH2 0x1F74 JUMPI DUP3 PUSH1 0x1 ADD PUSH1 0x0 DUP4 DUP2 MSTORE PUSH1 0x20 ADD SWAP1 DUP2 MSTORE PUSH1 0x20 ADD PUSH1 0x0 KECCAK256 PUSH1 0x1 ADD SLOAD PUSH1 0x4 PUSH1 0x1 ADD PUSH1 0x0 PUSH1 0x4 PUSH1 0x0 ADD SLOAD DUP2 MSTORE PUSH1 0x20 ADD SWAP1 DUP2 MSTORE PUSH1 0x20 ADD PUSH1 0x0 KECCAK256 DUP2 SWAP1 SSTORE POP PUSH1 0x4 PUSH1 0x0 ADD PUSH1 0x0 DUP2 SLOAD DUP1 SWAP3 SWAP2 SWAP1 PUSH1 0x1 ADD SWAP2 SWAP1 POP SSTORE POP JUMPDEST DUP5 PUSH1 0x4 PUSH1 0x2 ADD PUSH1 0x0 DUP6 PUSH1 0x1 ADD PUSH1 0x0 DUP7 DUP2 MSTORE PUSH1 0x20 ADD SWAP1 DUP2 MSTORE PUSH1 0x20 ADD PUSH1 0x0 KECCAK256 PUSH1 0x1 ADD SLOAD DUP2 MSTORE PUSH1 0x20 ADD SWAP1 DUP2 MSTORE PUSH1 0x20 ADD PUSH1 0x0 KECCAK256 DUP2 SWAP1 SSTORE POP JUMPDEST POP DUP1 DUP1 PUSH1 0x1 ADD SWAP2 POP POP PUSH2 0x1D17 JUMP JUMPDEST POP POP PUSH2 0x1B02 JUMP JUMPDEST POP POP SWAP3 POP SWAP3 SWAP1 POP JUMP JUMPDEST PUSH1 0x0 DUP2 PUSH1 0xA DUP2 SWAP1 SSTORE POP PUSH1 0xA SLOAD SWAP1 POP SWAP2 SWAP1 POP JUMP JUMPDEST PUSH1 0x0 PUSH1 0x1 PUSH1 0x0 DUP5 DUP2 MSTORE PUSH1 0x20 ADD SWAP1 DUP2 MSTORE PUSH1 0x20 ADD PUSH1 0x0 KECCAK256 PUSH1 0x0 ADD PUSH1 0x0 DUP2 SLOAD DUP1 SWAP3 SWAP2 SWAP1 PUSH1 0x1 ADD SWAP2 SWAP1 POP SSTORE SWAP1 POP DUP2 PUSH1 0x1 PUSH1 0x0 DUP6 DUP2 MSTORE PUSH1 0x20 ADD SWAP1 DUP2 MSTORE PUSH1 0x20 ADD PUSH1 0x0 KECCAK256 PUSH1 0x1 ADD PUSH1 0x0 DUP4 DUP2 MSTORE PUSH1 0x20 ADD SWAP1 DUP2 MSTORE PUSH1 0x20 ADD PUSH1 0x0 KECCAK256 DUP2 SWAP1 SSTORE POP POP POP POP JUMP JUMPDEST PUSH1 0x60 DUP1 PUSH1 0x0 DUP5 SWAP1 POP PUSH1 0x0 DUP5 SWAP1 POP PUSH1 0x0 PUSH1 0x20 PUSH1 0xFF AND SWAP1 POP PUSH1 0x0 DUP1 PUSH1 0x0 SWAP1 POP PUSH1 0x0 SWAP2 POP JUMPDEST DUP3 DUP3 LT ISZERO PUSH2 0x20D8 JUMPI DUP4 DUP3 PUSH1 0x20 DUP2 LT PUSH2 0x2069 JUMPI INVALID JUMPDEST BYTE PUSH1 0xF8 SHL PUSH31 0xFFFFFFFFFFFFFFFFFFFFFFFFFFFFFFFFFFFFFFFFFFFFFFFFFFFFFFFFFFFFFF NOT AND DUP6 DUP4 PUSH1 0x20 DUP2 LT PUSH2 0x209B JUMPI INVALID JUMPDEST BYTE PUSH1 0xF8 SHL PUSH31 0xFFFFFFFFFFFFFFFFFFFFFFFFFFFFFFFFFFFFFFFFFFFFFFFFFFFFFFFFFFFFFF NOT AND EQ PUSH2 0x20CB JUMPI PUSH2 0x20D8 JUMP JUMPDEST DUP2 DUP1 PUSH1 0x1 ADD SWAP3 POP POP PUSH2 0x2055 JUMP JUMPDEST DUP2 PUSH1 0xA SLOAD SUB SWAP1 POP PUSH1 0x0 DUP1 SWAP1 POP PUSH1 0x60 DUP3 PUSH1 0x40 MLOAD SWAP1 DUP1 DUP3 MSTORE DUP1 PUSH1 0x1F ADD PUSH1 0x1F NOT AND PUSH1 0x20 ADD DUP3 ADD PUSH1 0x40 MSTORE DUP1 ISZERO PUSH2 0x2119 JUMPI DUP2 PUSH1 0x20 ADD PUSH1 0x1 DUP3 MUL DUP1 CODESIZE DUP4 CODECOPY DUP1 DUP3 ADD SWAP2 POP POP SWAP1 POP JUMPDEST POP SWAP1 POP PUSH1 0x60 DUP4 PUSH1 0x40 MLOAD SWAP1 DUP1 DUP3 MSTORE DUP1 PUSH1 0x1F ADD PUSH1 0x1F NOT AND PUSH1 0x20 ADD DUP3 ADD PUSH1 0x40 MSTORE DUP1 ISZERO PUSH2 0x2151 JUMPI DUP2 PUSH1 0x20 ADD PUSH1 0x1 DUP3 MUL DUP1 CODESIZE DUP4 CODECOPY DUP1 DUP3 ADD SWAP2 POP POP SWAP1 POP JUMPDEST POP SWAP1 POP PUSH1 0x0 DUP6 SWAP1 POP JUMPDEST PUSH1 0xA SLOAD DUP2 LT ISZERO PUSH2 0x220F JUMPI DUP9 DUP2 PUSH1 0x20 DUP2 LT PUSH2 0x2170 JUMPI INVALID JUMPDEST BYTE PUSH1 0xF8 SHL DUP4 DUP6 DUP2 MLOAD DUP2 LT PUSH2 0x2180 JUMPI INVALID JUMPDEST PUSH1 0x20 ADD ADD SWAP1 PUSH31 0xFFFFFFFFFFFFFFFFFFFFFFFFFFFFFFFFFFFFFFFFFFFFFFFFFFFFFFFFFFFFFF NOT AND SWAP1 DUP2 PUSH1 0x0 BYTE SWAP1 MSTORE8 POP DUP8 DUP2 PUSH1 0x20 DUP2 LT PUSH2 0x21BB JUMPI INVALID JUMPDEST BYTE PUSH1 0xF8 SHL DUP3 DUP6 DUP2 MLOAD DUP2 LT PUSH2 0x21CB JUMPI INVALID JUMPDEST PUSH1 0x20 ADD ADD SWAP1 PUSH31 0xFFFFFFFFFFFFFFFFFFFFFFFFFFFFFFFFFFFFFFFFFFFFFFFFFFFFFFFFFFFFFF NOT AND SWAP1 DUP2 PUSH1 0x0 BYTE SWAP1 MSTORE8 POP DUP4 DUP1 PUSH1 0x1 ADD SWAP5 POP POP DUP1 DUP1 PUSH1 0x1 ADD SWAP2 POP POP PUSH2 0x215A JUMP JUMPDEST POP DUP2 DUP2 SWAP10 POP SWAP10 POP POP POP POP POP POP POP POP POP SWAP3 POP SWAP3 SWAP1 POP JUMP JUMPDEST PUSH1 0x0 PUSH1 0x1 PUSH1 0xD PUSH1 0x0 ADD DUP1 SLOAD SWAP1 POP GT PUSH2 0x223C JUMPI PUSH1 0x0 DUP1 REVERT JUMPDEST PUSH1 0xD PUSH1 0x0 ADD PUSH1 0x1 DUP2 SLOAD DUP2 LT PUSH2 0x224D JUMPI INVALID JUMPDEST SWAP1 PUSH1 0x0 MSTORE PUSH1 0x20 PUSH1 0x0 KECCAK256 ADD SLOAD SWAP1 POP SWAP1 JUMP INVALID LOG2 PUSH6 0x627A7A723158 KECCAK256 0x21 0x2B 0xD5 DUP9 0xDF SMOD PUSH31 0x96181E57DA836AF8261B32FA49EB4E92CDEF53377EC7F2E3D464736F6C6343 STOP SDIV GT STOP ORIGIN "
		},
		"gasEstimates": {
			"creation": {
				"codeDepositCost": "1770000",
				"executionCost": "infinite",
				"totalCost": "infinite"
			},
			"external": {
				"add_area_line(bytes32,uint256)": "41406",
				"add_onetype(uint256,int32,int32,int32,int32,bool,bool,bytes32,bytes32,bytes32,bytes32[])": "infinite",
				"adjacencyList(bytes32)": "1200",
				"astar(bytes32,bytes32)": "infinite",
				"changeP(uint256)": "21181",
				"changePrecision(uint256)": "21136",
				"dequeue()": "infinite",
				"enqueue(bytes32,uint256)": "infinite",
				"geo_maps(bytes32)": "1222",
				"getLatBlock(string)": "infinite",
				"getLonBlock(string)": "infinite",
				"get_types(bytes32)": "infinite",
				"manhattan(bytes32,bytes32)": "infinite",
				"sliceGeoHash(bytes32,bytes32)": "infinite",
				"top()": "2824"
			}
		},
		"methodIdentifiers": {
			"add_area_line(bytes32,uint256)": "f90e5ca9",
			"add_onetype(uint256,int32,int32,int32,int32,bool,bool,bytes32,bytes32,bytes32,bytes32[])": "7f6d50c9",
			"adjacencyList(bytes32)": "bc6331da",
			"astar(bytes32,bytes32)": "d1cf2408",
			"changeP(uint256)": "cd3d7196",
			"changePrecision(uint256)": "d35a1d0d",
			"dequeue()": "957908d1",
			"enqueue(bytes32,uint256)": "13372041",
			"geo_maps(bytes32)": "cbf3b01e",
			"getLatBlock(string)": "68ba6df9",
			"getLonBlock(string)": "44cf2cd7",
			"get_types(bytes32)": "3fb80582",
			"manhattan(bytes32,bytes32)": "53f065fd",
			"sliceGeoHash(bytes32,bytes32)": "fdcd80aa",
			"top()": "fe6dcdba"
		}
	},
	"abi": [
		{
			"constant": false,
			"inputs": [
				{
					"internalType": "bytes32",
					"name": "hash",
					"type": "bytes32"
				},
				{
					"internalType": "uint256",
					"name": "gid",
					"type": "uint256"
				}
			],
			"name": "add_area_line",
			"outputs": [],
			"payable": false,
			"stateMutability": "nonpayable",
			"type": "function"
		},
		{
			"constant": false,
			"inputs": [
				{
					"internalType": "uint256",
					"name": "gid",
					"type": "uint256"
				},
				{
					"internalType": "int32",
					"name": "minzoom",
					"type": "int32"
				},
				{
					"internalType": "int32",
					"name": "cost",
					"type": "int32"
				},
				{
					"internalType": "int32",
					"name": "source",
					"type": "int32"
				},
				{
					"internalType": "int32",
					"name": "target",
					"type": "int32"
				},
				{
					"internalType": "bool",
					"name": "oneway",
					"type": "bool"
				},
				{
					"internalType": "bool",
					"name": "building",
					"type": "bool"
				},
				{
					"internalType": "bytes32",
					"name": "highway",
					"type": "bytes32"
				},
				{
					"internalType": "bytes32",
					"name": "name",
					"type": "bytes32"
				},
				{
					"internalType": "bytes32",
					"name": "gtype",
					"type": "bytes32"
				},
				{
					"internalType": "bytes32[]",
					"name": "path",
					"type": "bytes32[]"
				}
			],
			"name": "add_onetype",
			"outputs": [],
			"payable": false,
			"stateMutability": "nonpayable",
			"type": "function"
		},
		{
			"constant": true,
			"inputs": [
				{
					"internalType": "bytes32",
					"name": "",
					"type": "bytes32"
				}
			],
			"name": "adjacencyList",
			"outputs": [
				{
					"internalType": "uint256",
					"name": "adjnum",
					"type": "uint256"
				}
			],
			"payable": false,
			"stateMutability": "view",
			"type": "function"
		},
		{
			"constant": false,
			"inputs": [
				{
					"internalType": "bytes32",
					"name": "startGeohash",
					"type": "bytes32"
				},
				{
					"internalType": "bytes32",
					"name": "endGeohash",
					"type": "bytes32"
				}
			],
			"name": "astar",
			"outputs": [
				{
					"internalType": "bytes32[]",
					"name": "backwards",
					"type": "bytes32[]"
				},
				{
					"internalType": "uint256",
					"name": "costAll",
					"type": "uint256"
				}
			],
			"payable": false,
			"stateMutability": "nonpayable",
			"type": "function"
		},
		{
			"constant": false,
			"inputs": [
				{
					"internalType": "uint256",
					"name": "newP",
					"type": "uint256"
				}
			],
			"name": "changeP",
			"outputs": [
				{
					"internalType": "uint256",
					"name": "",
					"type": "uint256"
				}
			],
			"payable": false,
			"stateMutability": "nonpayable",
			"type": "function"
		},
		{
			"constant": false,
			"inputs": [
				{
					"internalType": "uint256",
					"name": "newPrecision",
					"type": "uint256"
				}
			],
			"name": "changePrecision",
			"outputs": [
				{
					"internalType": "uint256",
					"name": "",
					"type": "uint256"
				}
			],
			"payable": false,
			"stateMutability": "nonpayable",
			"type": "function"
		},
		{
			"constant": false,
			"inputs": [],
			"name": "dequeue",
			"outputs": [],
			"payable": false,
			"stateMutability": "nonpayable",
			"type": "function"
		},
		{
			"constant": false,
			"inputs": [
				{
					"internalType": "bytes32",
					"name": "geohash",
					"type": "bytes32"
				},
				{
					"internalType": "uint256",
					"name": "cost",
					"type": "uint256"
				}
			],
			"name": "enqueue",
			"outputs": [],
			"payable": false,
			"stateMutability": "nonpayable",
			"type": "function"
		},
		{
			"constant": true,
			"inputs": [
				{
					"internalType": "bytes32",
					"name": "",
					"type": "bytes32"
				}
			],
			"name": "geo_maps",
			"outputs": [
				{
					"internalType": "uint256",
					"name": "num",
					"type": "uint256"
				}
			],
			"payable": false,
			"stateMutability": "view",
			"type": "function"
		},
		{
			"constant": true,
			"inputs": [
				{
					"internalType": "string",
					"name": "geohash",
					"type": "string"
				}
			],
			"name": "getLatBlock",
			"outputs": [
				{
					"internalType": "uint256",
					"name": "",
					"type": "uint256"
				}
			],
			"payable": false,
			"stateMutability": "view",
			"type": "function"
		},
		{
			"constant": true,
			"inputs": [
				{
					"internalType": "string",
					"name": "geohash",
					"type": "string"
				}
			],
			"name": "getLonBlock",
			"outputs": [
				{
					"internalType": "uint256",
					"name": "",
					"type": "uint256"
				}
			],
			"payable": false,
			"stateMutability": "view",
			"type": "function"
		},
		{
			"constant": true,
			"inputs": [
				{
					"internalType": "bytes32",
					"name": "hash",
					"type": "bytes32"
				}
			],
			"name": "get_types",
			"outputs": [
				{
					"internalType": "int32[]",
					"name": "feature",
					"type": "int32[]"
				},
				{
					"internalType": "bytes32[]",
					"name": "names",
					"type": "bytes32[]"
				},
				{
					"internalType": "bytes32[]",
					"name": "highways",
					"type": "bytes32[]"
				},
				{
					"internalType": "bytes32[]",
					"name": "gtypes",
					"type": "bytes32[]"
				},
				{
					"internalType": "bytes32[]",
					"name": "path",
					"type": "bytes32[]"
				}
			],
			"payable": false,
			"stateMutability": "view",
			"type": "function"
		},
		{
			"constant": true,
			"inputs": [
				{
					"internalType": "bytes32",
					"name": "nextGeohash",
					"type": "bytes32"
				},
				{
					"internalType": "bytes32",
					"name": "endGeohash",
					"type": "bytes32"
				}
			],
			"name": "manhattan",
			"outputs": [
				{
					"internalType": "uint256",
					"name": "",
					"type": "uint256"
				}
			],
			"payable": false,
			"stateMutability": "view",
			"type": "function"
		},
		{
			"constant": true,
			"inputs": [
				{
					"internalType": "bytes32",
					"name": "geohash1",
					"type": "bytes32"
				},
				{
					"internalType": "bytes32",
					"name": "geohash2",
					"type": "bytes32"
				}
			],
			"name": "sliceGeoHash",
			"outputs": [
				{
					"internalType": "string",
					"name": "",
					"type": "string"
				},
				{
					"internalType": "string",
					"name": "",
					"type": "string"
				}
			],
			"payable": false,
			"stateMutability": "view",
			"type": "function"
		},
		{
			"constant": true,
			"inputs": [],
			"name": "top",
			"outputs": [
				{
					"internalType": "bytes32",
					"name": "",
					"type": "bytes32"
				}
			],
			"payable": false,
			"stateMutability": "view",
			"type": "function"
		}
	]
}