{
	"data": {
		"bytecode": {
			"linkReferences": {},
			"object": "608060405234801561001057600080fd5b506102be806100206000396000f3fe608060405234801561001057600080fd5b506004361061004c5760003560e01c80633bdf7af8146100515780637e6e10d414610093578063c353cdcd146100d5578063da9e960314610117575b600080fd5b6100916004803603606081101561006757600080fd5b81019080803590602001909291908035906020019092919080359060200190929190505050610159565b005b6100d3600480360360608110156100a957600080fd5b810190808035906020019092919080359060200190929190803590602001909291905050506101a5565b005b610115600480360360608110156100eb57600080fd5b810190808035906020019092919080359060200190929190803590602001909291905050506101f1565b005b6101576004803603606081101561012d57600080fd5b8101908080359060200190929190803590602001909291908035906020019092919050505061023d565b005b7f7ff19003090ee3bc28e69085e705555c5433fe1802803e77d6e9ce23d8ea7b4483838360405180848152602001838152602001828152602001935050505060405180910390a1505050565b7fe097b7b4919c2d6f8219a28333b868b8afa303cdf544e208bb57b76e6a0551e783838360405180848152602001838152602001828152602001935050505060405180910390a1505050565b7f50a7c8a4ab6f9e5e36c832eefd0fd7d70e3c489ce82414072faceb1fd622bea783838360405180848152602001838152602001828152602001935050505060405180910390a1505050565b7f3f51e97c4ca639bb39da4b8ababb25e1a841a3cbd4c49511f1ecff88253eaac583838360405180848152602001838152602001828152602001935050505060405180910390a150505056fea265627a7a7231582050b93c7090ae6c0f334a21b9dfb8d51c7a32aa03e66d97e7a1d5745a9153f2df64736f6c63430005110032",
			"opcodes": "PUSH1 0x80 PUSH1 0x40 MSTORE CALLVALUE DUP1 ISZERO PUSH2 0x10 JUMPI PUSH1 0x0 DUP1 REVERT JUMPDEST POP PUSH2 0x2BE DUP1 PUSH2 0x20 PUSH1 0x0 CODECOPY PUSH1 0x0 RETURN INVALID PUSH1 0x80 PUSH1 0x40 MSTORE CALLVALUE DUP1 ISZERO PUSH2 0x10 JUMPI PUSH1 0x0 DUP1 REVERT JUMPDEST POP PUSH1 0x4 CALLDATASIZE LT PUSH2 0x4C JUMPI PUSH1 0x0 CALLDATALOAD PUSH1 0xE0 SHR DUP1 PUSH4 0x3BDF7AF8 EQ PUSH2 0x51 JUMPI DUP1 PUSH4 0x7E6E10D4 EQ PUSH2 0x93 JUMPI DUP1 PUSH4 0xC353CDCD EQ PUSH2 0xD5 JUMPI DUP1 PUSH4 0xDA9E9603 EQ PUSH2 0x117 JUMPI JUMPDEST PUSH1 0x0 DUP1 REVERT JUMPDEST PUSH2 0x91 PUSH1 0x4 DUP1 CALLDATASIZE SUB PUSH1 0x60 DUP2 LT ISZERO PUSH2 0x67 JUMPI PUSH1 0x0 DUP1 REVERT JUMPDEST DUP2 ADD SWAP1 DUP1 DUP1 CALLDATALOAD SWAP1 PUSH1 0x20 ADD SWAP1 SWAP3 SWAP2 SWAP1 DUP1 CALLDATALOAD SWAP1 PUSH1 0x20 ADD SWAP1 SWAP3 SWAP2 SWAP1 DUP1 CALLDATALOAD SWAP1 PUSH1 0x20 ADD SWAP1 SWAP3 SWAP2 SWAP1 POP POP POP PUSH2 0x159 JUMP JUMPDEST STOP JUMPDEST PUSH2 0xD3 PUSH1 0x4 DUP1 CALLDATASIZE SUB PUSH1 0x60 DUP2 LT ISZERO PUSH2 0xA9 JUMPI PUSH1 0x0 DUP1 REVERT JUMPDEST DUP2 ADD SWAP1 DUP1 DUP1 CALLDATALOAD SWAP1 PUSH1 0x20 ADD SWAP1 SWAP3 SWAP2 SWAP1 DUP1 CALLDATALOAD SWAP1 PUSH1 0x20 ADD SWAP1 SWAP3 SWAP2 SWAP1 DUP1 CALLDATALOAD SWAP1 PUSH1 0x20 ADD SWAP1 SWAP3 SWAP2 SWAP1 POP POP POP PUSH2 0x1A5 JUMP JUMPDEST STOP JUMPDEST PUSH2 0x115 PUSH1 0x4 DUP1 CALLDATASIZE SUB PUSH1 0x60 DUP2 LT ISZERO PUSH2 0xEB JUMPI PUSH1 0x0 DUP1 REVERT JUMPDEST DUP2 ADD SWAP1 DUP1 DUP1 CALLDATALOAD SWAP1 PUSH1 0x20 ADD SWAP1 SWAP3 SWAP2 SWAP1 DUP1 CALLDATALOAD SWAP1 PUSH1 0x20 ADD SWAP1 SWAP3 SWAP2 SWAP1 DUP1 CALLDATALOAD SWAP1 PUSH1 0x20 ADD SWAP1 SWAP3 SWAP2 SWAP1 POP POP POP PUSH2 0x1F1 JUMP JUMPDEST STOP JUMPDEST PUSH2 0x157 PUSH1 0x4 DUP1 CALLDATASIZE SUB PUSH1 0x60 DUP2 LT ISZERO PUSH2 0x12D JUMPI PUSH1 0x0 DUP1 REVERT JUMPDEST DUP2 ADD SWAP1 DUP1 DUP1 CALLDATALOAD SWAP1 PUSH1 0x20 ADD SWAP1 SWAP3 SWAP2 SWAP1 DUP1 CALLDATALOAD SWAP1 PUSH1 0x20 ADD SWAP1 SWAP3 SWAP2 SWAP1 DUP1 CALLDATALOAD SWAP1 PUSH1 0x20 ADD SWAP1 SWAP3 SWAP2 SWAP1 POP POP POP PUSH2 0x23D JUMP JUMPDEST STOP JUMPDEST PUSH32 0x7FF19003090EE3BC28E69085E705555C5433FE1802803E77D6E9CE23D8EA7B44 DUP4 DUP4 DUP4 PUSH1 0x40 MLOAD DUP1 DUP5 DUP2 MSTORE PUSH1 0x20 ADD DUP4 DUP2 MSTORE PUSH1 0x20 ADD DUP3 DUP2 MSTORE PUSH1 0x20 ADD SWAP4 POP POP POP POP PUSH1 0x40 MLOAD DUP1 SWAP2 SUB SWAP1 LOG1 POP POP POP JUMP JUMPDEST PUSH32 0xE097B7B4919C2D6F8219A28333B868B8AFA303CDF544E208BB57B76E6A0551E7 DUP4 DUP4 DUP4 PUSH1 0x40 MLOAD DUP1 DUP5 DUP2 MSTORE PUSH1 0x20 ADD DUP4 DUP2 MSTORE PUSH1 0x20 ADD DUP3 DUP2 MSTORE PUSH1 0x20 ADD SWAP4 POP POP POP POP PUSH1 0x40 MLOAD DUP1 SWAP2 SUB SWAP1 LOG1 POP POP POP JUMP JUMPDEST PUSH32 0x50A7C8A4AB6F9E5E36C832EEFD0FD7D70E3C489CE82414072FACEB1FD622BEA7 DUP4 DUP4 DUP4 PUSH1 0x40 MLOAD DUP1 DUP5 DUP2 MSTORE PUSH1 0x20 ADD DUP4 DUP2 MSTORE PUSH1 0x20 ADD DUP3 DUP2 MSTORE PUSH1 0x20 ADD SWAP4 POP POP POP POP PUSH1 0x40 MLOAD DUP1 SWAP2 SUB SWAP1 LOG1 POP POP POP JUMP JUMPDEST PUSH32 0x3F51E97C4CA639BB39DA4B8ABABB25E1A841A3CBD4C49511F1ECFF88253EAAC5 DUP4 DUP4 DUP4 PUSH1 0x40 MLOAD DUP1 DUP5 DUP2 MSTORE PUSH1 0x20 ADD DUP4 DUP2 MSTORE PUSH1 0x20 ADD DUP3 DUP2 MSTORE PUSH1 0x20 ADD SWAP4 POP POP POP POP PUSH1 0x40 MLOAD DUP1 SWAP2 SUB SWAP1 LOG1 POP POP POP JUMP INVALID LOG2 PUSH6 0x627A7A723158 KECCAK256 POP 0xB9 EXTCODECOPY PUSH17 0x90AE6C0F334A21B9DFB8D51C7A32AA03E6 PUSH14 0x97E7A1D5745A9153F2DF64736F6C PUSH4 0x43000511 STOP ORIGIN "
		},
		"gasEstimates": {
			"creation": {
				"codeDepositCost": "140400",
				"executionCost": "183",
				"totalCost": "140583"
			},
			"external": {
				"IN_transf1(bytes32,bytes32,bytes32)": "1933",
				"IN_transf3(bytes32,bytes32,bytes32)": "1911",
				"OUT_transf2(bytes32,bytes32,bytes32)": "1955",
				"OUT_transf4(bytes32,bytes32,bytes32)": "1889"
			}
		},
		"methodIdentifiers": {
			"IN_transf1(bytes32,bytes32,bytes32)": "c353cdcd",
			"IN_transf3(bytes32,bytes32,bytes32)": "7e6e10d4",
			"OUT_transf2(bytes32,bytes32,bytes32)": "da9e9603",
			"OUT_transf4(bytes32,bytes32,bytes32)": "3bdf7af8"
		}
	},
	"abi": [
		{
			"anonymous": false,
			"inputs": [
				{
					"indexed": false,
					"internalType": "bytes32",
					"name": "vehicleId",
					"type": "bytes32"
				},
				{
					"indexed": false,
					"internalType": "bytes32",
					"name": "passengerId",
					"type": "bytes32"
				},
				{
					"indexed": false,
					"internalType": "bytes32",
					"name": "last_hash",
					"type": "bytes32"
				}
			],
			"name": "IN_Event1",
			"type": "event"
		},
		{
			"anonymous": false,
			"inputs": [
				{
					"indexed": false,
					"internalType": "bytes32",
					"name": "vehicleId",
					"type": "bytes32"
				},
				{
					"indexed": false,
					"internalType": "bytes32",
					"name": "passengerId",
					"type": "bytes32"
				},
				{
					"indexed": false,
					"internalType": "bytes32",
					"name": "last_hash",
					"type": "bytes32"
				}
			],
			"name": "IN_Event3",
			"type": "event"
		},
		{
			"anonymous": false,
			"inputs": [
				{
					"indexed": false,
					"internalType": "bytes32",
					"name": "vehicleId",
					"type": "bytes32"
				},
				{
					"indexed": false,
					"internalType": "bytes32",
					"name": "passengerId",
					"type": "bytes32"
				},
				{
					"indexed": false,
					"internalType": "bytes32",
					"name": "last_hash",
					"type": "bytes32"
				}
			],
			"name": "OUT_Event2",
			"type": "event"
		},
		{
			"anonymous": false,
			"inputs": [
				{
					"indexed": false,
					"internalType": "bytes32",
					"name": "vehicleId",
					"type": "bytes32"
				},
				{
					"indexed": false,
					"internalType": "bytes32",
					"name": "passengerId",
					"type": "bytes32"
				},
				{
					"indexed": false,
					"internalType": "bytes32",
					"name": "last_hash",
					"type": "bytes32"
				}
			],
			"name": "OUT_Event4",
			"type": "event"
		},
		{
			"constant": false,
			"inputs": [
				{
					"internalType": "bytes32",
					"name": "vehicleId",
					"type": "bytes32"
				},
				{
					"internalType": "bytes32",
					"name": "passengerId",
					"type": "bytes32"
				},
				{
					"internalType": "bytes32",
					"name": "last_hash",
					"type": "bytes32"
				}
			],
			"name": "IN_transf1",
			"outputs": [],
			"payable": false,
			"stateMutability": "nonpayable",
			"type": "function"
		},
		{
			"constant": false,
			"inputs": [
				{
					"internalType": "bytes32",
					"name": "vehicleId",
					"type": "bytes32"
				},
				{
					"internalType": "bytes32",
					"name": "passengerId",
					"type": "bytes32"
				},
				{
					"internalType": "bytes32",
					"name": "last_hash",
					"type": "bytes32"
				}
			],
			"name": "IN_transf3",
			"outputs": [],
			"payable": false,
			"stateMutability": "nonpayable",
			"type": "function"
		},
		{
			"constant": false,
			"inputs": [
				{
					"internalType": "bytes32",
					"name": "vehicleId",
					"type": "bytes32"
				},
				{
					"internalType": "bytes32",
					"name": "passengerId",
					"type": "bytes32"
				},
				{
					"internalType": "bytes32",
					"name": "last_hash",
					"type": "bytes32"
				}
			],
			"name": "OUT_transf2",
			"outputs": [],
			"payable": false,
			"stateMutability": "nonpayable",
			"type": "function"
		},
		{
			"constant": false,
			"inputs": [
				{
					"internalType": "bytes32",
					"name": "vehicleId",
					"type": "bytes32"
				},
				{
					"internalType": "bytes32",
					"name": "passengerId",
					"type": "bytes32"
				},
				{
					"internalType": "bytes32",
					"name": "last_hash",
					"type": "bytes32"
				}
			],
			"name": "OUT_transf4",
			"outputs": [],
			"payable": false,
			"stateMutability": "nonpayable",
			"type": "function"
		}
	]
}