{
	"data": {
		"bytecode": {
			"linkReferences": {},
			"object": "608060405234801561001057600080fd5b50610166806100206000396000f3fe608060405234801561001057600080fd5b506004361061004c5760003560e01c8063323c7e65146100515780639bfc014d1461005b578063be810a2c14610065578063ee59a1621461006f575b600080fd5b610059610079565b005b6100636100a7565b005b61006d6100d5565b005b610077610103565b005b7fabf09937405bb28f62f5cbe74d7ed5037ba3fa26acadbe34ab6fffd726bd485760405160405180910390a1565b7f4dad1c18440612bdec07828bba491689001bad285e3b2767306faf7fcbba350c60405160405180910390a1565b7f9a502cdf292a3a60aaeeec4bbf3f14d94b443a5964c6f4f8b2301e0957ea047560405160405180910390a1565b7f86916d0c2524c8fbb6f9d099d86e3f7044712f80d3aa7a1551e2906110d4bd4860405160405180910390a156fea265627a7a7231582056c4b0fa5f2be7a9c1452c9cbcb9ff75a7b7e08ff29b85bef93cc2a9503173c764736f6c63430005110032",
			"opcodes": "PUSH1 0x80 PUSH1 0x40 MSTORE CALLVALUE DUP1 ISZERO PUSH2 0x10 JUMPI PUSH1 0x0 DUP1 REVERT JUMPDEST POP PUSH2 0x166 DUP1 PUSH2 0x20 PUSH1 0x0 CODECOPY PUSH1 0x0 RETURN INVALID PUSH1 0x80 PUSH1 0x40 MSTORE CALLVALUE DUP1 ISZERO PUSH2 0x10 JUMPI PUSH1 0x0 DUP1 REVERT JUMPDEST POP PUSH1 0x4 CALLDATASIZE LT PUSH2 0x4C JUMPI PUSH1 0x0 CALLDATALOAD PUSH1 0xE0 SHR DUP1 PUSH4 0x323C7E65 EQ PUSH2 0x51 JUMPI DUP1 PUSH4 0x9BFC014D EQ PUSH2 0x5B JUMPI DUP1 PUSH4 0xBE810A2C EQ PUSH2 0x65 JUMPI DUP1 PUSH4 0xEE59A162 EQ PUSH2 0x6F JUMPI JUMPDEST PUSH1 0x0 DUP1 REVERT JUMPDEST PUSH2 0x59 PUSH2 0x79 JUMP JUMPDEST STOP JUMPDEST PUSH2 0x63 PUSH2 0xA7 JUMP JUMPDEST STOP JUMPDEST PUSH2 0x6D PUSH2 0xD5 JUMP JUMPDEST STOP JUMPDEST PUSH2 0x77 PUSH2 0x103 JUMP JUMPDEST STOP JUMPDEST PUSH32 0xABF09937405BB28F62F5CBE74D7ED5037BA3FA26ACADBE34AB6FFFD726BD4857 PUSH1 0x40 MLOAD PUSH1 0x40 MLOAD DUP1 SWAP2 SUB SWAP1 LOG1 JUMP JUMPDEST PUSH32 0x4DAD1C18440612BDEC07828BBA491689001BAD285E3B2767306FAF7FCBBA350C PUSH1 0x40 MLOAD PUSH1 0x40 MLOAD DUP1 SWAP2 SUB SWAP1 LOG1 JUMP JUMPDEST PUSH32 0x9A502CDF292A3A60AAEEEC4BBF3F14D94B443A5964C6F4F8B2301E0957EA0475 PUSH1 0x40 MLOAD PUSH1 0x40 MLOAD DUP1 SWAP2 SUB SWAP1 LOG1 JUMP JUMPDEST PUSH32 0x86916D0C2524C8FBB6F9D099D86E3F7044712F80D3AA7A1551E2906110D4BD48 PUSH1 0x40 MLOAD PUSH1 0x40 MLOAD DUP1 SWAP2 SUB SWAP1 LOG1 JUMP INVALID LOG2 PUSH6 0x627A7A723158 KECCAK256 JUMP 0xC4 0xB0 STATICCALL 0x5F 0x2B 0xE7 0xA9 0xC1 GASLIMIT 0x2C SWAP13 0xBC 0xB9 SELFDESTRUCT PUSH22 0xA7B7E08FF29B85BEF93CC2A9503173C764736F6C6343 STOP SDIV GT STOP ORIGIN "
		},
		"gasEstimates": {
			"creation": {
				"codeDepositCost": "71600",
				"executionCost": "123",
				"totalCost": "71723"
			},
			"external": {
				"IN_transf1()": "899",
				"IN_transf3()": "921",
				"OUT_transf2()": "943",
				"OUT_transf4()": "965"
			}
		},
		"methodIdentifiers": {
			"IN_transf1()": "323c7e65",
			"IN_transf3()": "9bfc014d",
			"OUT_transf2()": "be810a2c",
			"OUT_transf4()": "ee59a162"
		}
	},
	"abi": [
		{
			"anonymous": false,
			"inputs": [],
			"name": "IN_Event1",
			"type": "event"
		},
		{
			"anonymous": false,
			"inputs": [],
			"name": "IN_Event3",
			"type": "event"
		},
		{
			"anonymous": false,
			"inputs": [],
			"name": "OUT_Event2",
			"type": "event"
		},
		{
			"anonymous": false,
			"inputs": [],
			"name": "OUT_Event4",
			"type": "event"
		},
		{
			"constant": false,
			"inputs": [],
			"name": "IN_transf1",
			"outputs": [],
			"payable": false,
			"stateMutability": "nonpayable",
			"type": "function"
		},
		{
			"constant": false,
			"inputs": [],
			"name": "IN_transf3",
			"outputs": [],
			"payable": false,
			"stateMutability": "nonpayable",
			"type": "function"
		},
		{
			"constant": false,
			"inputs": [],
			"name": "OUT_transf2",
			"outputs": [],
			"payable": false,
			"stateMutability": "nonpayable",
			"type": "function"
		},
		{
			"constant": false,
			"inputs": [],
			"name": "OUT_transf4",
			"outputs": [],
			"payable": false,
			"stateMutability": "nonpayable",
			"type": "function"
		}
	]
}